:020000040800F2
:10000000F8CD0020B90500088D0300088F03000813
:1000100093030008970300089B03000800000000FA
:100020000000000000000000000000009F03000826
:10003000A103000800000000A3030008A5030008B6
:10004000D3050008D3050008D3050008D305000830
:10005000D3050008D3050008D3050008D305000820
:10006000D3050008D3050008D3050008D305000810
:10007000D3050008D3050008D3050008D305000800
:10008000D3050008D3050008D3050008D3050008F0
:10009000D3050008D3050008D3050008D3050008E0
:1000A000D3050008D3050008D3050008D3050008D0
:1000B000D3050008D3050008D3050008D3050008C0
:1000C000D3050008D3050008D3050008D3050008B0
:1000D000D30500080B200008D3050008D30500084D
:1000E000D3050008D3050008D3050008D305000890
:1000F000D3050008D3050008D3050008D305000880
:10010000D3050008D3050008D3050008D30500086F
:10011000D3050008D3050008D3050008D30500085F
:10012000D3050008D3050008D3050008D30500084F
:10013000D3050008D3050008D3050008D30500083F
:10014000D3050008D3050008D3050008D30500082F
:10015000D3050008D3050008D3050008D30500081F
:10016000D3050008D3050008D3050008D30500080F
:10017000D3050008D3050008D3050008D3050008FF
:10018000D3050008D305000800F002F800F041F89C
:100190000AA090E8000C82448344AAF10107DA45E2
:1001A00001D100F036F8AFF2090EBAE80F0013F0F3
:1001B000010F18BFFB1A43F0010318470C38010068
:1001C0002C380100103A24BF78C878C1FAD85207F9
:1001D00024BF30C830C144BF04680C6070470000C1
:1001E0000023002400250026103A28BF78C1FBD840
:1001F000520728BF30C148BF0B607047782908F00C
:100200000780002070471FB509F03FFB1FBD10B5E8
:1002100010BD08F0C7F81146FFF7F5FF00F008F829
:1002200008F0E5F803B4FFF7F2FF03BC01F08EFE1F
:100230002DED0C8B86B006F0DBFD012300221903A7
:1002400001A807F051FE89E0002421E0002006F01B
:100250009DFD00EE100AB8EE400ADFED410A20EEE7
:10026000200ADFED400A80EE201A3F4901EBC4006E
:1002700080ED001A9FED3D0A012000EB440001EBE8
:10028000800080ED000A072001F0F8FD601C84B2B8
:10029000B4F5805FDADB002447E000EE104AB8EEE8
:1002A000400ADFED330A20EE200ADFED320A80EE4D
:1002B000201A11EE105A284609F076FA41EC1D0B6F
:1002C000B0EE4D0AF0EE6D0A08F0B2F8B0EE40CA9A
:1002D000F0EE60CA9FED280B53EC102B51EC1C0B79
:1002E00009F06CF941EC1B0B9FED250B53EC102B27
:1002F00009F030F841EC190B1B4A02EBC40090EDF9
:10030000000A10EE101A084609F04EFA41EC1A0BDA
:1003100053EC192B09F01EF841EC180B08F018FDEE
:10032000114A42F83400601C84B2B4F5805FB4DB3B
:100330000D4901A807F0BAFD4FF4805212490A484E
:1003400007F00AFA06F0D0FD07F06EF94FF4FA70E4
:1003500001F0DCFD4FF6FF7002F02AFD74E70000AB
:1003600000404E4500008045400000200000000095
:10037000DB0FC94000F07F45000000000000F03FA7
:10038000000000000000E03F40800020704700BFF8
:10039000FEE700BFFEE700BFFEE700BFFEE77047D5
:1003A00070477047704700000CB500200190009026
:1003B0007648006840F480307449086000BF734894
:1003C000006800F4003000900198401C01900098F3
:1003D00018B90198B0F5A04FF1D16C48006800F44D
:1003E000003010B10120009001E000200090009842
:1003F000012846D165484030006840F0805063498C
:10040000403108606248006840F44040604908603C
:100410005E48083000685D49083108600846006899
:1004200040F4004008600846006840F4A0500860AE
:100430005848091F0860081F006840F08070091FB5
:10044000086000BF5148006800F000700028F9D033
:1004500040F20570504908604C480830006820F0B0
:1004600003004A49083108600846006840F002006D
:10047000086000BF45480830006800F00C000828FC
:10048000F8D10CBD10B54548006840F470004349F0
:1004900008603E48006840F001003C4908600020C8
:1004A0003A4908310860394800683D4908403749F1
:1004B00008603C48091D0860081F006820F480207F
:1004C000091F0860002031490C310860FFF76CFFFC
:1004D0004FF0006031498039086010BD70B50020D0
:1004E0000022022300240221284D08352D6805F042
:1004F0000C0020B1042806D0082834D107E02A4D8A
:100500002A4E356033E02A4D284E35602FE01F4DCE
:100510002D1D2D68C5F380541C4D2D1D2D6805F033
:100520003F0154B1224DB5FBF1F5184E361D36682A
:10053000C6F3881605FB06F209E01B4DB5FBF1F585
:10054000124E361D3668C6F3881605FB06F20F4DAF
:100550002D1D2D68C5F301456D1C6B00B2FBF3F535
:10056000124E356003E0104D104E356000BF00BFE5
:10057000064D08352D68C5F303150E4E705D0B4D05
:100580002D68C540094E356070BD0000003802403E
:100590000070004008544007003C024088ED00E035
:1005A000FFFFF6FE103000240024F40004000020B9
:1005B00000127A00080000200948804709480047D7
:1005C000FEE7FEE7FEE7FEE7FEE7FEE7FEE7FEE703
:1005D000FEE7FEE704480549054A064B7047000060
:1005E0008504000889010008F8C70020F8CD002024
:1005F000F8C90020F8C9002032490143324A11608D
:10060000704770B5002100230F22C4781CB32E4C14
:10061000246804F4E064C4F5E064C4F30721C1F184
:100620000404E3B20A4144789C40E1B28478144067
:1006300021430C07210E254C05786155047804F000
:100640001F050124AC4005786D11AD0005F1E025D2
:10065000C5F8004109E0047804F01F050124AC400E
:100660001B4D0678761145F8264070BD194A0A40A0
:100670000243154B1B1F1A60704739B1124A121DF5
:1006800012680243104B1B1D1A6006E00E4A121D31
:10069000126882430C4B1B1D1A607047042808D156
:1006A0004FF0E021096941F004014FF0E0221161AF
:1006B00007E04FF0E021096921F004014FF0E0224A
:1006C000116170470000FA050CED00E000E400E065
:1006D00080E100E080FFFF1F10B50121080201F05A
:1006E000E4F800214FF4807001F0DFF810BD30B560
:1006F0000246002000235068F84C20400D790C6819
:1007000044EA0524204350609068F54C2040D1E92C
:1007100003542C438D682C434D7944EA450420430F
:100720009060D06A20F470000C7D641EE4B2234314
:1007300040EA0350D06230BD002101600171417177
:100740008160C16001610121017570470021E54AA6
:100750001168E54A1140D0E900231A4383681A431F
:10076000C3681A431143E14AC2F8041370470021D9
:10077000016041608160C160704721B1826842F0D0
:100780000102826003E0826822F001028260704709
:100790000A4600214168D64B194011434160704719
:1007A0004162826270470A460021416821F01F01C0
:1007B00011434160704738B1CA49096841F40001EA
:1007C000CA4AC2F8041306E0C649096821F40001C8
:1007D000C64AC2F80413704738B1C249096841F4E7
:1007E0008001C24AC2F8041306E0BE49096821F438
:1007F0008001BE4AC2F804137047F0B504460D46A6
:1008000000200021092D11DDE068A5F10A0606EBA4
:100810004607072606FA07F18843A5F10A0606EB04
:10082000460603FA06F10843E0600CE0206905EB98
:100830004507072606FA07F1884305EB450603FA44
:1008400006F108432061072A0FDA606B561E06EB9B
:1008500086071F2606FA07F18843561E06EB860612
:1008600005FA06F10843606322E00D2A0FDA206BD7
:10087000D61F06EB86071F2606FA07F18843D61F08
:1008800006EB860605FA06F10843206310E0E06AED
:10089000A2F10D0606EB86071F2606FA07F188432C
:1008A000A2F10D0606EB860605FA06F10843E062A2
:1008B000F0BD816841F080418160704701460020B1
:1008C0008A6802F080420AB1012000E000207047EF
:1008D00021B1826842F48062826003E0826822F47F
:1008E00080628260704721B1826842F002028260B9
:1008F00003E0826822F002028260704710B50A4667
:1009000000210023416821F46041531E41EA433134
:10091000416010BD21B1426842F40062426003E0D0
:10092000426822F40062426070470146C86C80B29F
:1009300070476C48001D0068704721B1826842F41E
:100940008072826003E0826822F480728260704765
:1009500021B1826842F40072826003E0826822F46E
:1009600000728260704738B15E49096841F40051F5
:100970005E4AC2F8041306E05A49096821F400519E
:100980005A4AC2F804137047F0B5044615460020D1
:1009900000220026092911DDE068A1F10A0707EB12
:1009A000470C072707FA0CF29043A1F10A0707EB5F
:1009B000470703FA07F21043E0600CE0206901EBFF
:1009C000410C072707FA0CF2904301EB410703FAA9
:1009D00007F210432061A06BC0F30156EF1C06F133
:1009E000010CA7EB0C0707EB870C1F2707FA0CF28B
:1009F0009043EF1C06F1010CA7EB0C0707EB8707F0
:100A000001FA07F21043A063F0BD10B50A460021B9
:100A10000023816B21F44011531E41EA035181638D
:100A200010BD08B5002300930090009B0B44009379
:100A3000009B1A6008BD0A460021816821F47021DC
:100A40001143816070470A460021816821F44011FA
:100A5000114381607047816841F480018160704773
:100A6000014600208A6802F480020AB1012000E0F9
:100A70000020704721B1426842F48062426003E086
:100A8000426822F480624260704721B1426842F4B9
:100A90008052426003E0426822F480524260704714
:100AA00008B5024600200090009201F12800009B4A
:100AB000184400900098006880B208BD10B50B463D
:100AC0000021D9B2012404FA01F11AB144680C439F
:100AD000446002E044688C43446010BDFFFEFFFCAC
:100AE000FDF7FFC004230140E030FCFF002001407F
:100AF000FFFD3FFF0246002013680B400BB10120B1
:100B000000E000207047CA430260704770B502469B
:100B10000020002300240B12556801268E4005EAB0
:100B2000060415681D4015B10CB1012000E000203D
:100B300070BD00220A12D3430360704730B943F2FC
:100B4000DB028100A1F1C0410A6005E043F2D2025C
:100B50008100A1F1C0410A606FF07042411C890020
:100B6000A1F1C0410A608100A1F1C041C1F8042196
:100B70007047D0E901121143C26811430269114361
:100B80004269114382691143C2691143026A1143E8
:100B9000426A1143826A1143C26A1143026B1143D4
:100BA00002689200A2F1C0421160816808290BD14D
:100BB00001688900A1F1C041096841F04002016863
:100BC0008900A1F1C0410A60416B0968426B52681B
:100BD00041EA0211426B926841EA0221426B92891A
:100BE00041EA0241426B128A41EA0251426B127D94
:100BF00041EA0261426B926911430268521C920001
:100C0000A2F1C0421160C16AB1F5804F1BD1816B66
:100C10000968826B526841EA0211826B926841EA6C
:100C20000221826B128A41EA0251826B127D41EAF3
:100C30000261826B9269114302689200A2F1C04284
:100C4000C2F8041107E06FF0704201688900A1F159
:100C5000C041C1F8042170470021016002214160B8
:100C600000218160C160016141618161C1610162F6
:100C70004FF480514162490081620021C1620163E9
:100C8000F84941638163704751B18200A2F1C042CB
:100C9000126842F001038200A2F1C042136009E031
:100CA0008200A2F1C0421268EF4B1A408300A3F108
:100CB000C0431A60704710280AD118214FF0204213
:100CC0001166402151664FF0FC319166D16610E00B
:100CD0001821E64A116040214FF02042C2F88410EA
:100CE0004FF0FC31E14A083211604FF02042C2F867
:100CF0008C10704730B5002100220023446844F076
:100D0000080485682C43C5682C4305692C43456954
:100D100044EA4524856944EA4531C4692468C569C3
:100D20006D6844EA0524C5692D8944EA0544C5690E
:100D30002D7B44EA0562046A2468056A6D6844EA0A
:100D40000524056A2D8944EA0544056A2D7B44EA99
:100D500005630468102C05D14FF020442166A2667B
:100D6000E36608E0C14C21604FF02044C4F88820BD
:100D7000BE4C0C34236030BD102101600021416065
:100D80008160C160016141618161FC21C2691160C2
:100D9000C2695160C2699160C269D160026A116022
:100DA000026A5160026A9160026AD160704799B12B
:100DB000102808D14FF02042126E42F004024FF08A
:100DC00020431A661DE0A94A126842F004024FF05F
:100DD0002043C3F8802014E0102809D14FF02042AE
:100DE000126EA14BDB1E1A404FF020431A6608E03A
:100DF0009E4A12689C4BDB1E1A404FF02043C3F8FA
:100E00008020704799B1102808D14FF02042126E0F
:100E100042F040024FF020431A661DE0934A1268E8
:100E200042F040024FF02043C3F8802014E0102825
:100E300009D14FF02042126E8B4B3F3B1A404FF0CE
:100E400020431A6608E0894A1268874B3F3B1A40E4
:100E50004FF02043C3F8802070470146002010293E
:100E600003D14FF02042506F02E0804A14321068E4
:100E7000704718207D492031086000200906C1F81C
:100E8000A4004FF0FC30794928310860091D086042
:100E9000091D08607047016841F01001426841EA8D
:100EA0004221826841EA4231704A20321160C168B1
:100EB0000968C268526841EA0221C268128941EA9F
:100EC0000241C268127B41EA0261684A283211601D
:100ED000016909680269526841EA022102691289BE
:100EE00041EA02410269127B41EA02615F4A2C3207
:100EF0001160416909684269526841EA0221426908
:100F0000128941EA02414269127B41EA02614FF0D3
:100F10002042C2F8B010704700210160416081603A
:100F2000FC21C2681160C2685160C2689160C268E9
:100F3000D1600269116002695160026991600269C1
:100F4000D1604269116042695160426991604269B1
:100F5000D160704748B145492031096841F004012A
:100F60004FF02042C2F8A01009E040492031096842
:100F70003D4AD21E11404FF02042C2F8A0107047E7
:100F800010B5F2B1102807D14FF020435B6E0B4330
:100F90004FF02044636632E0B0F5807F08D1334BD8
:100FA0001B1D1B680B434FF02044C4F8843026E01F
:100FB0002E4B24331B680B434FF02044C4F8A4305D
:100FC0001DE0102807D14FF020435B6E8B434FF09C
:100FD0002044636613E0B0F5807F08D1234B1B1DCE
:100FE0001B688B434FF02044C4F8843007E01F4B4C
:100FF00024331B688B434FF02044C4F8A43010BD49
:1010000010B5024600200023102A03D14FF02044DF
:10101000636E09E0B2F5807F03D1144C241D236870
:1010200002E0124C2434236803EA01040CB10120CD
:1010300000E0002010BD102807D14FF02042526E72
:101040008A434FF020435A6619E0B0F5807F0FD1F4
:10105000064A121D12688A434FF02043C3F88420C9
:101060000DE00000A0980008FEFF0F00800000A027
:10107000234A12688A434FF02043C3F8A4207047E4
:1010800070B502460020002300240025102A03D159
:101090004FF02046736E08E0B2F5807F03D1184E02
:1010A000203E336801E0164E336803EA010403EA88
:1010B000D10514B10DB1012000E0002070BD102851
:1010C00008D14FF02042526E22EAD1024FF0204365
:1010D0005A6614E0B0F5807F09D1094A203A1268B7
:1010E00022EAD1024FF02043C3F8842007E0044AEB
:1010F000126822EAD1024FF02043C3F8A4207047BF
:10110000A40000A010B504469848844208D10121EB
:10111000084600F086FB0021012000F082FB76E00B
:101120009348844208D10121022000F07AFB00217B
:10113000022000F076FB6AE08E48844208D101214B
:10114000042000F06EFB0021042000F06AFB5EE04A
:101150008948844208D10121082000F062FB002167
:10116000082000F05EFB52E08448844208D101214F
:10117000102000F056FB0021102000F052FB46E04A
:101180007F48844208D10121202000F04AFB002141
:10119000202000F046FB3AE07A48844208D1012141
:1011A000402000F03EFB0021402000F03AFB2EE002
:1011B0007548844208D10121802000F032FB0021D3
:1011C000802000F02EFB22E07048844208D10121EB
:1011D000801500F026FB0021A01500F022FB16E090
:1011E0006B48844208D10121401500F01AFB002110
:1011F000601500F016FB0AE06648844207D1012121
:10120000001500F00EFB0021201500F00AFB10BDB8
:10121000F0B50A4600210023002400BF3DE001256F
:1012200005FA01F3156805EA03049C4234D1056808
:101230004F000326BE40B543056015794E00B5400A
:101240000668354305601579012D02D01579022D08
:1012500016D185684F000326BE40B5438560557999
:101260004E00B540866835438560456801268E404E
:10127000B5434560456896798E40B6B235434560C2
:10128000C5684F000326BE40B543C560D5794E0002
:10129000B540C6683543C560491C1029BFD3F0BDB1
:1012A0004FF6FF7101600021017141718171C171BF
:1012B000704708B54FF480320092009A0A430092BA
:1012C000009AC261C161009AC261C2690092C2699A
:1012D000009208BD0246002013690B400BB10120AB
:1012E00000E0002070470146086980B2704702465E
:1012F000002053690B400BB1012000E00020704733
:101300000146486980B27047018370474183704746
:101310000AB1018300E0418370474161704742692F
:101320004A4042617047F0B5002300244D07ED0E9E
:1013300002FA05F3CE1000F1200555F826504E07AD
:10134000F70E0F26BE40B543CF1000F1200646F839
:101350002750CE1000F1200555F8265045EA030429
:10136000CE1000F1200545F82640F0BD00000240F7
:101370000004024000080240000C0240001002403D
:101380000014024000180240001C024000200240ED
:101390000024024000280240F948006840F00100A3
:1013A000F74908600020F64908310860F4480068F1
:1013B000F4490840F2490860F348091D0860F34801
:1013C000EF4984310860F0481038091D0860EC4886
:1013D000006820F48020EA4908600020E8490C31C8
:1013E0000860E7498C31086070470021E44A921C8C
:1013F000117011460870704710B501460022002395
:1014000000204A11012A02D1DD4C236808E0022A9B
:1014100003D1DB4C7034236802E0D94C7434236868
:1014200001F01F02012494401C400CB1012000E097
:10143000002010BD38B5002000900024002500BF1A
:101440003120FFF7D9FF05460098401C0090009816
:10145000B0F5A04F01D0002DF2D03120FFF7CCFF26
:1014600008B1012400E00024204638BD01460020D8
:10147000C34A106820F0F80040EAC10010607047CD
:10148000C349086070470021BD4A70321170117065
:10149000012802D004280AD104E00121B84A7032A0
:1014A000117005E00521B64A7032117000E000BFEE
:1014B00000BF7047B7490860704770B5049C41EAA7
:1014C00082150126C6EB530645EA0645054345EA63
:1014D0000465AB4E361D356070BDAD49086670477A
:1014E000820142EA0172A64B84331A607047A84910
:1014F0008866704710B5830143EA016343EA0273CB
:101500009F4C8834236010BDA14908677047A049EB
:10151000C864704702460020994B0833186820F0D1
:10152000EC6042EA01031843954B0833186070479A
:1015300002460020924B0833186820F0784042EAB7
:10154000010318438E4B0833186070470146002092
:101550008B4A0832106820F003000843106070477F
:1015600087480830006800F00C00704701460020F2
:10157000834A0832106820F0F0000843106070477A
:10158000014600207E4A0832106820F4E0500843EB
:101590001060704701460020794A0832106820F434
:1015A000604040EAC10010607047F0B500210022A1
:1015B0000024022500260223714F08373F6807F0F8
:1015C0000C0121B1042905D0082937D105E0724F5B
:1015D000076036E0714F076033E0694F3F1D3F6899
:1015E000C7F38056664F3F1D3F6807F03F036EB15B
:1015F0006A4FB7FBF3F7DFF888C10CF1040CDCF895
:1016000000C0CCF3881C07FB0CF40CE0624FB7FB66
:10161000F3F7DFF86CC10CF1040CDCF800C0CCF37C
:10162000881C07FB0CF4564F3F1D3F68C7F301476A
:101630007F1C7D00B4FBF5F7076002E0564F0760A2
:1016400000BF00BF4E4F08373F6807F0F00109099F
:10165000534F7A5C0768D7404760494F08373F6867
:1016600007F4E051890A4E4F7A5C4768D74087609B
:10167000434F08373F6807F46041490B484F7A5C95
:101680004768D740C760F0BD002100F44072B2F552
:10169000407F0AD13A4A0832116821F4F811414AD0
:1016A00002401143364A08321160354A70321268DE
:1016B000C0F30B031A43324B70331A60704735493D
:1016C00044390860704733494039086070473649EB
:1016D0000860704701460020294A8C32106820F0CB
:1016E0001F004A1E1043264A8C3210607047014684
:1016F0000020234A8C32106820F4F8504A1E40EA39
:1017000002201F4A8C3210607047014600201C4A9C
:101710008C32106820F44010084310607047014676
:101720000020174A8C32106820F4400008431060F3
:10173000704701460020124A8C32106820F4403075
:1017400008431060704719490860704739B10C4A66
:101750003032126802430A4B30331A6006E0084AFE
:10176000303212688243064B30331A607047F9B149
:10177000034A343212680243014B34331A601CE0CE
:1017800000380240FFFFF6EA10300024003000204D
:1017900000004742800E47420024F40000127A0005
:1017A00018000020FFFCFF0F5C014742E011474298
:1017B0008F4A126882438E4B1A60704739B18C4A47
:1017C000121D126802438A4B1B1D1A6006E0884AEC
:1017D000121D12688243864B1B1D1A60704739B177
:1017E000834A0C3212680243814B0C331A6006E0C4
:1017F0007F4A0C32126882437D4B0C331A6070476B
:1018000039B17B4A103212680243794B10331A60A7
:1018100006E0774A103212688243754B10331A6023
:10182000704739B1724A243A12680243704B243B24
:101830001A6006E06E4A243A126882436C4B243BDD
:101840001A60704739B16A4A203A12680243684BFD
:10185000203B1A6006E0664A203A12688243644BD5
:10186000203B1A60704739B1614A1C3A1268024342
:101870005F4B1C3B1A6006E05D4A1C3A12688243CB
:101880005B4B1C3B1A60704739B1594A143A1268D5
:101890000243574B143B1A6006E0554A143A12684B
:1018A0008243534B143B1A60704739B1504A103A87
:1018B000126802434E4B103B1A6006E04C4A103A45
:1018C000126882434A4B103B1A60704739B1484A4C
:1018D0001C3212680243464B1C331A6006E0444A2D
:1018E0001C3212688243424B1C331A60704739B174
:1018F0003F4A2032126802433D4B20331A6006E013
:101900003B4A203212688243394B20331A607047B9
:1019100039B1374A243212680243354B24331A60F6
:1019200006E0334A243212688243314B24331A6072
:10193000704739B12E4A2C32126802432C4B2C339B
:101940001A6006E02A4A2C3212688243284B2C3354
:101950001A60704739B1264A303212680243244B6C
:1019600030331A6006E0224A303212688243204B3C
:1019700030331A607047012808D11D493C3109688D
:1019800041F008011A4A3C32116007E018493C3125
:10199000096821F00801164A3C321160704739B1DC
:1019A000134A273A12780243114B273B1A7006E07C
:1019B0000F4A273A127882430D4B273B1A70704723
:1019C0000B484030006840F08070094940310860A1
:1019D000704701460020064A283A12680A400AB1B8
:1019E000012000E000207047014926390870704747
:1019F0003438024010B50446FA48844208D1012127
:101A00001020FFF752FF00211020FFF74EFF57E094
:101A1000F548844209D101214804FFF735FF002130
:101A20004FF40030FFF730FF4AE0F048844209D11C
:101A300001218804FFF728FF00214FF48020FFF7E1
:101A400023FF3DE0EA48844209D10121C804FFF7A1
:101A50001BFF00214FF40020FFF716FF30E0E548A0
:101A6000844209D101210805FFF70EFF00214FF440
:101A70008010FFF709FF23E0DF48844208D10121ED
:101A80002020FFF712FF00212020FFF70EFF17E0B4
:101A9000DA48844209D101218807FFF7F5FE0021C9
:101AA0004FF08040FFF7F0FE0AE0D548844207D1AE
:101AB00001214005FFF7E8FE00216005FFF7E4FE85
:101AC00010BD2DE9FF4705460E460024A14600BF84
:101AD000A046B08900B100BF2C8A24F44054F0889D
:101AE00004432C82AC8941F20C608443B088318974
:101AF0000843718908430443AC81AC8A24F44074E0
:101B0000B0890443AC826846FFF74FFDB548854273
:101B100002D0B948854202D1DDF80C9001E0DDF831
:101B20000890A88900F4004040B109EBC90000EB1F
:101B3000091031684900B0FBF1F707E009EBC90073
:101B400000EB091031688900B0FBF1F76420B7FBA6
:101B5000F0F004012009642101FB1078A88900F449
:101B6000004040B1322000EBC800B0FBF1F000F0C3
:101B70000700044308E0322000EB08106421B0FBAA
:101B8000F1F000F00F0004432C81BDE8FF874FF413
:101B90001651016000218180C18001810C214181A9
:101BA00000218181704710B502460020108A20F480
:101BB00070600B884C8823438C882343CC88234354
:101BC0001843108210BD0021018041808180C180B6
:101BD000704721B1828942F40052828104E08289F7
:101BE0004DF6FF731A4082817047028B02F47F42E8
:101BF0000283028B0A430283704721B1828942F437
:101C00000042828103E08289C2F30E028281704722
:101C100021B1828A42F40062828204E0828A4FF219
:101C2000FF731A4082827047C1F3080282807047B6
:101C300001468888C0F308007047028A4FF6F073A7
:101C40001A400282028A0A430282704721B18289C5
:101C500042F00202828104E082894FF6FD731A404D
:101C60008281704782894FF2FF731A408281828994
:101C70000A4382817047028A4FF6DF731A4002825C
:101C8000028A0A430282704721B1028A42F48042EA
:101C9000028204E0028A4BF6FF731A400282704708
:101CA000818941F001018181704721B1828A42F02E
:101CB0000802828204E0828A4FF6F7731A40828219
:101CC0007047028BD2B20283028B42EA0122028366
:101CD000704721B1828A42F02002828204E0828A27
:101CE0004FF6DF731A408282704721B1828A42F038
:101CF0001002828204E0828A4FF6EF731A408282D9
:101D00007047828A4FF6FB731A408282828A0A43A6
:101D10008282704721B1828A42F00202828204E00C
:101D2000828A4FF6FD731A40828270471AB1838A05
:101D30000B43838202E0838A8B4383827047F0B532
:101D40000346002400260025002040F66A17B94209
:101D500000D100BF1846C1F3421401F01F0601274D
:101D600007FA06F5012C01D10C3004E0022C01D158
:101D7000103000E014301AB107682F43076002E00A
:101D80000768AF430760F0BD02460020B1F5007F51
:101D900000D100BF13880B400BB1012000E00020F0
:101DA000704701F40072B2F5007F00D100BFCA4352
:101DB0000280704770B502460024002300250020F1
:101DC00040F66A16B14200D100BFC1F3421501F0DE
:101DD0001F03012606FA03F3012D13D19689334020
:101DE00017E000000010014000440040004800409F
:101DF000004C0040005000400014014000780040BA
:101E0000007C0040022D02D1168A334001E0968A00
:101E100033400C12012606FA04F41688344013B13C
:101E20000CB1012000E0002070BD10B5002200239D
:101E300040F66A14A14200D100BF0A120124944066
:101E4000A3B2DC43048010BD10B504466FF004005B
:101E5000FEF724FCE11704EB5171C1F3C701394AC5
:101E600011701046007800EB4001C1EBC0104FF636
:101E7000FF7101EAC0003449088010BD0146314AB3
:101E800012784A434FF0E0235A6100229A611A46C1
:101E9000126942F001021A6100BF4FF0E02210699E
:101EA00000F001021AB100F48032002AF5D04FF0A0
:101EB000E022126922F001024FF0E0231A610022B1
:101EC0009A6170470146204A12884A434FF0E02346
:101ED0005A6100229A611A46126942F001021A619F
:101EE00000BF4FF0E022106900F001021AB100F4C7
:101EF0008032002AF5D04FF0E022126922F0010270
:101F00004FF0E0231A6100229A61704770B50446D1
:101F10004FF4077094FBF0F0C6B24FF4077094FBD7
:101F2000F0F100FB114085B205E04FF40770FFF7B8
:101F3000C9FF701EC6B2002EF7D115B12846FFF7B3
:101F4000C1FF70BD280000202A00002000BF70479C
:101F500000BF4C4A128802F04002002AF9D0C2B2F7
:101F6000484B9A80704710B588B004460121084656
:101F7000FFF7ECFB01211020FFF742FC07220921AB
:101F80004148FFF7D0F907220A213F48FFF7CBF974
:101F90004FF4C060069002208DF81C008DF81D00E3
:101FA00000208DF81E0001208DF81F0006A936487C
:101FB000FFF72EF902940020ADF80C00ADF80E00EA
:101FC000ADF81000ADF814000C20ADF8120002A915
:101FD0002C48FFF776FD01212A48FFF7FAFD012280
:101FE00040F225512748FFF7AAFE25208DF804006E
:101FF00003208DF805008DF8060001208DF80700FC
:1020000001A8FEF7FEFA08B010BD10B540F2255148
:102010001C48FFF7CFFE10B31A48FFF709FEC4B201
:102020001A48008800F40040C8B91848008800F435
:10203000804060B10A2C03D000201449088020E0C1
:102040001248008840F400401049088019E00D2C27
:1020500006D10E48008840F480400C49088010E00A
:102060000A480088C0F30D0009490C54074800884D
:10207000401C0649088008460088C72801DD00206A
:10208000088010BD00100140000002403000002018
:102090007CC0002001B5BDF800000090BDF8000034
:1020A000F849088008BD01B5BDF800000090BDF8F2
:1020B0000000F449891C088008BD08B5F148801C5F
:1020C00000880090BDF8000008BDEE4A10804FF077
:1020D000D842A2F80012704710B504462046FFF718
:1020E000D9FF0520FFF7CAFEFFF7E7FF10BDE6485E
:1020F0000089E44908807047E249891C08807047DC
:1021000030B5014601F01F04C1F34513CA0AE502C8
:1021100005EB43151544A8B230BD00BF011EA0F168
:102120000102D0B2FAD1704730B504460D46D64808
:10213000808849F24131884205D0D348808845F2F1
:102140001031884214D1D0494889FFF7A3FF2012EB
:10215000FFF7A9FFE0B2FFF7A6FFCB498889FFF799
:1021600099FF2812FFF79FFFE8B2FFF79CFFABE053
:10217000C548808846F6040188421DD1C24880794E
:10218000012804D1C0480088401E001B84B2BE490B
:102190004889FFF77FFF2012FFF785FFE0B2FFF7C6
:1021A00082FFB9498889FFF775FF2812FFF77BFF87
:1021B000E8B2FFF778FF87E0B348808841F6631103
:1021C000884247D1B0488079A8B9AF480088401EFE
:1021D000001B84B2AC494889FFF75CFF0020FFF781
:1021E00062FF0020FFF75FFF2012FFF75CFFE0B205
:1021F000FFF759FF16E0A4494889FFF74BFF20126B
:10220000FFF751FFE0B2FFF74EFF9F490988491ED3
:10221000C1F30F20FFF747FF9B490978491EC8B259
:10222000FFF741FF98498889FFF734FF2812FFF72D
:102230003AFFE8B2FFF737FF93494988491EC1F3D7
:102240000F20FFF730FF90498978491EC8B2FFF789
:102250002AFF39E08C48808845F21051884220D10D
:1022600089494889FFF716FF2012FFF71CFF8649AE
:102270004989491C88B2FFF70DFFE0B2FFF713FF51
:1022800081498889FFF706FF2812FFF70CFF7E4976
:102290008989491C88B2FFF7FDFEE8B2FFF703FF0A
:1022A00012E079488079012804D177480088401EDF
:1022B000001B84B2744948892146FFF706FF724922
:1022C00088892946FFF701FF30BD2DE9F041054619
:1022D0000E4600240027A0466B480088A84203DD74
:1022E00069484088B04202DC0020BDE8F0813146F8
:1022F0002846FFF719FF6448808849F24131884237
:1023000011D06148808846F6040188420BD05E48AF
:10231000808845F21031884205D05B48808841F6BC
:102320006311884203D12E20FFF7B4FE0DE056481A
:10233000808845F21051884204D14FF43850FFF79D
:10234000A9FE02E02220FFF7A5FE4F48808849F24F
:102350002031884202D10220FFF7DFFEFFF7ADFEF9
:1023600004464948808841F66311884201D12046DD
:10237000BBE70220FFF7D1FEFFF79FFE044642486D
:10238000808849F2413188420BD03F48808845F22D
:102390001031884205D03C48808845F2105188426F
:1023A0000AD10220FFF7B9FEFFF787FE8046E7B2A9
:1023B0004FF6FF7000EA07273348808849F225313D
:1023C000884216D03048808844F23551884210D077
:1023D0002D488088091F88420BD02B4880884BF2FB
:1023E0000551884205D0284880884CF20551884222
:1023F00001D1204679E72448808849F2413188425A
:102400000BD02148808845F21031884205D01E4803
:10241000808845F21051884207D1E012C002B912FB
:1024200040EA411040EAE8205FE72046FFF768FEF7
:102430005BE700B51448808849F24131884211D0E9
:102440001148808846F6040188420BD00E488088E7
:1024500045F21031884205D00B48808841F663115F
:10246000884203D12920FFF715FE14E00648808832
:1024700045F21051884209D14FF42450FFF70AFE6B
:1024800009E00000FE01006C44C1002040F273111D
:102490000720FFF71AFE00BD00B5FD48808849F20D
:1024A0004131884211D0FA48808846F604018842BA
:1024B0000BD0F748808845F21031884205D0F448A7
:1024C000808841F66311884203D12820FFF7E2FD9E
:1024D0000EE0EF48808845F21051884204D14FF455
:1024E0002050FFF7D7FD03E000210720FFF7EDFDA7
:1024F00000BDF0B5054600240027E5488079012895
:102500000BD1E348808846F60401884205D0E048B4
:10251000808841F66311884208D1DD488079F0B99E
:10252000DB48808841F66311884218D1082D15D206
:10253000DFE805F00406080A0C0E101206250DE06F
:1025400007250BE0042509E0052507E0012505E046
:10255000002503E0032501E0022500BF00BFCC48B1
:10256000808849F24131884217D0C948808846F6B0
:102570000401884211D0C648808845F21031884253
:102580000BD0C348808845F21051884205D0C0481E
:10259000808841F6631188427ED1082D1CD2DFE885
:1025A00005F00406090C0F12151800BF14E044F0E2
:1025B000800411E044F040040EE044F0C0040BE05D
:1025C00044F0200408E044F0600405E044F0A00476
:1025D00002E044F0E00400BF00BFAD48808845F24F
:1025E0001051884202D14FF4585700E03627A848CE
:1025F000808845F2103188420DD0A548808845F288
:102600001051884207D0A248808841F66311884261
:1026100001D044F008049E48808846F604018842B0
:1026200001D144F0020421463846FFF74EFD984898
:10263000808841F6631188421DD004F0200068B103
:102640009348008892494988884214DA904806885D
:1026500040888F490880084646800CE08C480088F6
:102660008B494988884206DD894806884088884920
:102670000880084646808648808845F21051884286
:1026800054D183494889FFF705FD0020FFF70BFD72
:102690007F494989491C00E077E088B2FFF7FAFCDE
:1026A0000020FFF700FD7A494989891C88B2FFF7AD
:1026B000F1FC77490988491EC1F30F20FFF7F3FCAD
:1026C00073494989C91C88B2FFF7E4FC704909784D
:1026D000491EC8B2FFF7E7FC6D498889FFF7DAFCAD
:1026E0000020FFF7E0FC6A498989491C88B2FFF79E
:1026F000D1FC0020FFF7D7FC65498989891C88B285
:10270000FFF7C8FC62494988491EC1F30F20FFF753
:10271000CAFC5F498989C91C88B2FFF7BBFC5C49C8
:102720008978491EC8B2FFF7BEFC55E05849488970
:10273000FFF7B0FC0020FFF7B6FC0020FFF7B3FC6A
:1027400053490988491EC1F30F20FFF7ACFC5049DB
:102750000978491EC8B2FFF7A6FC4D498889FFF7E2
:1027600099FC0020FFF79FFC0020FFF79CFC4849E4
:102770004988491EC1F30F20FFF795FC4449897829
:10278000491EC8B2FFF78FFC26E0082D1CD2DFE8F7
:1027900005F004070A0D0F12151844F0300413E079
:1027A00044F0100410E044F020040DE000BF0BE002
:1027B00044F0380408E044F0280405E044F018042C
:1027C00002E044F0080400BF00BF032744F4805433
:1027D00021463846FFF779FCF0BD30B504460D467A
:1027E00029462046FFF7A0FCFFF781FC2948008816
:1027F0002949088030BD70B504460D461646244868
:10280000808849F24131884205D02148808845F2CC
:102810001031884214D11E494889FFF73BFC201231
:10282000FFF741FCE0B2FFF73EFC19498889FFF74A
:1028300031FC2812FFF737FCE8B2FFF734FC93E0D5
:102840001348808845F21051884227D110494889A1
:10285000FFF720FC2012FFF726FC0D494989491C8F
:1028600088B2FFF717FCE0B2FFF71DFC0849888922
:10287000FFF710FC2812FFF716FC05498989491C4F
:1028800088B2FFF707FCE8B2FFF70DFC6CE0000030
:1028900044C10020320000200002006CFE48808805
:1028A00041F66311884228D1FB48807920B9FA4863
:1028B0000088401E001B84B2F7494889FFF7EAFBF5
:1028C0002012FFF7F0FBE0B2FFF7EDFB2012FFF75D
:1028D000EAFBE0B2FFF7E7FBEF498889FFF7DAFB95
:1028E0002812FFF7E0FBE8B2FFF7DDFB2812FFF745
:1028F000DAFBE8B2FFF7D7FB36E0E748808846F618
:10290000040188421DD1E4488079012804D1E248BD
:102910000088401E001B84B2DF494889FFF7BAFBDC
:102920002012FFF7C0FBE0B2FFF7BDFBDA49888950
:10293000FFF7B0FB2812FFF7B6FBE8B2FFF7B3FBD7
:1029400012E0D5488079012804D1D3480088401E80
:10295000001B84B2D04948892146FFF7B6FBCE4917
:1029600088892946FFF7B1FBCB480089CB4908800D
:102970004FF0D840A0F8006270BD70B52DED048B0B
:102980000446BE20FFF786FB0520FFF78CFB2046A0
:1029900006F090FC41EC190B9FEDC10B53EC102B92
:1029A00006F0D8FC41EC180B06F040FC85B2284636
:1029B000FFF779FB0120FFF776FBFF20FFF773FBA2
:1029C0000020FFF770FB0020FFF76DFBBDEC048BD0
:1029D00070BD10B50446002C66D1AF498871F02057
:1029E00008804FF4A07048800846808849F2413141
:1029F00088420BD0A848808846F60401884205D05A
:102A0000A548808845F2103188421AD12C20A2496D
:102A100008812A2048812B2088810846808846F634
:102A20000401884205D09C48808845F210318842D4
:102A300006D14FF4A070984908804FF4F070488098
:102A4000A1E09548808845F21051884210D14FF49A
:102A50003050914908814FF4285048814FF42C5050
:102A600088814FF4F07008804FF4487048808AE005
:102A70008948808841F6631188420DD12C2086490F
:102A800008812B2048812A2088814FF4F07008802B
:102A90004FF44870488076E022207F49088120204A
:102AA0004881212088816EE001207B4988714FF4A4
:102AB000A0700880F02048800846808849F24131A3
:102AC000884205D07448808845F21031884207D189
:102AD0002C20714908812A2048812B2088813FE0E1
:102AE0006D48808846F60401884207D12C206A4947
:102AF00008812B2048812A20888131E0664880881F
:102B000045F21051884210D14FF43050624908818B
:102B10004FF4285048814FF42C5088814FF448706E
:102B200008804FF4F07048801AE05B48808841F6D6
:102B3000631188420DD12C20574908812A204881F1
:102B40002B2088814FF4487008804FF4F070488043
:102B500006E02220504908812120488120208881D8
:102B60004D48808846F60401884205D04A4880884E
:102B700045F21031884206D14FF4F0704649088082
:102B80004FF4A07048800020FFF7B3FC10BD2DE982
:102B9000F04F86B004460D469046994604EB080077
:102BA000401E86B205EB0900401E87B23A48808875
:102BB00049F24131884215D03748808845F21031BA
:102BC00088420FD03448808846F60401884209D0F4
:102BD00031488079012826D12F48808841F6631139
:102BE000884220D12C494889FFF754FA2012FFF778
:102BF0005AFAE0B2FFF757FA3012FFF754FAF0B280
:102C0000FFF751FA24498889FFF744FA2812FFF7A1
:102C10004AFAE8B2FFF747FA3812FFF744FAF8B277
:102C2000FFF741FAC1E01C48808841F663118842F1
:102C30003DD119480088A0EB0800001B84B205EBC9
:102C40000900401E1FFA80F913494889FFF722FA4C
:102C50002012FFF728FAE0B2FFF725FA04EB08018B
:102C6000491EC1F30F20FFF71EFA04EB0801491EAD
:102C7000C8B2FFF718FA08498889FFF70BFA28123B
:102C8000FFF711FAE8B2FFF70EFA4FEA2920FFF733
:102C90000AFA09F0FF0007E044C10020FE01006CC1
:102CA0006666666666660440FFF7FDF97DE0FE48ED
:102CB000808845F21051884244D1FB494889FFF78A
:102CC000E9F92012FFF7EFF9F7494989491C88B261
:102CD000FFF7E0F9E0B2FFF7E6F9F3494989891C0B
:102CE00088B2FFF7D7F93012FFF7DDF9EE494989CD
:102CF000C91C88B2FFF7CEF9F0B2FFF7D4F9EA4960
:102D00008889FFF7C7F92812FFF7CDF9E6498989C5
:102D1000491C88B2FFF7BEF9E8B2FFF7C4F9E249EF
:102D20008989891C88B2FFF7B5F93812FFF7BBF91A
:102D3000DD498989C91C88B2FFF7ACF9F8B2FFF701
:102D4000B2F932E0D848807901280ED1AA46BB46B4
:102D5000D5480088801B401E80B20190D248008870
:102D6000001B401E80B2009003E0A246B3460195CE
:102D7000009750200590512004905220039053203A
:102D8000029051460598FFF7A0F959460498FFF7BD
:102D90009CF901990398FFF798F900990298FFF7B9
:102DA00094F929462046FFF7BFF906B0BDE8F08F39
:102DB00070B504460026BC48058840884543BA489B
:102DC000808846F60401884216D1B74880790128E8
:102DD00012D10020B44988712A2048812B20888193
:102DE00000210846FFF7A0F90120AF4988712B2088
:102DF00048812A20888103E000210846FFF794F9E2
:102E0000FFF775F9002602E0A8480480761CAE4260
:102E1000FAD370BD00B5A1B00020209001217A2026
:102E2000FEF794FC01210846FEF7C8FC4FF4005061
:102E30001E9001208DF87C0000208DF87E0002207D
:102E40008DF87D0001208DF87F001EA99848FEF7BF
:102E5000DFF94CF233701E9002208DF87C000020C8
:102E60008DF87E0003208DF87D0001208DF87F0015
:102E70001EA98F48FEF7CCF94FF680701E900220F5
:102E80008DF87C0000208DF87E0003208DF87D00F9
:102E900001208DF87F001EA98648FEF7B9F94FF48E
:102EA00080401E9002208DF87C0000208DF87E006E
:102EB00003208DF87D0001208DF87F001EA97E483B
:102EC000FEF7A6F94FF480501E9002208DF87C008A
:102ED00000208DF87E0003208DF87D0001208DF804
:102EE0007F001EA97548FEF793F90C220021704857
:102EF000FEF719FA0C2201216D48FEF714FA0C2294
:102F000004216B48FEF70FFA0C2205216848FEF7F2
:102F10000AFA0C2208216648FEF705FA0C2209215C
:102F20006348FEF700FA0C220A216148FEF7FBF91C
:102F30000C220E215E48FEF7F6F90C220F215C48A8
:102F4000FEF7F1F90C2207215A48FEF7ECF90C22A2
:102F500008215848FEF7E7F90C2209215548FEF7E9
:102F6000E2F90C220A215348FEF7DDF90C220B216D
:102F70005048FEF7D8F90C2211464E48FEF7D3F917
:102F80000C220D214B48FEF7CEF90C220E214948A8
:102F9000FEF7C9F90C220F214648FEF7C4F90C22AE
:102FA0000E214548FEF7BFF90C2211464348FEF7B3
:102FB000BAF90F200890002009903C200A900020C8
:102FC0000B900C900D900E90092001900020029023
:102FD000082003900020049005900690079006209A
:102FE0000F9000201090119010201290002013904C
:102FF00015901490169017904FF480501890002060
:1030000019904FF480401A9000201B9008A81C9043
:1030100001A81D900FA8FDF7ACFD01210620FDF7CA
:1030200033FE3220FEF772FF01210020FFF74DF83A
:103030003220FEF76BFF0020FFF74EF81A49888018
:1030400008468088FF280ADB084680884FF6FF7113
:10305000884204D014488088B0F5134F7DD1D32026
:10306000FFF718F8FFF729F80F498880FFF725F8D0
:103070000D498880FFF721F80B4988800846808831
:103080004FF6FF7101EA002007498880FFF715F825
:10309000054989880843044988800846808849F2A0
:1030A0004131884259D00BE044C100200002006C3D
:1030B000000C0240001002400014024000180240C0
:1030C000BF20FEF7E7FFFEF7F8FFFE498880FEF716
:1030D000F4FFFC498880FEF7F0FFFA498880FEF78C
:1030E000ECFFF8498880084680884FF6FF7101EAB6
:1030F0000020F4498880FEF7E0FFF2498988084300
:10310000F04988800846808846F6040188427AD0D3
:10311000D420FEF7BFFFFEF7D0FFEA498880FEF714
:10312000CCFFE8498880FEF7C8FFE649888008465A
:1031300080884FF6FF7101EA0020E2498880FEF79F
:10314000BCFFE04989880843DE49888008468088BA
:1031500045F21031884256D000E054E04FF45A4016
:10316000FEF798FFFEF7A9FFD64988804FF45B4031
:10317000FEF790FFFEF7A1FFD249888008468088BD
:103180004FF6FF7101EA0020CE4988804FF45C4081
:10319000FEF780FFFEF791FFCA4989880843C949B5
:1031A000888008468088B0F5004F02D145F2105063
:1031B0008880C448808845F21051884223D0A120DD
:1031C000FEF768FFFEF779FFBE498880FEF775FFBE
:1031D000BC498880084680884FF6FF7101EA0020CC
:1031E000B8498880FEF769FFB64989880843B54920
:1031F00088800846808845F26171884203D141F693
:103200006310B0498880AF48808849F241318842D4
:1032100011D0AC48808845F2103188420BD0A948C3
:10322000808845F21051884205D0A648808841F632
:10323000631188421DD1A448006820F00F004FF0B0
:103240002041C1F81C010846D0F81C0120F4706030
:10325000C1F81C010846D0F81C0140F00300C1F879
:103260001C010846D0F81C0140F40070C1F81C0194
:1032700028E09448808846F60401884205D09148A9
:1032800080884CF2055188421CD18F48006820F09C
:103290000F004FF02041C1F81C010846D0F81C0176
:1032A00020F47060C1F81C010846D0F81C0140F001
:1032B0000A00C1F81C010846D0F81C0140F4406027
:1032C000C1F81C017F48818880A004F061FF7D481F
:1032D000808849F2413188427ED1CF20FEF7DAFE64
:1032E0000020FEF7E0FEC120FEF7DDFE3020FEF7F5
:1032F000DAFEED20FEF7CEFE6420FEF7D4FE0320BA
:10330000FEF7D1FE1220FEF7CEFE8120FEF7CBFEA7
:10331000E820FEF7BFFE8520FEF7C5FE1020FEF771
:10332000C2FE7A20FEF7BFFECB20FEF7B3FE3920A7
:10333000FEF7B9FE2C20FEF7B6FE0020FEF7B3FE26
:103340003420FEF7B0FE0220FEF7ADFEF720FEF7B8
:10335000A1FE2020FEF7A7FEEA20FEF79BFE00203C
:10336000FEF7A1FE0020FEF79EFEC020FEF792FEB3
:103370001B20FEF798FEC120FEF78CFE0120FEF711
:1033800092FEC520FEF786FE3020FEF78CFE302030
:10339000FEF789FEC720FEF77DFEB720FEF783FE0D
:1033A0003620FEF777FE4820FEF77DFE3A20FEF736
:1033B00071FE5520FEF777FEB120FEF76BFE002070
:1033C000FEF771FE1A20FEF76EFEB620FEF762FED3
:1033D0000A20FEF768FE00E0A5E0A220FEF763FEEB
:1033E000F220FEF757FE0020FEF75DFE2620FEF7D6
:1033F00051FE0120FEF757FEE020FEF74BFE0F20A6
:10340000FEF751FE2A20FEF74EFE2820FEF74BFE67
:103410000820FEF748FE0E20FEF745FE0820FEF7C6
:1034200042FE5420FEF73FFEA920FEF73CFE43205B
:10343000FEF739FE0A20FEF736FE0F20FEF733FEB8
:103440000020FEF730FE0020FEF72DFE0020FEF7E4
:103450002AFE0020FEF727FEE120FEF71BFE0020DB
:10346000FEF721FE1520FEF71EFE1720FEF71BFEBD
:103470000720FEF718FE1120FEF715FE0620FEF7C6
:1034800012FE2B20FEF70FFE5620FEF70CFE3C200E
:10349000FEF709FE0520FEF706FE1020FEF703FEEC
:1034A0000F20FEF700FE3F20FEF7FDFD3F20FEF758
:1034B000FAFD0F20FEF7F7FD2B20FEF7EBFD0020B5
:1034C0000CE0000044C100201C0100A0204C43443B
:1034D0002049443A25780D0A00000000FEF7E3FD7C
:1034E0000020FEF7E0FD0120FEF7DDFD3F20FEF7A6
:1034F000DAFD2A20FEF7CEFD0020FEF7D4FD0020E5
:10350000FEF7D1FD0020FEF7CEFDEF20FEF7CBFD4C
:103510001120FEF7BFFD7820FEF7F8FC2920FEF70A
:10352000B9FD03F01DB9FE48808846F604018842C3
:103530007ED11120FEF7AEFD1420FEF7E7FCD0206F
:10354000FEF7A8FD0720FEF7AEFD4220FEF7ABFD1B
:103550001D20FEF7A8FDD120FEF79CFD0020FEF700
:10356000A2FD1A20FEF79FFD0920FEF79CFDD22048
:10357000FEF790FD0120FEF796FD2220FEF793FD59
:10358000C020FEF787FD1020FEF78DFD3B20FEF7E3
:103590008AFD0020FEF787FD0220FEF784FD112042
:1035A000FEF781FDC520FEF775FD0320FEF77BFDCC
:1035B000C820FEF76FFD0020FEF775FD2520FEF701
:1035C00072FD2120FEF76FFD0520FEF76CFD002047
:1035D000FEF769FD0A20FEF766FD6520FEF763FD34
:1035E0002520FEF760FD7720FEF75DFD5020FEF7F9
:1035F0005AFD0F20FEF757FD0020FEF754FDF8207E
:10360000FEF748FD0120FEF74EFDFE20FEF742FDCD
:103610000020FEF748FD0220FEF745FD2020FEF7C2
:1036200039FD3620FEF736FD0820FEF73CFD00E0B0
:103630002AE03A20FEF72EFD5520FEF734FD2B2020
:10364000FEF728FD0020FEF72EFD0020FEF72BFDE3
:103650000120FEF728FD3F20FEF725FD2A20FEF77A
:1036600019FD0020FEF71FFD0020FEF71CFD0120C4
:10367000FEF719FDDF20FEF716FD7820FEF746FC69
:103680002920FEF707FD4CE7A548808845F2103158
:10369000884240F07C87ED20FEF7FCFC0120FEF71D
:1036A00002FDFE20FEF7FFFCEE20FEF7F3FCDE201D
:1036B000FEF7F9FC2120FEF7F6FCF120FEF7EAFC0C
:1036C0000120FEF7F0FCDF20FEF7E4FC1020FEF7FF
:1036D000EAFCC420FEF7DEFC8F20FEF7E4FCC620E7
:1036E000FEF7D8FC0020FEF7DEFCE220FEF7DBFC54
:1036F000E220FEF7D8FCE220FEF7D5FCBF20FEF763
:10370000C9FCAA20FEF7CFFCB020FEF7C3FC0D20B9
:10371000FEF7C9FC0020FEF7C6FC0D20FEF7C3FC37
:103720000020FEF7C0FC1120FEF7BDFC0020FEF7D4
:10373000BAFC1920FEF7B7FC0020FEF7B4FC2120EC
:10374000FEF7B1FC0020FEF7AEFC2D20FEF7ABFC2F
:103750000020FEF7A8FC3D20FEF7A5FC0020FEF7A8
:10376000A2FC5D20FEF79FFC0020FEF79CFC5D2084
:10377000FEF799FC0020FEF796FCB120FEF78AFCCC
:103780008020FEF790FC0020FEF78DFC8B20FEF7DA
:103790008AFC0020FEF787FC9620FEF784FC0020C0
:1037A000FEF781FCB220FEF775FC0020FEF77BFCE3
:1037B0000020FEF778FC0220FEF775FC0020FEF7E3
:1037C00072FC0320FEF76FFC0020FEF76CFCB320B8
:1037D000FEF760FC0020FEF766FC0020FEF763FCAD
:1037E0000020FEF760FC0020FEF75DFC0020FEF7E5
:1037F0005AFC0020FEF757FC0020FEF754FC002086
:10380000FEF751FC0020FEF74EFC0020FEF74BFCBB
:103810000020FEF748FC0020FEF745FC0020FEF7E4
:1038200042FC0020FEF73FFC0020FEF73CFC00209D
:10383000FEF739FC0020FEF736FC0020FEF733FCD3
:103840000020FEF730FC0020FEF72DFC0020FEF7E4
:103850002AFC0020FEF727FC0020FEF724FC0020B5
:10386000FEF721FCB420FEF715FC8B20FEF71BFCB5
:103870000020FEF718FC9620FEF715FC0020FEF74E
:1038800012FCA120FEF70FFC0020FEF70CFCB52077
:10389000FEF700FC0220FEF706FC0020FEF703FC0A
:1038A0000320FEF700FC0020FEF7FDFB0420FEF7DE
:1038B000FAFB0020FEF7F7FBB620FEF7EBFB00203B
:1038C000FEF7F1FB0020FEF7EEFBB720FEF7E2FB70
:1038D0000020FEF7E8FB0020FEF7E5FB3F20FEF7A7
:1038E000E2FB0020FEF7DFFB5E20FEF7DCFB0020A2
:1038F000FEF7D9FB6420FEF7D6FB0020FEF7D3FBD2
:103900008C20FEF7D0FB0020FEF7CDFBAC20FEF7AD
:10391000CAFB0020FEF7C7FBDC20FEF7C4FB01E07A
:1039200044C100200020FEF7BEFB7020FEF7BBFB69
:103930000020FEF7B8FB9020FEF7B5FB0020FEF755
:10394000B2FBEB20FEF7AFFB0020FEF7ACFBDC2068
:10395000FEF7A9FB0020FEF7A6FBB820FEF79AFBB6
:103960000020FEF7A0FB0020FEF79DFB0020FEF7E5
:103970009AFB0020FEF797FB0020FEF794FB002047
:10398000FEF791FB0020FEF78EFB0020FEF78BFB7D
:10399000BA20FEF77FFB2420FEF785FB0020FEF710
:1039A00082FB0020FEF77FFB0020FEF77CFBC1209E
:1039B000FEF770FB2020FEF776FB0020FEF773FB7E
:1039C0005420FEF770FB0020FEF76DFBFF20FEF792
:1039D0006AFB0020FEF767FBC220FEF75BFB0A20B4
:1039E000FEF761FB0020FEF75EFB0420FEF75BFBA9
:1039F0000020FEF758FBC320FEF74CFB3C20FEF7EF
:103A000052FB0020FEF74FFB3A20FEF74CFB002054
:103A1000FEF749FB3920FEF746FB0020FEF743FB8B
:103A20003720FEF740FB0020FEF73DFB3C20FEF771
:103A30003AFB0020FEF737FB3620FEF734FB002070
:103A4000FEF731FB3220FEF72EFB0020FEF72BFBAA
:103A50002F20FEF728FB0020FEF725FB2C20FEF789
:103A600022FB0020FEF71FFB2920FEF71CFB002095
:103A7000FEF719FB2620FEF716FB0020FEF713FBCE
:103A80002420FEF710FB0020FEF70DFB2420FEF79C
:103A90000AFB0020FEF707FB2320FEF704FB0020B3
:103AA000FEF701FB3C20FEF7FEFA0020FEF7FBFAD2
:103AB0003620FEF7F8FA0020FEF7F5FA3220FEF77E
:103AC000F2FA0020FEF7EFFA2F20FEF7ECFA0020C2
:103AD000FEF7E9FA2C20FEF7E6FA0020FEF7E3FAFB
:103AE0002920FEF7E0FA0020FEF7DDFA2620FEF797
:103AF000DAFA0020FEF7D7FA2420FEF7D4FA0020E5
:103B0000FEF7D1FA2420FEF7CEFA0020FEF7CBFA1A
:103B10002320FEF7C8FA0020FEF7C5FAC420FEF7FE
:103B2000B9FA6220FEF7BFFA0020FEF7BCFA0520C2
:103B3000FEF7B9FA0020FEF7B6FA8420FEF7B3FAD2
:103B40000020FEF7B0FAF020FEF7ADFA0020FEF7F5
:103B5000AAFA1820FEF7A7FA0020FEF7A4FAA4207C
:103B6000FEF7A1FA0020FEF79EFA1820FEF79BFA56
:103B70000020FEF798FA5020FEF795FA0020FEF795
:103B800092FA0C20FEF78FFA0020FEF78CFA17202D
:103B9000FEF789FA0020FEF786FA9520FEF783FAF1
:103BA0000020FEF780FAF320FEF77DFA0020FEF7F2
:103BB0007AFAE620FEF777FA0020FEF774FAC520BD
:103BC000FEF768FA3220FEF76EFA0020FEF76BFA75
:103BD0004420FEF768FA0020FEF765FA6520FEF73C
:103BE00062FA0020FEF75FFA7620FEF75CFA00200A
:103BF000FEF759FA8820FEF756FA0020FEF753FA2E
:103C0000C620FEF747FA2020FEF74DFA0020FEF707
:103C10004AFA1720FEF747FA0020FEF744FA01207F
:103C2000FEF741FA0020FEF73EFAC720FEF732FA0F
:103C30000020FEF738FA0020FEF735FA0020FEF7E4
:103C400032FA0020FEF72FFAC820FEF723FA0020F0
:103C5000FEF729FA0020FEF726FA0020FEF723FAE5
:103C60000020FEF720FAC920FEF714FA0020FEF724
:103C70001AFA0020FEF717FA0020FEF714FA0020C7
:103C8000FEF711FA0020FEF70EFA0020FEF70BFAFD
:103C90000020FEF708FA0020FEF705FA0020FEF7E4
:103CA00002FA0020FEF7FFF90020FEF7FCF90020E1
:103CB000FEF7F9F90020FEF7F6F90020FEF7F3F918
:103CC0000020FEF7F0F90020FEF7EDF9E020FEF706
:103CD000E1F91620FEF7E7F90020FEF7E4F91C20D1
:103CE000FEF7E1F90020FEF7DEF92120FEF7DBF90F
:103CF0000020FEF7D8F93620FEF7D5F90020FEF7B0
:103D0000D2F94620FEF7CFF90020FEF7CCF9522079
:103D1000FEF7C9F90020FEF7C6F96420FEF7C3F9E3
:103D20000020FEF7C0F97A20FEF7BDF90020FEF76B
:103D3000BAF98B20FEF7B7F90020FEF7B4F9992005
:103D4000FEF7B1F90020FEF7AEF9A820FEF7ABF9B7
:103D50000020FEF7A8F9B920FEF7A5F90020FEF72C
:103D6000A2F9C420FEF79FF90020FEF79CF9CA20B3
:103D7000FEF799F90020FEF796F9D220FEF793F9A5
:103D80000020FEF790F9D920FEF78DF90020FEF70C
:103D90008AF9E020FEF787F90020FEF784F9F32086
:103DA000FEF781F90020FEF77EF9E120FEF772F9B7
:103DB0001620FEF778F90020FEF775F91C20FEF7B3
:103DC00072F90020FEF76FF92220FEF76CF900204F
:103DD000FEF769F93620FEF766F90020FEF763F971
:103DE0004520FEF760F90020FEF75DF95220FEF74E
:103DF0005AF90020FEF757F96420FEF754F9002025
:103E0000FEF751F97A20FEF74EF90020FEF74BF944
:103E10008B20FEF748F90020FEF745F99920FEF7C0
:103E200042F90020FEF73FF9A820FEF73CF90020F8
:103E3000FEF739F9B920FEF736F90020FEF733F91D
:103E4000C420FEF730F90020FEF72DF9CA20FEF756
:103E50002AF90020FEF727F9D220FEF724F90020E6
:103E6000FEF721F9D820FEF71EF90020FEF71BF916
:103E7000E020FEF718F90020FEF715F9F320FEF711
:103E800012F90020FEF70FF9E220FEF703F90520F2
:103E9000FEF709F90020FEF706F90B20FEF703F9FB
:103EA0000020FEF700F91B20FEF7FDF80020FEF7CA
:103EB000FAF83420FEF7F7F80020FEF7F4F8442073
:103EC000FEF7F1F80020FEF7EEF84F20FEF7EBF8D2
:103ED0000020FEF7E8F86120FEF7E5F80020FEF785
:103EE000E2F87920FEF7DFF80020FEF7DCF8882002
:103EF000FEF7D9F80020FEF7D6F89720FEF7D3F8A2
:103F00000020FEF7D0F8A620FEF7CDF80020FEF73F
:103F1000CAF8B720FEF7C7F80020FEF7C4F8C220A1
:103F2000FEF7C1F80020FEF7BEF8C720FEF7BBF889
:103F30000020FEF7B8F8D120FEF7B5F80020FEF714
:103F4000B2F8D620FEF7AFF80020FEF7ACF8DD207F
:103F5000FEF7A9F80020FEF7A6F8F320FEF7A3F875
:103F60000020FEF7A0F8E320FEF794F80520FEF706
:103F70009AF80020FEF797F80A20FEF794F8002040
:103F8000FEF791F81C20FEF78EF80020FEF78BF864
:103F90003320FEF788F80020FEF785F84420FEF76E
:103FA00082F80020FEF77FF85020FEF77CF8002012
:103FB000FEF779F86220FEF776F80020FEF773F836
:103FC0007820FEF770F80020FEF76DF88820FEF7E5
:103FD0006AF80020FEF767F89720FEF764F80020E3
:103FE000FEF761F8A620FEF75EF80020FEF75BF80A
:103FF000B720FEF758F80020FEF755F8C220FEF76C
:1040000052F80020FEF74FF8C720FEF74CF80020CA
:10401000FEF749F8D120FEF746F80020FEF743F8F6
:10402000D520FEF740F80020FEF73DF8DD20FEF732
:104030003AF80020FEF737F8F320FEF734F80020B6
:10404000FEF731F8E420FEF725F80120FEF72BF803
:104050000020FEF728F80120FEF725F80020FEF7E3
:1040600022F80220FEF71FF80020FEF71CF82A2095
:10407000FEF719F80020FEF716F83C20FEF713F8BB
:104080000020FEF710F84B20FEF70DF80020FEF799
:104090000AF85D20FEF707F80020FEF704F8742008
:1040A000FEF701F80020FDF7FEFF8420FDF7FBFF7F
:1040B0000020FDF7F8FF9320FDF7F5FF0020FDF746
:1040C000F2FFA220FDF7EFFF0020FDF7ECFFB32089
:1040D000FDF7E9FF0020FDF7E6FFBE20FDF7E3FF57
:1040E0000020FDF7E0FFC420FDF7DDFF0020FDF715
:1040F000DAFFCD20FDF7D7FF0020FDF7D4FFD32056
:10410000FDF7D1FF0020FDF7CEFFDD20FDF7CBFF4F
:104110000020FDF7C8FFF320FDF7C5FF0020FDF7E5
:10412000C2FFE520FDF7B6FF0020FDF7BCFF002031
:10413000FDF7B9FF0020FDF7B6FF0020FDF7B3FF44
:104140000220FDF7B0FF0020FDF7ADFF2920FDF7AD
:10415000AAFF0020FDF7A7FF3C20FDF7A4FF0020E9
:10416000FDF7A1FF4B20FDF79EFF0020FDF79BFF11
:104170005D20FDF798FF0020FDF795FF7420FDF707
:1041800092FF0020FDF78FFF8420FDF78CFF0020B9
:10419000FDF789FF9320FDF786FF0020FDF783FFE1
:1041A000A220FDF780FF0020FDF77DFFB320FDF783
:1041B0007AFF0020FDF777FFBE20FDF774FF002097
:1041C000FDF771FFC420FDF76EFF0020FDF76BFFC8
:1041D000CD20FDF768FF0020FDF765FFD320FDF738
:1041E00062FF0020FDF75FFFDC20FDF75CFF002091
:1041F000FDF759FFF320FDF756FF0020FDF753FFB1
:10420000E620FDF747FF1120FDF74DFF0020FDF7E9
:104210004AFF3420FDF747FF0020FDF744FF5620FA
:10422000FDF741FF0020FDF73EFF7620FDF73BFF45
:104230000020FDF738FF7720FDF735FF0020FDF760
:1042400032FF6620FDF72FFF0020FDF72CFF8820AE
:10425000FDF729FF0020FDF726FF9920FDF723FF3A
:104260000020FDF720FFBB20FDF71DFF0020FDF71C
:104270001AFF9920FDF717FF0020FDF714FF6620B5
:10428000FDF711FF0020FDF70EFF5520FDF70BFF96
:104290000020FDF708FF5520FDF705FF0020FDF782
:1042A00002FF4520FDF7FFFE0020FDF7FCFE432046
:1042B000FDF7F9FE0020FDF7F6FE4420FDF7F3FEC2
:1042C0000020FDF7F0FEE720FDF7E4FE3220FDF7C9
:1042D000EAFE0020FDF7E7FE5520FDF7E4FE002092
:1042E000FDF7E1FE7620FDF7DEFE0020FDF7DBFEA8
:1042F0006620FDF7D8FE0020FDF7D5FE6720FDF70C
:10430000D2FE0020FDF7CFFE6720FDF7CCFE002097
:10431000FDF7C9FE8720FDF7C6FE0020FDF7C3FEAE
:104320009920FDF7C0FE0020FDF7BDFEBB20FDF784
:10433000BAFE0020FDF7B7FE9920FDF7B4FE00207D
:10434000FDF7B1FE7720FDF7AEFE0020FDF7ABFED6
:104350004420FDF7A8FE0020FDF7A5FE5620FDF73E
:10436000A2FE0020FDF79FFE2320FDF79CFE00200B
:10437000FDF799FE3320FDF796FE0020FDF793FE32
:104380004520FDF790FE0020FDF78DFEE820FDF7AB
:1043900081FE0020FDF787FE0020FDF784FE9920B6
:1043A000FDF781FE0020FDF77EFE8720FDF77BFEF6
:1043B0000020FDF778FE8820FDF775FE0020FDF750
:1043C00072FE7720FDF76FFE0020FDF76CFE662081
:1043D000FDF769FE0020FDF766FE8820FDF763FE0D
:1043E0000020FDF760FEAA20FDF75DFE0020FDF72E
:1043F0005AFEBB20FDF757FE0020FDF754FE992022
:10440000FDF751FE0020FDF74EFE6620FDF74BFE46
:104410000020FDF748FE5520FDF745FE0020FDF782
:1044200042FE5520FDF73FFE0020FDF73CFE4420F4
:10443000FDF739FE0020FDF736FE4420FDF733FE80
:104440000020FDF730FE5520FDF72DFE0020FDF782
:104450002AFEE920FDF71EFEAA20FDF724FE00201B
:10446000FDF721FE0020FDF71EFE0020FDF71BFEDC
:104470000020FDF70FFEAA20FDF715FECF20FDF767
:1044800009FE0020FDF70FFE0020FDF70CFE0020C6
:10449000FDF709FE0020FDF706FE0020FDF703FEF4
:1044A0000020FDF700FE0020FDF7FDFD0020FDF7D8
:1044B000FAFD0020FDF7F7FD0020FDF7F4FD0020D8
:1044C000FDF7F1FD0020FDF7EEFD0020FDF7EBFD0F
:1044D0000020FDF7E8FD0020FDF7E5FD0020FDF7D9
:1044E000E2FD0020FDF7DFFDF020FDF7D3FD002009
:1044F000FDF7D9FD5020FDF7D6FD0020FDF7D3FDD7
:104500000020FDF7D0FD0020FDF7CDFDF320FDF7E5
:10451000C1FD0020FDF7C7FDF920FDF7BBFD06201A
:10452000FDF7C1FD1020FDF7BEFD2920FDF7BBFD05
:104530000020FDF7B8FD3A20FDF7ACFD5520FDF752
:10454000B2FD1120FDF7A6FD6420FDF7DFFC292058
:10455000FDF7A0FD3520FDF79DFD0020FDF7A3FD33
:104560005120FDF797FDFF20FDF79DFD5320FDF73E
:1045700091FD2C20FDF797FD5520FDF78BFD822046
:10458000FDF791FD2C20FDF785FD02F0E9B8FE480E
:10459000808845F2105188427ED155214FF47040F9
:1045A000FDF793FDAA214FF20100FDF78EFD522188
:1045B0004FF20200FDF789FD08214FF20300FDF7DD
:1045C00084FD01214FF20400FDF77FFD0D214FF422
:1045D0003040FDF77AFD0D214BF20100FDF775FD2E
:1045E0000D214BF20200FDF770FD34214FF43640EF
:1045F000FDF76BFD34214BF20160FDF766FD3421C0
:104600004BF20260FDF761FD0D214FF43140FDF7E3
:104610005CFD0D214BF20110FDF757FD0D214BF212
:104620000210FDF752FD34214FF43740FDF74DFDE8
:1046300034214BF20170FDF748FD34214BF202703A
:10464000FDF743FD00214FF43240FDF73EFD002110
:104650004BF20120FDF739FD00214BF20220FDF75E
:1046600034FD24214FF43840FDF72FFD24214BF673
:104670000100FDF72AFD24214BF60200FDF725FD80
:1046800001214FF43F40FDF720FD0F214FF433404F
:10469000FDF71BFD0F2100E0FEE34BF20130FDF7BB
:1046A00014FD0F214BF20230FDF70FFD34214FF4C2
:1046B0003940FDF70AFD34214BF60110FDF705FDE9
:1046C00034214BF60210FDF700FD08214FF4354070
:1046D000FDF7FBFC08214BF20150FDF7F6FC082129
:1046E0004BF20250FDF7F1FC03214FF44240FDF77D
:1046F000ECFC24214FF43A40FDF7E7FC24214BF673
:104700000120FDF7E2FC24214BF60220FDF7DDFC41
:1047100000214FF43C40FDF7D8FC78214BF60140D6
:10472000FDF7D3FC00214BF60240FDF7CEFC002143
:104730004FF43D40FDF7C9FC78214BF60150FDF7E1
:10474000C4FC00214BF60250FDF7BFFC00214FF4E2
:104750003E40FDF7BAFC64214BF60160FDF7B5FC65
:1047600000214FF45140FDF7B0FC33214DF2011010
:10477000FDF7ABFC00214DF20210FDF7A6FC342141
:104780004DF20310FDF7A1FC00214DF20410FDF7DE
:104790009CFC3A214DF20510FDF797FC00214DF2EB
:1047A0000610FDF792FC4A214DF20710FDF78DFC33
:1047B00000214DF20810FDF788FC5C214DF2091034
:1047C000FDF783FC00214DF20A10FDF77EFC8121EC
:1047D0004DF20B10FDF779FC00214DF20C10FDF7A6
:1047E00074FCA6214DF20D10FDF76FFC00214DF277
:1047F0000E10FDF76AFCE5214DF20F10FDF765FC88
:1048000001214DF21010FDF760FC13214DF2111043
:10481000FDF75BFC01214DF21210FDF756FC54210F
:104820004DF21310FDF751FC01214DF21410FDF76C
:104830004CFC82214DF21510FDF747FC01214DF291
:104840001610FDF742FCCA214DF21710FDF73DFC92
:1048500002214DF21810FDF738FC00214DF219101D
:10486000FDF733FC02214DF21A10FDF72EFC012159
:104870004DF21B10FDF729FC02214DF21C10FDF733
:1048800024FC34214DF21D10FDF71FFC02214DF2D6
:104890001E10FDF71AFC67214DF21F10FDF715FCE5
:1048A00002214DF22010FDF710FC84214DF2211061
:1048B000FDF70BFC02214DF22210FDF706FCA421AE
:1048C0004DF22310FDF701FC02214DF22410FDF7FB
:1048D000FCFBB7214DF22510FDF7F7FB02214DF24D
:1048E0002610FDF7F2FBCF214DF22710FDF7EDFB6F
:1048F00002214DF22810FDF7E8FBDE214DF22910D0
:10490000FDF7E3FB02214DF22A10FDF7DEFBF22159
:104910004DF22B10FDF7D9FB02214DF22C10FDF7C3
:10492000D4FBFE214DF22D10FDF7CFFB03214DF2FC
:104930002E10FDF7CAFB10214DF22F10FDF7C5FB1D
:1049400003214DF23010FDF7C0FB33214DF2311041
:10495000FDF7BBFB03214DF23210FDF7B6FB6D21D5
:104960004DF23310FDF7B1FB00214FF45240FDF73B
:10497000ACFB33214DF20120FDF7A7FB00214DF2E6
:104980000220FDF7A2FB01E044C1002034214DF2DA
:104990000320FDF79AFB00214DF20420FDF795FB63
:1049A0003A214DF20520FDF790FB00214DF2062043
:1049B000FDF78BFB4A214DF20720FDF786FB002116
:1049C0004DF20820FDF781FB5C214DF20920FDF737
:1049D0007CFB00214DF20A20FDF777FB81214DF28F
:1049E0000B20FDF772FB00214DF20C20FDF76DFB53
:1049F000A6214DF20D20FDF768FB00214DF20E209F
:104A0000FDF763FBE5214DF20F20FDF75EFB012171
:104A10004DF21020FDF759FB13214DF21120FDF747
:104A200054FB01214DF21220FDF74FFB54214DF2B2
:104A30001320FDF74AFB01214DF21420FDF745FB41
:104A400082214DF21520FDF740FB01214DF2162089
:104A5000FDF73BFBCA214DF21720FDF736FB022183
:104A60004DF21820FDF731FB00214DF21920FDF722
:104A70002CFB02214DF21A20FDF727FB01214DF2FC
:104A80001B20FDF722FB02214DF21C20FDF71DFB30
:104A900034214DF21D20FDF718FB02214DF21E209E
:104AA000FDF713FB67214DF21F20FDF70EFB0221DE
:104AB0004DF22020FDF709FB84214DF22120FDF766
:104AC00004FB02214DF22220FDF7FFFAA4214DF252
:104AD0002320FDF7FAFA02214DF22420FDF7F5FA22
:104AE000B7214DF22520FDF7F0FA02214DF22620E4
:104AF000FDF7EBFACF214DF22720FDF7E6FA022170
:104B00004DF22820FDF7E1FADE214DF22920FDF7D4
:104B1000DCFA02214DF22A20FDF7D7FAF2214DF2FC
:104B20002B20FDF7D2FA02214DF22C20FDF7CDFA11
:104B3000FE214DF22D20FDF7C8FA03214DF22E2063
:104B4000FDF7C3FA10214DF22F20FDF7BEFA032125
:104B50004DF23020FDF7B9FA33214DF23120FDF747
:104B6000B4FA03214DF23220FDF7AFFA6D214DF278
:104B70003320FDF7AAFA00214FF45340FDF7A5FAC0
:104B800033214DF20130FDF7A0FA00214DF2023041
:104B9000FDF79BFA34214DF20330FDF796FA002120
:104BA0004DF20430FDF791FA3A214DF20530FDF750
:104BB0008CFA00214DF20630FDF787FA4A214DF2BA
:104BC0000730FDF782FA00214DF20830FDF77DFA3B
:104BD0005C214DF20930FDF778FA00214DF20A30E0
:104BE000FDF773FA81214DF20B30FDF76EFA0021CB
:104BF0004DF20C30FDF769FAA6214DF20D30FDF7AC
:104C000064FA00214DF20E30FDF75FFAE5214DF216
:104C10000F30FDF75AFA01214DF21030FDF755FA29
:104C200013214DF21130FDF750FA01214DF21230EF
:104C3000FDF74BFA54214DF21330FDF746FA0121EE
:104C40004DF21430FDF741FA82214DF21530FDF797
:104C50003CFA01214DF21630FDF737FACA214DF228
:104C60001730FDF732FA02214DF21830FDF72DFA18
:104C700000214DF21930FDF728FA02214DF21A30C9
:104C8000FDF723FA01214DF21B30FDF71EFA022138
:104C90004DF21C30FDF719FA34214DF21D30FDF7AD
:104CA00014FA02214DF21E30FDF70FFA67214DF282
:104CB0001F30FDF70AFA02214DF22030FDF705FA08
:104CC00084214DF22130FDF700FA02214DF222300D
:104CD000FDF7FBF9A4214DF22330FDF7F6F902218F
:104CE0004DF22430FDF7F1F9B7214DF22530FDF7F3
:104CF000ECF902214DF22630FDF7E7F9CF214DF214
:104D00002730FDF7E2F902214DF22830FDF7DDF9F9
:104D1000DE214DF22930FDF7D8F902214DF22A307B
:104D2000FDF7D3F9F2214DF22B30FDF7CEF9022138
:104D30004DF22C30FDF7C9F9FE214DF22D30FDF773
:104D4000C4F903214DF22E30FDF7BFF910214DF2C9
:104D50002F30FDF7BAF903214DF23030FDF7B5F9E8
:104D600033214DF23130FDF7B0F903214DF23230ED
:104D7000FDF7ABF96D214DF23330FDF7A6F90021B7
:104D80004FF45440FDF7A1F933214DF20140FDF7F6
:104D90009CF900214DF20240FDF797F934214DF2C4
:104DA0000340FDF792F900214DF20440FDF78DF923
:104DB0003A214DF20540FDF788F900214DF20640F9
:104DC000FDF783F94A214DF20740FDF77EF90021F6
:104DD0004DF20840FDF779F95C214DF20940FDF7ED
:104DE00074F900214DF20A40FDF76FF981214DF26F
:104DF0000B40FDF76AF900214DF20C40FDF765F913
:104E0000A6214DF20D40FDF760F900214DF20E4054
:104E1000FDF75BF9E5214DF20F40FDF756F9012151
:104E20004DF21040FDF751F913214DF21140FDF7FD
:104E30004CF901214DF21240FDF747F954214DF292
:104E40001340FDF742F901214DF21440FDF73DF901
:104E500082214DF21540FDF738F901214DF216403F
:104E6000FDF733F9CA214DF21740FDF72EF9022163
:104E70004DF21840FDF729F900214DF21940FDF7D8
:104E800024F902214DF21A40FDF71FF901214DF2DC
:104E90001B40FDF71AF900E004E302214DF21C402B
:104EA000FDF713F934214DF21D40FDF70EF90221F3
:104EB0004DF21E40FDF709F967214DF21F40FDF745
:104EC00004F902214DF22040FDF7FFF884214DF254
:104ED0002140FDF7FAF802214DF22240FDF7F5F8E6
:104EE000A4214DF22340FDF7F0F802214DF22440B9
:104EF000FDF7EBF8B7214DF22540FDF7E6F802216A
:104F00004DF22640FDF7E1F8CF214DF22740FDF7A5
:104F1000DCF802214DF22840FDF7D7F8DE214DF2F2
:104F20002940FDF7D2F802214DF22A40FDF7CDF8D5
:104F3000F2214DF22B40FDF7C8F802214DF22C4032
:104F4000FDF7C3F8FE214DF22D40FDF7BEF8032119
:104F50004DF22E40FDF7B9F810214DF22F40FDF72C
:104F6000B4F803214DF23040FDF7AFF833214DF294
:104F70003140FDF7AAF803214DF23240FDF7A5F8C4
:104F80006D214DF23340FDF7A0F800214FF455405C
:104F9000FDF79BF833214DF20150FDF796F8002103
:104FA0004DF20250FDF791F834214DF20350FDF718
:104FB0008CF800214DF20450FDF787F83A214DF2AC
:104FC0000550FDF782F800214DF20650FDF77DF8FF
:104FD0004A214DF20750FDF778F800214DF20850B4
:104FE000FDF773F85C214DF20950FDF76EF80021D2
:104FF0004DF20A50FDF769F881214DF20B50FDF793
:1050000064F800214DF20C50FDF75FF8A6214DF237
:105010000D50FDF75AF800214DF20E50FDF755F8EE
:10502000E5214DF20F50FDF750F801214DF21050DF
:10503000FDF74BF813214DF21150FDF746F8012111
:105040004DF21250FDF741F854214DF21350FDF787
:105050003CF801214DF21450FDF737F882214DF252
:105060001550FDF732F801214DF21650FDF72DF8DD
:10507000CA214DF21750FDF728F802214DF21850C1
:10508000FDF723F800214DF21950FDF71EF802211B
:105090004DF21A50FDF719F801214DF21B50FDF7A2
:1050A00014F802214DF21C50FDF70FF834214DF297
:1050B0001D50FDF70AF802214DF21E50FDF705F8CC
:1050C00067214DF21F50FDF700F802214DF22050EC
:1050D000FCF7FBFF84214DF22150FCF7F6FF022183
:1050E0004DF22250FCF7F1FFA4214DF22350FCF7C2
:1050F000ECFF02214DF22450FCF7E7FFB7214DF2FF
:105100002550FCF7E2FF02214DF22650FCF7DDFFAF
:10511000CF214DF22750FCF7D8FF02214DF2285045
:10512000FCF7D3FFDE214DF22950FCF7CEFF022120
:105130004DF22A50FCF7C9FFF2214DF22B50FCF73B
:10514000C4FF02214DF22C50FCF7BFFFFE214DF2AF
:105150002D50FCF7BAFF03214DF22E50FCF7B5FF9E
:1051600010214DF22F50FCF7B0FF03214DF23050CB
:10517000FCF7ABFF33214DF23150FCF7A6FF0321C2
:105180004DF23250FCF7A1FF6D214DF23350FCF788
:105190009CFF00214FF45640FCF797FF33214DF25E
:1051A0000160FCF792FF00214DF20260FCF78DFFD9
:1051B00034214DF20360FCF788FF00214DF20460BA
:1051C000FCF783FF3A214DF20560FCF77EFF0021DA
:1051D0004DF20660FCF779FF4A214DF20760FCF7BB
:1051E00074FF00214DF20860FCF76FFF5C214DF267
:1051F0000960FCF76AFF00214DF20A60FCF765FFC9
:1052000081214DF20B60FCF760FF00214DF20C6034
:10521000FCF75BFFA6214DF20D60FCF756FF002165
:105220004DF20E60FCF751FFE5214DF20F60FCF7E7
:105230004CFF01214DF21060FCF747FF13214DF2A6
:105240001160FCF742FF01214DF21260FCF73DFFB7
:1052500054214DF21360FCF738FF01214DF2146028
:10526000FCF733FF82214DF21560FCF72EFF012180
:105270004DF21660FCF729FFCA214DF21760FCF7CA
:1052800024FF02214DF21860FCF71FFF00214DF2B0
:105290001960FCF71AFF02214DF21A60FCF715FFA6
:1052A00001214DF21B60FCF710FF02214DF21C6042
:1052B000FCF70BFF34214DF21D60FCF706FF0221C5
:1052C0004DF21E60FCF701FF67214DF21F60FCF7F5
:1052D000FCFE02214DF22060FCF7F7FE84214DF226
:1052E0002160FCF7F2FE02214DF22260FCF7EDFE98
:1052F000A4214DF22360FCF7E8FE02214DF2246068
:10530000FCF7E3FEB7214DF22560FCF7DEFE02213B
:105310004DF22660FCF7D9FECF214DF22760FCF755
:10532000D4FE02214DF22860FCF7CFFEDE214DF2C3
:105330002960FCF7CAFE02214DF22A60FCF7C5FE87
:10534000F2214DF22B60FCF7C0FE02214DF22C60E1
:10535000FCF7BBFEFE214DF22D60FCF7B6FE0321EB
:105360004DF22E60FCF7B1FE10214DF22F60FCF7DC
:10537000ACFE03214DF23060FCF7A7FE33214DF265
:105380003160FCF7A2FE03214DF23260FCF79DFE76
:105390006D214DF23360FCF798FE55214FF47040BB
:1053A000FCF793FEAA214FF20100FCF78EFE52217A
:1053B0004FF20200FCF789FE08214FF20300FCF7D0
:1053C00084FE00214FF20400FCF77FFECC214FF455
:1053D0003140FCF77AFE00214BF20110FCF775FE1C
:1053E00005214FF43640FCF770FE70214FF4374032
:1053F000FCF76BFE70214BF20170FCF766FE012199
:105400004FF43840FCF761FE03214BF60100FCF736
:105410005CFE03214BF60200FCF757FE03214BF61E
:105420000300FCF752FE02214FF43C40FCF74DFE16
:1054300000214BF60140FCF748FE00214BF60240EC
:10544000FCF743FED0214FF44940FCF73EFE022119
:105450004CF60110FCF739FE50214CF60210FCF717
:1054600034FE50214CF60310FCF72FFE50214CF671
:105470000410FCF72AFE00214FF45450FCF725FEDF
:1054800055214FF46850FCF720FE4FF48850FCF78C
:1054900001FE7820FCF7F2FC4FF42450FCF7FAFDF3
:1054A00001F05EB9FE48808849F2253188427DD1FD
:1054B00047F6F001E520FCF708FE4FF4807101206B
:1054C000FCF703FE4FF4E0610220FCF7FEFD41F221
:1054D00030010320FCF7F9FD00210420FCF7F5FD65
:1054E00040F202210820FCF7F0FD00210920FCF722
:1054F000ECFD00210A20FCF7E8FD00210C20FCF760
:10550000E4FD00210D20FCF7E0FD00210F20FCF759
:10551000DCFD00211020FCF7D8FD07211120FCF74D
:10552000D4FD00211220FCF7D0FD00211320FCF750
:10553000CCFD00210720FCF7C8FD41F2906110204E
:10554000FCF7C3FD40F227211120FCF7BEFD9D2191
:105550001220FCF7BAFD4FF4C8511320FCF7B5FD3B
:1055600025212920FCF7B1FD0D212B20FCF7ADFDF5
:1055700007213020FCF7A9FD40F203313120FCF770
:10558000A4FD03213220FCF7A0FD40F206213520C6
:10559000FCF79BFD08213620FCF797FD40F2064101
:1055A0003720FCF792FD4FF4417100E058E03820BD
:1055B000FCF78BFD07213920FCF787FD40F20261E3
:1055C0003C20FCF782FD08213D20FCF77EFD0021F8
:1055D0005020FCF77AFDEF215120FCF776FD0021E9
:1055E0005220FCF772FD40F23F115320FCF76DFD95
:1055F0004FF427416020FCF768FD01216120FCF792
:1056000064FD00216A20FCF760FD00218020FCF78A
:105610005CFD00218120FCF758FD00218220FCF771
:1056200054FD00218320FCF750FD00218420FCF76D
:105630004CFD00218520FCF748FD10219020FCF74F
:1056400044FD4FF4C0619220FCF73FFD40F233115E
:105650000720FCF73AFD22210020FCF736FD1FE76A
:105660008F48808849F2283188427DD141F28F01EC
:10567000EC20FCF72AFD41F23421EF20FCF725FD58
:105680004FF480710120FCF720FD4FF4E06102200F
:10569000FCF71BFD41F230010320FCF716FD002151
:1056A0000420FCF712FD40F202210820FCF70DFD5A
:1056B00000210920FCF709FD00210A20FCF705FD67
:1056C00001210C20FCF701FD00210D20FCF7FDFC61
:1056D00000210F20FCF7F9FC00211020FCF7F5FC5D
:1056E00007211120FCF7F1FC00211220FCF7EDFC52
:1056F00000211320FCF7E9FC01210720FCF7E5FC61
:105700003220FCF703FC41F290411020FCF7DDFC55
:1057100040F227211120FCF7D8FC3220FCF7F6FBE1
:105720008A211220FCF7D1FC3220FCF7EFFB4FF46A
:10573000D0511320FCF7C9FC06212920FCF7C5FC39
:105740000D212B20FCF7C1FC3220FCF7DFFB0021F0
:105750002020FCF7BAFC00212120FCF7B6FC322007
:10576000FCF7D4FB002100E075E03020FCF7ADFC35
:1057700040F204613120FCF7A8FC40F205313220F0
:10578000FCF7A3FC00213520FCF79FFC40F6094103
:105790003620FCF79AFC4FF401713720FCF795FC9A
:1057A00040F201313820FCF790FC40F207713920BB
:1057B000FCF78BFC00213C20FCF787FC40F60A211B
:1057C0003D20FCF782FC3220FCF7A0FB002150209A
:1057D000FCF77BFCEF215120FCF777FC00215220E5
:1057E000FCF773FC40F23F115320FCF76EFC4FF4C2
:1057F00027416020FCF769FC01216120FCF765FC72
:1058000000216A20FCF761FC00218020FCF75DFC90
:1058100000218120FCF759FC00218220FCF755FC77
:1058200000218320FCF751FC00218420FCF74DFC73
:1058300000218520FCF749FC10219020FCF745FC55
:105840004FF4C0619220FCF740FC40F23311072076
:10585000FCF73BFC24E61248808849F2203188425C
:105860007ED100210846FCF730FC4FF48071012006
:10587000FCF72BFC4FF4E0610220FCF726FC41F220
:1058800030010320FCF721FC00210420FCF71DFC63
:1058900040F202210820FCF718FC0021092001E059
:1058A00044C10020FCF711FC00210A20FCF70DFC8C
:1058B00001210C20FCF709FC00210D20FCF705FC60
:1058C00000210F20FCF701FC3220FCF71FFB40F207
:1058D00001110720FCF7F9FB3220FCF717FB4FF40E
:1058E00086511020FCF7F1FB07211120FCF7EDFB9E
:1058F0004FF488711220FCF7E8FB4FF4306113205D
:10590000FCF7E3FB00212920FCF7DFFB44F2100148
:105910002B20FCF7DAFB00215020FCF7D6FBEF210F
:105920005120FCF7D2FB00215220FCF7CEFB40F2C5
:105930003F115320FCF7C9FB4FF41C516020FCF7CA
:10594000C4FB01216120FCF7C0FB00216A20FCF7A9
:10595000BCFB00218020FCF7B8FB0021812000E087
:1059600030E0FCF7B2FB00218220FCF7AEFB002107
:105970008320FCF7AAFB00218420FCF7A6FB002172
:105980008520FCF7A2FB10219020FCF79EFB002154
:105990009220FCF79AFB01219320FCF796FB4FF431
:1059A00088719520FCF791FB00219720FCF78DFB77
:1059B00000219820FCF789FB40F273110720FCF7C7
:1059C00084FB6DE5FE48808849F2313188427DD103
:1059D00041F21401E720FCF778FB4FF480710120BD
:1059E000FCF773FB4FF400710220FCF76EFB41F2F1
:1059F00038010320FCF769FB40F202210820FCF784
:105A000064FB00210920FCF760FB00210A20FCF761
:105A10005CFB00210C20FCF758FB00210D20FCF75B
:105A200054FB00210F20FCF750FB00211020FCF755
:105A30004CFB07211120FCF748FB00211220FCF74A
:105A400044FB00211320FCF740FBC820FCF75EFA62
:105A500041F290611020FCF738FB40F22721112021
:105A6000FCF733FB3220FCF751FA0C211220FCF733
:105A70002CFB3220FCF74AFA4FF400611320FCF7AC
:105A800024FB11212920FCF720FB0B212B20FCF704
:105A90001CFB3220FCF73AFA00212020FCF715FB12
:105AA00040F23F112120FCF710FB00213020FCF7D1
:105AB0000CFB4FF483713120FCF707FB00213220EF
:105AC000FCF703FB4FF40171352000E064E0FCF7C4
:105AD000FCFA41F20A613620FCF7F7FA40F207714E
