:020000040800F2
:1000000070070020C9560008F9030008FB03000828
:10001000FF030008030400080704000800000000B4
:100020000000000000000000000000000B040008B9
:100030000D040008000000000F040008110400086F
:10004000E3560008E3560008E3560008E3560008AC
:10005000E3560008E3560008E3560008E35600089C
:10006000E3560008E3560008E3560008E35600088C
:10007000E3560008E3560008E3560008E35600087C
:10008000E3560008E3560008E3560008E35600086C
:10009000E3560008E3560008E3560008E35600085C
:1000A000E3560008E3560008E3560008E35600084C
:1000B000E3560008E3560008E3560008E35600083C
:1000C000E3560008E3560008E3560008E35600082C
:1000D000E35600083D560008E3560008E3560008C2
:1000E000E3560008E3560008E3560008E35600080C
:1000F000E3560008E3560008E3560008E3560008FC
:10010000E3560008E3560008E3560008E3560008EB
:10011000E3560008E3560008E3560008E3560008DB
:10012000E3560008E3560008E3560008E3560008CB
:10013000E3560008E3560008E3560008E3560008BB
:10014000E3560008E3560008E3560008E3560008AB
:10015000E3560008E3560008E3560008E35600089B
:10016000E3560008E3560008E3560008E35600088B
:10017000E3560008E3560008E3560008E35600087B
:10018000E3560008E356000800F002F800F041F8DA
:100190000AA090E8000C82448344AAF10107DA45E2
:1001A00001D100F036F8AFF2090EBAE80F0013F0F3
:1001B000010F18BFFB1A43F0010318471C8600000B
:1001C0003C860000103A24BF78C878C1FAD852079C
:1001D00024BF30C830C144BF04680C6070470000C1
:1001E0000023002400250026103A28BF78C1FBD840
:1001F000520728BF30C148BF0B607047782906F00E
:10020000BB84002070471FB506F0DEFE1FBD10B591
:1002100010BD06F069FD1146FFF7F5FF00F008F884
:1002200006F087FD03B4FFF7F2FF03BC05F0A6F963
:100230001FB500244FF4A06005F066FAA82005F071
:100240001BF94FF4E13005F0A7F900F0EBF901F0EC
:10025000C9F84FF478404B4908804BA010210B4659
:10026000C822CDE9001032211E2005F006F84BA06F
:1002700010210B46C822CDE9001046211E2004F0B3
:10028000FCFF49A010210B46C822CDE900105A21DD
:100290001E2004F0F2FF48A010210B46C822CDE931
:1002A00000106E211E2004F0E8FF18E045A0102188
:1002B0000B46C822CDE9001082211E2004F0DDFF8C
:1002C000C82005F03BF94FF6FF709223EF22822100
:1002D00000901E2004F038FDC82005F02FF905F02D
:1002E000A8F80028E2D13AA010210B46C822CDE997
:1002F000001082211E2004F0C0FF1F202149088029
:1003000036A010210B46C822CDE9001096211E20F0
:1003100004F0B3FF34A010210B46C822CDE9001031
:10032000AA211E2004F0A9FF2BE00A2094FBF0F183
:1003300000FB1140A8B902A903A805F04EF810204F
:10034000022300909DF80C209621462004F0DDFE4B
:100350001020022300909DF80820AA21462004F0D6
:10036000D4FE0A2005F0EAF8601CC4B2142C08D1AF
:1003700000242048006808B9012000E000201D4941
:100380000860D2E7140000204578706C6F726572C7
:100390002053544D33324634000000004448543159
:1003A000312054455354000041544F4D40414C4975
:1003B000454E54454B000000323031342F352F3735
:1003C000000000004448543131204572726F7200C1
:1003D0004448543131204F4B0000000054656D708B
:1003E0003A2020430000000048756D693A2020251E
:1003F00000000000A4824242704700BFFEE700BF39
:10040000FEE700BFFEE700BFFEE77047704770479A
:10041000704700000CB500200190009076480068FD
:1004200040F480307449086000BF7348006800F4ED
:10043000003000900198401C0190009818B9019874
:10044000B0F5A04FF1D16C48006800F4003010B155
:100450000120009001E0002000900098012846D182
:1004600065484030006840F0805063494031086082
:100470006248006840F44040604908605E480830C7
:1004800000685D49083108600846006840F4004093
:1004900008600846006840F4A05008605848091FEA
:1004A0000860081F006840F08070091F086000BFE6
:1004B0005148006800F000700028F9D040F2057043
:1004C000504908604C480830006820F003004A4951
:1004D000083108600846006840F00200086000BF6C
:1004E00045480830006800F00C000828F8D10CBD21
:1004F00010B54548006840F47000434908603E4824
:10050000006840F001003C49086000203A49083189
:100510000860394800683D490840374908603C4850
:10052000091D0860081F006820F48020091F08606A
:10053000002031490C310860FFF76CFF4FF000607C
:1005400031498039086010BD70B5002000220223B7
:1005500000240221284D08352D6805F00C0020B13B
:10056000042806D0082834D107E02A4D2A4E3560E9
:1005700033E02A4D284E35602FE01F4D2D1D2D688C
:10058000C5F380541C4D2D1D2D6805F03F0154B15D
:10059000224DB5FBF1F5184E361D3668C6F38816A8
:1005A00005FB06F209E01B4DB5FBF1F5124E361DB9
:1005B0003668C6F3881605FB06F20F4D2D1D2D6813
:1005C000C5F301456D1C6B00B2FBF3F5124E3560AF
:1005D00003E0104D104E356000BF00BF064D0835DA
:1005E0002D68C5F303150E4E705D0B4D2D68C5408B
:1005F000094E356070BD00000038024000700040B8
:1006000008544007003C024088ED00E0FFFFF6FE82
:10061000103000240024F4000000002000127A00B2
:10062000040000201CB50121202005F0E5FE4FF458
:10063000C060009001208DF8040000208DF80600B5
:1006400003208DF8050001208DF807006946044855
:1006500005F050F94FF4C061014805F0C7F91CBD21
:100660000014024001B5BDF800000090BDF8000084
:10067000F849088008BD01B5BDF800000090BDF83C
:100680000000F449891C088008BD08B5F148801CA9
:1006900000880090BDF8000008BDEE4A10804FF0C1
:1006A000D842A2F80012704710B504462046FFF762
:1006B000D9FF052004F0FAFEFFF7E7FF10BDE6487A
:1006C0000089E44908807047E249891C0880704726
:1006D00030B5014601F01F04C1F34513CA0AE50213
:1006E00005EB43151544A8B230BD00BF011EA0F1B3
:1006F0000102D0B2FAD1704730B504460D46D64853
:10070000808849F24131884205D0D348808845F23B
:100710001031884214D1D0494889FFF7A3FF201235
:10072000FFF7A9FFE0B2FFF7A6FFCB498889FFF7E3
:1007300099FF2812FFF79FFFE8B2FFF79CFFABE09D
:10074000C548808846F6040188421DD1C248807998
:10075000012804D1C0480088401E001B84B2BE4955
:100760004889FFF77FFF2012FFF785FFE0B2FFF710
:1007700082FFB9498889FFF775FF2812FFF77BFFD1
:10078000E8B2FFF778FF87E0B348808841F663114D
:10079000884247D1B0488079A8B9AF480088401E48
:1007A000001B84B2AC494889FFF75CFF0020FFF7CB
:1007B00062FF0020FFF75FFF2012FFF75CFFE0B24F
:1007C000FFF759FF16E0A4494889FFF74BFF2012B5
:1007D000FFF751FFE0B2FFF74EFF9F490988491E1E
:1007E000C1F30F20FFF747FF9B490978491EC8B2A4
:1007F000FFF741FF98498889FFF734FF2812FFF778
:100800003AFFE8B2FFF737FF93494988491EC1F321
:100810000F20FFF730FF90498978491EC8B2FFF7D3
:100820002AFF39E08C48808845F21051884220D157
:1008300089494889FFF716FF2012FFF71CFF8649F8
:100840004989491C88B2FFF70DFFE0B2FFF713FF9B
:1008500081498889FFF706FF2812FFF70CFF7E49C0
:100860008989491C88B2FFF7FDFEE8B2FFF703FF54
:1008700012E079488079012804D177480088401E29
:10088000001B84B2744948892146FFF706FF72496C
:1008900088892946FFF701FF30BD2DE9F041054663
:1008A0000E4600240027A0466B480088A84203DDBE
:1008B00069484088B04202DC0020BDE8F081314642
:1008C0002846FFF719FF6448808849F24131884281
:1008D00011D06148808846F6040188420BD05E48FA
:1008E000808845F21031884205D05B48808841F607
:1008F0006311884203D12E20FFF7B4FE0DE0564865
:10090000808845F21051884204D14FF43850FFF7E7
:10091000A9FE02E02220FFF7A5FE4F48808849F299
:100920002031884202D10220FFF7DFFEFFF7ADFE43
:1009300004464948808841F66311884201D1204627
:10094000BBE70220FFF7D1FEFFF79FFE04464248B7
:10095000808849F2413188420BD03F48808845F277
:100960001031884205D03C48808845F210518842B9
:100970000AD10220FFF7B9FEFFF787FE8046E7B2F3
:100980004FF6FF7000EA07273348808849F2253187
:10099000884216D03048808844F23551884210D0C1
:1009A0002D488088091F88420BD02B4880884BF245
:1009B0000551884205D0284880884CF2055188426C
:1009C00001D1204679E72448808849F241318842A4
:1009D0000BD02148808845F21031884205D01E484E
:1009E000808845F21051884207D1E012C002B91246
:1009F00040EA411040EAE8205FE72046FFF768FE42
:100A00005BE700B51448808849F24131884211D033
:100A10001148808846F6040188420BD00E48808831
:100A200045F21031884205D00B48808841F66311A9
:100A3000884203D12920FFF715FE14E0064880887C
:100A400045F21051884209D14FF42450FFF70AFEB5
:100A500009E00000FE01006C3400002040F2731138
:100A60000720FFF71AFE00BD00B5FD48808849F257
:100A70004131884211D0FA48808846F60401884204
:100A80000BD0F748808845F21031884205D0F448F1
:100A9000808841F66311884203D12820FFF7E2FDE8
:100AA0000EE0EF48808845F21051884204D14FF49F
:100AB0002050FFF7D7FD03E000210720FFF7EDFDF1
:100AC00000BDF0B5054600240027E54880790128DF
:100AD0000BD1E348808846F60401884205D0E048FF
:100AE000808841F66311884208D1DD488079F0B9E9
:100AF000DB48808841F66311884218D1082D15D251
:100B0000DFE805F00406080A0C0E101206250DE0B9
:100B100007250BE0042509E0052507E0012505E090
:100B2000002503E0032501E0022500BF00BFCC48FB
:100B3000808849F24131884217D0C948808846F6FA
:100B40000401884211D0C648808845F2103188429D
:100B50000BD0C348808845F21051884205D0C04868
:100B6000808841F6631188427ED1082D1CD2DFE8CF
:100B700005F00406090C0F12151800BF14E044F02C
:100B8000800411E044F040040EE044F0C0040BE0A7
:100B900044F0200408E044F0600405E044F0A004C0
:100BA00002E044F0E00400BF00BFAD48808845F299
:100BB0001051884202D14FF4585700E03627A84818
:100BC000808845F2103188420DD0A548808845F2D2
:100BD0001051884207D0A248808841F663118842AC
:100BE00001D044F008049E48808846F604018842FB
:100BF00001D144F0020421463846FFF74EFD9848E3
:100C0000808841F6631188421DD004F0200068B14D
:100C10009348008892494988884214DA90480688A7
:100C200040888F490880084646800CE08C48008840
:100C30008B494988884206DD89480688408888496A
:100C40000880084646808648808845F210518842D0
:100C500054D183494889FFF705FD0020FFF70BFDBC
:100C60007F494989491C00E077E088B2FFF7FAFC28
:100C70000020FFF700FD7A494989891C88B2FFF7F7
:100C8000F1FC77490988491EC1F30F20FFF7F3FCF7
:100C900073494989C91C88B2FFF7E4FC7049097897
:100CA000491EC8B2FFF7E7FC6D498889FFF7DAFCF7
:100CB0000020FFF7E0FC6A498989491C88B2FFF7E8
:100CC000D1FC0020FFF7D7FC65498989891C88B2CF
:100CD000FFF7C8FC62494988491EC1F30F20FFF79E
:100CE000CAFC5F498989C91C88B2FFF7BBFC5C4913
:100CF0008978491EC8B2FFF7BEFC55E058494889BB
:100D0000FFF7B0FC0020FFF7B6FC0020FFF7B3FCB4
:100D100053490988491EC1F30F20FFF7ACFC504925
:100D20000978491EC8B2FFF7A6FC4D498889FFF72C
:100D300099FC0020FFF79FFC0020FFF79CFC48492E
:100D40004988491EC1F30F20FFF795FC4449897873
:100D5000491EC8B2FFF78FFC26E0082D1CD2DFE841
:100D600005F004070A0D0F12151844F0300413E0C3
:100D700044F0100410E044F020040DE000BF0BE04C
:100D800044F0380408E044F0280405E044F0180476
:100D900002E044F0080400BF00BF032744F480547D
:100DA00021463846FFF779FCF0BD30B504460D46C4
:100DB00029462046FFF7A0FCFFF781FC2948008860
:100DC0002949088030BD70B504460D4616462448B2
:100DD000808849F24131884205D02148808845F217
:100DE0001031884214D11E494889FFF73BFC20127C
:100DF000FFF741FCE0B2FFF73EFC19498889FFF795
:100E000031FC2812FFF737FCE8B2FFF734FC93E01F
:100E10001348808845F21051884227D110494889EB
:100E2000FFF720FC2012FFF726FC0D494989491CD9
:100E300088B2FFF717FCE0B2FFF71DFC084988896C
:100E4000FFF710FC2812FFF716FC05498989491C99
:100E500088B2FFF707FCE8B2FFF70DFC6CE000007A
:100E600034000020140000200002006CFE4880883E
:100E700041F66311884228D1FB48807920B9FA48AD
:100E80000088401E001B84B2F7494889FFF7EAFB3F
:100E90002012FFF7F0FBE0B2FFF7EDFB2012FFF7A7
:100EA000EAFBE0B2FFF7E7FBEF498889FFF7DAFBDF
:100EB0002812FFF7E0FBE8B2FFF7DDFB2812FFF78F
:100EC000DAFBE8B2FFF7D7FB36E0E748808846F662
:100ED000040188421DD1E4488079012804D1E24808
:100EE0000088401E001B84B2DF494889FFF7BAFB27
:100EF0002012FFF7C0FBE0B2FFF7BDFBDA4988899B
:100F0000FFF7B0FB2812FFF7B6FBE8B2FFF7B3FB21
:100F100012E0D5488079012804D1D3480088401ECA
:100F2000001B84B2D04948892146FFF7B6FBCE4961
:100F300088892946FFF7B1FBCB480089CB49088057
:100F40004FF0D840A0F8006270BD70B52DED048B55
:100F50000446BE20FFF786FB0520FFF78CFB2046EA
:100F600005F021FF41EC190B9FEDC10B53EC102B49
:100F700005F02CFF41EC180B05F0E8FE85B2284681
:100F8000FFF779FB0120FFF776FBFF20FFF773FBEC
:100F90000020FFF770FB0020FFF76DFBBDEC048B1A
:100FA00070BD10B50446002C66D1AF498871F020A1
:100FB00008804FF4A07048800846808849F241318B
:100FC00088420BD0A848808846F60401884205D0A4
:100FD000A548808845F2103188421AD12C20A249B8
:100FE00008812A2048812B2088810846808846F67F
:100FF0000401884205D09C48808845F2103188421F
:1010000006D14FF4A070984908804FF4F0704880E2
:10101000A1E09548808845F21051884210D14FF4E4
:101020003050914908814FF4285048814FF42C509A
:1010300088814FF4F07008804FF4487048808AE04F
:101040008948808841F6631188420DD12C20864959
:1010500008812B2048812A2088814FF4F070088075
:101060004FF44870488076E022207F490881202094
:101070004881212088816EE001207B4988714FF4EE
:10108000A0700880F02048800846808849F24131ED
:10109000884205D07448808845F21031884207D1D3
:1010A0002C20714908812A2048812B2088813FE02B
:1010B0006D48808846F60401884207D12C206A4991
:1010C00008812B2048812A20888131E06648808869
:1010D00045F21051884210D14FF4305062490881D6
:1010E0004FF4285048814FF42C5088814FF44870B9
:1010F00008804FF4F07048801AE05B48808841F621
:10110000631188420DD12C20574908812A2048813B
:101110002B2088814FF4487008804FF4F07048808D
:1011200006E0222050490881212048812020888122
:101130004D48808846F60401884205D04A48808898
:1011400045F21031884206D14FF4F07046490880CC
:101150004FF4A07048800020FFF7B3FC10BD2DE9CC
:10116000F04F86B004460D469046994604EB0800C1
:10117000401E86B205EB0900401E87B23A488088BF
:1011800049F24131884215D03748808845F2103104
:1011900088420FD03448808846F60401884209D03E
:1011A00031488079012826D12F48808841F6631183
:1011B000884220D12C494889FFF754FA2012FFF7C2
:1011C0005AFAE0B2FFF757FA3012FFF754FAF0B2CA
:1011D000FFF751FA24498889FFF744FA2812FFF7EC
:1011E0004AFAE8B2FFF747FA3812FFF744FAF8B2C2
:1011F000FFF741FAC1E01C48808841F6631188423C
:101200003DD119480088A0EB0800001B84B205EB13
:101210000900401E1FFA80F913494889FFF722FA96
:101220002012FFF728FAE0B2FFF725FA04EB0801D5
:10123000491EC1F30F20FFF71EFA04EB0801491EF7
:10124000C8B2FFF718FA08498889FFF70BFA281285
:10125000FFF711FAE8B2FFF70EFA4FEA2920FFF77D
:101260000AFA09F0FF0007E034000020FE01006CDC
:101270006666666666660440FFF7FDF97DE0FE4837
:10128000808845F21051884244D1FB494889FFF7D4
:10129000E9F92012FFF7EFF9F7494989491C88B2AB
:1012A000FFF7E0F9E0B2FFF7E6F9F3494989891C55
:1012B00088B2FFF7D7F93012FFF7DDF9EE49498917
:1012C000C91C88B2FFF7CEF9F0B2FFF7D4F9EA49AA
:1012D0008889FFF7C7F92812FFF7CDF9E649898910
:1012E000491C88B2FFF7BEF9E8B2FFF7C4F9E2493A
:1012F0008989891C88B2FFF7B5F93812FFF7BBF965
:10130000DD498989C91C88B2FFF7ACF9F8B2FFF74B
:10131000B2F932E0D848807901280ED1AA46BB46FE
:10132000D5480088801B401E80B20190D2480088BA
:10133000001B401E80B2009003E0A246B346019518
:101340000097502005905120049052200390532084
:10135000029051460598FFF7A0F959460498FFF707
:101360009CF901990398FFF798F900990298FFF703
:1013700094F929462046FFF7BFF906B0BDE8F08F83
:1013800070B504460026BC48058840884543BA48E5
:10139000808846F60401884216D1B7488079012832
:1013A00012D10020B44988712A2048812B208881DD
:1013B00000210846FFF7A0F90120AF4988712B20D2
:1013C00048812A20888103E000210846FFF794F92C
:1013D000FFF775F9002602E0A8480480761CAE42AB
:1013E000FAD370BD00B5A1B00020209001217A2071
:1013F00005F002F80121084605F036F84FF40050D8
:101400001E9001208DF87C0000208DF87E000220C7
:101410008DF87D0001208DF87F001EA9984804F00A
:1014200069FA4CF233701E9002208DF87C00002087
:101430008DF87E0003208DF87D0001208DF87F005F
:101440001EA98F4804F056FA4FF680701E900220B5
:101450008DF87C0000208DF87E0003208DF87D0043
:1014600001208DF87F001EA9864804F043FA4FF44E
:1014700080401E9002208DF87C0000208DF87E00B8
:1014800003208DF87D0001208DF87F001EA97E4885
:1014900004F030FA4FF480501E9002208DF87C004A
:1014A00000208DF87E0003208DF87D0001208DF84E
:1014B0007F001EA9754804F01DFA0C220021704817
:1014C00004F0A3FA0C2201216D4804F09EFA0C22CC
:1014D00004216B4804F099FA0C220521684804F0B5
:1014E00094FA0C220821664804F08FFA0C22092194
:1014F000634804F08AFA0C220A21614804F085FA54
:101500000C220E215E4804F080FA0C220F215C4868
:1015100004F07BFA0C2207215A4804F076FA0C22D8
:101520000821584804F071FA0C220921554804F0AA
:101530006CFA0C220A21534804F067FA0C220B21A2
:10154000504804F062FA0C2211464E4804F05DFA4D
:101550000C220D214B4804F058FA0C220E21494868
:1015600004F053FA0C220F21464804F04EFA0C22E4
:101570000E21454804F049FA0C221146434804F074
:1015800044FA0F200890002009903C200A90002087
:101590000B900C900D900E9009200190002002906D
:1015A00008200390002004900590069007900620E4
:1015B0000F90002010901190102012900020139096
:1015C00015901490169017904FF4805018900020AA
:1015D00019904FF480401A9000201B9008A81C908E
:1015E00001A81D900FA804F064FA0121062004F060
:1015F000EBFA322003F0A2FF01210020FFF74DF8A3
:10160000322003F09BFF0020FFF74EF81A49888034
:1016100008468088FF280ADB084680884FF6FF715D
:10162000884204D014488088B0F5134F7DD1D32070
:10163000FFF718F8FFF729F80F498880FFF725F81A
:101640000D498880FFF721F80B498880084680887B
:101650004FF6FF7101EA002007498880FFF715F86F
:10166000054989880843044988800846808849F2EA
:101670004131884259D00BE0340000200002006C58
:10168000000C02400010024000140240001802400A
:10169000BF20FEF7E7FFFEF7F8FFFE498880FEF760
:1016A000F4FFFC498880FEF7F0FFFA498880FEF7D6
:1016B000ECFFF8498880084680884FF6FF7101EA00
:1016C0000020F4498880FEF7E0FFF249898808434A
:1016D000F04988800846808846F6040188427AD01E
:1016E000D420FEF7BFFFFEF7D0FFEA498880FEF75F
:1016F000CCFFE8498880FEF7C8FFE64988800846A5
:1017000080884FF6FF7101EA0020E2498880FEF7E9
:10171000BCFFE04989880843DE4988800846808804
:1017200045F21031884256D000E054E04FF45A4060
:10173000FEF798FFFEF7A9FFD64988804FF45B407B
:10174000FEF790FFFEF7A1FFD24988800846808807
:101750004FF6FF7101EA0020CE4988804FF45C40CB
:10176000FEF780FFFEF791FFCA4989880843C949FF
:10177000888008468088B0F5004F02D145F21050AD
:101780008880C448808845F21051884223D0A12027
:10179000FEF768FFFEF779FFBE498880FEF775FF08
:1017A000BC498880084680884FF6FF7101EA002016
:1017B000B8498880FEF769FFB64989880843B5496A
:1017C00088800846808845F26171884203D141F6DD
:1017D0006310B0498880AF48808849F2413188421F
:1017E00011D0AC48808845F2103188420BD0A9480E
:1017F000808845F21051884205D0A648808841F67D
:10180000631188421DD1A448006820F00F004FF0FA
:101810002041C1F81C010846D0F81C0120F470607A
:10182000C1F81C010846D0F81C0140F00300C1F8C3
:101830001C010846D0F81C0140F40070C1F81C01DE
:1018400028E09448808846F60401884205D09148F3
:1018500080884CF2055188421CD18F48006820F0E6
:101860000F004FF02041C1F81C010846D0F81C01C0
:1018700020F47060C1F81C010846D0F81C0140F04B
:101880000A00C1F81C010846D0F81C0140F4406071
:10189000C1F81C017F48818880A005F02DF97D48A2
:1018A000808849F2413188427ED1CF20FEF7DAFEAE
:1018B0000020FEF7E0FEC120FEF7DDFE3020FEF73F
:1018C000DAFEED20FEF7CEFE6420FEF7D4FE032004
:1018D000FEF7D1FE1220FEF7CEFE8120FEF7CBFEF2
:1018E000E820FEF7BFFE8520FEF7C5FE1020FEF7BC
:1018F000C2FE7A20FEF7BFFECB20FEF7B3FE3920F2
:10190000FEF7B9FE2C20FEF7B6FE0020FEF7B3FE70
:101910003420FEF7B0FE0220FEF7ADFEF720FEF702
:10192000A1FE2020FEF7A7FEEA20FEF79BFE002086
:10193000FEF7A1FE0020FEF79EFEC020FEF792FEFD
:101940001B20FEF798FEC120FEF78CFE0120FEF75B
:1019500092FEC520FEF786FE3020FEF78CFE30207A
:10196000FEF789FEC720FEF77DFEB720FEF783FE57
:101970003620FEF777FE4820FEF77DFE3A20FEF780
:1019800071FE5520FEF777FEB120FEF76BFE0020BA
:10199000FEF771FE1A20FEF76EFEB620FEF762FE1D
:1019A0000A20FEF768FE00E0A5E0A220FEF763FE35
:1019B000F220FEF757FE0020FEF75DFE2620FEF720
:1019C00051FE0120FEF757FEE020FEF74BFE0F20F0
:1019D000FEF751FE2A20FEF74EFE2820FEF74BFEB2
:1019E0000820FEF748FE0E20FEF745FE0820FEF711
:1019F00042FE5420FEF73FFEA920FEF73CFE4320A6
:101A0000FEF739FE0A20FEF736FE0F20FEF733FE02
:101A10000020FEF730FE0020FEF72DFE0020FEF72E
:101A20002AFE0020FEF727FEE120FEF71BFE002025
:101A3000FEF721FE1520FEF71EFE1720FEF71BFE07
:101A40000720FEF718FE1120FEF715FE0620FEF710
:101A500012FE2B20FEF70FFE5620FEF70CFE3C2058
:101A6000FEF709FE0520FEF706FE1020FEF703FE36
:101A70000F20FEF700FE3F20FEF7FDFD3F20FEF7A2
:101A8000FAFD0F20FEF7F7FD2B20FEF7EBFD0020FF
:101A90000CE00000340000201C0100A0204C434456
:101AA0002049443A25780D0A00000000FEF7E3FDC6
:101AB0000020FEF7E0FD0120FEF7DDFD3F20FEF7F0
:101AC000DAFD2A20FEF7CEFD0020FEF7D4FD00202F
:101AD000FEF7D1FD0020FEF7CEFDEF20FEF7CBFD97
:101AE0001120FEF7BFFD782003F028FD2920FEF726
:101AF000B9FD03F01DB9FE48808846F6040188420E
:101B00007ED11120FEF7AEFD142003F017FDD0208A
:101B1000FEF7A8FD0720FEF7AEFD4220FEF7ABFD65
:101B20001D20FEF7A8FDD120FEF79CFD0020FEF74A
:101B3000A2FD1A20FEF79FFD0920FEF79CFDD22092
:101B4000FEF790FD0120FEF796FD2220FEF793FDA3
:101B5000C020FEF787FD1020FEF78DFD3B20FEF72D
:101B60008AFD0020FEF787FD0220FEF784FD11208C
:101B7000FEF781FDC520FEF775FD0320FEF77BFD16
:101B8000C820FEF76FFD0020FEF775FD2520FEF74B
:101B900072FD2120FEF76FFD0520FEF76CFD002091
:101BA000FEF769FD0A20FEF766FD6520FEF763FD7E
:101BB0002520FEF760FD7720FEF75DFD5020FEF743
:101BC0005AFD0F20FEF757FD0020FEF754FDF820C8
:101BD000FEF748FD0120FEF74EFDFE20FEF742FD18
:101BE0000020FEF748FD0220FEF745FD2020FEF70D
:101BF00039FD3620FEF736FD0820FEF73CFD00E0FB
:101C00002AE03A20FEF72EFD5520FEF734FD2B206A
:101C1000FEF728FD0020FEF72EFD0020FEF72BFD2D
:101C20000120FEF728FD3F20FEF725FD2A20FEF7C4
:101C300019FD0020FEF71FFD0020FEF71CFD01200E
:101C4000FEF719FDDF20FEF716FD782003F076FC85
:101C50002920FEF707FD4CE7A548808845F21031A2
:101C6000884240F07C87ED20FEF7FCFC0120FEF767
:101C700002FDFE20FEF7FFFCEE20FEF7F3FCDE2067
:101C8000FEF7F9FC2120FEF7F6FCF120FEF7EAFC56
:101C90000120FEF7F0FCDF20FEF7E4FC1020FEF749
:101CA000EAFCC420FEF7DEFC8F20FEF7E4FCC62031
:101CB000FEF7D8FC0020FEF7DEFCE220FEF7DBFC9E
:101CC000E220FEF7D8FCE220FEF7D5FCBF20FEF7AD
:101CD000C9FCAA20FEF7CFFCB020FEF7C3FC0D2004
:101CE000FEF7C9FC0020FEF7C6FC0D20FEF7C3FC82
:101CF0000020FEF7C0FC1120FEF7BDFC0020FEF71F
:101D0000BAFC1920FEF7B7FC0020FEF7B4FC212036
:101D1000FEF7B1FC0020FEF7AEFC2D20FEF7ABFC79
:101D20000020FEF7A8FC3D20FEF7A5FC0020FEF7F2
:101D3000A2FC5D20FEF79FFC0020FEF79CFC5D20CE
:101D4000FEF799FC0020FEF796FCB120FEF78AFC16
:101D50008020FEF790FC0020FEF78DFC8B20FEF724
:101D60008AFC0020FEF787FC9620FEF784FC00200A
:101D7000FEF781FCB220FEF775FC0020FEF77BFC2D
:101D80000020FEF778FC0220FEF775FC0020FEF72D
:101D900072FC0320FEF76FFC0020FEF76CFCB32002
:101DA000FEF760FC0020FEF766FC0020FEF763FCF7
:101DB0000020FEF760FC0020FEF75DFC0020FEF72F
:101DC0005AFC0020FEF757FC0020FEF754FC0020D0
:101DD000FEF751FC0020FEF74EFC0020FEF74BFC06
:101DE0000020FEF748FC0020FEF745FC0020FEF72F
:101DF00042FC0020FEF73FFC0020FEF73CFC0020E8
:101E0000FEF739FC0020FEF736FC0020FEF733FC1D
:101E10000020FEF730FC0020FEF72DFC0020FEF72E
:101E20002AFC0020FEF727FC0020FEF724FC0020FF
:101E3000FEF721FCB420FEF715FC8B20FEF71BFCFF
:101E40000020FEF718FC9620FEF715FC0020FEF798
:101E500012FCA120FEF70FFC0020FEF70CFCB520C1
:101E6000FEF700FC0220FEF706FC0020FEF703FC54
:101E70000320FEF700FC0020FEF7FDFB0420FEF728
:101E8000FAFB0020FEF7F7FBB620FEF7EBFB002085
:101E9000FEF7F1FB0020FEF7EEFBB720FEF7E2FBBA
:101EA0000020FEF7E8FB0020FEF7E5FB3F20FEF7F1
:101EB000E2FB0020FEF7DFFB5E20FEF7DCFB0020EC
:101EC000FEF7D9FB6420FEF7D6FB0020FEF7D3FB1C
:101ED0008C20FEF7D0FB0020FEF7CDFBAC20FEF7F8
:101EE000CAFB0020FEF7C7FBDC20FEF7C4FB01E0C5
:101EF000340000200020FEF7BEFB7020FEF7BBFB85
:101F00000020FEF7B8FB9020FEF7B5FB0020FEF79F
:101F1000B2FBEB20FEF7AFFB0020FEF7ACFBDC20B2
:101F2000FEF7A9FB0020FEF7A6FBB820FEF79AFB00
:101F30000020FEF7A0FB0020FEF79DFB0020FEF72F
:101F40009AFB0020FEF797FB0020FEF794FB002091
:101F5000FEF791FB0020FEF78EFB0020FEF78BFBC7
:101F6000BA20FEF77FFB2420FEF785FB0020FEF75A
:101F700082FB0020FEF77FFB0020FEF77CFBC120E8
:101F8000FEF770FB2020FEF776FB0020FEF773FBC8
:101F90005420FEF770FB0020FEF76DFBFF20FEF7DC
:101FA0006AFB0020FEF767FBC220FEF75BFB0A20FE
:101FB000FEF761FB0020FEF75EFB0420FEF75BFBF3
:101FC0000020FEF758FBC320FEF74CFB3C20FEF739
:101FD00052FB0020FEF74FFB3A20FEF74CFB00209F
:101FE000FEF749FB3920FEF746FB0020FEF743FBD6
:101FF0003720FEF740FB0020FEF73DFB3C20FEF7BC
:102000003AFB0020FEF737FB3620FEF734FB0020BA
:10201000FEF731FB3220FEF72EFB0020FEF72BFBF4
:102020002F20FEF728FB0020FEF725FB2C20FEF7D3
:1020300022FB0020FEF71FFB2920FEF71CFB0020DF
:10204000FEF719FB2620FEF716FB0020FEF713FB18
:102050002420FEF710FB0020FEF70DFB2420FEF7E6
:102060000AFB0020FEF707FB2320FEF704FB0020FD
:10207000FEF701FB3C20FEF7FEFA0020FEF7FBFA1C
:102080003620FEF7F8FA0020FEF7F5FA3220FEF7C8
:10209000F2FA0020FEF7EFFA2F20FEF7ECFA00200C
:1020A000FEF7E9FA2C20FEF7E6FA0020FEF7E3FA45
:1020B0002920FEF7E0FA0020FEF7DDFA2620FEF7E1
:1020C000DAFA0020FEF7D7FA2420FEF7D4FA00202F
:1020D000FEF7D1FA2420FEF7CEFA0020FEF7CBFA65
:1020E0002320FEF7C8FA0020FEF7C5FAC420FEF749
:1020F000B9FA6220FEF7BFFA0020FEF7BCFA05200D
:10210000FEF7B9FA0020FEF7B6FA8420FEF7B3FA1C
:102110000020FEF7B0FAF020FEF7ADFA0020FEF73F
:10212000AAFA1820FEF7A7FA0020FEF7A4FAA420C6
:10213000FEF7A1FA0020FEF79EFA1820FEF79BFAA0
:102140000020FEF798FA5020FEF795FA0020FEF7DF
:1021500092FA0C20FEF78FFA0020FEF78CFA172077
:10216000FEF789FA0020FEF786FA9520FEF783FA3B
:102170000020FEF780FAF320FEF77DFA0020FEF73C
:102180007AFAE620FEF777FA0020FEF774FAC52007
:10219000FEF768FA3220FEF76EFA0020FEF76BFABF
:1021A0004420FEF768FA0020FEF765FA6520FEF786
:1021B00062FA0020FEF75FFA7620FEF75CFA002054
:1021C000FEF759FA8820FEF756FA0020FEF753FA78
:1021D000C620FEF747FA2020FEF74DFA0020FEF752
:1021E0004AFA1720FEF747FA0020FEF744FA0120CA
:1021F000FEF741FA0020FEF73EFAC720FEF732FA5A
:102200000020FEF738FA0020FEF735FA0020FEF72E
:1022100032FA0020FEF72FFAC820FEF723FA00203A
:10222000FEF729FA0020FEF726FA0020FEF723FA2F
:102230000020FEF720FAC920FEF714FA0020FEF76E
:102240001AFA0020FEF717FA0020FEF714FA002011
:10225000FEF711FA0020FEF70EFA0020FEF70BFA47
:102260000020FEF708FA0020FEF705FA0020FEF72E
:1022700002FA0020FEF7FFF90020FEF7FCF900202B
:10228000FEF7F9F90020FEF7F6F90020FEF7F3F962
:102290000020FEF7F0F90020FEF7EDF9E020FEF750
:1022A000E1F91620FEF7E7F90020FEF7E4F91C201B
:1022B000FEF7E1F90020FEF7DEF92120FEF7DBF959
:1022C0000020FEF7D8F93620FEF7D5F90020FEF7FA
:1022D000D2F94620FEF7CFF90020FEF7CCF95220C4
:1022E000FEF7C9F90020FEF7C6F96420FEF7C3F92E
:1022F0000020FEF7C0F97A20FEF7BDF90020FEF7B6
:10230000BAF98B20FEF7B7F90020FEF7B4F999204F
:10231000FEF7B1F90020FEF7AEF9A820FEF7ABF901
:102320000020FEF7A8F9B920FEF7A5F90020FEF776
:10233000A2F9C420FEF79FF90020FEF79CF9CA20FD
:10234000FEF799F90020FEF796F9D220FEF793F9EF
:102350000020FEF790F9D920FEF78DF90020FEF756
:102360008AF9E020FEF787F90020FEF784F9F320D0
:10237000FEF781F90020FEF77EF9E120FEF772F901
:102380001620FEF778F90020FEF775F91C20FEF7FD
:1023900072F90020FEF76FF92220FEF76CF9002099
:1023A000FEF769F93620FEF766F90020FEF763F9BB
:1023B0004520FEF760F90020FEF75DF95220FEF798
:1023C0005AF90020FEF757F96420FEF754F900206F
:1023D000FEF751F97A20FEF74EF90020FEF74BF98F
:1023E0008B20FEF748F90020FEF745F99920FEF70B
:1023F00042F90020FEF73FF9A820FEF73CF9002043
:10240000FEF739F9B920FEF736F90020FEF733F967
:10241000C420FEF730F90020FEF72DF9CA20FEF7A0
:102420002AF90020FEF727F9D220FEF724F9002030
:10243000FEF721F9D820FEF71EF90020FEF71BF960
:10244000E020FEF718F90020FEF715F9F320FEF75B
:1024500012F90020FEF70FF9E220FEF703F905203C
:10246000FEF709F90020FEF706F90B20FEF703F945
:102470000020FEF700F91B20FEF7FDF80020FEF714
:10248000FAF83420FEF7F7F80020FEF7F4F84420BD
:10249000FEF7F1F80020FEF7EEF84F20FEF7EBF81C
:1024A0000020FEF7E8F86120FEF7E5F80020FEF7CF
:1024B000E2F87920FEF7DFF80020FEF7DCF888204C
:1024C000FEF7D9F80020FEF7D6F89720FEF7D3F8EC
:1024D0000020FEF7D0F8A620FEF7CDF80020FEF78A
:1024E000CAF8B720FEF7C7F80020FEF7C4F8C220EC
:1024F000FEF7C1F80020FEF7BEF8C720FEF7BBF8D4
:102500000020FEF7B8F8D120FEF7B5F80020FEF75E
:10251000B2F8D620FEF7AFF80020FEF7ACF8DD20C9
:10252000FEF7A9F80020FEF7A6F8F320FEF7A3F8BF
:102530000020FEF7A0F8E320FEF794F80520FEF750
:102540009AF80020FEF797F80A20FEF794F800208A
:10255000FEF791F81C20FEF78EF80020FEF78BF8AE
:102560003320FEF788F80020FEF785F84420FEF7B8
:1025700082F80020FEF77FF85020FEF77CF800205C
:10258000FEF779F86220FEF776F80020FEF773F880
:102590007820FEF770F80020FEF76DF88820FEF72F
:1025A0006AF80020FEF767F89720FEF764F800202D
:1025B000FEF761F8A620FEF75EF80020FEF75BF854
:1025C000B720FEF758F80020FEF755F8C220FEF7B6
:1025D00052F80020FEF74FF8C720FEF74CF8002015
:1025E000FEF749F8D120FEF746F80020FEF743F841
:1025F000D520FEF740F80020FEF73DF8DD20FEF77D
:102600003AF80020FEF737F8F320FEF734F8002000
:10261000FEF731F8E420FEF725F80120FEF72BF84D
:102620000020FEF728F80120FEF725F80020FEF72D
:1026300022F80220FEF71FF80020FEF71CF82A20DF
:10264000FEF719F80020FEF716F83C20FEF713F805
:102650000020FEF710F84B20FEF70DF80020FEF7E3
:102660000AF85D20FEF707F80020FEF704F8742052
:10267000FEF701F80020FDF7FEFF8420FDF7FBFFC9
:102680000020FDF7F8FF9320FDF7F5FF0020FDF790
:10269000F2FFA220FDF7EFFF0020FDF7ECFFB320D3
:1026A000FDF7E9FF0020FDF7E6FFBE20FDF7E3FFA1
:1026B0000020FDF7E0FFC420FDF7DDFF0020FDF75F
:1026C000DAFFCD20FDF7D7FF0020FDF7D4FFD320A0
:1026D000FDF7D1FF0020FDF7CEFFDD20FDF7CBFF9A
:1026E0000020FDF7C8FFF320FDF7C5FF0020FDF730
:1026F000C2FFE520FDF7B6FF0020FDF7BCFF00207C
:10270000FDF7B9FF0020FDF7B6FF0020FDF7B3FF8E
:102710000220FDF7B0FF0020FDF7ADFF2920FDF7F7
:10272000AAFF0020FDF7A7FF3C20FDF7A4FF002033
:10273000FDF7A1FF4B20FDF79EFF0020FDF79BFF5B
:102740005D20FDF798FF0020FDF795FF7420FDF751
:1027500092FF0020FDF78FFF8420FDF78CFF002003
:10276000FDF789FF9320FDF786FF0020FDF783FF2B
:10277000A220FDF780FF0020FDF77DFFB320FDF7CD
:102780007AFF0020FDF777FFBE20FDF774FF0020E1
:10279000FDF771FFC420FDF76EFF0020FDF76BFF12
:1027A000CD20FDF768FF0020FDF765FFD320FDF782
:1027B00062FF0020FDF75FFFDC20FDF75CFF0020DB
:1027C000FDF759FFF320FDF756FF0020FDF753FFFB
:1027D000E620FDF747FF1120FDF74DFF0020FDF734
:1027E0004AFF3420FDF747FF0020FDF744FF562045
:1027F000FDF741FF0020FDF73EFF7620FDF73BFF90
:102800000020FDF738FF7720FDF735FF0020FDF7AA
:1028100032FF6620FDF72FFF0020FDF72CFF8820F8
:10282000FDF729FF0020FDF726FF9920FDF723FF84
:102830000020FDF720FFBB20FDF71DFF0020FDF766
:102840001AFF9920FDF717FF0020FDF714FF6620FF
:10285000FDF711FF0020FDF70EFF5520FDF70BFFE0
:102860000020FDF708FF5520FDF705FF0020FDF7CC
:1028700002FF4520FDF7FFFE0020FDF7FCFE432090
:10288000FDF7F9FE0020FDF7F6FE4420FDF7F3FE0C
:102890000020FDF7F0FEE720FDF7E4FE3220FDF713
:1028A000EAFE0020FDF7E7FE5520FDF7E4FE0020DC
:1028B000FDF7E1FE7620FDF7DEFE0020FDF7DBFEF2
:1028C0006620FDF7D8FE0020FDF7D5FE6720FDF756
:1028D000D2FE0020FDF7CFFE6720FDF7CCFE0020E2
:1028E000FDF7C9FE8720FDF7C6FE0020FDF7C3FEF9
:1028F0009920FDF7C0FE0020FDF7BDFEBB20FDF7CF
:10290000BAFE0020FDF7B7FE9920FDF7B4FE0020C7
:10291000FDF7B1FE7720FDF7AEFE0020FDF7ABFE20
:102920004420FDF7A8FE0020FDF7A5FE5620FDF788
:10293000A2FE0020FDF79FFE2320FDF79CFE002055
:10294000FDF799FE3320FDF796FE0020FDF793FE7C
:102950004520FDF790FE0020FDF78DFEE820FDF7F5
:1029600081FE0020FDF787FE0020FDF784FE992000
:10297000FDF781FE0020FDF77EFE8720FDF77BFE40
:102980000020FDF778FE8820FDF775FE0020FDF79A
:1029900072FE7720FDF76FFE0020FDF76CFE6620CB
:1029A000FDF769FE0020FDF766FE8820FDF763FE57
:1029B0000020FDF760FEAA20FDF75DFE0020FDF778
:1029C0005AFEBB20FDF757FE0020FDF754FE99206C
:1029D000FDF751FE0020FDF74EFE6620FDF74BFE91
:1029E0000020FDF748FE5520FDF745FE0020FDF7CD
:1029F00042FE5520FDF73FFE0020FDF73CFE44203F
:102A0000FDF739FE0020FDF736FE4420FDF733FECA
:102A10000020FDF730FE5520FDF72DFE0020FDF7CC
:102A20002AFEE920FDF71EFEAA20FDF724FE002065
:102A3000FDF721FE0020FDF71EFE0020FDF71BFE26
:102A40000020FDF70FFEAA20FDF715FECF20FDF7B1
:102A500009FE0020FDF70FFE0020FDF70CFE002010
:102A6000FDF709FE0020FDF706FE0020FDF703FE3E
:102A70000020FDF700FE0020FDF7FDFD0020FDF722
:102A8000FAFD0020FDF7F7FD0020FDF7F4FD002022
:102A9000FDF7F1FD0020FDF7EEFD0020FDF7EBFD59
:102AA0000020FDF7E8FD0020FDF7E5FD0020FDF723
:102AB000E2FD0020FDF7DFFDF020FDF7D3FD002053
:102AC000FDF7D9FD5020FDF7D6FD0020FDF7D3FD21
:102AD0000020FDF7D0FD0020FDF7CDFDF320FDF730
:102AE000C1FD0020FDF7C7FDF920FDF7BBFD062065
:102AF000FDF7C1FD1020FDF7BEFD2920FDF7BBFD50
:102B00000020FDF7B8FD3A20FDF7ACFD5520FDF79C
:102B1000B2FD1120FDF7A6FD642002F00FFD292073
:102B2000FDF7A0FD3520FDF79DFD0020FDF7A3FD7D
:102B30005120FDF797FDFF20FDF79DFD5320FDF788
:102B400091FD2C20FDF797FD5520FDF78BFD822090
:102B5000FDF791FD2C20FDF785FD02F0E9B8FE4858
:102B6000808845F2105188427ED155214FF4704043
:102B7000FDF793FDAA214FF20100FDF78EFD5221D2
:102B80004FF20200FDF789FD08214FF20300FDF727
:102B900084FD01214FF20400FDF77FFD0D214FF46C
:102BA0003040FDF77AFD0D214BF20100FDF775FD78
:102BB0000D214BF20200FDF770FD34214FF4364039
:102BC000FDF76BFD34214BF20160FDF766FD34210A
:102BD0004BF20260FDF761FD0D214FF43140FDF72E
:102BE0005CFD0D214BF20110FDF757FD0D214BF25D
:102BF0000210FDF752FD34214FF43740FDF74DFD33
:102C000034214BF20170FDF748FD34214BF2027084
:102C1000FDF743FD00214FF43240FDF73EFD00215A
:102C20004BF20120FDF739FD00214BF20220FDF7A8
:102C300034FD24214FF43840FDF72FFD24214BF6BD
:102C40000100FDF72AFD24214BF60200FDF725FDCA
:102C500001214FF43F40FDF720FD0F214FF4334099
:102C6000FDF71BFD0F2100E0FEE34BF20130FDF705
:102C700014FD0F214BF20230FDF70FFD34214FF40C
:102C80003940FDF70AFD34214BF60110FDF705FD33
:102C900034214BF60210FDF700FD08214FF43540BA
:102CA000FDF7FBFC08214BF20150FDF7F6FC082173
:102CB0004BF20250FDF7F1FC03214FF44240FDF7C7
:102CC000ECFC24214FF43A40FDF7E7FC24214BF6BD
:102CD0000120FDF7E2FC24214BF60220FDF7DDFC8C
:102CE00000214FF43C40FDF7D8FC78214BF6014021
:102CF000FDF7D3FC00214BF60240FDF7CEFC00218E
:102D00004FF43D40FDF7C9FC78214BF60150FDF72B
:102D1000C4FC00214BF60250FDF7BFFC00214FF42C
:102D20003E40FDF7BAFC64214BF60160FDF7B5FCAF
:102D300000214FF45140FDF7B0FC33214DF201105A
:102D4000FDF7ABFC00214DF20210FDF7A6FC34218B
:102D50004DF20310FDF7A1FC00214DF20410FDF728
:102D60009CFC3A214DF20510FDF797FC00214DF235
:102D70000610FDF792FC4A214DF20710FDF78DFC7D
:102D800000214DF20810FDF788FC5C214DF209107E
:102D9000FDF783FC00214DF20A10FDF77EFC812136
:102DA0004DF20B10FDF779FC00214DF20C10FDF7F0
:102DB00074FCA6214DF20D10FDF76FFC00214DF2C1
:102DC0000E10FDF76AFCE5214DF20F10FDF765FCD2
:102DD00001214DF21010FDF760FC13214DF211108E
:102DE000FDF75BFC01214DF21210FDF756FC54215A
:102DF0004DF21310FDF751FC01214DF21410FDF7B7
:102E00004CFC82214DF21510FDF747FC01214DF2DB
:102E10001610FDF742FCCA214DF21710FDF73DFCDC
:102E200002214DF21810FDF738FC00214DF2191067
:102E3000FDF733FC02214DF21A10FDF72EFC0121A3
:102E40004DF21B10FDF729FC02214DF21C10FDF77D
:102E500024FC34214DF21D10FDF71FFC02214DF220
:102E60001E10FDF71AFC67214DF21F10FDF715FC2F
:102E700002214DF22010FDF710FC84214DF22110AB
:102E8000FDF70BFC02214DF22210FDF706FCA421F8
:102E90004DF22310FDF701FC02214DF22410FDF745
:102EA000FCFBB7214DF22510FDF7F7FB02214DF297
:102EB0002610FDF7F2FBCF214DF22710FDF7EDFBB9
:102EC00002214DF22810FDF7E8FBDE214DF229101A
:102ED000FDF7E3FB02214DF22A10FDF7DEFBF221A4
:102EE0004DF22B10FDF7D9FB02214DF22C10FDF70E
:102EF000D4FBFE214DF22D10FDF7CFFB03214DF247
:102F00002E10FDF7CAFB10214DF22F10FDF7C5FB67
:102F100003214DF23010FDF7C0FB33214DF231108B
:102F2000FDF7BBFB03214DF23210FDF7B6FB6D211F
:102F30004DF23310FDF7B1FB00214FF45240FDF785
:102F4000ACFB33214DF20120FDF7A7FB00214DF230
:102F50000220FDF7A2FB01E03400002034214DF2F5
:102F60000320FDF79AFB00214DF20420FDF795FBAD
:102F70003A214DF20520FDF790FB00214DF206208D
:102F8000FDF78BFB4A214DF20720FDF786FB002160
:102F90004DF20820FDF781FB5C214DF20920FDF781
:102FA0007CFB00214DF20A20FDF777FB81214DF2D9
:102FB0000B20FDF772FB00214DF20C20FDF76DFB9D
:102FC000A6214DF20D20FDF768FB00214DF20E20E9
:102FD000FDF763FBE5214DF20F20FDF75EFB0121BC
:102FE0004DF21020FDF759FB13214DF21120FDF792
:102FF00054FB01214DF21220FDF74FFB54214DF2FD
:103000001320FDF74AFB01214DF21420FDF745FB8B
:1030100082214DF21520FDF740FB01214DF21620D3
:10302000FDF73BFBCA214DF21720FDF736FB0221CD
:103030004DF21820FDF731FB00214DF21920FDF76C
:103040002CFB02214DF21A20FDF727FB01214DF246
:103050001B20FDF722FB02214DF21C20FDF71DFB7A
:1030600034214DF21D20FDF718FB02214DF21E20E8
:10307000FDF713FB67214DF21F20FDF70EFB022128
:103080004DF22020FDF709FB84214DF22120FDF7B0
:1030900004FB02214DF22220FDF7FFFAA4214DF29C
:1030A0002320FDF7FAFA02214DF22420FDF7F5FA6C
:1030B000B7214DF22520FDF7F0FA02214DF226202E
:1030C000FDF7EBFACF214DF22720FDF7E6FA0221BA
:1030D0004DF22820FDF7E1FADE214DF22920FDF71F
:1030E000DCFA02214DF22A20FDF7D7FAF2214DF247
:1030F0002B20FDF7D2FA02214DF22C20FDF7CDFA5C
:10310000FE214DF22D20FDF7C8FA03214DF22E20AD
:10311000FDF7C3FA10214DF22F20FDF7BEFA03216F
:103120004DF23020FDF7B9FA33214DF23120FDF791
:10313000B4FA03214DF23220FDF7AFFA6D214DF2C2
:103140003320FDF7AAFA00214FF45340FDF7A5FA0A
:1031500033214DF20130FDF7A0FA00214DF202308B
:10316000FDF79BFA34214DF20330FDF796FA00216A
:103170004DF20430FDF791FA3A214DF20530FDF79A
:103180008CFA00214DF20630FDF787FA4A214DF204
:103190000730FDF782FA00214DF20830FDF77DFA85
:1031A0005C214DF20930FDF778FA00214DF20A302A
:1031B000FDF773FA81214DF20B30FDF76EFA002115
:1031C0004DF20C30FDF769FAA6214DF20D30FDF7F6
:1031D00064FA00214DF20E30FDF75FFAE5214DF261
:1031E0000F30FDF75AFA01214DF21030FDF755FA74
:1031F00013214DF21130FDF750FA01214DF212303A
:10320000FDF74BFA54214DF21330FDF746FA012138
:103210004DF21430FDF741FA82214DF21530FDF7E1
:103220003CFA01214DF21630FDF737FACA214DF272
:103230001730FDF732FA02214DF21830FDF72DFA62
:1032400000214DF21930FDF728FA02214DF21A3013
:10325000FDF723FA01214DF21B30FDF71EFA022182
:103260004DF21C30FDF719FA34214DF21D30FDF7F7
:1032700014FA02214DF21E30FDF70FFA67214DF2CC
:103280001F30FDF70AFA02214DF22030FDF705FA52
:1032900084214DF22130FDF700FA02214DF2223057
:1032A000FDF7FBF9A4214DF22330FDF7F6F90221D9
:1032B0004DF22430FDF7F1F9B7214DF22530FDF73D
:1032C000ECF902214DF22630FDF7E7F9CF214DF25E
:1032D0002730FDF7E2F902214DF22830FDF7DDF944
:1032E000DE214DF22930FDF7D8F902214DF22A30C6
:1032F000FDF7D3F9F2214DF22B30FDF7CEF9022183
:103300004DF22C30FDF7C9F9FE214DF22D30FDF7BD
:10331000C4F903214DF22E30FDF7BFF910214DF213
:103320002F30FDF7BAF903214DF23030FDF7B5F932
:1033300033214DF23130FDF7B0F903214DF2323037
:10334000FDF7ABF96D214DF23330FDF7A6F9002101
:103350004FF45440FDF7A1F933214DF20140FDF740
:103360009CF900214DF20240FDF797F934214DF20E
:103370000340FDF792F900214DF20440FDF78DF96D
:103380003A214DF20540FDF788F900214DF2064043
:10339000FDF783F94A214DF20740FDF77EF9002140
:1033A0004DF20840FDF779F95C214DF20940FDF737
:1033B00074F900214DF20A40FDF76FF981214DF2B9
:1033C0000B40FDF76AF900214DF20C40FDF765F95D
:1033D000A6214DF20D40FDF760F900214DF20E409F
:1033E000FDF75BF9E5214DF20F40FDF756F901219C
:1033F0004DF21040FDF751F913214DF21140FDF748
:103400004CF901214DF21240FDF747F954214DF2DC
:103410001340FDF742F901214DF21440FDF73DF94B
:1034200082214DF21540FDF738F901214DF2164089
:10343000FDF733F9CA214DF21740FDF72EF90221AD
:103440004DF21840FDF729F900214DF21940FDF722
:1034500024F902214DF21A40FDF71FF901214DF226
:103460001B40FDF71AF900E004E302214DF21C4075
:10347000FDF713F934214DF21D40FDF70EF902213D
:103480004DF21E40FDF709F967214DF21F40FDF78F
:1034900004F902214DF22040FDF7FFF884214DF29E
:1034A0002140FDF7FAF802214DF22240FDF7F5F830
:1034B000A4214DF22340FDF7F0F802214DF2244003
:1034C000FDF7EBF8B7214DF22540FDF7E6F80221B4
:1034D0004DF22640FDF7E1F8CF214DF22740FDF7F0
:1034E000DCF802214DF22840FDF7D7F8DE214DF23D
:1034F0002940FDF7D2F802214DF22A40FDF7CDF820
:10350000F2214DF22B40FDF7C8F802214DF22C407C
:10351000FDF7C3F8FE214DF22D40FDF7BEF8032163
:103520004DF22E40FDF7B9F810214DF22F40FDF776
:10353000B4F803214DF23040FDF7AFF833214DF2DE
:103540003140FDF7AAF803214DF23240FDF7A5F80E
:103550006D214DF23340FDF7A0F800214FF45540A6
:10356000FDF79BF833214DF20150FDF796F800214D
:103570004DF20250FDF791F834214DF20350FDF762
:103580008CF800214DF20450FDF787F83A214DF2F6
:103590000550FDF782F800214DF20650FDF77DF849
:1035A0004A214DF20750FDF778F800214DF20850FE
:1035B000FDF773F85C214DF20950FDF76EF800211C
:1035C0004DF20A50FDF769F881214DF20B50FDF7DD
:1035D00064F800214DF20C50FDF75FF8A6214DF282
:1035E0000D50FDF75AF800214DF20E50FDF755F839
:1035F000E5214DF20F50FDF750F801214DF210502A
:10360000FDF74BF813214DF21150FDF746F801215B
:103610004DF21250FDF741F854214DF21350FDF7D1
:103620003CF801214DF21450FDF737F882214DF29C
:103630001550FDF732F801214DF21650FDF72DF827
:10364000CA214DF21750FDF728F802214DF218500B
:10365000FDF723F800214DF21950FDF71EF8022165
:103660004DF21A50FDF719F801214DF21B50FDF7EC
:1036700014F802214DF21C50FDF70FF834214DF2E1
:103680001D50FDF70AF802214DF21E50FDF705F816
:1036900067214DF21F50FDF700F802214DF2205036
:1036A000FCF7FBFF84214DF22150FCF7F6FF0221CD
:1036B0004DF22250FCF7F1FFA4214DF22350FCF70C
:1036C000ECFF02214DF22450FCF7E7FFB7214DF249
:1036D0002550FCF7E2FF02214DF22650FCF7DDFFFA
:1036E000CF214DF22750FCF7D8FF02214DF2285090
:1036F000FCF7D3FFDE214DF22950FCF7CEFF02216B
:103700004DF22A50FCF7C9FFF2214DF22B50FCF785
:10371000C4FF02214DF22C50FCF7BFFFFE214DF2F9
:103720002D50FCF7BAFF03214DF22E50FCF7B5FFE8
:1037300010214DF22F50FCF7B0FF03214DF2305015
:10374000FCF7ABFF33214DF23150FCF7A6FF03210C
:103750004DF23250FCF7A1FF6D214DF23350FCF7D2
:103760009CFF00214FF45640FCF797FF33214DF2A8
:103770000160FCF792FF00214DF20260FCF78DFF23
:1037800034214DF20360FCF788FF00214DF2046004
:10379000FCF783FF3A214DF20560FCF77EFF002124
:1037A0004DF20660FCF779FF4A214DF20760FCF705
:1037B00074FF00214DF20860FCF76FFF5C214DF2B1
:1037C0000960FCF76AFF00214DF20A60FCF765FF13
:1037D00081214DF20B60FCF760FF00214DF20C607F
:1037E000FCF75BFFA6214DF20D60FCF756FF0021B0
:1037F0004DF20E60FCF751FFE5214DF20F60FCF732
:103800004CFF01214DF21060FCF747FF13214DF2F0
:103810001160FCF742FF01214DF21260FCF73DFF01
:1038200054214DF21360FCF738FF01214DF2146072
:10383000FCF733FF82214DF21560FCF72EFF0121CA
:103840004DF21660FCF729FFCA214DF21760FCF714
:1038500024FF02214DF21860FCF71FFF00214DF2FA
:103860001960FCF71AFF02214DF21A60FCF715FFF0
:1038700001214DF21B60FCF710FF02214DF21C608C
:10388000FCF70BFF34214DF21D60FCF706FF02210F
:103890004DF21E60FCF701FF67214DF21F60FCF73F
:1038A000FCFE02214DF22060FCF7F7FE84214DF270
:1038B0002160FCF7F2FE02214DF22260FCF7EDFEE2
:1038C000A4214DF22360FCF7E8FE02214DF22460B2
:1038D000FCF7E3FEB7214DF22560FCF7DEFE022186
:1038E0004DF22660FCF7D9FECF214DF22760FCF7A0
:1038F000D4FE02214DF22860FCF7CFFEDE214DF20E
:103900002960FCF7CAFE02214DF22A60FCF7C5FED1
:10391000F2214DF22B60FCF7C0FE02214DF22C602B
:10392000FCF7BBFEFE214DF22D60FCF7B6FE032135
:103930004DF22E60FCF7B1FE10214DF22F60FCF726
:10394000ACFE03214DF23060FCF7A7FE33214DF2AF
:103950003160FCF7A2FE03214DF23260FCF79DFEC0
:103960006D214DF23360FCF798FE55214FF4704005
:10397000FCF793FEAA214FF20100FCF78EFE5221C4
:103980004FF20200FCF789FE08214FF20300FCF71A
:1039900084FE00214FF20400FCF77FFECC214FF49F
:1039A0003140FCF77AFE00214BF20110FCF775FE66
:1039B00005214FF43640FCF770FE70214FF437407C
:1039C000FCF76BFE70214BF20170FCF766FE0121E3
:1039D0004FF43840FCF761FE03214BF60100FCF781
:1039E0005CFE03214BF60200FCF757FE03214BF669
:1039F0000300FCF752FE02214FF43C40FCF74DFE61
:103A000000214BF60140FCF748FE00214BF6024036
:103A1000FCF743FED0214FF44940FCF73EFE022163
:103A20004CF60110FCF739FE50214CF60210FCF761
:103A300034FE50214CF60310FCF72FFE50214CF6BB
:103A40000410FCF72AFE00214FF45450FCF725FE29
:103A500055214FF46850FCF720FE4FF48850FCF7D6
:103A600001FE782001F022FD4FF42450FCF7FAFD0E
:103A700001F05EB9FE48808849F2253188427DD147
:103A800047F6F001E520FCF708FE4FF480710120B5
:103A9000FCF703FE4FF4E0610220FCF7FEFD41F26B
:103AA00030010320FCF7F9FD00210420FCF7F5FDAF
:103AB00040F202210820FCF7F0FD00210920FCF76C
:103AC000ECFD00210A20FCF7E8FD00210C20FCF7AA
:103AD000E4FD00210D20FCF7E0FD00210F20FCF7A4
:103AE000DCFD00211020FCF7D8FD07211120FCF798
:103AF000D4FD00211220FCF7D0FD00211320FCF79B
:103B0000CCFD00210720FCF7C8FD41F29061102098
:103B1000FCF7C3FD40F227211120FCF7BEFD9D21DB
:103B20001220FCF7BAFD4FF4C8511320FCF7B5FD85
:103B300025212920FCF7B1FD0D212B20FCF7ADFD3F
:103B400007213020FCF7A9FD40F203313120FCF7BA
:103B5000A4FD03213220FCF7A0FD40F20621352010
:103B6000FCF79BFD08213620FCF797FD40F206414B
:103B70003720FCF792FD4FF4417100E058E0382007
:103B8000FCF78BFD07213920FCF787FD40F202612D
:103B90003C20FCF782FD08213D20FCF77EFD002142
:103BA0005020FCF77AFDEF215120FCF776FD002133
:103BB0005220FCF772FD40F23F115320FCF76DFDDF
:103BC0004FF427416020FCF768FD01216120FCF7DC
:103BD00064FD00216A20FCF760FD00218020FCF7D5
:103BE0005CFD00218120FCF758FD00218220FCF7BC
:103BF00054FD00218320FCF750FD00218420FCF7B8
:103C00004CFD00218520FCF748FD10219020FCF799
:103C100044FD4FF4C0619220FCF73FFD40F23311A8
:103C20000720FCF73AFD22210020FCF736FD1FE7B4
:103C30008F48808849F2283188427DD141F28F0136
:103C4000EC20FCF72AFD41F23421EF20FCF725FDA2
:103C50004FF480710120FCF720FD4FF4E061022059
:103C6000FCF71BFD41F230010320FCF716FD00219B
:103C70000420FCF712FD40F202210820FCF70DFDA4
:103C800000210920FCF709FD00210A20FCF705FDB1
:103C900001210C20FCF701FD00210D20FCF7FDFCAB
:103CA00000210F20FCF7F9FC00211020FCF7F5FCA7
:103CB00007211120FCF7F1FC00211220FCF7EDFC9C
:103CC00000211320FCF7E9FC01210720FCF7E5FCAB
:103CD000322001F033FC41F290411020FCF7DDFC72
:103CE00040F227211120FCF7D8FC322001F026FCFD
:103CF0008A211220FCF7D1FC322001F01FFC4FF486
:103D0000D0511320FCF7C9FC06212920FCF7C5FC83
:103D10000D212B20FCF7C1FC322001F00FFC00210B
:103D20002020FCF7BAFC00212120FCF7B6FC322051
:103D300001F004FC002100E075E03020FCF7ADFC50
:103D400040F204613120FCF7A8FC40F2053132203A
:103D5000FCF7A3FC00213520FCF79FFC40F609414D
:103D60003620FCF79AFC4FF401713720FCF795FCE4
:103D700040F201313820FCF790FC40F20771392005
:103D8000FCF78BFC00213C20FCF787FC40F60A2165
:103D90003D20FCF782FC322001F0D0FB00215020B6
:103DA000FCF77BFCEF215120FCF777FC002152202F
:103DB000FCF773FC40F23F115320FCF76EFC4FF40C
:103DC00027416020FCF769FC01216120FCF765FCBC
:103DD00000216A20FCF761FC00218020FCF75DFCDB
:103DE00000218120FCF759FC00218220FCF755FCC2
:103DF00000218320FCF751FC00218420FCF74DFCBE
:103E000000218520FCF749FC10219020FCF745FC9F
:103E10004FF4C0619220FCF740FC40F233110720C0
:103E2000FCF73BFC24E61248808849F220318842A6
:103E30007ED100210846FCF730FC4FF48071012050
:103E4000FCF72BFC4FF4E0610220FCF726FC41F26A
:103E500030010320FCF721FC00210420FCF71DFCAD
:103E600040F202210820FCF718FC0021092001E0A3
:103E700034000020FCF711FC00210A20FCF70DFCA7
:103E800001210C20FCF709FC00210D20FCF705FCAA
:103E900000210F20FCF701FC322001F04FFB40F223
:103EA00001110720FCF7F9FB322001F047FB4FF42A
:103EB00086511020FCF7F1FB07211120FCF7EDFBE8
:103EC0004FF488711220FCF7E8FB4FF430611320A7
:103ED000FCF7E3FB00212920FCF7DFFB44F2100193
:103EE0002B20FCF7DAFB00215020FCF7D6FBEF215A
:103EF0005120FCF7D2FB00215220FCF7CEFB40F210
:103F00003F115320FCF7C9FB4FF41C516020FCF714
:103F1000C4FB01216120FCF7C0FB00216A20FCF7F3
:103F2000BCFB00218020FCF7B8FB0021812000E0D1
:103F300030E0FCF7B2FB00218220FCF7AEFB002151
:103F40008320FCF7AAFB00218420FCF7A6FB0021BC
:103F50008520FCF7A2FB10219020FCF79EFB00219E
:103F60009220FCF79AFB01219320FCF796FB4FF47B
:103F700088719520FCF791FB00219720FCF78DFBC1
:103F800000219820FCF789FB40F273110720FCF711
:103F900084FB6DE5FE48808849F2313188427DD14D
:103FA00041F21401E720FCF778FB4FF48071012007
:103FB000FCF773FB4FF400710220FCF76EFB41F23B
:103FC00038010320FCF769FB40F202210820FCF7CE
:103FD00064FB00210920FCF760FB00210A20FCF7AC
:103FE0005CFB00210C20FCF758FB00210D20FCF7A6
:103FF00054FB00210F20FCF750FB00211020FCF7A0
:104000004CFB07211120FCF748FB00211220FCF794
:1040100044FB00211320FCF740FBC82001F08EFA7E
:1040200041F290611020FCF738FB40F2272111206B
:10403000FCF733FB322001F081FA0C211220FCF74F
:104040002CFB322001F07AFA4FF400611320FCF7C8
:1040500024FB11212920FCF720FB0B212B20FCF74E
:104060001CFB322001F06AFA00212020FCF715FB2E
:1040700040F23F112120FCF710FB00213020FCF71B
:104080000CFB4FF483713120FCF707FB0021322039
:10409000FCF703FB4FF40171352000E064E0FCF70E
:1040A000FCFA41F20A613620FCF7F7FA40F2077198
:1040B0003720FCF7F2FA4FF483713820FCF7EDFA61
:1040C00040F207713920FCF7E8FA40F202413C2047
:1040D000FCF7E3FA40F60F413D20FCF7DEFA002141
:1040E0005020FCF7DAFAEF215120FCF7D6FA002134
:1040F0005220FCF7D2FA40F23F115320FCF7CDFAE0
:104100004FF41C516020FCF7C8FA01216120FCF734
:10411000C4FA00216A20FCF7C0FA00218020FCF7D5
:10412000BCFA00218120FCF7B8FA00218220FCF7BC
:10413000B4FA00218320FCF7B0FA00218420FCF7B8
:10414000ACFA00218520FCF7A8FA10219020FCF79A
:10415000A4FA4FF4C0619220FCF79FFA40F23311A9
:104160000720FCF79AFA83E48948808845F20841E1
:1041700088427DD14FF480710120FCF78EFA4FF414
:10418000E0610220FCF789FA41F230010320FCF7DC
:1041900084FA00210420FCF780FA40F2072108206D
:1041A000FCF77BFA00210920FCF777FA00210A20AE
:1041B000FCF773FA00210C20FCF76FFA00210D20A8
:1041C000FCF76BFA00210F20FCF767FA142001F0CE
:1041D000B5F941F2B0611020FCF75FFA012111201E
:1041E000FCF75BFA01211720FCF757FA4FF49C719A
:1041F0001220FCF752FA4FF400611320FCF74DFA3D
:1042000009212920FCF749FA09212A20FCF745FA5F
:104210000021A420FCF741FA00215020FCF73DFAD0
:10422000EF215120FCF739FA00215220FCF735FA32
:1042300040F23F115320FCF730FA4FF41C5160203C
:10424000FCF72BFA01216120FCF727FA00216A20F4
:10425000FCF723FA00218020FCF71FFA00218120BF
:10426000FCF71BFA00218220FCF717FA002100E07E
:1042700024E08320FCF711FA00218420FCF70DFADA
:1042800000218520FCF709FA13219020FCF705FA9C
:1042900000219220FCF701FA03219320FCF7FDF99D
:1042A0004FF488719520FCF7F8F940F2731107205C
:1042B000FCF7F3F9322001F041F9B8E43448808882
:1042C00041F2055188427DD100210720FCF7E5F934
:1042D000322001F033F94FF48E711220FCF7DDF932
:1042E0000121A420FCF7D9F90F210820FCF7D5F90A
:1042F00008210A20FCF7D1F908210D20FCF7CDF99F
:1043000040F207713020FCF7C8F907213120FCF793
:10431000C4F940F203613220FCF7BFF94FF4E061C9
:104320003320FCF7BAF940F202213420FCF7B5F94A
:1043300002213520FCF7B1F941F60F713620FCF768
:10434000ACF940F207713720FCF7A7F900213820BB
:10435000FCF7A3F900213920FCF79FF940F207711F
:104360003A20FCF79AF900213B20FCF796F9072147
:104370003C20FCF792F900213D20FCF78EF9322019
:1043800001F0DCF801210720FCF787F9012101E0A9
:10439000340000201720FCF780F9322001F0CEF81D
:1043A0004FF4BD511020FCF778F940F2172111208D
:1043B000FCF773F94FF48F711220FCF76EF94FF48C
:1043C000706100E098E01320FCF767F900212A20D3
:1043D000FCF763F90A212920FCF75FF94FF49F717C
:1043E0001220FCF75AF900215020FCF756F9EF2172
:1043F0005120FCF752F900215220FCF74EF940F20F
:104400003F115320FCF749F94FF41C516020FCF791
:1044100044F901216120FCF740F900216A20FCF7F2
:104420003CF900218020FCF738F900218120FCF7BD
:1044300034F900218220FCF730F900218320FCF7B9
:104440002CF900218420FCF728F900218520FCF7B5
:1044500024F913219020FCF720F94FF440719220A9
:10446000FCF71BF905219320FCF717F90021952093
:10447000FCF713F900219720FCF70FF90021982091
:10448000FCF70BF94FF480710120FCF706F94FF4AB
:10449000E0610220FCF701F941F238010320FCF74A
:1044A000FCF800210420FCF7F8F800210C20FCF7B0
:1044B000F4F800210F20FCF7F0F800212020FCF791
:1044C000ECF800212120FCF7E8F821210720FCF777
:1044D000E4F8142001F032F861210720FCF7DDF840
:1044E000142001F02BF840F273110720FCF7D5F8E7
:1044F000142001F023F895E4FE4880884BF2055122
:1045000088427CD100210846FCF7C7F80021084604
:10451000FCF7C3F800210846FCF7BFF80021084665
:10452000FCF7BBF80121A420FCF7B7F8142001F038
:1045300005F84FF41C516020FCF7AFF840F202215F
:104540000820FCF7AAF84FF405713020FCF7A5F815
:1045500043F215713120FCF7A0F840F204613220DB
:10456000FCF79BF840F616613320FCF796F842F210
:1045700011213420FCF791F84FF4A8513520FCF7B5
:104580008CF848F207513620FCF787F841F20741D2
:104590003720FCF782F841F203413820FCF77DF820
:1045A00020213920FCF779F81A219020FCF775F8C2
:1045B00000211020FCF771F807211120FCF76DF89D
:1045C00000211220FCF769F800211320FCF765F8A0
:1045D000142000F0B3FF4FF4E6611020FCF75DF803
:1045E00040F237111120FCF758F8142000F0A6FF14
:1045F0004FF4DC711220FCF750F8142000E085E045
:1046000000F09CFF4FF470611320FCF746F8802106
:104610002A20FCF742F848212920FCF73EF8142014
:1046200000F08CFF4FF480710120FCF736F84FF456
:10463000E0610220FCF731F841F238010320FCF779
:104640002CF840F202210820FCF727F800210A206C
:10465000FCF723F800210C20FCF71FF800210D20A7
:10466000FCF71BF830210E20FCF717F80021502032
:10467000FCF713F8EF215120FCF70FF8002152202E
:10468000FCF70BF840F23F115320FCF706F84FF40B
:104690001C516020FCF701F801216120FBF7FDFFB0
:1046A00000216A20FBF7F9FF11219020FBF7F5FFAD
:1046B0004FF4C0619220FBF7F0FF40F202419320DB
:1046C000FBF7EBFF02219420FBF7E7FF142000F03B
:1046D00035FF01210720FBF7E0FF142000F02EFF3B
:1046E00061210720FBF7D9FF40F273110720FBF788
:1046F000D4FF00212020FBF7D0FF00212120FBF771
:10470000CCFF22210020FBF7C8FF11E37948808805
:104710004CF2055188427CD100210846FBF7BDFFD1
:1047200000210846FBF7B9FF142000F007FF002125
:104730000846FBF7B2FF00210846FBF7AEFF002159
:104740000846FBF7AAFF00210846FBF7A6FF012158
:10475000A420FBF7A2FF142000F0F0FE4FF41C5140
:104760006020FBF79AFF40F606010820FBF795FF53
:1047700040F203713020FBF790FF01213120FBF75D
:104780008CFF04213220FBF788FF4FF48171332026
:10479000FBF783FF4FF440713420FBF77EFF40F2BC
:1047A00003113520FBF779FF1F213620FBF775FF3A
:1047B00040F203713720FBF770FF01213820FBF72F
:1047C0006CFF04213920FBF768FF15219020FBF7CF
:1047D00064FF4FF482611020FBF75FFF40F2472136
:1047E0001120FBF75AFF4FF4DE711220FBF755FF43
:1047F0004FF460611320FBF750FF782000F09EFE1D
:104800004FF480710120FBF748FF4FF40071022044
:1048100000E052E0FBF741FF41F230010320FBF7DB
:104820003CFF08210A20FBF738FF00210C20FBF792
:1048300034FF20210E20FBF730FF00210F20FBF773
:104840002CFF00212020FBF728FF00212120FBF76F
:1048500024FF3D212A20FBF720FF142000F06EFEEC
:104860002D212920FBF719FF00215020FBF715FF10
:104870004DF2EF015120FBF710FF00215220FBF712
:104880000CFF40F23F115320FBF707FF002161208E
:10489000FBF703FF00216A20FBF7FFFE4FF4407196
:1048A0009220FBF7FAFE05219320FBF7F6FE4FF46A
:1048B00080710720FBF7F1FE3AE20E48808844F24F
:1048C000315188427ED101210020FBF7E6FE0A200B
:1048D00000F034FE41F228611020FBF7DEFE0E21CD
:1048E0001220FBF7DAFE40F639211320FBF7D5FE44
:1048F0000A2001E03400002000F020FE40211120B9
:10490000FBF7CBFE50211520FBF7C7FE0A2000F075
:1049100015FE1E211220FBF7C0FE0A2000F00EFE3D
:104920004FF4B1511020FBF7B8FE42F639211320A5
:10493000FBF7B3FE0A2000F001FE4FF48071012066
:10494000FBF7ABFE4FF440710220FBF7A6FE41F2ED
:1049500038010320FBF7A1FE40F202210820FBF7FB
:104960009CFE08210A20FBF798FE00213020FBF76F
:1049700094FE40F202413120FBF78FFE4FF4837129
:104980003220FBF78AFE40F203513320FBF785FE0D
:104990004FF482713420FBF780FE40F20131352064
:1049A000FBF77BFE40F207713620FBF776FE40F204
:1049B00005313720FBF771FE4FF402713820FBF709
:1049C0006CFE00E03EE040F60B713920FBF765FE1F
:1049D00002214120FBF761FE4FF41C516020FBF7E0
:1049E0005CFE01216120FBF758FE4FF4047190201A
:1049F000FBF753FE4FF485719220FBF74EFE042126
:104A00009320FBF74AFE4FF48071A020FBF745FE90
:104A100001210720FBF741FE21210720FBF73DFE86
:104A200023210720FBF739FE33210720FBF735FE52
:104A300040F233110720FBF730FE0021A020FBF7E6
:104A40002CFE75E1F748808844F2355188427CD1CC
:104A500030211520FBF721FE10219A20FBF71DFEC7
:104A600020211120FBF719FE43F228411020FBF70B
:104A700014FE02211220FBF710FE41F23801132030
:104A8000FBF70BFE282000F059FD12210846FBF72A
:104A900004FE282000F052FD43F220411020FBF7D5
:104AA000FCFD43F238011320FBF7F7FD462000F030
:104AB00045FD00213020FBF7F0FD40F2024131209E
:104AC000FBF7EBFD40F207313220FBF7E6FD4FF438
:104AD00041713320FBF7E1FD04213420FBF7DDFDBC
:104AE00040F201413520FBF7D8FD40F20771362036
:104AF000FBF7D3FD40F205313720FBF7CEFD4FF435
:104B0000C2613820FBF7C9FD4FF4C2613920FBF7C1
:104B1000C4FD4FF480710120FBF7BFFD4FF44071DD
:104B20000220FBF7BAFD41F230010320FBF7B5FD8F
:104B300040F608010820FBF7B0FD08210A20FBF72A
:104B4000ACFD4FF41C51602000E033E0FBF7A5FD05
:104B500001216120FBF7A1FD4FF49F719020FBF72D
:104B60009CFD4FF480719220FBF797FD4FF480710C
:104B70009320FBF792FD4FF44051A020FBF78DFDF1
:104B80001021A320FBF789FD01210720FBF785FDFC
:104B900021210720FBF781FD23210720FBF77DFD65
:104BA00033210720FBF779FD40F233110720FBF793
:104BB00074FDBDE09B48808841F663118842F8D1BE
:104BC000E220FBF74FFD1D20FBF755FD0220FBF710
:104BD00052FD0420FBF74FFD642000F067FCE0204D
:104BE000FBF740FD0120FBF746FD0A2000F0A6FC84
:104BF000E020FBF737FD0320FBF73DFD0C2000F024
:104C00009DFC0120FBF72EFD0A2000F097FCE6201A
:104C1000FBF728FD2F20FBF72EFDFF20FBF72BFDD8
:104C2000FF20FBF728FDB020FBF71CFD2020FBF741
:104C300022FD0020FBF71FFD0320FBF71CFD40F2C7
:104C40001F30FBF718FD0120FBF715FD40F2DF10C8
:104C5000FBF711FD0020FBF70EFDB420FBF702FD72
:104C60000420FBF708FD40F21F40FBF704FD002085
:104C7000FBF701FD2E20FBF7FEFC0020FBF7FBFC01
:104C80000020FBF7F8FC0020FBF7F5FC0020FBF709
:104C9000F2FCB620FBF7E6FC0220FBF7ECFC4FF43D
:104CA0000370FBF7E8FC0020FBF7E5FC1720FBF79F
:104CB000E2FC1520FBF7DFFC0020FBF7DCFC00200A
:104CC000FBF7D9FCF020FBF7CDFC0320FBF7D3FC6E
:104CD0002920FBF7C7FCD020FBF7C4FC0020FBF722
:104CE000CAFCBE20FBF7BEFC0520FBF7C4FCFE207F
:104CF000FBF7C1FC0120FBF7BEFC0020FBF7BBFC6F
:104D00000020FBF7B8FC0020FBF7B5FCB820FBF750
:104D1000A9FC0320FBF7AFFC0120FBF7ACFCBA2099
:104D2000FBF7A0FC0120FBF7A6FC6420FCF70DF9C3
:104D30000020FCF736F901203B4908604FF6FF7070
:104D4000FCF71EFB21B000BD2DE9FC4F05460E46C9
:104D500017469846DDF82C90002001903148808855
:104D600046F60401884229D12E488079012825D1B0
:104D7000AB4635462B480088C01B401E86B24746CE
:104D800028480088A0EB0B00401E1FFA80F8002086
:104D9000244988712A2048812B20888143463A463D
:104DA00031462846CDF80090FFF7CEFF01201D497F
:104DB00088712B2048812A2088811DE0781B401CA7
:104DC00080B20190344615E021462846FBF794FC5A
:104DD000FBF775FC4FF0000A07E04FF0D840A0F851
:104DE00000920AF101001FFA80FA01988245F4DB73
:104DF000601C84B24445E7DDBDE8FC8F2DE9F84F27
:104E000007460D4690469946DDF828B0A8EB070006
:104E1000401C1FFA80FAA9EB0500401C80B20090EC
:104E2000002418E034000020B4824142281981B2E5
:104E30003846FBF761FCFBF742FC002607E004FB69
:104E40000A603BF81000F8490880701C86B256458D
:104E5000F5DB601C84B200988442E7DBBDE8F88F84
:104E60002DE9FF4F84B081468A46002003900290CE
:104E70000698A0EB09050798A0EB0A06CDF8049068
:104E8000CDF800A0002D01DD012705E00DB90027B8
:104E900002E04FF0FF376D42002E02DD4FF00108B7
:104EA00006E016B94FF0000802E04FF0FF387642F6
:104EB000B54201DD2C4600E034464FF0000B21E006
:104EC000009A91B2019A90B2FBF76FFF03982844C1
:104ED00003900298304402900398A04205DD0398A5
:104EE000001B03900198384401900298A04205DD10
:104EF0000298001B02900098404400900BF10100C2
:104F00001FFA80FB601C8345DADD08B0BDE8F08F36
:104F1000F0B504460D4616461F462B463246294636
:104F20002046FFF79DFF3B46224629462046FFF7D5
:104F300097FF3B46324639462046FFF791FF3B46F6
:104F4000324629463046FFF78BFFF0BD2DE9F0438E
:104F500006460F469046002445460320A0EB48092C
:104F60003CE07A1B91B2321990B2FBF71EFF3A1B5C
:104F700091B2721990B2FBF718FF3A1991B27219F7
:104F800090B2FBF712FF7A1991B2321990B2FBF787
:104F90000CFF7A1991B2321B90B2FBF706FF3A1957
:104FA00091B2721B90B2FBF700FF7A1B91B2321BD9
:104FB00090B2FBF7FAFE3A1B91B2721B90B2FBF76C
:104FC000F4FE641CB9F1000F03DAA000801D8144D7
:104FD00004E0601B80000A3081446D1EAC42C0DDDD
:104FE000BDE8F0832DE9F84F80460E4617461C4673
:104FF000B3462046E31704EB5373DB1021464FEA18
:10500000E47C04EB5C7C4FEAEC0CA4EBCC0CBCF134
:10501000000F02D04FF0010C01E04FF0000C634490
:10502000224604EBD27C4FEA6C0C03FB0CF3DBB2A0
:105030000093A7F12000C7B2002556E00C2C07D141
:1050400007EB4700794901EB800010F8059013E069
:10505000102C05D1764800EB071010F805900BE0F6
:10506000182C07D107EBC700724901EB800010F83C
:10507000059001E0BDE8F88F4FF0000A2FE009F03D
:10508000800030B16C48028831464046FBF79BFEF9
:1050900007E00A9828B96948028831464046FBF77C
:1050A00092FE4FEA49604FEA1069701C86B264486C
:1050B0004088B04200DCDDE7A6EB0B00A0420AD13D
:1050C0005E4608F101001FFA80F85D4800884045FF
:1050D00000DCCFE706E00AF1010000F0FF0ABAF1B8
:1050E000080FCCDB00BF681CC5B200988542A5DB69
:1050F00000BFBFE710B50246012000E050430B1E81
:10510000A1F10104E1B2F9D110BD2DE9FF4F81B049
:10511000074691461E460E9D4FF0000A002439E0D6
:10512000301B401EC1B20A20FFF7E4FFB9FBF0F0CC
:105130000A21B0FBF1F201FB1208BAF1000F16D1FF
:10514000701EA04213DDB8F1000F0ED10020AB4657
:1051500005EBDB71491001FB0471009088B22B460E
:1051600020220299FFF73EFF12E04FF0010A0020D3
:10517000AB4605EBDB71491001FB0471009088B26E
:1051800008F13001CAB22B460299FFF72BFF00BF8E
:10519000601CC4B2B442C3DB05B0BDE8F08F2DE99A
:1051A000FF4F82B0064692461F46DDE90F480020B9
:1051B000019000255CE0781B401EC1B20A20FFF779
:1051C00099FFBAFBF0F00A21B0FBF1F201FB1209E2
:1051D000019840BB781EA84236DDB9F1000F31D1ED
:1051E00008F0800078B108F00100A34604EBDB7101
:1051F000491001FB0561009088B2234630220399D3
:10520000FFF7F0FE0EE008F00100A34604EBDB71AF
:10521000491001FB0561009088B2234620220399C2
:10522000FFF7E0FE22E00FE00002006CD26F000802
:1052300046740008367A000814000020160000208A
:10524000340000200120019008F00100A34604EB87
:10525000DB71491001FB0561009088B209F1300152
:10526000CAB223460399FFF7BDFE00BF681CC5B252
:10527000BD42A0DB06B0BDE8F08F2DE9F84704463B
:105280000D4690469946DDE9096704F0FF0A08EBF0
:1052900004001FFA80F809EB05001FFA80F916E0F8
:1052A000444502DB5446A81985B24D4500DB14E0A5
:1052B000002000903A78334629462046FFF792FEB8
:1052C000304606EBD07104EB61018CB27F1C38785C
:1052D0007E2802DC38782028E2DA00BFBDE8F887B3
:1052E00010B56248006820F4402060490860084614
:1052F000006840F48020086000205D4908601420A8
:1053000000F01CF901205B49C1F8A4021E2000F046
:10531000CDF810BD10B500245448006820F440209A
:105320005249086008460068086004E0601CC4B286
:10533000012000F0BBF84E488038006808B1642CAA
:10534000F4DB642C01DB012010BD002404E0601CB0
:10535000C4B2012000F0AAF845488038006808B9B6
:10536000642CF4DB642C01DB0120EDE70020EBE78B
:1053700010B5002404E0601CC4B2012000F096F8CF
:105380003B488038006808B1642CF4DB002404E05A
:10539000601CC4B2012000F089F8354880380068EC
:1053A00008B9642CF4DB282000F080F830488038FD
:1053B000006808B1012010BD0020FCE770B5002492
:1053C000002506E06006040EFFF7D2FF0443681CC8
:1053D000C5B2082DF6DB204670BD7CB505460E46ED
:1053E000FFF77EFFFFF796FFF8B9002405E0FFF70F
:1053F000E5FF0DF80400601CC4B2052CF7DB9DF836
:1054000000009DF8011008449DF8021008449DF822
:10541000031008449DF80410884208D19DF800004C
:1054200030709DF80200287001E001207CBD002052
:10543000FCE71CB50121402000F0DEFF4FF40070B6
:10544000009001208DF8040000208DF80600022055
:105450008DF8050001208DF807006946034800F02B
:1054600049FAFFF73DFFFFF755FF1CBD001802404A
:10547000A40243420000434210B504466FF004000A
:1054800000F094F9E11704EB5171C1F3C701394AF7
:1054900011701046007800EB4001C1EBC0104FF6D0
:1054A000FF7101EAC0003449088010BD0146314A4D
:1054B00012784A434FF0E0235A6100229A611A465B
:1054C000126942F001021A6100BF4FF0E022106938
:1054D00000F001021AB100F48032002AF5D04FF03A
:1054E000E022126922F001024FF0E0231A6100224B
:1054F0009A6170470146204A12884A434FF0E023E0
:105500005A6100229A611A46126942F001021A6138
:1055100000BF4FF0E022106900F001021AB100F460
:105520008032002AF5D04FF0E022126922F0010209
:105530004FF0E0231A6100229A61704770B504466B
:105540004FF4077094FBF0F0C6B24FF4077094FB71
:10555000F0F100FB114085B205E04FF40770FFF752
:10556000C9FF701EC6B2002EF7D115B12846FFF74D
:10557000C1FF70BD180000201A000020014600BFC6
:10558000704700BF4C4A128802F04002002AF9D04E
:10559000C2B2494B9A80704710B588B004460121C9
:1055A000084600F029FF0121102000F07FFF0722AC
:1055B0000921424800F029FA07220A213F4800F059
:1055C00024FA4FF4C060069002208DF81C008DF87C
:1055D0001D0000208DF81E0001208DF81F0006A977
:1055E000364800F087F902940020ADF80C00ADF8C1
:1055F0000E00ADF81000ADF814000C20ADF812004C
:1056000002A92D4801F0B3F801212B4801F037F928
:10561000012240F22551284801F0E7F925208DF8B4
:10562000040003208DF805008DF8060001208DF898
:10563000070001A800F06DF808B010BD10B540F2E9
:1056400025511D4801F00CFA10B31B4801F046F932
:10565000C4B21B48008800F40040C8B9184800884C
:1056600000F4804060B10A2C03D000201449088067
:1056700020E01348008840F400401149088019E0F8
:105680000D2C06D10E48008840F480400C4908805B
:1056900010E00B480088C0F30D000A490C5408487C
:1056A0000088401C0649088008460088C72801DD9C
:1056B0000020088010BD00000010014000000240E2
:1056C0002000002042000020094880470948004788
:1056D000FEE7FEE7FEE7FEE7FEE7FEE7FEE7FEE7A2
:1056E000FEE7FEE704480549054A064B70470000FF
:1056F000F1040008890100087001002070070020F3
:10570000700300207003002032490143324A1160C7
:10571000704770B5002100230F22C4781CB32E4CB3
:10572000246804F4E064C4F5E064C4F30721C1F123
:105730000404E3B20A4144789C40E1B28478144006
:1057400021430C07210E254C05786155047804F09F
:105750001F050124AC4005786D11AD0005F1E02571
:10576000C5F8004109E0047804F01F050124AC40AD
:105770001B4D0678761145F8264070BD194A0A403F
:105780000243154B1B1F1A60704739B1124A121D94
:1057900012680243104B1B1D1A6006E00E4A121DD0
:1057A000126882430C4B1B1D1A607047042808D1F5
:1057B0004FF0E021096941F004014FF0E02211614E
:1057C00007E04FF0E021096921F004014FF0E022E9
:1057D000116170470000FA050CED00E000E400E004
:1057E00080E100E080FFFF1F10B504469848844226
:1057F00008D10121084600F06AFE0021012000F0D6
:1058000066FE76E09348844208D10121022000F030
:105810005EFE0021022000F05AFE6AE08E488442BB
:1058200008D10121042000F052FE0021042000F0E4
:105830004EFE5EE08948844208D10121082000F034
:1058400046FE0021082000F042FE52E084488442D7
:1058500008D10121102000F03AFE0021102000F0B4
:1058600036FE46E07F48844208D10121202000F026
:105870002EFE0021202000F02AFE3AE07A488442E1
:1058800008D10121402000F022FE0021402000F03C
:105890001EFE2EE07548844208D10121802000F0D0
:1058A00016FE0021802000F012FE22E070488442A3
:1058B00008D10121801500F00AFE0021A01500F09A
:1058C00006FE16E06B48844208D10121401500F025
:1058D000FEFD0021601500F0FAFD0AE066488442F2
:1058E00007D10121001500F0F2FD0021201500F084
:1058F000EEFD10BDF0B50A4600210023002400BFD4
:105900003DE0012505FA01F3156805EA03049C4210
:1059100034D105684F000326BE40B54305601579B4
:105920004E00B5400668354305601579012D02D05B
:105930001579022D16D185684F000326BE40B54368
:10594000856055794E00B540866835438560456869
:1059500001268E40B5434560456896798E40B6B2C3
:1059600035434560C5684F000326BE40B543C5605A
:10597000D5794E00B540C6683543C560491C10292D
:10598000BFD3F0BD4FF6FF7101600021017141717D
:105990008171C171704708B54FF480320092009A4E
:1059A0000A430092009AC261C161009AC261C26951
:1059B0000092C269009208BD0246002013690B40A4
:1059C0000BB1012000E0002070470146086980B259
:1059D00070470246002053690B400BB1012000E0E4
:1059E000002070470146486980B2704701837047C4
:1059F000418370470AB1018300E0418370474161F0
:105A0000704742694A4042617047F0B50023002464
:105A10004D07ED0E02FA05F3CE1000F1200555F802
:105A200026504E07F70E0F26BE40B543CF1000F1AB
:105A3000200646F82750CE1000F1200555F82650D4
:105A400045EA0304CE1000F1200545F82640F0BDDC
:105A5000000002400004024000080240000C024026
:105A6000001002400014024000180240001C0240D6
:105A700000200240002402400028024030B943F2D6
:105A8000DB028100A1F1C0410A6005E043F2D202CD
:105A90008100A1F1C0410A606FF07042411C890091
:105AA000A1F1C0410A608100A1F1C041C1F8042107
:105AB0007047D0E901121143C268114302691143D2
:105AC0004269114382691143C2691143026A114359
:105AD000426A1143826A1143C26A1143026B114345
