:020000040800F2
:1000000018110120950A0008690800086B0800080B
:100010006F08000873080008770800080000000057
:100020000000000000000000000000007B08000845
:100030007D080008000000007F0800088108000813
:10004000AF0A0008AF0A0008AF0A0008AF0A0008AC
:10005000AF0A0008AF0A0008AF0A0008AF0A00089C
:10006000AF0A0008AF0A0008AF0A0008AF0A00088C
:10007000AF0A0008AF0A0008AF0A0008AF0A00087C
:10008000AF0A0008AF0A0008AF0A0008AF0A00086C
:10009000AF0A0008AF0A0008AF0A0008AF0A00085C
:1000A000AF0A0008AF0A0008AF0A0008AF0A00084C
:1000B000AF0A0008CF070008AF0A0008AF0A00081F
:1000C000AF0A0008AF0A0008AF0A0008AF0A00082C
:1000D000AF0A00086D310008AF0A0008AF0A000837
:1000E000AF0A0008AF0A0008AF0A0008AF0A00080C
:1000F000AF0A0008AF0A0008AF0A0008AF0A0008FC
:10010000AF0A0008AF0A0008AF0A0008AF0A0008EB
:10011000AF0A0008AF0A0008AF0A0008AF0A0008DB
:10012000AF0A0008AF0A0008AF0A0008AF0A0008CB
:10013000AF0A0008AF0A0008AF0A0008AF0A0008BB
:10014000AF0A0008AF0A0008AF0A0008AF0A0008AB
:10015000AF0A0008AF0A0008AF0A0008AF0A00089B
:10016000AF0A0008AF0A0008AF0A0008AF0A00088B
:10017000AF0A0008AF0A0008AF0A0008AF0A00087B
:10018000AF0A0008AF0A00084B1C012B98BF70474C
:100190002DE9F003911C9B08B1F80480B1F802909E
:1001A0000A8831F802CC8044814402448444D9F85E
:1001B0000070D8F800601568DCF80040C9F80060ED
:1001C000C8F80070CCF800501460D9F80470D8F862
:1001D00004605568DCF80440C9F80460C8F804708D
:1001E000CCF80450546008315B1ED5D1BDE8F00353
:1001F00070474B1C012B98BF70472DE9F003911CF1
:100200009B08B1F80480B1F802900A8831F802CC5A
:1002100000EB580800EB590900EB520200EB5C0CB4
:10022000D9F80070D8F800601568DCF80040C9F80B
:100230000060C8F80070CCF80050146008315B1EF4
:10024000DFD1BDE8F0037047DFF80CD009F0E0F92A
:1002500000480047890200081811012010B55420F9
:1002600002F0A4FE4FF4A06000F026FC4FF4E13051
:1002700002F02BFF03F0FAFE02F0BEFF532140F222
:100280008F1007F0A5FE10BD2DED048B9EB0FFF77B
:10029000E5FF4FF4805103A808F014F896E2FE48F9
:1002A00000780128FAD1002411E0FC4800EB84001A
:1002B00090ED000AFA4800EB8400D0ED000A20EE31
:1002C000200AF64800EB840080ED000A641CB4F5B7
:1002D000805FEADB0023F34AF04903A807F0D0FF70
:1002E0004FF48052F049EF4807F0A4FE002407E0E5
:1002F0009FEDEE0AEC4800EB840080ED000A641CE0
:10030000082CF5DBEA4BEB4A4FF40061E64808F0B5
:100310006DF8E84890ED000A9FEDE71AC0EE010A7B
:100320009FEDE61A9FEDE60A00EE810AB0EE408AE4
:100330004FF6FF7003F068FE18EE100A08F05AFF3F
:1003400041EC190B53EC192BDEA109A809F0A4F913
:10035000DEA018210B466422CDE9001032210A20CC
:1003600007F0CFFD09A818210B466422CDE9001043
:100370003221104607F0C5FDD6A018210B46642295
:10038000CDE900103221E62007F0BBFDC84890ED12
:10039000000AB8EE400ADFEDD00A20EE200AB0EEE7
:1003A000408A18EE100A08F025FF41EC190B53ECB7
:1003B000192BC4A109A809F06FF9C8A018210B4690
:1003C0006422CDE9001011460A2007F09AFD09A821
:1003D00018210B466422CDE900101146104607F0A3
:1003E00090FDC0A018210B466422CDE900101146F3
:1003F000BE2007F086FD002457E0A01C00EE100A86
:10040000B8EEC00A28EE000ADFEDB70AB4EEE00A43
:10041000F1EE10FA00DD4AE0A01C00EE100AB8EE82
:10042000C00A28EE000ADFEDAC0A80EE201ABDEE0D
:10043000C10A10EE106A0AA840F82460002516E0F0
:100440000AA850F82400984901EB800090ED000ABA
:10045000701901EB8000D0ED000AB4EEE00AF1EE75
:1004600010FA03D270190AA941F824006D1C142D4A
:10047000E6DB002516E00AA850F824008A4901EBC3
:10048000800090ED000A701B01EB8000D0ED000AA7
:10049000B4EEE00AF1EE10FA03D270190AA941F89D
:1004A00024006D1C142DE6DB641C152CA5DB00BF9D
:1004B0008EA018210B466422CDE9001096210A2057
:1004C00007F01FFD01201821CDE9001076490A9898
:1004D00001EB800090ED000ABCEEC00A10EE102A7D
:1004E00005239621642007F09EFC7AA018210B4674
:1004F0006422CDE900109621E62007F002FD7DA0E0
:1005000018210B466422CDE90010C8210A2007F00B
:10051000F8FC01201821CDE9001063490B9801EB8C
:10052000800090ED000ABCEEC00A10EE102A0523F0
:10053000C821642007F077FC66A018210B466422CE
:10054000CDE90010C821E62007F0DBFC6BA01821E4
:100550000B466422CDE90010FA210A2007F0D1FCF5
:1005600001201821CDE900104F490C9801EB8000C3
:1005700090ED000ABCEEC00A10EE102A0523FA2105
:10058000642007F050FC53A018210B466422CDE9EB
:100590000010FA21E62007F0B4FC5AA018210B46FF
:1005A0006422CDE900104FF496710A2007F0A9FCEF
:1005B00001201821CDE900103B490D9801EB800086
:1005C00090ED000ABCEEC00A10EE102A05234FF48D
:1005D0009671642007F027FC3EA018210B46642288
:1005E000CDE900104FF49671E62007F08AFC47A091
:1005F00018210B466422CDE900104FF4AF710A2098
:1006000007F07FFC01201821CDE9001026490E9843
:1006100001EB800090ED000ABCEEC00A10EE102A3B
:1006200005234FF4AF71642007F0FDFB29A01821CA
:100630000B466422CDE900104FF4AF71E62007F0BD
:1006400060FC34A018210B466422CDE90010322151
:100650004FF49B7007F055FC01201821CDE90010E4
:1006600011490F9801EB800090ED000ABCEEC00A22
:1006700010EE102A05233221C80007F0D4FB15A084
:1006800018210B466422CDE90010322140F21220DD
:1006900007F037FC42E00000080000204000002086
:1006A0009C9F00084040002040C000200000000047
:1006B0000400002000000020000000450038C44570
:1006C00090C2F53B25342E34660000004370703A2A
:1006D000000000006D4100009F3C1C3F4672653ADF
:1006E00000000000487A000000007A444370703136
:1006F0003A000000437070323A00000043707033DB
:100700003A000000437070343A00000043707035C6
:100710003A000000437070363A00000046A01821ED
:100720000B466422CDE9001011464FF49B7007F090
:10073000E8FB01201821CDE900104149109801EB98
:10074000800090ED000ABCEEC00A10EE102A0523CE
:100750006421880007F067FBAFF2880018210B4680
:100760006422CDE90010114640F2122007F0C9FBC7
:1007700034A018210B466422CDE9001096214FF4D5
:100780009B7007F0BEFB01201821CDE900102C4919
:10079000119801EB800090ED000ABCEEC00A10EE4B
:1007A000102A052396214FF4C87007F03CFBAFF2E6
:1007B000DC0018210B466422CDE90010962140F29E
:1007C000122007F09EFB00202049087067E510B555
:1007D00001211F4801F0A1FE012827D11B48007804
:1007E00020BB1C48C06C84B200EE104AB8EE400A30
:1007F000DFED190A20EE200ADFED180A80EE201A3C
:1008000017481849098800EB810080ED001A154847
:100810000088401C1349088008460088B0F5805FB6
:1008200004D10020088001200849087001210848EF
:1008300001F084FE10BD0000437070373A000000E4
:1008400040C00020437070383A00000008000020CB
:100850000004004000200140333353400000804535
:10086000400000200A000020704700BFFEE700BFE4
:10087000FEE700BFFEE700BFFEE770477047704726
:10088000704700000CB50020019000907648006889
:1008900040F480307449086000BF7348006800F479
:1008A000003000900198401C0190009818B9019800
:1008B000B0F5A04FF1D16C48006800F4003010B1E1
:1008C0000120009001E0002000900098012846D10E
:1008D00065484030006840F080506349403108600E
:1008E0006248006840F44040604908605E48083053
:1008F00000685D49083108600846006840F400401F
:1009000008600846006840F4A05008605848091F75
:100910000860081F006840F08070091F086000BF71
:100920005148006800F000700028F9D040F20570CE
:10093000504908604C480830006820F003004A49DC
:10094000083108600846006840F00200086000BFF7
:1009500045480830006800F00C000828F8D10CBDAC
:1009600010B54548006840F47000434908603E48AF
:10097000006840F001003C49086000203A49083115
:100980000860394800683D490840374908603C48DC
:10099000091D0860081F006820F48020091F0860F6
:1009A000002031490C310860FFF76CFF4FF0006008
:1009B00031498039086010BD70B500200022022343
:1009C00000240221284D08352D6805F00C0020B1C7
:1009D000042806D0082834D107E02A4D2A4E356075
:1009E00033E02A4D284E35602FE01F4D2D1D2D6818
:1009F000C5F380541C4D2D1D2D6805F03F0154B1E9
:100A0000224DB5FBF1F5184E361D3668C6F3881633
:100A100005FB06F209E01B4DB5FBF1F5124E361D44
:100A20003668C6F3881605FB06F20F4D2D1D2D689E
:100A3000C5F301456D1C6B00B2FBF3F5124E35603A
:100A400003E0104D104E356000BF00BF064D083565
:100A50002D68C5F303150E4E705D0B4D2D68C54016
:100A6000094E356070BD0000003802400070004043
:100A700008544007003C024088ED00E0FFFFF6FE0E
:100A8000103000240024F4000C00002000127A0032
:100A9000100000200648804706480047FEE7FEE7B2
:100AA000FEE7FEE7FEE7FEE7FEE7FEE7FEE7FEE71E
:100AB000610900084902000832490143324A1160C5
:100AC000704770B5002100230F22C4781CB32E4C50
:100AD000246804F4E064C4F5E064C4F30721C1F1C0
:100AE0000404E3B20A4144789C40E1B284781440A3
:100AF00021430C07210E254C05786155047804F03C
:100B00001F050124AC4005786D11AD0005F1E0250D
:100B1000C5F8004109E0047804F01F050124AC4049
:100B20001B4D0678761145F8264070BD194A0A40DB
:100B30000243154B1B1F1A60704739B1124A121D30
:100B400012680243104B1B1D1A6006E00E4A121D6C
:100B5000126882430C4B1B1D1A607047042808D191
:100B60004FF0E021096941F004014FF0E0221161EA
:100B700007E04FF0E021096921F004014FF0E02285
:100B8000116170470000FA050CED00E000E400E0A0
:100B900080E100E080FFFF1F30B943F2DB028100FB
:100BA000A1F1C0410A6005E043F2D2028100A1F147
:100BB000C0410A606FF07042411C8900A1F1C04140
:100BC0000A608100A1F1C041C1F804217047D0E959
:100BD00001121143C2681143026911434269114372
:100BE00082691143C2691143026A1143426A114387
:100BF000826A1143C26A1143026B11430268920078
:100C0000A2F1C0421160816808290BD101688900F6
:100C1000A1F1C041096841F0400201688900A1F1D9
:100C2000C0410A60416B0968426B526841EA021197
:100C3000426B926841EA0221426B928941EA024189
:100C4000426B128A41EA0251426B127D41EA026113
:100C5000426B926911430268521C9200A2F1C04299
:100C60001160C16AB1F5804F1BD1816B0968826B3D
:100C7000526841EA0211826B926841EA0221826B5A
:100C8000128A41EA0251826B127D41EA0261826B53
:100C90009269114302689200A2F1C042C2F80411A5
:100CA00007E06FF0704201688900A1F1C041C1F80E
:100CB0000421704700210160022141600021816010
:100CC000C160016141618161C16101624FF4805184
:100CD0004162490081620021C1620163F8494163B8
:100CE0008163704751B18200A2F1C042126842F0A4
:100CF00001038200A2F1C042136009E08200A2F168
:100D0000C0421268EF4B1A408300A3F1C0431A603F
:100D1000704710280AD118214FF020421166402157
:100D200051664FF0FC319166D16610E01821E64A19
:100D3000116040214FF02042C2F884104FF0FC3186
:100D4000E14A083211604FF02042C2F88C1070471F
:100D500030B5002100220023446844F0080485686F
:100D60002C43C5682C4305692C43456944EA452456
:100D7000856944EA4531C4692468C5696D6844EAF7
:100D80000524C5692D8944EA0544C5692D7B44EADB
:100D90000562046A2468056A6D6844EA0524056AE8
:100DA0002D8944EA0544056A2D7B44EA05630468FD
:100DB000102C05D14FF020442166A266E36608E0BE
:100DC000C14C21604FF02044C4F88820BE4C0C3444
:100DD000236030BD10210160002141608160C1604D
:100DE000016141618161FC21C2691160C269516088
:100DF000C2699160C269D160026A1160026A516081
:100E0000026A9160026AD160704799B1102808D1D6
:100E10004FF02042126E42F004024FF020431A6657
:100E20001DE0A94A126842F004024FF02043C3F8C3
:100E3000802014E0102809D14FF02042126EA14BFF
:100E4000DB1E1A404FF020431A6608E09E4A1268E3
:100E50009C4BDB1E1A404FF02043C3F880207047A4
:100E600099B1102808D14FF02042126E42F0400292
:100E70004FF020431A661DE0934A126842F0400288
:100E80004FF02043C3F8802014E0102809D14FF020
:100E90002042126E8B4B3F3B1A404FF020431A66A4
:100EA00008E0894A1268874B3F3B1A404FF02043C5
:100EB000C3F88020704701460020102903D14FF06D
:100EC0002042506F02E0804A1432106870471820A8
:100ED0007D492031086000200906C1F8A4004FF0C8
:100EE000FC30794928310860091D0860091D086037
:100EF0007047016841F01001426841EA422182686E
:100F000041EA4231704A20321160C1680968C26802
:100F1000526841EA0221C268128941EA0241C2686C
:100F2000127B41EA0261684A28321160016909684E
:100F30000269526841EA02210269128941EA0241CA
:100F40000269127B41EA02615F4A2C3211604169F9
:100F500009684269526841EA02214269128941EAFC
:100F600002414269127B41EA02614FF02042C2F81D
:100F7000B01070470021016041608160FC21C268AF
:100F80001160C2685160C2689160C268D160026934
:100F9000116002695160026991600269D160426921
:100FA000116042695160426991604269D160704745
:100FB00048B145492031096841F004014FF0204211
:100FC000C2F8A01009E04049203109683D4AD21E0C
:100FD00011404FF02042C2F8A010704710B5F2B196
:100FE000102807D14FF020435B6E0B434FF0204495
:100FF000636632E0B0F5807F08D1334B1B1D1B6860
:101000000B434FF02044C4F8843026E02E4B2433A9
:101010001B680B434FF02044C4F8A4301DE0102897
:1010200007D14FF020435B6E8B434FF02044636643
:1010300013E0B0F5807F08D1234B1B1D1B688B4349
:101040004FF02044C4F8843007E01F4B24331B6862
:101050008B434FF02044C4F8A43010BD10B50246B5
:1010600000200023102A03D14FF02044636E09E0D2
:10107000B2F5807F03D1144C241D236802E0124C8A
:101080002434236803EA01040CB1012000E00020AD
:1010900010BD102807D14FF02042526E8A434FF006
:1010A00020435A6619E0B0F5807F0FD1064A121D21
:1010B00012688A434FF02043C3F884200DE00000FB
:1010C000A4DF0008FEFF0F00800000A0234A126882
:1010D0008A434FF02043C3F8A420704770B50246FE
:1010E0000020002300240025102A03D14FF02046C1
:1010F000736E08E0B2F5807F03D1184E203E33684E
:1011000001E0164E336803EA010403EAD10514B185
:101110000DB1012000E0002070BD102808D14FF073
:101120002042526E22EAD1024FF020435A6614E068
:10113000B0F5807F09D1094A203A126822EAD1022B
:101140004FF02043C3F8842007E0044A126822EAE3
:10115000D1024FF02043C3F8A4207047A40000A0A0
:1011600010B504469848844208D10121084600F091
:1011700086FB0021012000F082FB76E09348844248
:1011800008D10121022000F07AFB0021022000F0AA
:1011900076FB6AE08E48844208D10121042000F0E9
:1011A0006EFB0021042000F06AFB5EE08948844267
:1011B00008D10121082000F062FB0021082000F086
:1011C0005EFB52E08448844208D10121102000F0E7
:1011D00056FB0021102000F052FB46E07F4884427D
:1011E00008D10121202000F04AFB0021202000F03E
:1011F00046FB3AE07A48844208D10121402000F0C1
:101200003EFB0021402000F03AFB2EE0754884426E
:1012100008D10121802000F032FB0021802000F065
:101220002EFB22E07048844208D10121801500F095
:1012300026FB0021A01500F022FB16E06B4884423B
:1012400008D10121401500F01AFB0021601500F0C3
:1012500016FB0AE06648844207D10121001500F020
:101260000EFB0021201500F00AFB10BDF0B50A4668
:1012700000210023002400BF3DE0012505FA01F311
:10128000156805EA03049C4234D105684F00032623
:10129000BE40B543056015794E00B540066835433C
:1012A00005601579012D02D01579022D16D18568BA
:1012B0004F000326BE40B543856055794E00B540CA
:1012C000866835438560456801268E40B543456094
:1012D000456896798E40B6B235434560C5684F0083
:1012E0000326BE40B543C560D5794E00B540C668FB
:1012F0003543C560491C1029BFD3F0BD4FF6FF71BF
:1013000001600021017141718171C171704708B59F
:101310004FF480320092009A0A430092009AC26110
:10132000C161009AC261C2690092C269009208BD9F
:101330000246002013690B400BB1012000E00020A1
:1013400070470146086980B2704702460020536921
:101350000B400BB1012000E00020704701464869B6
:1013600080B2704701837047418370470AB101839F
:1013700000E0418370474161704742694A404261E1
:101380007047F0B5002300244D07ED0E02FA05F377
:10139000CE1000F1200555F826504E07F70E0F2607
:1013A000BE40B543CF1000F1200646F82750CE10BE
:1013B00000F1200555F8265045EA0304CE1000F14F
:1013C000200545F82640F0BD000002400004024020
:1013D00000080240000C02400010024000140240CD
:1013E00000180240001C024000200240002402407D
:1013F00000280240F948006840F00100F749086001
:101400000020F64908310860F4480068F4490840B3
:10141000F2490860F348091D0860F348EF49843138
:101420000860F0481038091D0860EC48006820F496
:101430008020EA4908600020E8490C310860E7494B
:101440008C31086070470021E44A921C11701146EB
:101450000870704710B501460022002300204A1191
:10146000012A02D1DD4C236808E0022A03D1DB4CBB
:101470007034236802E0D94C7434236801F01F02F1
:10148000012494401C400CB1012000E0002010BD5C
:1014900038B5002000900024002500BF3120FFF760
:1014A000D9FF05460098401C00900098B0F5A04F69
:1014B00001D0002DF2D03120FFF7CCFF08B101247C
:1014C00000E00024204638BD01460020C34A1068D1
:1014D00020F0F80040EAC10010607047C34908607E
:1014E00070470021BD4A703211701170012802D07E
:1014F00004280AD104E00121B84A7032117005E0D5
:101500000521B64A7032117000E000BF00BF70477D
:10151000B7490860704770B5049C41EA82150126FE
:10152000C6EB530645EA0645054345EA0465AB4E5E
:10153000361D356070BDAD4908667047820142EACC
:101540000172A64B84331A607047A84988667047B9
:1015500010B5830143EA016343EA02739F4C883468
:10156000236010BDA14908677047A049C86470474F
:1015700002460020994B0833186820F0EC6042EADC
:1015800001031843954B083318607047024600204A
:10159000924B0833186820F0784042EA0103184360
:1015A0008E4B083318607047014600208B4A083282
:1015B000106820F003000843106070478748083027
:1015C000006800F00C00704701460020834A083292
:1015D000106820F0F00008431060704701460020BA
:1015E0007E4A0832106820F4E050084310607047CB
:1015F00001460020794A0832106820F4604040EA31
:10160000C10010607047F0B50021002200240225BF
:1016100000260223714F08373F6807F00C0121B103
:10162000042905D0082937D105E0724F076036E05C
:10163000714F076033E0694F3F1D3F68C7F3805625
:10164000664F3F1D3F6807F03F036EB16A4FB7FB1F
:10165000F3F7DFF888C10CF1040CDCF800C0CCF320
:10166000881C07FB0CF40CE0624FB7FBF3F7DFF8C4
:101670006CC10CF1040CDCF800C0CCF3881C07FB37
:101680000CF4564F3F1D3F68C7F301477F1C7D0098
:10169000B4FBF5F7076002E0564F076000BF00BFDC
:1016A0004E4F08373F6807F0F0010909534F7A5C45
:1016B0000768D7404760494F08373F6807F4E05153
:1016C000890A4E4F7A5C4768D7408760434F083796
:1016D0003F6807F46041490B484F7A5C4768D74040
:1016E000C760F0BD002100F44072B2F5407F0AD11E
:1016F0003A4A0832116821F4F811414A0240114374
:10170000364A08321160354A70321268C0F30B0352
:101710001A43324B70331A607047354944390860B8
:101720007047334940390860704736490860704750
:1017300001460020294A8C32106820F01F004A1E02
:101740001043264A8C321060704701460020234A1D
:101750008C32106820F4F8504A1E40EA02201F4ADA
:101760008C3210607047014600201C4A8C32106891
:1017700020F4401008431060704701460020174ACB
:101780008C32106820F44000084310607047014616
:101790000020124A8C32106820F440300843106058
:1017A000704719490860704739B10C4A30321268E5
:1017B00002430A4B30331A6006E0084A303212689E
:1017C0008243064B30331A607047F9B1034A343212
:1017D00012680243014B34331A601CE000380240A7
:1017E000FFFFF6EA103000240030002000004742DE
:1017F000800E47420024F40000127A0020000020EE
:10180000FFFCFF0F5C014742E01147428F4A12681C
:1018100082438E4B1A60704739B18C4A121D126890
:1018200002438A4B1B1D1A6006E0884A121D12688B
:101830008243864B1B1D1A60704739B1834A0C32B4
:1018400012680243814B0C331A6006E07F4A0C3267
:10185000126882437D4B0C331A60704739B17B4A62
:10186000103212680243794B10331A6006E0774A4F
:10187000103212688243754B10331A60704739B1C9
:10188000724A243A12680243704B243B1A6006E005
:101890006E4A243A126882436C4B243B1A607047AC
:1018A00039B16A4A203A12680243684B203B1A60F9
:1018B00006E0664A203A12688243644B203B1A6075
:1018C000704739B1614A1C3A126802435F4B1C3BB6
:1018D0001A6006E05D4A1C3A126882435B4B1C3B6F
:1018E0001A60704739B1594A143A12680243574B8B
:1018F000143B1A6006E0554A143A12688243534B6F
:10190000143B1A60704739B1504A103A12680243CA
:101910004E4B103B1A6006E04C4A103A1268824364
:101920004A4B103B1A60704739B1484A1C32126862
:101930000243464B1C331A6006E0444A1C321268CC
:101940008243424B1C331A60704739B13F4A203200
:10195000126802433D4B20331A6006E03B4A2032B6
:1019600012688243394B20331A60704739B1374AC5
:10197000243212680243354B24331A6006E0334A9E
:10198000243212688243314B24331A60704739B1D4
:101990002E4A2C32126802432C4B2C331A6006E07C
:1019A0002A4A2C3212688243284B2C331A60704723
:1019B00039B1264A303212680243244B30331A6060
:1019C00006E0224A303212688243204B30331A60DC
:1019D0007047012808D11D493C31096841F00801D0
:1019E0001A4A3C32116007E018493C31096821F07D
:1019F0000801164A3C321160704739B1134A273A40
:101A000012780243114B273B1A7006E00F4A273A1F
:101A1000127882430D4B273B1A7070470B484030B9
:101A2000006840F080700949403108607047014605
:101A30000020064A283A12680A400AB1012000E054
:101A40000020704701492639087070473438024039
:101A500010B50446FE48844208D101210846FFF72C
:101A600052FF00210120FFF74EFF9DE0B4F1804FAF
:101A700008D101210846FFF735FF00210120FFF7BB
:101A800031FF91E0F348844208D101210220FFF7A1
:101A900029FF00210220FFF725FF85E0EE48844260
:101AA00008D101210420FFF71DFF00210420FFF7CA
:101AB00019FF79E0E948844208D101210820FFF7A5
:101AC00011FF00210820FFF70DFF6DE0E44884427C
:101AD00008D101211020FFF705FF00211020FFF79A
:101AE00001FF61E0DF48844208D101212020FFF797
:101AF000F9FE00212020FFF7F5FE55E0DA48844288
:101B000008D101210220FFF7FEFE00210220FFF78D
:101B1000FAFE49E0D548844209D101210804FFF7C3
:101B2000F2FE00214FF48030FFF7EDFE3CE0D0489C
:101B3000844209D101214804FFF7E5FE00214FF45A
:101B40000030FFF7E0FE2FE0CA48844209D10121AE
:101B50008804FFF7D8FE00214FF48020FFF7D3FE62
:101B600022E0C548844208D101214020FFF7BAFE97
:101B700000214020FFF7B6FE16E0C048844208D19D
:101B800001218020FFF7AEFE00218020FFF7AAFE92
:101B90000AE0BB48844207D101218015FFF7A2FE6D
:101BA0000021A015FFF79EFE10BD00220288A84B61
:101BB00098420ED0AC4B98420BD0B0F1804F08D079
:101BC000A44B984205D0A44B984202D0A34B984214
:101BD00004D14FF68F731A404B881A43A04B98429A
:101BE00007D0A04B984204D04FF6FF431A400B8910
:101BF0001A4302804B68C3620B880385944B98425A
:101C000002D0994B984201D18B7A038601238382BB
:101C100070474FF0FF314160002101800181418018
:101C2000817270470185828270470A4600210188CF
:101C30004FF68F731940114301807047416270471E
:101C4000C16270470146486A70470146088D704777
:101C500021B1028842F00202028004E002884FF6BD
:101C6000FD731A400280704721B1028842F00402DD
:101C7000028004E002884FF6FB731A40028070472E
:101C800021B1028842F08002028004E002884FF60F
:101C90007F731A400280704702884FF6F7731A402C
:101CA000028002880A430280704702884FF6FF4391
:101CB0001A40028002880A430280704721B10288DC
:101CC00042F00102028004E002884FF6FE731A40DF
:101CD0000280704770B5002400220023058C4FF667
:101CE000FE7635400584028C8388048B4FF68F7511
:101CF0002C40B51E2C400D882C43751E2A408D8922
:101D00002A434D882A43524DA84202D0564DA8423C
:101D100013D14FF6F7752A40CD892A434FF6FB754C
:101D20002A408D882A434FF6FF652B404FF6FF551A
:101D30002B400D8A2B434D8A2B43838004838D686F
:101D40004563028470BD70B5002400220023058C19
:101D50004FF6EF7635400584028C8388048B48F675
:101D6000FF752C404FF6FF452C400D884FF6FF764F
:101D700006EA05252C434FF6DF752A408D8906EAD1
:101D800005152A434D8806EA05152A43304DA84219
:101D900002D0354DA8421DD14FF67F752A40CD891E
:101DA0004FF6FF7606EA05152A434FF6BF752A401F
:101DB0008D8806EA05152A434FF6FF352B404FF272
:101DC000FF752B400D8A06EA85052B434D8A06EAEE
:101DD00085052B43838004838D688563028470BDF1
:101DE00070B5002400220023058C4FF6FF663540B5
:101DF0000584028C8388848B4FF68F752C404FF6B8
:101E0000FC752C400D882C434FF6FF552A408D89D8
:101E10004FF6FF7606EA05252A434D8806EA052592
:101E20002A430B4DA84202D00F4DA84238D14FF2A1
:101E3000FF752A40CD894FF6FF7606EA05252A432D
:101E40004FF6FF352A408D8806EA05252A4319E01A
:101E5000000001400004004000080040000C004069
:101E60000010004000140040000401400040014008
:101E7000004401400048014000180040001C0040A0
:101E8000002000404EF6FF752B404DF6FF752B40AD
:101E90000D8A06EA05152B434D8A06EA05152B43E4
:101EA000838084838D68C563028470BD70B5002211
:101EB00000230024058C4EF6FF7635400584038C04
:101EC0008488828B48F6FF752A404FF6FF452A40EA
:101ED0000D884FF6FF7606EA05252A434DF6FF7575
:101EE0002B408D8906EA05352B434D8806EA0535DA
:101EF0002B43FE4DA84202D0FD4DA84208D14BF61F
:101F0000FF752C400D8A4FF6FF7606EA85152C43A7
:101F1000848082838D680564038470BD0021018004
:101F20004180818081608181C181018241827047CD
:101F300070B50346002000241846183001258D4056
:101F4000ACB21D8CA5431D8409B108290AD100EB50
:101F5000610005684FF68F763540056005681543CA
:101F600005600FE00D1FC5F34E052844056848F6CF
:101F7000FF763540056005684FF6FF7606EA0226D3
:101F80003543056070BD4163704781637047C1632D
:101F90007047016470470A460021018B4FF68F732A
:101FA00019401143018370470A460021018B48F60E
:101FB000FF7319404FF6FF7303EA022319430183AD
:101FC00070470A460021818B4FF68F7319401143E9
:101FD000818370470A460021818B48F6FF731940C0
:101FE0004FF6FF7303EA02231943818370470A46C1
:101FF0000021018B4FF6F77319401143018370479D
:102000000A460021018B4FF2FF7319404FF6FF7310
:1020100003EA02231943018370470A460021818B9A
:102020004FF6F77319401143818370470A46002128
:10203000818B4FF2FF7319404FF6FF7303EA0223BF
:102040001943818370470A460021018B4FF6FB73C9
:1020500019401143018370470A460021018B4FF656
:10206000FF3319404FF6FF7303EA0223194301833C
:1020700070470A460021818B4FF6FB7319401143CC
:10208000818370470A460021818B4FF6FF33194048
:102090004FF6FF7303EA02231943818370470A4610
:1020A0000021018B4FF67F73194011430183704764
:1020B0000A460021018BC1F30E014FF6FF7303EABC
:1020C00002231943018370470A460021818B4FF692
:1020D0007F7319401143818370470A460021818B29
:1020E000C1F30E014FF6FF7303EA02231943818304
:1020F00070470A460021018C4FF6FD7319401143C9
:10210000018470470A460021018C4FF6F77319408D
:102110001143018470470A460021018C4FF6DF739A
:1021200019404FF6FF7303EA021319430184704705
:102130000A460021018C4FF67F7319404FF6FF735A
:1021400003EA02131943018470470A460021018CF7
:102150004FF6FF5319404FF6FF7303EA022319436A
:10216000018470470A460021018C4FF2FF73194029
:102170004FF6FF7303EA02231943018470470A46AE
:102180000021018C4DF6FF7319404FF6FF7303EAEF
:10219000023319430184704730B5002301248C4079
:1021A000A3B2048C9C430484048C02FA01F5ADB202
:1021B0002C43048430BD30B5002304248C40A3B2EA
:1021C000048C9C430484048C02FA01F5ADB22C43C8
:1021D000048430BD828B4FF2FF331A408283828B9E
:1021E0004FF6FF7303EA01231A4382837047F0B569
:1021F0000C461546002100220026078C4EF6FF7C77
:1022000007EA0C070784818B028C4FF6FF7707EAF9
:10221000043640F6FF4739404FF6FF7707EA0527B7
:1022200039434FF6FF7707EA0337394345F6FF771F
:102230003A4046F480573A4381830284F0BD828B52
:102240004FF6F3731A408283828B0A43828370476E
:10225000F0B50C461546002100220026078C4FF6EB
:10226000FF6C07EA0C070784818B028C4FF6FF771F
:1022700007EA04264FF60C7739404FF6FF7707EA56
:1022800003172F4339434FF2FF573A4046F4807704
:102290003A4381830284F0BD028B4FF2FF331A4030
:1022A0000283028B4FF6FF7303EA01231A43028372
:1022B0007047F0B50C461546002100220026078C19
:1022C0004FF6EF7C07EA0C070784018B028C4FF670
:1022D000FF7707EA041640F6FF4739404FF6FF77CD
:1022E00007EA033739434FF6FF7703E00000014068
:1022F0000004014007EA052739434FF65F773A406B
:1023000046F010073A4301830284F0BD028B4FF67A
:10231000F3731A400283028B0A4302837047F0B5BD
:102320000C46154600210022068C4FF6FE773E40F3
:102330000684018B028C4FF60C7631407E1C06EA37
:1023400003162E4331434FF6F576324044F0010632
:10235000324301830284F0BD70B505460C462088E7
:1023600050B92389A28861882846FFF7D8FFE18801
:102370002846FFF7CBFF25E0208804280AD12389CF
:10238000A28861882846FFF794FFE1882846FFF776
:1023900083FF17E0208808280AD12389A288618852
:1023A0002846FFF755FFE1882846FFF748FF09E078
:1023B0002389A28861882846FFF719FFE18828460B
:1023C000FFF708FF70BD002101804180012181805D
:1023D0000021C180018170472DE9F04105460C467E
:1023E00000260127608808B9022600E00026A088A0
:1023F000012801D1022700E001272088A0B9238904
:10240000A28861882846FFF78AFFE1882846FFF7FF
:102410007DFF23893A4631462846FFF74AFFE18887
:102420002846FFF739FF13E02389A28861882846F0
:10243000FFF73FFFE1882846FFF72EFF23893A4642
:1024400031462846FFF76BFFE1882846FFF75EFF1D
:10245000BDE8F0810146486B70470146886B7047C4
:102460000146C86B70470146086C70470A884B8864
:102470001A438B881A43CB881A430B891A434B891A
:102480001A438B891A43A0F8442070470021018029
:1024900041808180C180018141818181704731B15A
:1024A000B0F8442042F40042A0F8442005E0B0F81F
:1024B0004420C2F30E02A0F84420704721B1828864
:1024C00042F00402828004E082884FF6FB731A40D7
:1024D0008280704721B1828842F00102828004E04C
:1024E00082884FF6FE731A40828070471AB1838942
:1024F0000B43838102E083898B4383817047818210
:10250000704702460020138A0B400BB1012000E007
:1025100000207047CA430282704730B5024600204F
:1025200000230024158A05EA0103958905EA0104C0
:1025300013B10CB1012000E0002030BDCA4302827B
:10254000704741EA0203A0F8483070471AB1838906
:102550000B43838102E083898B438381704721B1E0
:10256000828842F00802828004E082884FF6F77386
:102570001A408280704701894FF6F872114001813C
:1025800070470A46002101894FF68F7319401143A5
:102590000181704730B504460D4629462046FFF7B5
:1025A000F0FF208940F00700208130BD2DE9F04187
:1025B00004460D4616461F46602D06D13B460122B5
:1025C00031462046FFF775FE05E03B4601223146C5
:1025D0002046FFF7A4FE29462046FFF7D2FF2089B8
:1025E00040F007002081BDE8F08130B50C460021A5
:1025F0000189C9B24FF6FF7505EA03251543254346
:102600002943018130BD2DE9F04105460E461746AC
:102610009846002443463A4631462846FFF7E5FFF0
:102620002C894FF6F870044044F007044FF68F7081
:10263000044044F070042C81BDE8F081F0B50446FC
:102640000D4616461F463B46324629462046FFF7B2
:10265000CCFF208940F480402081F0BD82884FF675
:102660008F731A40828082880A4382807047028971
:102670004FF6F8731A40028102890A4302817047BB
:1026800002894FF67F731A40028102890A43028150
:102690007047F0B50C4615461E4600210022002367
:1026A0000189028B038C4FF6F877394021434FF6AE
:1026B000FC473A4040F201173A434FF6DD773B4082
:1026C0004FF6FF7707EA06172F433B43018102834A
:1026D0000384F0BD21B1828842F08002828004E050
:1026E00082884FF67F731A4082807047A0F850109E
:1026F0007047000010B50446FA48844208D1012111
:102700001020FFF700F900211020FFF7FCF857E038
:10271000F548844209D101214804FFF7E3F800217C
:102720004FF40030FFF7DEF84AE0F048844209D168
:1027300001218804FFF7D6F800214FF48020FFF72D
:10274000D1F83DE0EA48844209D10121C804FFF7ED
:10275000C9F800214FF40020FFF7C4F830E0E54845
:10276000844209D101210805FFF7BCF800214FF48C
:102770008010FFF7B7F823E0DF48844208D1012139
:102780002020FFF7C0F800212020FFF7BCF817E059
:10279000DA48844209D101218807FFF7A3F8002114
:1027A0004FF08040FFF79EF80AE0D548844207D1F9
:1027B00001214005FFF796F800216005FFF792F828
:1027C00010BD2DE9FF4705460E460024A14600BF77
:1027D000A046B08900B100BF2C8A24F44054F08890
:1027E00004432C82AC8941F20C608443B088318967
:1027F0000843718908430443AC81AC8A24F44074D3
:10280000B0890443AC826846FEF7FDFEB5488542B8
:1028100002D0B948854202D1DDF80C9001E0DDF824
:102820000890A88900F4004040B109EBC90000EB12
:10283000091031684900B0FBF1F707E009EBC90066
:1028400000EB091031688900B0FBF1F76420B7FB99
:10285000F0F004012009642101FB1078A88900F43C
:10286000004040B1322000EBC800B0FBF1F000F0B6
:102870000700044308E0322000EB08106421B0FB9D
:10288000F1F000F00F0004432C81BDE8FF874FF406
:102890001651016000218180C18001810C2141819C
:1028A00000218181704710B502460020108A20F473
:1028B00070600B884C8823438C882343CC88234347
:1028C0001843108210BD0021018041808180C180A9
:1028D000704721B1828942F40052828104E08289EA
:1028E0004DF6FF731A4082817047028B02F47F42DB
:1028F0000283028B0A430283704721B1828942F42A
:102900000042828103E08289C2F30E028281704715
:1029100021B1828A42F40062828204E0828A4FF20C
:10292000FF731A4082827047C1F3080282807047A9
:1029300001468888C0F308007047028A4FF6F0739A
:102940001A400282028A0A430282704721B18289B8
:1029500042F00202828104E082894FF6FD731A4040
:102960008281704782894FF2FF731A408281828987
:102970000A4382817047028A4FF6DF731A4002824F
:10298000028A0A430282704721B1028A42F48042DD
:10299000028204E0028A4BF6FF731A4002827047FB
:1029A000818941F001018181704721B1828A42F021
:1029B0000802828204E0828A4FF6F7731A4082820C
:1029C0007047028BD2B20283028B42EA0122028359
:1029D000704721B1828A42F02002828204E0828A1A
:1029E0004FF6DF731A408282704721B1828A42F02B
:1029F0001002828204E0828A4FF6EF731A408282CC
:102A00007047828A4FF6FB731A408282828A0A4399
:102A10008282704721B1828A42F00202828204E0FF
:102A2000828A4FF6FD731A40828270471AB1838AF8
:102A30000B43838202E0838A8B4383827047F0B525
:102A40000346002400260025002040F66A17B942FC
:102A500000D100BF1846C1F3421401F01F06012740
:102A600007FA06F5012C01D10C3004E0022C01D14B
:102A7000103000E014301AB107682F43076002E0FD
:102A80000768AF430760F0BD02460020B1F5007F44
:102A900000D100BF13880B400BB1012000E00020E3
:102AA000704701F40072B2F5007F00D100BFCA4345
:102AB0000280704770B502460024002300250020E4
:102AC00040F66A16B14200D100BFC1F3421501F0D1
:102AD0001F03012606FA03F3012D13D19689334013
:102AE00017E0000000100140004400400048004092
:102AF000004C0040005000400014014000780040AD
:102B0000007C0040022D02D1168A334001E0968AF3
:102B100033400C12012606FA04F41688344013B12F
:102B20000CB1012000E0002070BD10B50022002390
:102B300040F66A14A14200D100BF0A120124944059
:102B4000A3B2DC43048010BD10B501210802FEF7DA
:102B5000DAFE00214FF48070FEF7D5FE10BD30B5CF
:102B60000246002000235068F84C20400D790C6884
:102B700044EA0524204350609068F54C2040D1E998
:102B800003542C438D682C434D7944EA450420437B
:102B90009060D06A20F470000C7D641EE4B2234380
:102BA00040EA0350D06230BD0021016001714171E3
:102BB0008160C16001610121017570470021E54A12
:102BC0001168E54A1140D0E900231A4383681A438B
:102BD000C3681A431143E14AC2F804137047002145
:102BE000016041608160C160704721B1826842F03C
:102BF0000102826003E0826822F001028260704775
:102C00000A4600214168D64B194011434160704784
:102C10004162826270470A460021416821F01F012B
:102C200011434160704738B1CA49096841F4000155
:102C3000CA4AC2F8041306E0C649096821F4000133
:102C4000C64AC2F80413704738B1C249096841F452
:102C50008001C24AC2F8041306E0BE49096821F4A3
:102C60008001BE4AC2F804137047F0B504460D4611
:102C700000200021092D11DDE068A5F10A0606EB10
:102C80004607072606FA07F18843A5F10A0606EB70
:102C9000460603FA06F10843E0600CE0206905EB04
:102CA0004507072606FA07F1884305EB450603FAB0
:102CB00006F108432061072A0FDA606B561E06EB07
:102CC00086071F2606FA07F18843561E06EB86067E
:102CD00005FA06F10843606322E00D2A0FDA206B43
:102CE000D61F06EB86071F2606FA07F18843D61F74
:102CF00006EB860605FA06F10843206310E0E06A59
:102D0000A2F10D0606EB86071F2606FA07F1884397
:102D1000A2F10D0606EB860605FA06F10843E0620D
:102D2000F0BD816841F0804181607047014600201C
:102D30008A6802F080420AB1012000E0002070475A
:102D400021B1826842F48062826003E0826822F4EA
:102D500080628260704721B1826842F00202826024
:102D600003E0826822F002028260704710B50A46D2
:102D700000210023416821F46041531E41EA4331A0
:102D8000416010BD21B1426842F40062426003E03C
:102D9000426822F40062426070470146C86C80B20B
:102DA00070476C48001D0068704721B1826842F48A
:102DB0008072826003E0826822F4807282607047D1
:102DC00021B1826842F40072826003E0826822F4DA
:102DD00000728260704738B15E49096841F4005161
:102DE0005E4AC2F8041306E05A49096821F400510A
:102DF0005A4AC2F804137047F0B50446154600203D
:102E000000220026092911DDE068A1F10A0707EB7D
:102E1000470C072707FA0CF29043A1F10A0707EBCA
:102E2000470703FA07F21043E0600CE0206901EB6A
:102E3000410C072707FA0CF2904301EB410703FA14
:102E400007F210432061A06BC0F30156EF1C06F19E
:102E5000010CA7EB0C0707EB870C1F2707FA0CF2F6
:102E60009043EF1C06F1010CA7EB0C0707EB87075B
:102E700001FA07F21043A063F0BD10B50A46002125
:102E80000023816B21F44011531E41EA03518163F9
:102E900010BD08B5002300930090009B0B440093E5
:102EA000009B1A6008BD0A460021816821F4702148
:102EB0001143816070470A460021816821F4401166
:102EC000114381607047816841F4800181607047DF
:102ED000014600208A6802F480020AB1012000E065
:102EE0000020704721B1426842F48062426003E0F2
:102EF000426822F480624260704721B1426842F425
:102F00008052426003E0426822F48052426070477F
:102F100008B5024600200090009201F12800009BB5
:102F2000184400900098006880B208BD10B50B46A8
:102F30000021D9B2012404FA01F11AB144680C430A
:102F4000446002E044688C43446010BDFFFEFFFC17
:102F5000FDF7FFC004230140E030FCFF00200140EA
:102F6000FFFD3FFF0246002013680B400BB101201C
:102F700000E000207047CA430260704770B5024607
:102F80000020002300240B12556801268E4005EA1C
:102F9000060415681D4015B10CB1012000E00020A9
:102FA00070BD00220A12D3430360704710B5044677
:102FB0006FF00400FDF7D2FDE11704EB5171C1F38E
:102FC000C701394A11701046007800EB4001C1EB8F
:102FD000C0104FF6FF7101EAC0003449088010BDEF
:102FE0000146314A12784A434FF0E0235A610022E9
:102FF0009A611A46126942F001021A6100BF4FF04D
:10300000E022106900F001021AB100F48032002AB7
:10301000F5D04FF0E022126922F001024FF0E023D8
:103020001A6100229A6170470146204A12884A4379
:103030004FF0E0235A6100229A611A46126942F069
:1030400001021A6100BF4FF0E022106900F0010296
:103050001AB100F48032002AF5D04FF0E022126954
:1030600022F001024FF0E0231A6100229A617047BA
:1030700070B504464FF4077094FBF0F0C6B24FF4FD
:10308000077094FBF0F100FB114085B205E04FF4AE
:103090000770FFF7C9FF701EC6B2002EF7D115B139
:1030A0002846FFF7C1FF70BD30000020320000202D
:1030B00000BF704700BF4C4A128802F04002002A4D
:1030C000F9D0C2B2484B9A80704710B588B0044618
:1030D00001210220FEF768FB01211020FEF7BEFB54
:1030E000072206214148FEF74CF9072211463F48C6
:1030F000FEF747F9C020069002208DF81C008DF8DD
:103100001D0000208DF81E0001208DF81F0006A96B
:103110003648FEF7ABF802940020ADF80C00ADF88D
:103120000E00ADF81000ADF814000C20ADF8120040
:1031300002A92D48FFF745FB01212B48FFF7C9FBEA
:10314000012240F225512848FFF779FC25208DF80F
:10315000040003208DF805008DF8060001208DF88D
:10316000070001A8FDF7ADFC08B010BD10B540F296
:1031700025511D48FFF79EFC10B31B48FFF7D8FBF5
:10318000C4B21B48008800F40040C8B91848008841
:1031900000F4804060B10A2C03D00020144908805C
:1031A00020E01348008840F400401149088019E0ED
:1031B0000D2C06D10E48008840F480400C49088050
:1031C00010E00B480088C0F30D000A490C54084871
:1031D0000088401C0649088008460088C72801DD91
:1031E0000020088010BD00000010014000040240D3
:1031F000380000204000012000B58DB001210846B4
:10320000FEF7D2FA01210802FEF728FB01200B90FD
:1032100003208DF8300000208DF833000BA93148D1
:10322000FEF724F801210802FEF76DFB00214FF4A0
:103230008070FEF768FB002007900A9009904FF419
:103240008030089007A8FFF7B9FC002001908DF8A6
:1032500008008DF809004FF0805003904010049052
:103260000020059001208DF8180001A91E48FFF7E5
:1032700076FC0723012200211B48FFF7F6FC012101
:103280001948FFF7B2FC0DB000BD10B50446072386
:10329000012221461448FFF7E8FC1348FFF741FDDF
:1032A00000BF02211048FFF75DFE0028F9D00E484C
:1032B000FFF773FD10BD2DE9F04107460C460025D0
:1032C000002608E03846FFF7E0FF05440520FFF739
:1032D000CFFE701CC6B2A642F4DBB5FBF4F080B2A0
:1032E000BDE8F081000002400020014001B5BDF8BA
:1032F00000000090BDF80000F849088008BD01B545
:10330000BDF800000090BDF80000F449891C088059
:1033100008BD08B5F148801C00880090BDF8000089
:1033200008BDEE4A10804FF0D842A2F80012704754
:1033300010B504462046FFF7D9FF0520FFF750FEE1
:10334000FFF7E7FF10BDE6480089E44908807047B1
:10335000E249891C0880704730B5014601F01F041E
:10336000C1F34513CA0AE50205EB43151544A8B29B
:1033700030BD00BF011EA0F10102D0B2FAD17047EA
:1033800030B504460D46D648808849F2413188421E
:1033900005D0D348808845F21031884214D1D049F5
:1033A0004889FFF7A3FF2012FFF7A9FFE0B2FFF75C
:1033B000A6FFCB498889FFF799FF2812FFF79FFFE7
:1033C000E8B2FFF79CFFABE0C548808846F60401F1
:1033D00088421DD1C2488079012804D1C0480088A4
:1033E000401E001B84B2BE494889FFF77FFF2012B0
:1033F000FFF785FFE0B2FFF782FFB9498889FFF741
:1034000075FF2812FFF77BFFE8B2FFF778FF87E030
:10341000B348808841F66311884247D1B04880792B
:10342000A8B9AF480088401E001B84B2AC49488947
:10343000FFF75CFF0020FFF762FF0020FFF75FFF50
:103440002012FFF75CFFE0B2FFF759FF16E0A44936
:103450004889FFF74BFF2012FFF751FFE0B2FFF75B
:103460004EFF9F490988491EC1F30F20FFF747FF10
:103470009B490978491EC8B2FFF741FF98498889DE
:10348000FFF734FF2812FFF73AFFE8B2FFF737FFE4
:1034900093494988491EC1F30F20FFF730FF904937
:1034A0008978491EC8B2FFF72AFF39E08C48808826
:1034B00045F21051884220D189494889FFF716FF0B
:1034C0002012FFF71CFF86494989491C88B2FFF783
:1034D0000DFFE0B2FFF713FF81498889FFF706FF70
:1034E0002812FFF70CFF7E498989491C88B2FFF733
:1034F000FDFEE8B2FFF703FF12E07948807901286A
:1035000004D177480088401E001B84B27449488962
:103510002146FFF706FF724988892946FFF701FF18
:1035200030BD2DE9F04105460E4600240027A04697
:103530006B480088A84203DD69484088B04202DC3D
:103540000020BDE8F08131462846FFF719FF6448A6
:10355000808849F24131884211D06148808846F61E
:10356000040188420BD05E48808845F210318842C1
:1035700005D05B48808841F66311884203D12E2034
:10358000FFF7B4FE0DE05648808845F2105188429E
:1035900004D14FF43850FFF7A9FE02E02220FFF7D4
:1035A000A5FE4F48808849F22031884202D102208E
:1035B000FFF7DFFEFFF7ADFE04464948808841F67D
:1035C0006311884201D12046BBE70220FFF7D1FEFC
:1035D000FFF79FFE04464248808849F24131884205
:1035E0000BD03F48808845F21031884205D03C48D6
:1035F000808845F2105188420AD10220FFF7B9FEB7
:10360000FFF787FE8046E7B24FF6FF7000EA072714
:103610003348808849F22531884216D03048808866
:1036200044F23551884210D02D488088091F8842C5
:103630000BD02B4880884BF20551884205D0284892
:1036400080884CF20551884201D1204679E7244810
:10365000808849F2413188420BD02148808845F268
:103660001031884205D01E48808845F210518842AA
:1036700007D1E012C002B91240EA411040EAE82046
:103680005FE72046FFF768FE5BE700B514488088D7
:1036900049F24131884211D01148808846F6040130
:1036A00088420BD00E48808845F21031884205D000
:1036B0000B48808841F66311884203D12920FFF727
:1036C00015FE14E00648808845F21051884209D161
:1036D0004FF42450FFF70AFE09E00000FE01006CE1
:1036E0000801012040F273110720FFF71AFE00BD08
:1036F00000B5FD48808849F24131884211D0FA482E
:10370000808846F6040188420BD0F748808845F24D
:103710001031884205D0F448808841F66311884210
:1037200003D12820FFF7E2FD0EE0EF48808845F244
:103730001051884204D14FF42050FFF7D7FD03E029
:1037400000210720FFF7EDFD00BDF0B50546002480
:103750000027E548807901280BD1E348808846F6A8
:103760000401884205D0E048808841F66311884210
:1037700008D1DD488079F0B9DB48808841F66311D3
:10378000884218D1082D15D2DFE805F00406080A92
:103790000C0E101206250DE007250BE0042509E0AC
:1037A000052507E0012505E0002503E0032501E0EC
:1037B000022500BF00BFCC48808849F241318842D1
:1037C00017D0C948808846F60401884211D0C648FF
:1037D000808845F2103188420BD0C348808845F27A
:1037E0001051884205D0C048808841F66311884254
:1037F0007ED1082D1CD2DFE805F00406090C0F125B
:10380000151800BF14E044F0800411E044F04004B7
:103810000EE044F0C0040BE044F0200408E044F063
:10382000600405E044F0A00402E044F0E00400BFBE
:1038300000BFAD48808845F21051884202D14FF454
:10384000585700E03627A848808845F21031884252
:103850000DD0A548808845F21051884207D0A24873
:10386000808841F66311884201D044F008049E48E4
:10387000808846F60401884201D144F002042146C2
:103880003846FFF74EFD9848808841F6631188421C
:103890001DD004F0200068B19348008892494988FF
:1038A000884214DA9048068840888F490880084684
:1038B00046800CE08C4800888B494988884206DDA8
:1038C0008948068840888849088008464680864896
:1038D000808845F21051884254D183494889FFF7C6
:1038E00005FD0020FFF70BFD7F494989491C00E0D9
:1038F00077E088B2FFF7FAFC0020FFF700FD7A4975
:103900004989891C88B2FFF7F1FC77490988491E6B
:10391000C1F30F20FFF7F3FC73494989C91C88B232
:10392000FFF7E4FC70490978491EC8B2FFF7E7FCCD
:103930006D498889FFF7DAFC0020FFF7E0FC6A494F
:103940008989491C88B2FFF7D1FC0020FFF7D7FC1A
:1039500065498989891C88B2FFF7C8FC6249498892
:10396000491EC1F30F20FFF7CAFC5F498989C91CB2
:1039700088B2FFF7BBFC5C498978491EC8B2FFF7E3
:10398000BEFC55E058494889FFF7B0FC0020FFF71E
:10399000B6FC0020FFF7B3FC53490988491EC1F368
:1039A0000F20FFF7ACFC50490978491EC8B2FFF759
:1039B000A6FC4D498889FFF799FC0020FFF79FFC82
:1039C0000020FFF79CFC48494988491EC1F30F209D
:1039D000FFF795FC44498978491EC8B2FFF78FFC70
:1039E00026E0082D1CD2DFE805F004070A0D0F12AF
:1039F000151844F0300413E044F0100410E044F0D3
:103A000020040DE000BF0BE044F0380408E044F06F
:103A1000280405E044F0180402E044F0080400BF64
:103A200000BF032744F4805421463846FFF779FC51
:103A3000F0BD30B504460D4629462046FFF7A0FCF0
:103A4000FFF781FC294800882949088030BD70B5FE
:103A500004460D4616462448808849F24131884282
:103A600005D02148808845F21031884214D11E4982
:103A70004889FFF73BFC2012FFF741FCE0B2FFF75B
:103A80003EFC19498889FFF731FC2812FFF737FC03
:103A9000E8B2FFF734FC93E01348808845F21051F8
:103AA000884227D110494889FFF720FC2012FFF7F0
:103AB00026FC0D494989491C88B2FFF717FCE0B282
:103AC000FFF71DFC08498889FFF710FC2812FFF753
:103AD00016FC05498989491C88B2FFF707FCE8B242
:103AE000FFF70DFC6CE00000080101203A00002007
:103AF0000002006CFE48808841F66311884228D19C
:103B0000FB48807920B9FA480088401E001B84B227
:103B1000F7494889FFF7EAFB2012FFF7F0FBE0B214
:103B2000FFF7EDFB2012FFF7EAFBE0B2FFF7E7FB40
:103B3000EF498889FFF7DAFB2812FFF7E0FBE8B2CC
:103B4000FFF7DDFB2812FFF7DAFBE8B2FFF7D7FB40
:103B500036E0E748808846F6040188421DD1E448F3
:103B60008079012804D1E2480088401E001B84B2FD
:103B7000DF494889FFF7BAFB2012FFF7C0FBE0B22C
:103B8000FFF7BDFBDA498889FFF7B0FB2812FFF782
:103B9000B6FBE8B2FFF7B3FB12E0D5488079012805
:103BA00004D1D3480088401E001B84B2D049488904
:103BB0002146FFF7B6FBCE4988892946FFF7B1FBBE
:103BC000CB480089CB4908804FF0D840A0F800626C
:103BD00070BD70B52DED048B0446BE20FFF786FB4B
:103BE0000520FFF78CFB204605F0DEFA41EC190BAF
:103BF0009FEDC10B53EC102B05F064FA41EC180B50
:103C000005F0DFFA85B22846FFF779FB0120FFF7C0
:103C100076FBFF20FFF773FB0020FFF770FB00200F
:103C2000FFF76DFBBDEC048B70BD10B50446002C96
:103C300066D1AF498871F02008804FF4A0704880A9
:103C40000846808849F2413188420BD0A8488088D4
:103C500046F60401884205D0A548808845F2103117
:103C600088421AD12C20A24908812A2048812B2081
:103C700088810846808846F60401884205D09C4821
:103C8000808845F21031884206D14FF4A0709849DF
:103C900008804FF4F0704880A1E09548808845F294
:103CA0001051884210D14FF43050914908814FF49F
:103CB000285048814FF42C5088814FF4F0700880D0
:103CC0004FF4487048808AE08948808841F6631143
:103CD00088420DD12C20864908812B2048812A203A
:103CE00088814FF4F07008804FF44870488076E087
:103CF00022207F49088120204881212088816EE090
:103D000001207B4988714FF4A0700880F020488022
:103D10000846808849F24131884205D0744880883D
:103D200045F21031884207D12C20714908812A20A0
:103D300048812B2088813FE06D48808846F6040149
:103D4000884207D12C206A4908812B2048812A20EB
:103D5000888131E06648808845F21051884210D150
:103D60004FF43050624908814FF4285048814FF495
:103D70002C5088814FF4487008804FF4F0704880D0
:103D80001AE05B48808841F6631188420DD12C20EF
:103D9000574908812A2048812B2088814FF4487098
:103DA00008804FF4F070488006E0222050490881D6
:103DB00021204881202088814D48808846F60401D2
:103DC000884205D04A48808845F21031884206D1A1
:103DD0004FF4F070464908804FF4A07048800020EE
:103DE000FFF7B3FC10BD2DE9F04F86B004460D4639
:103DF0009046994604EB0800401E86B205EB090088
:103E0000401E87B23A48808849F24131884215D035
:103E10003748808845F2103188420FD03448808876
:103E200046F60401884209D031488079012826D11C
:103E30002F48808841F66311884220D12C49488957
:103E4000FFF754FA2012FFF75AFAE0B2FFF757FAD9
:103E50003012FFF754FAF0B2FFF751FA244988897B
:103E6000FFF744FA2812FFF74AFAE8B2FFF747FAD9
:103E70003812FFF744FAF8B2FFF741FAC1E01C48E4
:103E8000808841F6631188423DD119480088A0EB33
:103E90000800001B84B205EB0900401E1FFA80F9E0
:103EA00013494889FFF722FA2012FFF728FAE0B2F7
:103EB000FFF725FA04EB0801491EC1F30F20FFF7B5
:103EC0001EFA04EB0801491EC8B2FFF718FA0849A8
:103ED0008889FFF70BFA2812FFF711FAE8B2FFF70B
:103EE0000EFA4FEA2920FFF70AFA09F0FF0007E06F
:103EF00008010120FE01006C666666666666044085
:103F0000FFF7FDF97DE0FE48808845F210518842B8
:103F100044D1FB494889FFF7E9F92012FFF7EFF98F
:103F2000F7494989491C88B2FFF7E0F9E0B2FFF789
:103F3000E6F9F3494989891C88B2FFF7D7F93012AD
:103F4000FFF7DDF9EE494989C91C88B2FFF7CEF9C0
:103F5000F0B2FFF7D4F9EA498889FFF7C7F92812C8
:103F6000FFF7CDF9E6498989491C88B2FFF7BEF908
:103F7000E8B2FFF7C4F9E2498989891C88B2FFF7E2
:103F8000B5F93812FFF7BBF9DD498989C91C88B238
:103F9000FFF7ACF9F8B2FFF7B2F932E0D848807910
:103FA00001280ED1AA46BB46D5480088801B401E7A
:103FB00080B20190D2480088001B401E80B2009061
:103FC00003E0A246B346019500975020059051208A
:103FD0000490522003905320029051460598FFF719
:103FE000A0F959460498FFF79CF901990398FFF747
:103FF00098F900990298FFF794F929462046FFF7AF
:10400000BFF906B0BDE8F08F70B504460026BC4885
:10401000058840884543BA48808846F604018842AE
:1040200016D1B7488079012812D10020B44988718F
:104030002A2048812B20888100210846FFF7A0F91B
:104040000120AF4988712B2048812A20888103E014
:1040500000210846FFF794F9FFF775F9002602E002
:10406000A8480480761CAE42FAD370BD00B5A1B05A
:104070000020209001217920FDF796FB01210846C0
:10408000FDF7CAFB4FF400501E9001208DF87C0014
:1040900000208DF87E0002208DF87D0001208DF833
:1040A0007F001EA99848FDF7E1F84CF233701E908E
:1040B00002208DF87C0000208DF87E0003208DF812
:1040C0007D0001208DF87F001EA98F48FDF7CEF8F6
:1040D0004FF680701E9002208DF87C0000208DF835
:1040E0007E0003208DF87D0001208DF87F001EA941
:1040F0008648FDF7BBF84FF480401E9002208DF8F3
:104100007C0000208DF87E0003208DF87D000120CA
:104110008DF87F001EA97E48FDF7A8F84FF4805067
:104120001E9002208DF87C0000208DF87E00032078
:104130008DF87D0001208DF87F001EA97548FDF7E0
:1041400095F80C2200217048FDF71BF90C22012183
:104150006D48FDF716F90C2204216B48FDF711F9A3
:104160000C2205216848FDF70CF90C22082166484D
:10417000FDF707F90C2209216348FDF702F90C222B
:104180000A216148FDF7FDF80C220E215E48FDF77B
:10419000F8F80C220F215C48FDF7F3F80C220721F8
:1041A0005A48FDF7EEF80C2208215848FDF7E9F8C7
:1041B0000C2209215548FDF7E4F80C220A21534846
:1041C000FDF7DFF80C220B215048FDF7DAF80C223E
:1041D00011464E48FDF7D5F80C220D214B48FDF74E
:1041E000D0F80C220E214948FDF7CBF80C220F2104
:1041F0004648FDF7C6F80C220E214548FDF7C1F8E8
:104200000C2211464348FDF7BCF80F20089000200F
:1042100009903C200A9000200B900C900D900E907D
:1042200009200190002002900820039000200490B3
:1042300005900690079006200F9000201090119096
:104240001020129000201390159014901690179043
:104250004FF480501890002019904FF480401A902D
:1042600000201B9008A81C9001A81D900FA8FCF727
:10427000AEFC01210620FCF735FD3220FEF7F8FEEA
:1042800001210020FFF74DF83220FEF7F1FE00205B
:10429000FFF74EF81A49888008468088FF280ADB15
:1042A000084680884FF6FF71884204D01448808801
:1042B000B0F5134F7DD1D320FFF718F8FFF729F899
:1042C0000F498880FFF725F80D498880FFF721F80E
:1042D0000B498880084680884FF6FF7101EA00206C
:1042E00007498880FFF715F805498988084304497C
:1042F00088800846808849F24131884259D00BE0D5
:10430000080101200002006C000C02400010024075
:104310000014024000180240BF20FEF7E7FFFEF73E
:10432000F8FFFE498880FEF7F4FFFC498880FEF71D
:10433000F0FFFA498880FEF7ECFFF84988800846CC
:1043400080884FF6FF7101EA0020F4498880FEF76B
:10435000E0FFF24989880843F04988800846808850
:1043600046F6040188427AD0D420FEF7BFFFFEF75C
:10437000D0FFEA498880FEF7CCFFE8498880FEF745
:10438000C8FFE6498880084680884FF6FF7101EA39
:104390000020E2498880FEF7BCFFE0498988084395
:1043A000DE4988800846808845F21031884256D020
:1043B00000E054E04FF45A40FEF798FFFEF7A9FFE3
:1043C000D64988804FF45B40FEF790FFFEF7A1FFCF
:1043D000D2498880084680884FF6FF7101EA0020A4
:1043E000CE4988804FF45C40FEF780FFFEF791FFD6
:1043F000CA4989880843C949888008468088B0F539
:10440000004F02D145F210508880C448808845F2A0
:104410001051884223D0A120FEF768FFFEF779FFF4
:10442000BE498880FEF775FFBC49888008468088B1
:104430004FF6FF7101EA0020B8498880FEF769FF56
:10444000B64989880843B54988800846808845F27E
:104450006171884203D141F66310B0498880AF484A
:10446000808849F24131884211D0AC48808845F2B9
:10447000103188420BD0A948808845F210518842FB
:1044800005D0A648808841F6631188421DD1A44812
:10449000006820F00F004FF02041C1F81C010846D1
:1044A000D0F81C0120F47060C1F81C010846D0F857
:1044B0001C0140F00300C1F81C010846D0F81C01A3
:1044C00040F40070C1F81C0128E09448808846F64A
:1044D0000401884205D0914880884CF205518842F9
:1044E0001CD18F48006820F00F004FF02041C1F828
:1044F0001C010846D0F81C0120F47060C1F81C01B2
:104500000846D0F81C0140F00A00C1F81C0108461A
:10451000D0F81C0140F44060C1F81C017F4881883C
:1045200080A005F0A9F87D48808849F24131884291
:104530007ED1CF20FEF7DAFE0020FEF7E0FEC1209C
:10454000FEF7DDFE3020FEF7DAFEED20FEF7CEFEB0
:104550006420FEF7D4FE0320FEF7D1FE1220FEF702
:10456000CEFE8120FEF7CBFEE820FEF7BFFE8520C1
:10457000FEF7C5FE1020FEF7C2FE7A20FEF7BFFE52
:10458000CB20FEF7B3FE3920FEF7B9FE2C20FEF754
:10459000B6FE0020FEF7B3FE3420FEF7B0FE022088
:1045A000FEF7ADFEF720FEF7A1FE2020FEF7A7FEE6
:1045B000EA20FEF79BFE0020FEF7A1FE0020FEF79A
:1045C0009EFEC020FEF792FE1B20FEF798FEC12043
:1045D000FEF78CFE0120FEF792FEC520FEF786FE58
:1045E0003020FEF78CFE3020FEF789FEC720FEF754
:1045F0007DFEB720FEF783FE3620FEF777FE4820CB
:10460000FEF77DFE3A20FEF771FE5520FEF777FE9D
:10461000B120FEF76BFE0020FEF771FE1A20FEF7B8
:104620006EFEB620FEF762FE0A20FEF768FE00E08E
:10463000A5E0A220FEF763FEF220FEF757FE002061
:10464000FEF75DFE2620FEF751FE0120FEF757FE25
:10465000E020FEF74BFE0F20FEF751FE2A20FEF76A
:104660004EFE2820FEF74BFE0820FEF748FE0E20E7
:10467000FEF745FE0820FEF742FE5420FEF73FFEFF
:10468000A920FEF73CFE4320FEF739FE0A20FEF784
:1046900036FE0F20FEF733FE0020FEF730FE00202E
:1046A000FEF72DFE0020FEF72AFE0020FEF727FE73
:1046B000E120FEF71BFE0020FEF721FE1520FEF78D
:1046C0001EFE1720FEF71BFE0720FEF718FE112026
:1046D000FEF715FE0620FEF712FE2B20FEF70FFE5A
:1046E0005620FEF70CFE3C20FEF709FE0520FEF7E3
:1046F00006FE1020FEF703FE0F20FEF700FE3F200F
:10470000FEF7FDFD3F20FEF7FAFD0F20FEF7F7FD57
:104710002B20FEF7EBFD00200CE00000080101203B
:104720001C0100A0204C43442049443A25780D0A3E
:1047300000000000FEF7E3FD0020FEF7E0FD012091
:10474000FEF7DDFD3F20FEF7DAFD2A20FEF7CEFD65
:104750000020FEF7D4FD0020FEF7D1FD0020FEF77B
:10476000CEFDEF20FEF7CBFD1120FEF7BFFD782038
:10477000FEF77EFC2920FEF7B9FD03F01DB9FE48C7
:10478000808846F6040188427ED11120FEF7AEFDF6
:104790001420FEF76DFCD020FEF7A8FD0720FEF7E1
:1047A000AEFD4220FEF7ABFD1D20FEF7A8FDD12097
:1047B000FEF79CFD0020FEF7A2FD1A20FEF79FFDEC
:1047C0000920FEF79CFDD220FEF790FD0120FEF7A8
:1047D00096FD2220FEF793FDC020FEF787FD1020F6
:1047E000FEF78DFD3B20FEF78AFD0020FEF787FDDA
:1047F0000220FEF784FD1120FEF781FDC520FEF7A3
:1048000075FD0320FEF77BFDC820FEF76FFD00203D
:10481000FEF775FD2520FEF772FD2120FEF76FFDE6
:104820000520FEF76CFD0020FEF769FD0A20FEF76B
:1048300066FD6520FEF763FD2520FEF760FD77200D
:10484000FEF75DFD5020FEF75AFD0F20FEF757FDE5
:104850000020FEF754FDF820FEF748FD0120FEF78A
:104860004EFDFE20FEF742FD0020FEF748FD02202F
:10487000FEF745FD2020FEF739FD3620FEF736FD18
:104880000820FEF73CFD00E02AE03A20FEF72EFD6E
:104890005520FEF734FD2B20FEF728FD0020FEF703
:1048A0002EFD0020FEF72BFD0120FEF728FD3F2006
:1048B000FEF725FD2A20FEF719FD0020FEF71FFD5B
:1048C0000020FEF71CFD0120FEF719FDDF20FEF79A
:1048D00016FD7820FEF7CCFB2920FEF707FD4CE7FC
:1048E000A548808845F21031884240F07C87ED2051
:1048F000FEF7FCFC0120FEF702FDFE20FEF7FFFCA8
:10490000EE20FEF7F3FCDE20FEF7F9FC2120FEF797
:10491000F6FCF120FEF7EAFC0120FEF7F0FCDF20B8
:10492000FEF7E4FC1020FEF7EAFCC420FEF7DEFCF4
:104930008F20FEF7E4FCC620FEF7D8FC0020FEF72F
:10494000DEFCE220FEF7DBFCE220FEF7D8FCE220F2
:10495000FEF7D5FCBF20FEF7C9FCAA20FEF7CFFC6E
:10496000B020FEF7C3FC0D20FEF7C9FC0020FEF7C7
:10497000C6FC0D20FEF7C3FC0020FEF7C0FC112092
:10498000FEF7BDFC0020FEF7BAFC1920FEF7B7FCCD
:104990000020FEF7B4FC2120FEF7B1FC0020FEF75A
:1049A000AEFC2D20FEF7ABFC0020FEF7A8FC3D205E
:1049B000FEF7A5FC0020FEF7A2FC5D20FEF79FFCA1
:1049C0000020FEF79CFC5D20FEF799FC0020FEF71E
:1049D00096FCB120FEF78AFC8020FEF790FC0020B8
:1049E000FEF78DFC8B20FEF78AFC0020FEF787FC8B
:1049F0009620FEF784FC0020FEF781FCB220FEF733
:104A000075FC0020FEF77BFC0020FEF778FC0220FE
:104A1000FEF775FC0020FEF772FC0320FEF76FFC2A
:104A20000020FEF76CFCB320FEF760FC0020FEF7D0
:104A300066FC0020FEF763FC0020FEF760FC00200F
:104A4000FEF75DFC0020FEF75AFC0020FEF757FC45
:104A50000020FEF754FC0020FEF751FC0020FEF77A
:104A60004EFC0020FEF74BFC0020FEF748FC002027
:104A7000FEF745FC0020FEF742FC0020FEF73FFC5D
:104A80000020FEF73CFC0020FEF739FC0020FEF77A
:104A900036FC0020FEF733FC0020FEF730FC00203F
:104AA000FEF72DFC0020FEF72AFC0020FEF727FC75
:104AB0000020FEF724FC0020FEF721FCB420FEF7C6
:104AC00015FC8B20FEF71BFC0020FEF718FC96203F
:104AD000FEF715FC0020FEF712FCA120FEF70FFCEC
:104AE0000020FEF70CFCB520FEF700FC0220FEF7CC
:104AF00006FC0020FEF703FC0320FEF700FC00206C
:104B0000FEF7FDFB0420FEF7FAFB0020FEF7F7FBA3
:104B1000B620FEF7EBFB0020FEF7F1FB0020FEF7CE
:104B2000EEFBB720FEF7E2FB0020FEF7E8FB0020DB
:104B3000FEF7E5FB3F20FEF7E2FB0020FEF7DFFB80
:104B40005E20FEF7DCFB0020FEF7D9FB6420FEF7B9
:104B5000D6FB0020FEF7D3FB8C20FEF7D0FB002015
:104B6000FEF7CDFBAC20FEF7CAFB0020FEF7C7FB2B
:104B7000DC20FEF7C4FB01E0080101200020FEF765
:104B8000BEFB7020FEF7BBFB0020FEF7B8FB9020B9
:104B9000FEF7B5FB0020FEF7B2FBEB20FEF7AFFB04
:104BA0000020FEF7ACFBDC20FEF7A9FB0020FEF79F
:104BB000A6FBB820FEF79AFB0020FEF7A0FB002022
:104BC000FEF79DFB0020FEF79AFB0020FEF797FB07
:104BD0000020FEF794FB0020FEF791FB0020FEF77B
:104BE0008EFB0020FEF78BFBBA20FEF77FFB242014
:104BF000FEF785FB0020FEF782FB0020FEF77FFB1F
:104C00000020FEF77CFBC120FEF770FB2020FEF7A2
:104C100076FB0020FEF773FB5420FEF770FB0020AC
:104C2000FEF76DFBFF20FEF76AFB0020FEF767FB37
:104C3000C220FEF75BFB0A20FEF761FB0020FEF7B7
:104C40005EFB0420FEF75BFB0020FEF758FBC32051
:104C5000FEF74CFB3C20FEF752FB0020FEF74FFB1B
:104C60003A20FEF74CFB0020FEF749FB3920FEF707
:104C700046FB0020FEF743FB3720FEF740FB0020F9
:104C8000FEF73DFB3C20FEF73AFB0020FEF737FB2A
:104C90003620FEF734FB0020FEF731FB3220FEF712
:104CA0002EFB0020FEF72BFB2F20FEF728FB002019
:104CB000FEF725FB2C20FEF722FB0020FEF71FFB52
:104CC0002920FEF71CFB0020FEF719FB2620FEF72B
:104CD00016FB0020FEF713FB2420FEF710FB00203C
:104CE000FEF70DFB2420FEF70AFB0020FEF707FB72
:104CF0002320FEF704FB0020FEF701FB3C20FEF71B
:104D0000FEFA0020FEF7FBFA3620FEF7F8FA002044
:104D1000FEF7F5FA3220FEF7F2FA0020FEF7EFFA7E
:104D20002F20FEF7ECFA0020FEF7E9FA2C20FEF720
:104D3000E6FA0020FEF7E3FA2920FEF7E0FA002069
:104D4000FEF7DDFA2620FEF7DAFA0020FEF7D7FAA2
:104D50002420FEF7D4FA0020FEF7D1FA2420FEF733
:104D6000CEFA0020FEF7CBFA2320FEF7C8FA002087
:104D7000FEF7C5FAC420FEF7B9FA6220FEF7BFFAC3
:104D80000020FEF7BCFA0520FEF7B9FA0020FEF776
:104D9000B6FA8420FEF7B3FA0020FEF7B0FAF0204E
:104DA000FEF7ADFA0020FEF7AAFA1820FEF7A7FAE0
:104DB0000020FEF7A4FAA420FEF7A1FA0020FEF7D7
:104DC0009EFA1820FEF79BFA0020FEF798FA502072
:104DD000FEF795FA0020FEF792FA0C20FEF78FFA04
:104DE0000020FEF78CFA1720FEF789FA0020FEF764
:104DF00086FA9520FEF783FA0020FEF780FAF3206A
:104E0000FEF77DFA0020FEF77AFAE620FEF777FA41
:104E10000020FEF774FAC520FEF768FA3220FEF78C
:104E20006EFA0020FEF76BFA4420FEF768FA0020C5
:104E3000FEF765FA6520FEF762FA0020FEF75FFADA
:104E40007620FEF75CFA0020FEF759FA8820FEF77C
:104E500056FA0020FEF753FAC620FEF747FA202044
:104E6000FEF74DFA0020FEF74AFA1720FEF747FA40
:104E70000020FEF744FA0120FEF741FA0020FEF779
:104E80003EFAC720FEF732FA0020FEF738FA00207B
:104E9000FEF735FA0020FEF732FA0020FEF72FFA6F
:104EA000C820FEF723FA0020FEF729FA0020FEF7BB
:104EB00026FA0020FEF723FA0020FEF720FAC92088
:104EC000FEF714FA0020FEF71AFA0020FEF717FA90
:104ED0000020FEF714FA0020FEF711FA0020FEF77A
:104EE0000EFA0020FEF70BFA0020FEF708FA002069
:104EF000FEF705FA0020FEF702FA0020FEF7FFF9A0
:104F00000020FEF7FCF90020FEF7F9F90020FEF77B
:104F1000F6F90020FEF7F3F90020FEF7F0F9002083
:104F2000FEF7EDF9E020FEF7E1F91620FEF7E7F9CC
:104F30000020FEF7E4F91C20FEF7E1F90020FEF75F
:104F4000DEF92120FEF7DBF90020FEF7D8F9362044
:104F5000FEF7D5F90020FEF7D2F94620FEF7CFF98B
:104F60000020FEF7CCF95220FEF7C9F90020FEF729
:104F7000C6F96420FEF7C3F90020FEF7C0F97A20D5
:104F8000FEF7BDF90020FEF7BAF98B20FEF7B7F95E
:104F90000020FEF7B4F99920FEF7B1F90020FEF7E2
:104FA000AEF9A820FEF7ABF90020FEF7A8F9B9206A
:104FB000FEF7A5F90020FEF7A2F9C420FEF79FF93D
:104FC0000020FEF79CF9CA20FEF799F90020FEF7B1
:104FD00096F9D220FEF793F90020FEF790F9D92038
:104FE000FEF78DF90020FEF78AF9E020FEF787F939
:104FF0000020FEF784F9F320FEF781F90020FEF788
:105000007EF9E120FEF772F91620FEF778F900200C
:10501000FEF775F91C20FEF772F90020FEF76FF914
:105020002220FEF76CF90020FEF769F93620FEF722
:1050300066F90020FEF763F94520FEF760F90020CD
:10504000FEF75DF95220FEF75AF90020FEF757F9F6
:105050006420FEF754F90020FEF751F97A20FEF79C
:105060004EF90020FEF74BF98B20FEF748F900209F
:10507000FEF745F99920FEF742F90020FEF73FF9C7
:10508000A820FEF73CF90020FEF739F9B920FEF719
:1050900036F90020FEF733F9C420FEF730F900207E
:1050A000FEF72DF9CA20FEF72AF90020FEF727F9AE
:1050B000D220FEF724F90020FEF721F9D820FEF7D0
:1050C0001EF90020FEF71BF9E020FEF718F900207A
:1050D000FEF715F9F320FEF712F90020FEF70FF99D
:1050E000E220FEF703F90520FEF709F90020FEF79C
:1050F00006F90B20FEF703F90020FEF700F91B204C
:10510000FEF7FDF80020FEF7FAF83420FEF7F7F876
:105110000020FEF7F4F84420FEF7F1F80020FEF737
:10512000EEF84F20FEF7EBF80020FEF7E8F86120DC
:10513000FEF7E5F80020FEF7E2F87920FEF7DFF849
:105140000020FEF7DCF88820FEF7D9F80020FEF7F3
:10515000D6F89720FEF7D3F80020FEF7D0F8A62067
:10516000FEF7CDF80020FEF7CAF8B720FEF7C7F823
:105170000020FEF7C4F8C220FEF7C1F80020FEF7B9
:10518000BEF8C720FEF7BBF80020FEF7B8F8D12024
:10519000FEF7B5F80020FEF7B2F8D620FEF7AFF81C
:1051A0000020FEF7ACF8DD20FEF7A9F80020FEF79E
:1051B000A6F8F320FEF7A3F80020FEF7A0F8E320FE
:1051C000FEF794F80520FEF79AF80020FEF797F80E
:1051D0000A20FEF794F80020FEF791F81C20FEF755
:1051E0008EF80020FEF78BF83320FEF788F80020B9
:1051F000FEF785F84420FEF782F80020FEF77FF8DE
:105200005020FEF77CF80020FEF779F86220FEF7C8
:1052100076F80020FEF773F87820FEF770F800208B
:10522000FEF76DF88820FEF76AF80020FEF767F8B1
:105230009720FEF764F80020FEF761F8A620FEF73D
:105240005EF80020FEF75BF8B720FEF758F8002064
:10525000FEF755F8C220FEF752F80020FEF74FF88F
:10526000C720FEF74CF80020FEF749F8D120FEF7E2
:1052700046F80020FEF743F8D520FEF740F800205E
:10528000FEF73DF8DD20FEF73AF80020FEF737F88C
:10529000F320FEF734F80020FEF731F8E420FEF7A3
:1052A00025F80120FEF72BF80020FEF728F8012052
:1052B000FEF725F80020FEF722F80220FEF71FF87F
:1052C0000020FEF71CF82A20FEF719F80020FEF750
:1052D00016F83C20FEF713F80020FEF710F84B20DC
:1052E000FEF70DF80020FEF70AF85D20FEF707F83C
:1052F0000020FEF704F87420FEF701F80020FDF707
:10530000FEFF8420FDF7FBFF0020FDF7F8FF932050
:10531000FDF7F5FF0020FDF7F2FFA220FDF7EFFFFC
:105320000020FDF7ECFFB320FDF7E9FF0020FDF7BB
:10533000E6FFBE20FDF7E3FF0020FDF7E0FFC420FD
:10534000FDF7DDFF0020FDF7DAFFCD20FDF7D7FFE9
:105350000020FDF7D4FFD320FDF7D1FF0020FDF79B
:10536000CEFFDD20FDF7CBFF0020FDF7C8FFF320C7
:10537000FDF7C5FF0020FDF7C2FFE520FDF7B6FFF2
:105380000020FDF7BCFF0020FDF7B9FF0020FDF76E
:10539000B6FF0020FDF7B3FF0220FDF7B0FF0020AD
:1053A000FDF7ADFF2920FDF7AAFF0020FDF7A7FFBD
:1053B0003C20FDF7A4FF0020FDF7A1FF4B20FDF7E7
:1053C0009EFF0020FDF79BFF5D20FDF798FF00206A
:1053D000FDF795FF7420FDF792FF0020FDF78FFF8A
:1053E0008420FDF78CFF0020FDF789FF9320FDF757
:1053F00086FF0020FDF783FFA220FDF780FF00203D
:10540000FDF77DFFB320FDF77AFF0020FDF777FF62
:10541000BE20FDF774FF0020FDF771FFC420FDF7EB
:105420006EFF0020FDF76BFFCD20FDF768FF002029
:10543000FDF765FFD320FDF762FF0020FDF75FFF5A
:10544000DC20FDF75CFF0020FDF759FFF320FDF79E
:1054500056FF0020FDF753FFE620FDF747FF112020
:10546000FDF74DFF0020FDF74AFF3420FDF747FF11
:105470000020FDF744FF5620FDF741FF0020FDF717
:105480003EFF7620FDF73BFF0020FDF738FF772039
:10549000FDF735FF0020FDF732FF6620FDF72FFFF7
:1054A0000020FDF72CFF8820FDF729FF0020FDF7E5
:1054B00026FF9920FDF723FF0020FDF720FFBB20EA
:1054C000FDF71DFF0020FDF71AFF9920FDF717FFDC
:1054D0000020FDF714FF6620FDF711FF0020FDF707
:1054E0000EFF5520FDF70BFF0020FDF708FF5520AC
:1054F000FDF705FF0020FDF702FF4520FDF7FFFE49
:105500000020FDF7FCFE4320FDF7F9FE0020FDF72B
:10551000F6FE4420FDF7F3FE0020FDF7F0FEE72045
:10552000FDF7E4FE3220FDF7EAFE0020FDF7E7FE7E
:105530005520FDF7E4FE0020FDF7E1FE7620FDF7A3
:10554000DEFE0020FDF7DBFE6620FDF7D8FE002022
:10555000FDF7D5FE6720FDF7D2FE0020FDF7CFFE58
:105560006720FDF7CCFE0020FDF7C9FE8720FDF780
:10557000C6FE0020FDF7C3FE9920FDF7C0FE002007
:10558000FDF7BDFEBB20FDF7BAFE0020FDF7B7FE1C
:105590009920FDF7B4FE0020FDF7B1FE7720FDF75E
:1055A000AEFE0020FDF7ABFE4420FDF7A8FE002074
:1055B000FDF7A5FE5620FDF7A2FE0020FDF79FFE99
:1055C0002320FDF79CFE0020FDF799FE3320FDF718
:1055D00096FE0020FDF793FE4520FDF790FE00208B
:1055E000FDF78DFEE820FDF781FE0020FDF787FE28
:1055F0000020FDF784FE9920FDF781FE0020FDF7D5
:105600007EFE8720FDF77BFE0020FDF778FE8820D8
:10561000FDF775FE0020FDF772FE7720FDF76FFEA7
:105620000020FDF76CFE6620FDF769FE0020FDF707
:1056300066FE8820FDF763FE0020FDF760FEAA20CD
:10564000FDF75DFE0020FDF75AFEBB20FDF757FE7B
:105650000020FDF754FE9920FDF751FE0020FDF7D4
:105660004EFE6620FDF74BFE0020FDF748FE55205C
:10567000FDF745FE0020FDF742FE5520FDF73FFEF9
:105680000020FDF73CFE4420FDF739FE0020FDF729
:1056900036FE4420FDF733FE0020FDF730FE552096
:1056A000FDF72DFE0020FDF72AFEE920FDF71EFE86
:1056B000AA20FDF724FE0020FDF721FE0020FDF7C3
:1056C0001EFE0020FDF71BFE0020FDF70FFEAA20A6
:1056D000FDF715FECF20FDF709FE0020FDF70FFEB8
:1056E0000020FDF70CFE0020FDF709FE0020FDF76D
:1056F00006FE0020FDF703FE0020FDF700FE00205F
:10570000FDF7FDFD0020FDF7FAFD0020FDF7F7FD98
:105710000020FDF7F4FD0020FDF7F1FD0020FDF76E
:10572000EEFD0020FDF7EBFD0020FDF7E8FD002079
:10573000FDF7E5FD0020FDF7E2FD0020FDF7DFFDB0
:10574000F020FDF7D3FD0020FDF7D9FD5020FDF737
:10575000D6FD0020FDF7D3FD0020FDF7D0FD002091
:10576000FDF7CDFDF320FDF7C1FD0020FDF7C7FDDE
:10577000F920FDF7BBFD0620FDF7C1FD1020FDF768
:10578000BEFD2920FDF7BBFD0020FDF7B8FD3A2046
:10579000FDF7ACFD5520FDF7B2FD1120FDF7A6FD8C
:1057A0006420FDF765FC2920FDF7A0FD3520FDF7FD
:1057B0009DFD0020FDF7A3FD5120FDF797FDFF2083
:1057C000FDF79DFD5320FDF791FD2C20FDF797FD82
:1057D0005520FDF78BFD8220FDF791FD2C20FDF774
:1057E00085FD02F0E9B8FE48808845F210518842F4
:1057F0007ED155214FF47040FDF793FDAA214FF261
:105800000100FDF78EFD52214FF20200FDF789FDE8
:1058100008214FF20300FDF784FD01214FF204003F
:10582000FDF77FFD0D214FF43040FDF77AFD0D218E
:105830004BF20100FDF775FD0D214BF20200FDF763
:1058400070FD34214FF43640FDF76BFD34214BF2EF
:105850000160FDF766FD34214BF20260FDF761FD4A
:105860000D214FF43140FDF75CFD0D214BF201108D
:10587000FDF757FD0D214BF20210FDF752FD3421CB
:105880004FF43740FDF74DFD34214BF20170FDF729
:1058900048FD34214BF20270FDF743FD00214FF427
:1058A0003240FDF73EFD00214BF20120FDF739FDAE
:1058B00000214BF20220FDF734FD24214FF4384043
:1058C000FDF72FFD24214BF60100FDF72AFD2421D1
:1058D0004BF60200FDF725FD01214FF43F40FDF797
:1058E00020FD0F214FF43340FDF71BFD0F2100E099
:1058F000FEE34BF20130FDF714FD0F214BF20230B5
:10590000FDF70FFD34214FF43940FDF70AFD342136
:105910004BF60110FDF705FD34214BF60210FDF7A3
:1059200000FD08214FF43540FDF7FBFC08214BF248
:105930000150FDF7F6FC08214BF20250FDF7F1FC97
:1059400003214FF44240FDF7ECFC24214FF43A4090
:10595000FDF7E7FC24214BF60120FDF7E2FC2421B2
:105960004BF60220FDF7DDFC00214FF43C40FDF733
:10597000D8FC78214BF60140FDF7D3FC00214BF613
:105980000240FDF7CEFC00214FF43D40FDF7C9FC7D
:1059900078214BF60150FDF7C4FC00214BF6025074
:1059A000FDF7BFFC00214FF43E40FDF7BAFC642137
:1059B0004BF60160FDF7B5FC00214FF45140FDF7B7
:1059C000B0FC33214DF20110FDF7ABFC00214DF28C
:1059D0000210FDF7A6FC34214DF20310FDF7A1FCE7
:1059E00000214DF20410FDF79CFC3A214DF2051008
:1059F000FDF797FC00214DF20610FDF792FC4A21BD
:105A00004DF20710FDF78DFC00214DF20810FDF757
:105A100088FC5C214DF20910FDF783FC00214DF25A
:105A20000A10FDF77EFC81214DF20B10FDF779FC89
:105A300000214DF20C10FDF774FCA6214DF20D1063
:105A4000FDF76FFC00214DF20E10FDF76AFCE52119
:105A50004DF20F10FDF765FC01214DF21010FDF71E
:105A600060FC13214DF21110FDF75BFC01214DF29A
:105A70001210FDF756FC54214DF21310FDF751FCA6
:105A800001214DF21410FDF74CFC82214DF215104E
:105A9000FDF747FC01214DF21610FDF742FCCA212B
:105AA0004DF21710FDF73DFC02214DF21810FDF7E5
:105AB00038FC00214DF21910FDF733FC02214DF2A4
:105AC0001A10FDF72EFC01214DF21B10FDF729FCE9
:105AD00002214DF21C10FDF724FC34214DF21D1063
