:020000040800F2
:1000000088080220A1020008454A0008B31E000823
:10001000414A0008F10900083953000800000000B7
:10002000000000000000000000000000214B00085C
:100030006D0A000800000000814A0008D94B000842
:10004000BB020008BB020008BB020008BB0200089C
:10005000BB020008BB0200086F0A0008790A00080A
:10006000830A00088D0A0008970A0008BB020008EE
:10007000BB020008BB020008BB020008BB0200086C
:10008000BB020008BB020008BB020008BB0200085C
:10009000BB020008BB020008BB020008A10A00085E
:1000A000BB020008BB020008BB020008BB0200083C
:1000B000BB020008BB020008BB020008BB0200082C
:1000C000BB020008BB020008BB020008BB0200081C
:1000D000BB020008E9520008BB020008BB0200088E
:1000E000BB020008BB020008BB020008BB020008FC
:1000F000BB020008BB020008BB020008BB020008EC
:10010000BB020008BB020008BB020008BB020008DB
:10011000BB020008BB020008BB020008BB020008CB
:10012000BB020008BB020008BB020008BB020008BB
:10013000BB020008BB020008BB020008BB020008AB
:10014000BB020008BB020008BB020008BB0200089B
:10015000BB020008BB020008BB020008BB0200088B
:10016000BB020008BB020008BB020008BB0200087B
:10017000BB020008BB020008BB0200080000000030
:10018000BB020008BB020008BB020008BB0200085B
:10019000BB020008BB020008BB020008BB0200084B
:1001A000BB020008BB020008BB020008BB0200083B
:1001B000BB020008BB020008BB020008BB0200082B
:1001C000BB020008BB02000800000000BB020008E0
:1001D000BB020008BB020008BB020008BB0200080B
:1001E000BB020008BB020008BB020008BB020008FB
:1001F000BB020008BB02000800F002F800F041F862
:100200000AA090E8000C82448344AAF10107DA4571
:1002100001D100F036F8AFF2090EBAE80F0013F082
:10022000010F18BFFB1A43F00103184740530000A9
:1002300060530000103A24BF78C878C1FAD852073A
:1002400024BF30C830C144BF04680C607047000050
:100250000023002400250026103A28BF78C1FBD8CF
:10026000520728BF30C148BF0B607047782900F0A3
:100270007980002070471FB505F052F91FBD10B5F9
:1002800010BD00F02BF91146FFF7F5FF05F0A0F8BF
:1002900000F049F903B4FFF7F2FF03BC05F04EF894
:1002A0000948804709480047FEE7FEE7FEE7FEE70A
:1002B000FEE7FEE7FEE7FEE7FEE7FEE70448054946
:1002C000054A064B70470000E14B0008F9010008A1
:1002D0008802022088080220880402208804022064
:1002E000704700000FB4044910B503AA029800F04B
:1002F000C3F810BC5DF814FB180002202DE9F04192
:100300000E460446002020622046E168884730B34C
:10031000252805D0D4E901219047206A401CF2E746
:10032000E168204600278847050018D0A5F1410064
:10033000192802D820354FF4006732462946204656
:100340002760FFF793FF40B1012804D0F61D26F087
:1003500007060836D8E7361DD6E72846DAE7206ACA
:10036000BDE8F08170B504460D4621461068AFF334
:1003700000802188090502D50F4A7A4402E00E4A1E
:100380007A440E32002104F1240305E000F00F0648
:100390000009965D5E54491C0028F7D1207800239F
:1003A000000704D5702D02D009B102231132204676
:1003B000BDE8704000F006B8C451000070477047B7
:1003C000704770472DE9F0470D469946924604461E
:1003D00000F124080168880604D5E06921F01001C5
:1003E000216000E00120A84201DD471B00E000275A
:1003F000A1697A1902EB0900081AA0612078C006E9
:1004000002D42046AFF30080002608E0D4E90121A1
:100410001AF806009047206A401C761C20624E4560
:10042000F4DB2078C0060AD52046AFF3008006E052
:10043000D4E9012130209047206A401C2062381EF8
:10044000A7F10107F4DC07E0D4E9012118F8050061
:100450009047206A401C2062281EA5F10105F3DCAC
:100460002046AFF300802078000602D50220BDE8C8
:10047000F0870120FBE70000074B70B50D467B4479
:1004800000F011F80446284600F020F810B14FF0B3
:10049000FF3070BD204670BD334F000001694A1C1B
:1004A00002610878704700B58FB0CDE901310021B5
:1004B000059105497944CDE9031011466846FFF7D7
:1004C0001DFF0FB000BD0000E5FFFFFF007B00F047
:1004D0008000704700487047280202207546FFF7E9
:1004E000F9FFAE4605006946534620F007008546F1
:1004F00018B020B5FFF7E2FEBDE820404FF000063F
:100500004FF000074FF000084FF0000B21F00701FB
:10051000AC46ACE8C009ACE8C009ACE8C009ACE83E
:10052000C0098D46704710B50446AFF300802046E1
:10053000BDE81040FFF7AEBE00B587B000BF404831
:10054000006840F001003E4908600846006800F07D
:100550000100019000BF00BF00BF0846006840F0E6
:10056000040008600846006800F00400019000BF25
:1005700000BF00BF0846006840F020000860084641
:10058000006800F02000019000BF00BF00BF0846D7
:10059000006840F0400008600846006800F0400035
:1005A000019000BF00BF4020029001200390049002
:1005B0000320059002A9234800F000FC302002909F
:1005C0000120039004900320059002A91E4800F02A
:1005D000F5FB012240211C4800F0FCFC4FF4605068
:1005E00002900120039004900320059002A917486F
:1005F00000F0E4FB0420029001200390049003200B
:10060000059002A9124800F0D9FB002210210E48E3
:1006100000F0E0FC002204210D4800F0DBFC00F0BB
:1006200019F80A2004F096FE01224FF450011046FA
:1006300000F096F80A2004F08DFE07B000BD00001F
:10064000303802400000024000080240001402401E
:100650000018024010B5002240210A4800F0BAFC00
:10066000322004F083FE01224021064800F0B2FC53
:10067000322004F07BFE00224021024800F0AAFC58
:1006800010BD00000000024070B504460D4605F59F
:10069000805600222146104600F062F800223146C2
:1006A000062000F05DF870BD70B52DED028B04469C
:1006B000B0EE408B9FED0A0B28EE000BBCEEC00B9A
:1006C00010EE105A00222146104600F049F8002290
:1006D0002946042000F044F8BDEC028B70BD0000F8
:1006E0009E96F789552E214070B52DED028B04465C
:1006F000B0EE408B9FED0A0B28EE000BBCEEC00B5A
:1007000010EE100A85B200222146104600F028F8AB
:1007100000222946052000F023F8BDEC028B70BDB5
:10072000076CC1166CC1464010B500224FF4005151
:100730000A4800F04FFC322004F018FE0122510359
:10074000064800F047FC322004F010FE00224FF46F
:100750000051024800F03EFC10BD000000140240B1
:100760002DE9F05F06460F4690464FF00009CA4655
:100770003E4810F806B0B14600224FF400613C48F4
:1007800000F028FC00224FF48051394800F022FC90
:1007900000241FE000224FF40061354800F01AFCED
:1007A00009F08000802805D101222021314800F085
:1007B00011FC04E0002220212E4800F00BFC012255
:1007C000D1022B4800F006FC4FEA49604FEA10695D
:1007D000601CC4B2082CDDDB00224FF40061244809
:1007E00000F0F8FB002533E0ABF10100401BC00036
:1007F00027FA00F000F0FF0A00241FE000224FF467
:1008000000611B4800F0E6FB0AF08000802805D15B
:1008100001222021174800F0DDFB04E00022202106
:10082000144800F0D7FB0122D102114800F0D2FB9E
:100830004FEA4A604FEA106A601CC4B2082CDDDB44
:1008400000224FF400610A4800F0C4FB681CC5B2E6
:100850005D45C9DBB8F1010F01D1FFF765FF01224A
:100860001103034800F0B6FBBDE8F09F3000022002
:1008700000140240000802405A49096821F440313E
:10088000594AC2F804131146D1F8041342681143BF
:10089000544A11600168496821F48071026851600E
:1008A00001684A68016942EA0121026851600168F1
:1008B000496821F0407102685160016849688268A6
:1008C0001143026851600168896821F4006102687F
:1008D000916001688968C268114302689160434A67
:1008E000816A914218D00168896821F070610268BC
:1008F000916001688968826A1143026891600168A9
:10090000896821F040510268916001688968C26A73
:100910001143026891600BE00168896821F0706101
:10092000026891600168896821F040510268916015
:100930000168896821F002010268916001688A6893
:10094000816942EA410102689160016AD1B101689E
:10095000496841F40061026851600168496821F406
:1009600060410268516001684A68416A491E4FF45B
:10097000604393FAA3F3B3FA83F399400A430168FF
:100980004A6005E00168496821F40061026851602D
:100990000168C96A21F470010268D1620168CA6AFB
:1009A000818B491E42EA01510268D162016889685F
:1009B00021F400710268916001688A68016B42EA63
:1009C0004121026891600168896821F480610268B0
:1009D000916001688A68416942EA812102689160F8
:1009E0007047000004230140002001400100000F77
:1009F00000BFFEE710B500BF00BF00BF00BF00BFD3
:100A0000BFF34F8F00BF00BF00BF00BF00BF00BFDC
:100A1000BFF36F8F00BF00BF00BF00201149086007
:100A20001148006840F400300F49086000BF00BF63
:100A300000BFBFF34F8F00BF00BF00BF00BF00BFAC
:100A400000BFBFF36F8F00BF00BF00BF00BF04F047
:100A500019F804484C30006840F0040001494C315A
:100A6000086010BD50EF00E014ED00E0704710B5D5
:100A7000012000F095F910BD10B5022000F090F9AA
:100A800010BD10B5042000F08BF910BD10B5082082
:100A900000F086F910BD10B5102000F081F910BDEE
:100AA00010B5202000F07CF910BD000000B587B023
:100AB00000BF2448006840F004002249086008464E
:100AC000006800F00400019000BF00BF3F200290CA
:100AD0001D4803900120049002A91C4800F06EF903
:100AE00000220221062000F0EDFA062000F0DDFAD7
:100AF00001220221072000F0E5FA072000F0D5FAD4
:100B000002221146082000F0DDFA082000F0CDFA9C
:100B100003220221092000F0D5FA092000F0C5FACD
:100B2000042202210A2000F0CDFA0A2000F0BDFACA
:100B300005220221172000F0C5FA172000F0B5FAAF
:100B400007B000BD3038024000002110000802400C
:100B500070B504461D460023B5F5804F13D154F8F7
:100B600022300C480340D1E9000640EA06108E68A6
:100B700040EA06208E8940EA06408E6930430343EE
:100B800044F8223003E06FF0704044F82200002067
:100B900070BD00000000F0CF10B5024600230868C9
:100BA00052F820301B480340D1E901042043CC68AF
:100BB00020430C6920434C6920438C692043CC6955
:100BC00020430C6A20434C6A20438C6A2043CC6A41
:100BD00020430C6B20438C6B20434C6B204303431E
:100BE0008868082801D143F04003086842F82030A3
:100BF000086BB0F5801F05D1086818B110680C6B40
:100C000020431060086818B110684C6B20431060D6
:100C1000002010BD8004C0FF30B5034614460022FA
:100C2000601C53F8202002F04042D1E9000540EA60
:100C300005108D6840EA05208D8940EA0545088A3F
:100C4000401E45EA0055087D801E45EA00608D691A
:100C500028430243601C43F82020186800F48010E9
:100C600038B1586820F47002088A401E42EA0052E7
:100C70005A60002030BD000070B5044600250CB954
:100C8000012070BD1549A06A884200D000BF206CC9
:100C900030B90020606484F83C00204600F020F861
:100CA000206C00F0100088B9206C20F4885040F0CF
:100CB000020020642046FFF7DFFD00206064206C06
:100CC00020F0020040F00100206400E0012500BF98
:100CD000002084F83C0000BF2846D2E70100000F46
:100CE00010B586B0044600BF1348006840F4807019
:100CF000114908600846006800F48070009000BF49
:100D000000BF00BF0C481438006840F002000A49D8
:100D1000143908600846006800F00200009000BF27
:100D200000BF0320019002900020039001A9034816
:100D300000F044F806B010BD443802400000024004
:100D4000014691F83500022803D080204865012033
:100D50007047052081F835000868006820F0010020
:100D60000A6810600020F3E710B50446642004F020
:100D7000F1FA082C0ED006DC012C0DD0022C07D085
:100D8000042C0AD105E0102C05D0202C05D104E05C
:100D900003E002E001E000E000BF00BF10BD000082
:100DA00010B5044604480068204020B102480460A1
:100DB0002046FFF7D9FF10BD143C0140F8B50246AC
:100DC0000B46002100250024002000BFE4E001269E
:100DD00006FA01F51E6806EA0504AC4271D15E68A8
:100DE000022E02D05E68122E13D1CF0802F1200627
:100DF00056F827004E07F70E0F26BE40B0434F07A8
:100E0000FF0E1E69BE403043CF0802F1200646F8AF
:100E1000270010684F000326BE40B0431E7906F03D
:100E200003064F00BE40304310605E68012E08D0BC
:100E30005E68022E05D05E68112E02D05E68122E0A
:100E400013D190684F000326BE40B0434F00DE68C8
:100E5000BE4030439060506801268E40B0431E79FA
:100E6000C6F300168E4030435060D0684F00032612
:100E7000BE40B0434F009E68BE403043D0605E68C5
:100E800006F08056B6F1805FA8D100BF444E3668A8
:100E900046F48046424F3E603E46366806F4804641
:100EA000009600BF00BF3F4E8F0856F827008E0700
:100EB000370F0F26BE40B0433B4EB24202D1002650
:100EC0002EE068E0394EB24201D1012628E0384ECA
:100ED000B24201D1022623E0364EB24201D10326AE
:100EE0001EE0354EB24201D1042619E0334EB24223
:100EF00001D1052614E0324EB24201D106260FE0A0
:100F0000304EB24201D107260AE02F4EB24201D143
:100F1000082605E02D4EB24201D1092600E00A263E
:100F20008F073F0FBE4030431E4E8F0846F8270004
:100F3000274E3068A0435E6806F48036B6F5803FE1
:100F400000D12043224E3060361D3068A0435E68D9
:100F500006F40036B6F5003F00D120431C4E361D86
:100F60003060361D3068A0435E6806F48016B6F522
:100F7000801F00D12043164E08363060361D306881
:100F8000A0435E6806F40016B6F5001F00D12043AA
:100F90000F4E0C363060491C1029FFF418AFF8BD15
:100FA000443802400838014000000240000402407A
:100FB00000080240000C02400010024000140240F1
:100FC00000180240001C02400020024000240240A1
:100FD000003C01400AB1816101E00B04836170476C
:100FE00001480068704700002000022002480068A5
:100FF000401C0149086070472000022010B50848D5
:10100000006840F4007006490860052000F098F878
:101010000F2000F007F800F047F8002010BD000096
:10102000003C024070B50446074800684FF47A71EE
:10103000B0FBF1F5284600F039FD00222146501E94
:1010400000F040F8002070BD100002204178154AE1
:1010500011600178F9B1121D41681160017B090727
:10106000C27A41EA0261827A41EAC241427B41EAA4
:101070008241827B41EA4241C27B41EA0241427A9B
:1010800041EA0221027A41EA420102781143054A0B
:101090000832116005E00021024A121D1160121D84
:1010A0001160704798ED00E0704700BF00F01F022C
:1010B000012191404209920002F1E022C2F80011A0
:1010C00000BF70472DE9F05F80460D4616460027A9
:1010D00003F0BAFC074639462A46334601F00700BA
:1010E000C0F1070ABAF1040F02D94FF0040A01E077
:1010F000C0F1070AD14600F1040ABAF1070F02D283
:101100004FF0000A01E0A0F1030AD4464FF0010AB3
:101110000AFA09FAAAF1010A0AEA020A0AFA0CFA18
:101120004FF0010B0BFA0CFBABF1010B0BEA030BBD
:101130004AEA0B042146404603F08EFCBDE8F09FCE
:1011400000BF00F00702064B19684FF6FF03194075
:10115000044B0B4343EA0221014B196000BF704767
:101160000CED00E00000FA0538B5002400BF20486F
:10117000006840F080501E4908600846006800F092
:101180008050009000BF00BF1A48006840F48030D3
:1011900018490860FFF724FF044607E0FFF720FF27
:1011A000001BB0F57A7F01D9032038BD1148406893
:1011B00000F48030B0F5803FF0D10E48006840F474
:1011C00000300C490860FFF70BFF044607E0FFF70B
:1011D00007FF001BB0F57A7F01D90320E5E705483A
:1011E000406800F40030B0F5003FF0D10020DCE7AB
:1011F000403802400070004070B504460D4600269D
:101200006648006800F00F00A8420ED263480068EC
:1012100020F00F002843614908600846006800F08C
:101220000F00A84201D0012070BD207800F002001C
:10123000022807D15A48006820F0F000A16808434E
:1012400057490860207800F00100002860D06068ED
:10125000012807D1524808380068C0F34040A0B9BF
:101260000120E1E76068022807D14D48083800688E
:10127000C0F3406048B90120D6E749480838006803
:10128000C0F3400008B90120CEE74548006820F0CF
:1012900003006168084342490860FFF7A1FE064663
:1012A0006068012810D108E0FFF79AFE801B41F228
:1012B0008831884201D90320B6E73948006800F038
:1012C0000C000428F0D123E06068022810D108E067
:1012D000FFF786FE801B41F28831884201D9032046
:1012E000A2E72F48006800F00C000828F0D10FE0BA
:1012F00008E0FFF775FE801B41F28831884201D972
:10130000032091E72648006800F00C000028F0D187
:101310002248006800F00F00A8420ED91F4800685C
:1013200020F00F0028431D4908600846006800F0BF
:101330000F00A84201D0012076E7207800F00400D9
:10134000042807D11648006820F4E050E1680843FB
:1013500013490860207800F00800082808D11048D8
:10136000006820F46040216940EAC1000C4908602F
:1013700000F04EF80A49096801F0F001F02292FAF3
:10138000A2F2B2FA82F2D140064A515CC840064944
:1013900008600F20FFF746FE002045E7003C0240B2
:1013A000083802402A550008100002200148006851
:1013B000704700001000022000B5FFF7F7FF074953
:1013C000096801F4E0514FF4E05292FAA2F2B2FA45
:1013D00082F2D140024A515CC84000BD0838024048
:1013E0003A55000800B5FFF7E1FF0749096801F425
:1013F00060414FF4604292FAA2F2B2FA82F2D14016
:10140000024A515CC84000BD083802403A55000805
:1014100070B50021002200230020274C246804F02E
:101420000C0424B1042C04D0082C41D103E023483F
:1014300040E023483EE0204C241F246804F03F0194
:101440001D4C241F246804F4800484B11C4CB4FB9C
:10145000F1F5194C241F246847F6C076344096FAFB
:10146000A6F6B6FA86F6F44005FB04F20FE0134C3C
:10147000B4FBF1F5104C241F246847F6C0763440C5
:1014800096FAA6F6B6FA86F6F44005FB04F20A4C84
:10149000241F246804F440344FF4403595FAA5F530
:1014A000B5FA85F5EC40641C6300B2FBF3F001E093
:1014B000024800BF00BF70BD083802400024F4009D
:1014C00040787D0138B504460025207800F0010001
:1014D000002871D0FE48006800F00C0004280DD0F0
:1014E000FB48006800F00C00082813D1F848001FE2
:1014F000006800F48000B0F5800F0BD1F448083884
:101500000068C0F34040002869D06068002866D1B8
:10151000012038BD00BF6068B0F5803F08D1EC48BD
:101520000838006840F48030E949083908602EE046
:10153000606868B9E6480838006820F48030E449FB
:10154000083908600846006820F4802008601EE022
:101550006068B0F5A02F0DD1DD480838006840F470
:101560008020DB49083908600846006840F4803074
:1015700008600CE0D6480838006820F48030D44970
:10158000083908600846006820F48020086000BF21
:10159000606890B1FFF724FD054606E0FFF720FDE7
:1015A000401B642801D90320B3E7C9480838006804
:1015B000C0F340400028F1D011E0FFF711FD0546CF
:1015C00006E0FFF70DFD401B642801D90320A0E7CA
:1015D000BF4808380068C0F340400028F1D12078A7
:1015E00000F00200022873D1B948006800F00C0036
:1015F00058B1B748006800F00C00082821D1B44861
:10160000001F006800F48000D8B9B14808380068AD
:10161000C0F3400020B1E068012801D0012078E744
:10162000AB480838006820F0F800F82292FAA2F2DD
:10163000B2FA82F2216991400843A549083908604D
:1016400046E0E06850B3A2480838006840F0010066
:101650009F4908390860FFF7C3FC054606E0FFF71D
:10166000BFFC401B022801D9032052E798480838E4
:101670000068C0F340000028F1D0954808380068A1
:1016800020F0F800F82292FAA2F2B2FA82F221696E
:10169000914008438E490839086019E08C480838A1
:1016A000006820F001008A4908390860FFF798FCBB
:1016B000054606E0FFF794FC401B022801D90320F1
:1016C00027E7834808380068C0F340000028F1D1BC
:1016D000207800F00800082836D16069D0B17C4835
:1016E0006C30006840F0010079496C310860FFF708
:1016F00077FC054606E0FFF773FC401B022801D982
:10170000032006E772486C300068C0F340000028F0
:10171000F1D019E06E486C30006820F001006C498F
:101720006C310860FFF75CFC054606E0FFF758FCEB
:10173000401B022801D90320EBE665486C300068A5
:10174000C0F340000028F1D1207800F00400042804
:1017500071D100BF5E483830006840F080505C496D
:10176000383108600846006800F08050009000BFE3
:1017700000BF5848006840F4807056490860FFF781
:101780002FFC054606E0FFF72BFC401B642801D91F
:101790000320BEE64F48006800F480700028F2D0B5
:1017A00000BFA068012808D149486830006840F0AF
:1017B00001004749683108602DE0A06868B94448D5
:1017C0006830006820F0010041496831086008462F
:1017D000006820F0040008601DE0A06805280DD115
:1017E0003B486830006840F00400394968310860BF
:1017F0000846006840F0010008600CE0344868309A
:10180000006820F00100324968310860084600682D
:1018100020F00400086000BFA068A8B1FFF7E0FB5B
:10182000054609E0FFF7DCFB401B41F288318842A6
:1018300002D903206DE61BE0254868300068C0F33C
:1018400040000028EED013E0FFF7CAFB054608E091
:10185000FFF7C6FB401B41F28831884201D90320C3
:1018600057E61B4868300068C0F340000028EFD1FD
:10187000A06988B31648006800F00C00082873D0EF
:10188000A069022864D112480838006820F08070EE
:101890000F4908390860FFF7A3FB054606E0FFF78C
:1018A0009FFB401B022801D9032032E60848083874
:1018B0000068C0F340600028F1D1D4E90701084373
:1018C00047F6C07292FAA2F2B2FA82F2616A04E0BA
:1018D000083802400070004058E09140084301225F
:1018E000A16AC2EB51014FF4403292FAA2F2B2FA6D
:1018F00082F2914008434FF0706292FAA2F2B2FA7B
:1019000082F2E16A914008434FF0E04292FAA2F27B
:10191000B2FA82F2216B914008431D490860081F0A
:10192000006840F08070091F0860FFF759FB05460A
:1019300006E0FFF755FB401B022801D90320E8E52C
:101940001348001F0068C0F340600028F1D01DE07C
:101950000F48001F006820F080700D49091F0860C3
:10196000FFF73EFB054607E00EE0FFF739FB401BA3
:10197000022801D90320CCE50548001F0068C0F308
:1019800040600028F1D101E00120C2E50020C0E55F
:101990000438024070B504460E4615460CB90120C5
:1019A00070BD94F8450028B9002084F84400204612
:1019B00000F01CF804F108012068FFF7EDF831464B
:1019C000A2682068FFF728F92946E36AD4E90102F2
:1019D000FFF7BEF8A168206850F8210040F0010030
:1019E000A268216841F822000020D9E710B586B02E
:1019F000044600BF2048006840F001001E4908600E
:101A00000846006800F00100009000BF00BF00BF62
:101A100019480838006840F008001749083908607C
:101A20000846006800F00800009000BF00BF00BF3B
:101A30000846006840F0100008600846006800F0A2
:101A40001000009000BF00BF4EF2B3700190022062
:101A5000029001200390032004900C20059001A91E
:101A60000648FFF7ABF94FF68070019001A90448D2
:101A7000FFF7A4F906B010BD38380240000C024050
:101A800000100240042808D14FF0E021096941F01C
:101A900004014FF0E022116107E04FF0E0210969F5
:101AA00021F004014FF0E0221161704770B5044647
:101AB0002546681EB0F1807F01D301200FE0681E2B
:101AC0004FF0E02148610F214FF0FF3002F0C4FFDA
:101AD00000204FF0E021886107200861002070BDE0
:101AE000704701460022002391F8692091F86A307E
:101AF00042EA0300704700002DE9F04104462068E7
:101B0000C569206806682068876805F00F08B8F185
:101B1000000F0AD105F0200038B106F0200020B1F6
:101B2000204603F06AF9BDE8F081B8F1000F79D0E2
:101B300040F201103840002874D005F0010048B18F
:101B400006F4807030B1012021680862E06E40F038
:101B50000100E06605F0020048B107F0010030B175
:101B6000022021680862E06E40F00400E06605F0A3
:101B7000040048B107F0010030B104202168086278
:101B8000E06E40F00200E06605F0080060B106F08B
:101B9000200010B907F0010030B108202168086268
:101BA000E06E40F00800E066E06E58B305F02000FB
:101BB00028B106F0200010B1204603F01EF9E06EB7
:101BC00000F0080020B92068806800F0400018B3D9
:101BD000204603F0F2F82068806800F04000B8B1B9
:101BE0002068806820F0400021688860606E50B1F5
:101BF0001748616E0865606EFFF7A2F810B1606E5D
:101C0000016D88470DE02046FFF76AFF09E009E013
:101C10002046FFF765FF04E02046FFF761FF002044
:101C2000E06680E705F0800030B106F0800018B172
:101C3000204603F0EDFA76E705F0400030B106F0FB
:101C4000400018B1204603F0C8F86CE700BF6AE70F
:101C5000A34D000810B504460CB9012010BDA069C1
:101C600000B100E000BF94F8690028B9002084F8B2
:101C70006800204600F02AF8242084F869002068D3
:101C8000006820F0010021680860204603F0FAF89F
:101C9000012800D1E2E7606A10B1204602F0D2FFCD
:101CA0002068406820F4904021684860206880687F
:101CB00020F02A00216888602068006840F0010058
:101CC00021680860204603F032F8C7E710B586B0F7
:101CD00004462049206888423AD100BF1E48006867
:101CE00040F001001C4908600846006800F001004F
:101CF000009000BF00BF00BF17481430006840F0DC
:101D000010001549143108600846006800F0100002
:101D1000009000BF00BF48150190022002900120F2
:101D20000390022004900720059001A90B48FFF7BB
:101D300045F84FF48060019001A90848FFF73EF88C
:101D40002520FFF7B2F9032211462520FFF7BAF943
:101D500006B010BD001001403038024000000240C3
:101D600010B5034693F86A0020285BD101B10AB987
:101D7000012010BD00BF93F86800012801D10220A6
:101D8000F7E7012083F8680000BF5965A3F85820E1
:101D9000A3F85A2000BF9868B0F5805F0AD118698F
:101DA00020B940F2FF10A3F85C001CE0FF20A3F86C
:101DB0005C0018E0986848B9186918B9FF20A3F8C2
:101DC0005C0010E07F20A3F85C000CE09868B0F1A4
:101DD000805F08D1186918B97F20A3F85C0002E081
:101DE0003F20A3F85C0000BF0020D866222083F8C3
:101DF0006A0000BF002083F8680000BF1868006810
:101E000040F480701C6820601868806840F0010011
:101E10001C68A0601868006840F020001C68206002
:101E20000020A6E70220A4E71D4A0168914236D1AE
:101E30001C49098801F4004189BB1A49098801F449
:101E4000804171B1184909780A2903D00021154A47
:101E5000118024E01349098841F40041114A11809E
:101E60001DE0114909780D2906D10E49098841F470
:101E700080410C4A118012E00B490978094A128806
:101E8000C2F30D02094B995406490988491C054AB9
:101E9000118011460988C72901DD00211180704792
:101EA000001001401C0002201E0002204C000220F5
:101EB000704700BFFEE7000070B5044600260948E1
:101EC0000588408845430021084602F09BFC02F04B
:101ED0004DFD00BF02E004490C80761CAE42FAD3EF
:101EE00070BD0000D00102200000086010B504465B
:101EF000002C52D154498871F02008804FF4A07012
:101F000048800846808849F24131884205D04E48D1
:101F1000808845F21031884214D12C204A4908812A
:101F20002A2048812B2088810846808845F210317C
:101F3000884206D14FF4A070434908804FF4F070F6
:101F400048807DE04048808845F21051884210D199
:101F50004FF430503C4908814FF4285048814FF4E9
:101F60002C5088814FF4F07008804FF448704880FE
:101F700066E03548808841F66311884260D12C20A4
:101F8000314908812B2048812A2088814FF4F07044
:101F900008804FF44870488052E001202A49887137
:101FA0004FF4A0700880F02048800846808849F2ED
:101FB0004131884205D02448808845F2103188425A
:101FC00007D12C20204908812A2048812B20888194
:101FD00029E01D48808845F21051884210D14FF405
:101FE0003050194908814FF4285048814FF42C5043
:101FF00088814FF4487008804FF4F070488012E0F8
:102000001148808841F6631188420CD12C200E497A
:1020100008812A2048812B2088814FF4487008804D
:102020004FF4F07048800848808845F210318842AB
:1020300006D14FF4F070044908804FF4A070488036
:10204000002002F0A5FA10BDD001022000B595B025
:1020500000BFFE48006840F00800FC4908600846E0
:10206000006800F00800019000BF00BFC814109085
:102070000120119012900320139010A9F448FEF74C
:102080009DFE02F011FA4FF02040F2490860F2483C
:102090004860002088600021EE48C1600161102185
:1020A0004161090241628900C1620F20099000204C
:1020B0000A9050200B9000200F900F2002900020DB
:1020C00003900F2004900020089002AA09A9E1487B
:1020D000FFF760FC322003F03DF9D32002F03AFC18
:1020E00002F024FADD49888002F020FADB4988807A
:1020F00002F01CFAD9498880084680884FF6FF71A3
:1021000001EA0020D549888002F010FAD349898875
:102110000843D24988800846808849F24131884284
:1021200078D0D42002F016FC02F000FACB49888067
:1021300002F0FCF9C949888002F0F8F9C7498880A3
:10214000084680884FF6FF7101EA0020C349888065
:1021500002F0ECF9C14989880843C04988800846E3
:10216000808845F21031884254D04FF45A4002F032
:10217000F1FB02F0DBF9B94988804FF45B4002F0D3
:10218000E9FB02F0D3F9B5498880084680884FF60C
:10219000FF7101EA0020B14988804FF45C4002F0F1
:1021A000D9FB02F0C3F9AD4989880843AB4988805F
:1021B00008468088B0F5004F02D145F21050888063
:1021C000A648808845F21051884223D0A12002F011
:1021D000C1FB02F0ABF9A149888002F0A7F99F4941
:1021E0008880084680884FF6FF7101EA00209B49ED
:1021F000888002F09BF9994989880843974988802B
:102200000846808845F26171884203D141F6631027
:10221000924988809148818891A0FEF763F88F48A1
:10222000808849F2413188427ED1CF2002F092FB72
:10223000002002F083FBC12002F080FB302002F07E
:102240007DFBED2002F086FB642002F077FB03208B
:1022500002F074FB122002F071FB812002F06EFB91
:10226000E82002F077FB852002F068FB102002F0E6
:1022700065FB7A2002F062FBCB2002F06BFB392079
:1022800002F05CFB2C2002F059FB002002F056FB10
:10229000342002F053FB022002F050FBF72002F042
:1022A00059FB202002F04AFBEA2002F053FB0020F9
:1022B00002F044FB002002F041FBC02002F04AFB88
:1022C0001B2002F03BFBC12002F044FB012002F086
:1022D00035FBC52002F03EFB302002F02FFB302002
:1022E00002F02CFBC72002F035FBB72002F026FBE2
:1022F000362002F02FFB482002F020FB3A2002F0AB
:1023000029FB552002F01AFBB12002F023FB00202C
:1023100002F014FB1A2002F011FBB62002F01AFBA7
:102320000A2002F00BFB00E0AAE0A22002F006FB6C
:10233000F22002F00FFB002002F000FB262002F04A
:1023400009FB012002F0FAFAE02002F003FB0F2063
:1023500002F0F4FA2A2002F0F1FA282002F0EEFA54
:10236000082002F0EBFA0E2002F0E8FA082002F052
:10237000E5FA542002F0E2FAA92002F0DFFA432045
:1023800002F0DCFA0A2002F0D9FA0F2002F0D6FAA5
:10239000002002F0D3FA002002F0D0FA002002F070
:1023A000CDFA002002F0CAFAE12002F0D3FA0020B0
:1023B00002F0C4FA152002F0C1FA172002F0BEFAAA
:1023C000072002F0BBFA112002F0B8FA062002F052
:1023D000B5FA2B2002F0B2FA562002F0AFFA3C20F8
:1023E00002F0ACFA052002F0A9FA102002F0A6FAD9
:1023F0000F2002F0A3FA3F2002F0A0FA3F2002F0E3
:102400009DFA0F2002F09AFA2B2002F0A3FA002086
:1024100002F094FA002002F091FA012002F08EFA04
:102420003F2002F08BFA2A2002F094FA002002F0FA
:1024300085FA002002F082FA002002F07FFAEF20F5
:1024400002F07CFA112002F085FA11E030380240E7
:10245000000C024084010220040100A0D0010220EF
:10246000204C43442049443A25780D0A00000000DE
:10247000782002F06FFF292002F06CFA01F0CBBF48
:10248000FE48808845F21031884240F07C87ED207C
:1024900002F060FA012002F051FAFE2002F04EFA3A
:1024A000EE2002F057FADE2002F048FA212002F076
:1024B00045FAF12002F04EFA012002F03FFADF2047
:1024C00002F048FA102002F039FAC42002F042FA71
:1024D0008F2002F033FAC62002F03CFA002002F00E
:1024E0002DFAE22002F02AFAE22002F027FAE22096
:1024F00002F024FABF2002F02DFAAA2002F01EFA00
:10250000B02002F027FA0D2002F018FA002002F0A5
:1025100015FA0D2002F012FA002002F00FFA112035
:1025200002F00CFA002002F009FA192002F006FA73
:10253000002002F003FA212002F000FA002002F04D
:10254000FDF92D2002F0FAF9002002F0F7F93D2004
:1025500002F0F4F9002002F0F1F95D2002F0EEF94A
:10256000002002F0EBF95D2002F0E8F9002002F013
:10257000E5F9B12002F0EEF9802002F0DFF9002049
:1025800002F0DCF98B2002F0D9F9002002F0D6F934
:10259000962002F0D3F9002002F0D0F9B22002F028
:1025A000D9F9002002F0CAF9002002F0C7F9022090
:1025B00002F0C4F9002002F0C1F9032002F0BEF9D4
:1025C000002002F0BBF9B32002F0C4F9002002F0B1
:1025D000B5F9002002F0B2F9002002F0AFF90020B6
:1025E00002F0ACF9002002F0A9F9002002F0A6F9EF
:1025F000002002F0A3F9002002F0A0F9002002F070
:102600009DF9002002F09AF9002002F097F90020CD
:1026100002F094F9002002F091F9002002F08EF906
:10262000002002F08BF9002002F088F9002002F06F
:1026300085F9002002F082F9002002F07FF90020E5
:1026400002F07CF9002002F079F9002002F076F91E
:10265000002002F073F9002002F070F9B42002F0BB
:1026600079F98B2002F06AF9002002F067F99620D0
:1026700002F064F9002002F061F9A12002F05EF995
:10268000002002F05BF9B52002F064F9022002F0AC
:1026900055F9002002F052F9032002F04FF9002012
:1026A00002F04CF9042002F049F9002002F046F94A
:1026B000B62002F04FF9002002F040F9002002F0AD
:1026C0003DF9B72002F046F9002002F037F900206A
:1026D00002F034F93F2002F031F9002002F02EF927
:1026E0005E2002F02BF9002002F028F9642002F0AD
:1026F00025F9002002F022F98C2002F01FF90020B9
:1027000002F01CF9AC2002F019F9002002F016F9D1
:10271000DC2002F013F9002002F010F9702002F022
:102720000DF9002002F00AF9902002F007F90020CC
:1027300002F004F9EB2002F001F9002002F0FEF8AB
:10274000DC2002F0FBF8002002F0F8F8B82002F0DC
:1027500001F9002002F0F2F8002002F0EFF800206A
:1027600002F0ECF8002002F0E9F8002002F0E6F8B0
:10277000002002F0E3F8002002F0E0F8002002F070
:10278000DDF8BA2002F0E6F8242002F0D7F80020A5
:1027900002F0D4F8002002F0D1F8002002F0CEF8C8
:1027A000C12002F0D7F8202002F0C8F8002002F083
:1027B000C5F8542002F0C2F8002002F0BFF8FF2054
:1027C00002F0BCF8002002F0B9F8C22002F0C2F812
:1027D0000A2002F0B3F8002002F0B0F8042002F062
:1027E000ADF8002002F0AAF8C32002F0B3F83C20B4
:1027F00002F0A4F8002002F0A1F83A2002F09EF8BE
:10280000002002F09BF8392002F098F8002002F036
:1028100095F8372002F092F8002002F08FF83C2063
:1028200002F08CF8002002F089F8362002F086F8D9
:10283000002002F083F8322002F080F8002002F03D
:102840007DF82F2002F07AF8002002F077F82C2093
:1028500002F074F8002002F071F8292002F06EF8FE
:10286000002002F06BF8262002F068F8002002F049
:1028700065F8242002F062F8002001E0D001022077
:1028800002F05CF8242002F059F8002002F056F81B
:10289000232002F053F8002002F050F83C2002F010
:1028A0004DF8002002F04AF8362002F047F80020E8
:1028B00002F044F8322002F041F8002002F03EF825
:1028C0002F2002F03BF8002002F038F82C2002F014
:1028D00035F8002002F032F8292002F02FF800200D
:1028E00002F02CF8262002F029F8002002F026F849
:1028F000242002F023F8002002F020F8242002F027
:102900001DF8002002F01AF8232002F017F800202A
:1029100002F014F8C42002F01DF8622002F00EF854
:10292000002002F00BF8052002F008F8002002F069
:1029300005F8842002F002F8002001F0FFFFF020EB
:1029400001F0FCFF002001F0F9FF182001F0F6FF74
:10295000002001F0F3FFA42001F0F0FF002001F0BF
:10296000EDFF182001F0EAFF002001F0E7FF502002
:1029700001F0E4FF002001F0E1FF0C2001F0DEFF98
:10298000002001F0DBFF172001F0D8FF002001F04C
:10299000D5FF952001F0D2FF002001F0CFFFF320FA
:1029A00001F0CCFF002001F0C9FFE62001F0C6FFD6
:1029B000002001F0C3FFC52001F0CCFF322001F060
:1029C000BDFF002001F0BAFF442001F0B7FF002056
:1029D00001F0B4FF652001F0B1FF002001F0AEFF6F
:1029E000762001F0ABFF002001F0A8FF882001F065
:1029F000A5FF002001F0A2FFC62001F0ABFF2020C0
:102A000001F09CFF002001F099FF172001F096FFD4
:102A1000002001F093FF012001F090FF002001F061
:102A20008DFFC72001F096FF002001F087FF0020F6
:102A300001F084FF002001F081FF002001F07EFF03
:102A4000C82001F087FF002001F078FF002001F08E
:102A500075FF002001F072FF002001F06FFFC92018
:102A600001F078FF002001F069FF002001F066FF0F
:102A7000002001F063FF002001F060FF002001F062
:102A80005DFF002001F05AFF002001F057FF0020F9
:102A900001F054FF002001F051FF002001F04EFF33
:102AA000002001F04BFF002001F048FF002001F062
:102AB00045FF002001F042FF002001F03FFF002011
:102AC00001F03CFFE02001F045FF162001F036FF49
:102AD000002001F033FF1C2001F030FF002001F046
:102AE0002DFF212001F02AFF002001F027FF3620D2
:102AF00001F024FF002001F021FF462001F01EFF1D
:102B0000002001F01BFF522001F018FF002001F00F
:102B100015FF642001F012FF002001F00FFF7A2062
:102B200001F00CFF002001F009FF8B2001F006FFEF
:102B3000002001F003FF992001F000FF002001F0C8
:102B4000FDFEA82001F0FAFE002001F0F7FEB920FA
:102B500001F0F4FE002001F0F1FEC42001F0EEFED1
:102B6000002001F0EBFECA2001F0E8FE002001F099
:102B7000E5FED22001F0E2FE002001F0DFFED920C8
:102B800001F0DCFE002001F0D9FEE02001F0D6FECD
:102B9000002001F0D3FEF32001F0D0FE002001F070
:102BA000CDFEE12001F0D6FE162001F0C7FE002088
:102BB00001F0C4FE1C2001F0C1FE002001F0BEFEA9
:102BC000222001F0BBFE002001F0B8FE362001F00B
:102BD000B5FE002001F0B2FE452001F0AFFE00205E
:102BE00001F0ACFE522001F0A9FE002001F0A6FE8B
:102BF000642001F0A3FE002001F0A0FE7A2001F085
:102C00009DFE002001F09AFE8B2001F097FE00202F
:102C100001F094FE992001F091FE002001F08EFE5B
:102C2000A82001F08BFE002001F088FEB92001F001
:102C300085FE002001F082FEC42001F07FFE00200E
:102C400001F07CFECA2001F079FE002001F076FE42
:102C5000D22001F073FE002001F070FED82001F0B8
:102C60006DFE002001F06AFEE02001F067FE00200A
:102C700001F064FEF32001F061FE002001F05EFE31
:102C8000E22001F067FE052001F058FE002001F06F
:102C900055FE0B2001F052FE002001F04FFE1B20DC
:102CA00001F04CFE002001F049FE342001F046FE08
:102CB000002001F043FE442001F040FE002001F01E
:102CC0003DFE4F2001F03AFE002001F037FE61206A
:102CD00001F034FE002001F031FE792001F02EFEDB
:102CE000002001F02BFE882001F028FE002001F0DA
:102CF00025FE972001F022FE002001F01FFEA620F5
:102D000001F01CFE002001F019FEB72001F016FEB4
:102D1000002001F013FEC22001F010FE002001F09F
:102D20000DFEC72001F00AFE002001F007FED120B1
:102D300001F004FE002001F001FED62001F0FEFDAE
:102D4000002001F0FBFDDD2001F0F8FD002001F086
:102D5000F5FDF32001F0F2FD002001F0EFFDE3208E
:102D600001F0F8FD052001F0E9FD002001F0E6FD8D
:102D70000A2001F0E3FD002001F0E0FD1C2001F03D
:102D8000DDFD002001F0DAFD332001F0D7FD002049
:102D900001F0D4FD442001F0D1FD002001F0CEFD72
:102DA000502001F0CBFD002001F0C8FD622001F0B1
:102DB000C5FD002001F0C2FD782001F0BFFD00201C
:102DC00001F0BCFD882001F0B9FD002001F0B6FD46
:102DD000972001F0B3FD002001F0B0FDA62001F026
:102DE000ADFD002001F0AAFDB72001F0A7FD0020F5
:102DF00001F0A4FDC22001F0A1FD002001F09EFD24
:102E0000C72001F09BFD002001F098FDD12001F0CA
:102E100095FD002001F092FDD52001F08FFD0020EE
:102E200001F08CFDDD2001F089FD002001F086FD20
:102E3000F32001F083FD002001F080FDE42001F08B
:102E400089FD012001F07AFD002001F077FD0120CD
:102E500001F074FD002001F071FD022001F06EFD13
:102E6000002001F06BFD2A2001F068FD002001F038
:102E700065FD3C2001F062FD002001F05FFD4B206C
:102E800001F05CFD002001F059FD5D2001F056FDD0
:102E9000002001F053FD742001F050FD002001F0EE
:102EA0004DFD842001F04AFD002001F047FD9320F4
:102EB00001F044FD002001F041FDA22001F03EFDA3
:102EC000002001F03BFDB32001F038FD002001F0AF
:102ED00035FDBE2001F032FD002001F02FFDC420A1
:102EE00001F02CFD002001F029FDCD2001F026FD90
:102EF000002001F023FDD32001F020FD002001F08F
:102F00001DFDDD2001F01AFD002001F017FDF3206A
:102F100001F014FD002001F011FDE52001F01AFD83
:102F2000002001F00BFD002001F008FD002001F061
:102F300005FD002001F002FD022001F0FFFC002051
:102F400001F0FCFC292001F0F9FC002001F0F6FC66
:102F50003C2001F0F3FC002001F0F0FC4B2001F0DC
:102F6000EDFC002001F0EAFC5D2001F0E7FC002010
:102F700001F0E4FC742001F0E1FC002001F0DEFC33
:102F8000842001F0DBFC002001F0D8FC932001F04C
:102F9000D5FC002001F0D2FCA22001F0CFFC0020E3
:102FA00001F0CCFCB32001F0C9FC002001F0C6FC0C
:102FB000BE2001F0C3FC002001F0C0FCC42001F0E1
:102FC000BDFC002001F0BAFCCD2001F0B7FC0020D0
:102FD00001F0B4FCD32001F0B1FC002001F0AEFC04
:102FE000DC2001F0ABFC002001F0A8FCF32001F094
:102FF000A5FC002001F0A2FCE62001F0ABFC1120B2
:1030000001F09CFC002001F099FC342001F096FCBA
:10301000002001F093FC562001F090FC002001F00C
:103020008DFC762001F08AFC002001F087FC7720DF
:1030300001F084FC002001F081FC662001F07EFCA0
:10304000002001F07BFC882001F078FC002001F0DA
:1030500075FC992001F072FC002001F06FFCBB2090
:1030600001F06CFC002001F069FC992001F066FC85
:10307000002001F063FC662001F060FC002001F0FC
:103080005DFC552001F05AFC002001F057FC552052
:1030900001F054FC002001F051FC452001F04EFCF1
:1030A000002001F04BFC432001F048FC002001F01F
:1030B00045FC442001F042FC002001F03FFCE720E9
:1030C00001F048FC322001F039FC002001F036FC10
:1030D000552001F033FC002001F030FC762001F097
:1030E0002DFC002001F02AFC662001F027FC0020C6
:1030F00001F024FC672001F021FC002001F01EFCFF
:10310000672001F01BFC002001F018FC872001F073
:1031100015FC002001F012FC992001F00FFC0020AA
:1031200001F00CFCBB2001F009FC002001F006FCC2
:10313000992001F003FC002001F000FC772001F051
:10314000FDFB002001F0FAFB442001F0F7FB00201A
:1031500001F0F4FB562001F0F1FB002001F0EEFB42
:10316000232001F0EBFB002001F0E8FB332001F00D
:10317000E5FB002001F0E2FB452001F0DFFB002031
:1031800001F0DCFBE82001F0E5FB002001F0D6FBBC
:10319000002001F0D3FB992001F0D0FB002001F0CA
:1031A000CDFB872001F0CAFB002001F0C7FB88207F
:1031B00001F0C4FB002001F0C1FB772001F0BEFB51
:1031C000002001F0BBFB662001F0B8FB002001F0FD
:1031D000B5FB882001F0B2FB002001F0AFFBAA2074
:1031E00001F0ACFB002001F0A9FBBB2001F0A6FB25
:1031F000002001F0A3FB992001F0A0FB002001F0CA
:103200009DFB662001F09AFB002001F097FB552002
:1032100001F094FB002001F091FB552001F08EFBA2
:10322000002001F08BFB442001F088FB002001F01E
:1032300085FB442001F082FB002001F07FFB55203C
:1032400001F07CFB002001F079FBE92001F082FB1A
:10325000AA2001F073FB002001F070FB002001F0B8
:103260006DFB002001F06AFB002001F073FBAA2037
:1032700001F064FBCF2001F06DFB002001F05EFB4C
:10328000002001F05BFB002001F058FB002001F062
:1032900055FB002001F052FB002001F04FFB002005
:1032A00001F04CFB002001F049FB002001F046FB3F
:1032B000002001F043FB002001F040FB002001F062
:1032C0003DFB002001F03AFB002001F037FB00201D
:1032D00001F034FB002001F031FB002001F02EFB57
:1032E000F02001F037FB002001F028FB502001F016
:1032F00025FB002001F022FB002001F01FFB002035
:1033000001F01CFBF32001F025FB002001F016FB6F
:10331000F92001F01FFB062001F010FB102001F046
:103320000DFB292001F00AFB002001F007FB3A20E9
:1033300001F010FB552001F001FB112001F00AFB08
:10334000642002F007F8292001F004FB352001F089
:1033500001FB002001F0F2FA512001F0FBFAFF20FE
:1033600001F0ECFA532001F0F5FA2C2001F0E6FA16
:10337000552001F0EFFA822001F0E0FA2C2001F054
:10338000E9FA01F048B8FE48808845F210518842B9
:103390007ED155214FF4704001F0F2FAAA214FF28C
:1033A000010001F0EDFA52214FF2020001F0E8FABB
:1033B00008214FF2030001F0E3FA01214FF204006B
:1033C00001F0DEFA0D214FF4304001F0D9FA0D2161
:1033D0004BF2010001F0D4FA0D214BF2020001F092
:1033E000CFFA34214FF4364001F0CAFA34214BF2BF
:1033F000016001F0C5FA34214BF2026001F0C0FA1D
:103400000D214FF4314001F0BBFA0D214BF20110B8
:1034100001F0B6FA0D214BF2021001F0B1FA34219D
:103420004FF4374001F0ACFA34214BF2017001F057
:10343000A7FA34214BF2027001F0A2FA00214FF4F6
:10344000324001F09DFA00214BF2012001F098FA80
:1034500000214BF2022001F093FA24214FF438406E
:1034600001F08EFA24214BF6010001F089FA2421A3
:103470004BF6020001F084FA01214FF43F4001F0C5
:103480007FFA0F214FF4334001F07AFA0F2100E068
:10349000FEE34BF2013001F073FA0F214BF20230E0
:1034A00001F06EFA34214FF4394001F069FA342109
:1034B0004BF6011001F064FA34214BF6021001F0D2
:1034C0005FFA08214FF4354001F05AFA08214BF217
:1034D000015001F055FA08214BF2025001F050FA68
:1034E00003214FF4424001F04BFA24214FF43A40BB
:1034F00001F046FA24214BF6012001F041FA242183
:103500004BF6022001F03CFA00214FF43C4001F060
:1035100037FA78214BF6014001F032FA00214BF6E0
:10352000024001F02DFA00214FF43D4001F028FA4D
:1035300078214BF6015001F023FA00214BF602509E
:1035400001F01EFA00214FF43E4001F019FA642107
:103550004BF6016001F014FA00214FF4514001F0E4
:103560000FFA33214DF2011001F00AFA00214DF259
:10357000021001F005FA34214DF2031001F000FAB7
:1035800000214DF2041001F0FBF93A214DF2051033
:1035900001F0F6F900214DF2061001F0F1F94A218F
:1035A0004DF2071001F0ECF900214DF2081001F086
:1035B000E7F95C214DF2091001F0E2F900214DF22A
:1035C0000A1001F0DDF981214DF20B1001F0D8F95C
:1035D00000214DF20C1001F0D3F9A6214DF20D108F
:1035E00001F0CEF900214DF20E1001F0C9F9E521EC
:1035F0004DF20F1001F0C4F901214DF2101001F04D
:10360000BFF913214DF2111001F0BAF901214DF269
:10361000121001F0B5F954214DF2131001F0B0F978
:1036200001214DF2141001F0ABF982214DF2151079
:1036300001F0A6F901214DF2161001F0A1F9CA21FD
:103640004DF2171001F09CF902214DF2181001F013
:1036500097F900214DF2191001F092F902214DF273
:103660001A1001F08DF901214DF21B1001F088F9BB
:1036700002214DF21C1001F083F934214DF21D108E
:1036800001F07EF902214DF21E1001F079F9672157
:103690004DF21F1001F074F902214DF2201001F0DB
:1036A0006FF984214DF2211001F06AF902214DF2E7
:1036B000221001F065F9A4214DF2231001F060F908
:1036C00002214DF2241001F05BF9B7214DF22510D3
:1036D00001F056F902214DF2261001F051F9CF21E7
:1036E0004DF2271001F04CF902214DF2281001F0A3
:1036F00047F9DE214DF2291001F042F902214DF285
:103700002A1001F03DF9F2214DF22B1001F038F9A9
:1037100002214DF22C1001F033F9FE214DF22D1053
:1037200001F02EF903214DF22E1001F029F910219C
:103730004DF22F1001F024F903214DF2301001F069
:103740001FF933214DF2311001F01AF903214DF226
:10375000321001F015F96D214DF2331001F010F91E
:1037600000214FF4524001F00BF933214DF20120BA
:1037700001F006F900214DF2022001F001F901E00B
:10378000D001022034214DF2032001F0F9F800218C
:103790004DF2042001F0F4F83A214DF2052001F039
:1037A000EFF800214DF2062001F0EAF84A214DF22F
:1037B000072001F0E5F800214DF2082001F0E0F8C3
:1037C0005C214DF2092001F0DBF800214DF20A20C6
:1037D00001F0D6F881214DF20B2001F0D1F8002143
:1037E0004DF20C2001F0CCF8A6214DF20D2001F095
:1037F000C7F800214DF20E2001F0C2F8E5214DF28C
:103800000F2001F0BDF801214DF2102001F0B8F8B1
:1038100013214DF2112001F0B3F801214DF21220D5
:1038200001F0AEF854214DF2132001F0A9F8012166
:103830004DF2142001F0A4F882214DF2152001F080
:103840009FF801214DF2162001F09AF8CA214DF29D
:10385000172001F095F802214DF2182001F090F8A0
:1038600000214DF2192001F08BF802214DF21A20AF
:1038700001F086F801214DF21B2001F081F80221B0
:103880004DF21C2001F07CF834214DF21D2001F096
:1038900077F802214DF21E2001F072F867214DF2F7
:1038A0001F2001F06DF802214DF2202001F068F890
:1038B00084214DF2212001F063F802214DF22220F3
:1038C00001F05EF8A4214DF2232001F059F8022105
:1038D0004DF2242001F054F8B7214DF2252001F0DB
:1038E0004FF802214DF2262001F04AF8CF214DF287
:1038F000272001F045F802214DF2282001F040F880
:10390000DE214DF2292001F03BF802214DF22A2060
:1039100001F036F8F2214DF22B2001F031F80221AE
:103920004DF22C2001F02CF8FE214DF22D2001F05B
:1039300027F803214DF22E2001F022F810214DF23C
:103940002F2001F01DF803214DF2302001F018F86E
:1039500033214DF2312001F013F803214DF23220D2
:1039600001F00EF86D214DF2332001F009F800212D
:103970004FF4534001F004F833214DF2013000F0D0
:10398000FFFF00214DF2023000F0FAFF34214DF22A
:10399000033000F0F5FF00214DF2043000F0F0FF9D
:1039A0003A214DF2053000F0EBFF00214DF20630D8
:1039B00000F0E6FF4A214DF2073000F0E1FF002160
:1039C0004DF2083000F0DCFF5C214DF2093000F0D0
:1039D000D7FF00214DF20A3000F0D2FF81214DF2D5
:1039E0000B3000F0CDFF00214DF20C3000F0C8FF8D
:1039F000A6214DF20D3000F0C3FF00214DF20E3034
:103A000000F0BEFFE5214DF20F3000F0B9FF0121BB
:103A10004DF2103000F0B4FF13214DF2113000F0E0
:103A2000AFFF01214DF2123000F0AAFF54214DF2F8
:103A3000133000F0A5FF01214DF2143000F0A0FF7B
:103A400082214DF2153000F09BFF01214DF216301E
:103A500000F096FFCA214DF2173000F091FF0221CD
:103A60004DF2183000F08CFF00214DF2193000F0BB
:103A700087FF02214DF21A3000F082FF01214DF242
:103A80001B3000F07DFF02214DF21C3000F078FF6A
:103A900034214DF21D3000F073FF02214DF21E3033
:103AA00000F06EFF67214DF21F3000F069FF022128
:103AB0004DF2203000F064FF84214DF2213000F0FF
:103AC0005FFF02214DF2223000F05AFFA4214DF297
:103AD000233000F055FF02214DF2243000F050FF5A
:103AE000B7214DF2253000F04BFF02214DF2263078
:103AF00000F046FFCF214DF2273000F041FF0221B8
:103B00004DF2283000F03CFFDE214DF2293000F06C
:103B100037FF02214DF22A3000F032FFF2214DF240
:103B20002B3000F02DFF02214DF22C3000F028FF49
:103B3000FE214DF22D3000F023FF03214DF22E30F7
:103B400000F01EFF10214DF22F3000F019FF03216D
:103B50004DF2303000F014FF33214DF2313000F0DF
:103B60000FFF03214DF2323000F00AFF6D214DF2BC
:103B7000333000F005FF00214FF4544000F000FF07
:103B800033214DF2014000F0FBFE00214DF20240D6
:103B900000F0F6FE34214DF2034000F0F1FE00216A
:103BA0004DF2044000F0ECFE3A214DF2054000F0E9
:103BB000E7FE00214DF2064000F0E2FE4A214DF200
:103BC000074000F0DDFE00214DF2084000F0D8FE75
:103BD0005C214DF2094000F0D3FE00214DF20A4075
:103BE00000F0CEFE81214DF20B4000F0C9FE002115
:103BF0004DF20C4000F0C4FEA6214DF20D4000F045
:103C0000BFFE00214DF20E4000F0BAFEE5214DF25C
:103C10000F4000F0B5FE01214DF2104000F0B0FE63
:103C200013214DF2114000F0ABFE01214DF2124084
:103C300000F0A6FE54214DF2134000F0A1FE012138
:103C40004DF2144000F09CFE82214DF2154000F030
:103C500097FE01214DF2164000F092FECA214DF26E
:103C6000174000F08DFE02214DF2184000F088FE52
:103C700000214DF2194000F083FE02214DF21A405E
:103C800000F07EFE01214DF21B4000F079FE00E0C5
:103C900003E302214DF21C4000F072FE34214DF28C
:103CA0001D4000F06DFE02214DF21E4000F068FE46
:103CB00067214DF21F4000F063FE02214DF22040CB
:103CC00000F05EFE84214DF2214000F059FE0221F9
:103CD0004DF2224000F054FEA4214DF2234000F0AA
:103CE0004FFE02214DF2244000F04AFEB7214DF272
:103CF000254000F045FE02214DF2264000F040FE36
:103D0000CF214DF2274000F03BFE02214DF228402A
:103D100000F036FEDE214DF2294000F031FE022196
:103D20004DF22A4000F02CFEF2214DF22B4000F023
:103D300027FE02214DF22C4000F022FEFE214DF222
:103D40002D4000F01DFE03214DF22E4000F018FE24
:103D500010214DF22F4000F013FE03214DF23040B0
:103D600000F00EFE33214DF2314000F009FE032138
:103D70004DF2324000F004FE6D214DF2334000F070
:103D8000FFFD00214FF4554000F0FAFD33214DF2C4
:103D9000015000F0F5FD00214DF2025000F0F0FD61
:103DA00034214DF2035000F0EBFD00214DF20450A0
:103DB00000F0E6FD3A214DF2055000F0E1FD002152
:103DC0004DF2065000F0DCFD4A214DF2075000F0A4
:103DD000D7FD00214DF2085000F0D2FD5C214DF2DC
:103DE000095000F0CDFD00214DF20A5000F0C8FD51
:103DF00081214DF20B5000F0C3FD00214DF20C501B
:103E000000F0BEFDA6214DF20D5000F0B9FD0021DD
:103E10004DF20E5000F0B4FDE5214DF20F5000F0D0
:103E2000AFFD01214DF2105000F0AAFD13214DF21B
:103E3000115000F0A5FD01214DF2125000F0A0FD3F
:103E400054214DF2135000F09BFD01214DF214500E
:103E500000F096FD82214DF2155000F091FD0121F8
:103E60004DF2165000F08CFDCA214DF2175000F0B3
:103E700087FD02214DF2185000F082FD00214DF225
:103E8000195000F07DFD02214DF21A5000F078FD2E
:103E900001214DF21B5000F073FD02214DF21C5028
:103EA00000F06EFD34214DF21D5000F069FD02213D
:103EB0004DF21E5000F064FD67214DF21F5000F0DE
:103EC0005FFD02214DF2205000F05AFD84214DF299
:103ED000215000F055FD02214DF2225000F050FD1E
:103EE000A4214DF2235000F04BFD02214DF224504D
:103EF00000F046FDB7214DF2255000F041FD0221B2
:103F00004DF2265000F03CFDCF214DF2275000F03D
:103F100037FD02214DF2285000F032FDDE214DF236
:103F2000295000F02DFD02214DF22A5000F028FD0D
:103F3000F2214DF22B5000F023FD02214DF22C50C6
:103F400000F01EFDFE214DF22D5000F019FD032161
:103F50004DF22E5000F014FD10214DF22F5000F0C4
:103F60000FFD03214DF2305000F00AFD33214DF2D8
:103F7000315000F005FD03214DF2325000F000FDFC
:103F80006D214DF2335000F0FBFC00214FF4564000
:103F900000F0F6FC33214DF2016000F0F1FC00214D
:103FA0004DF2026000F0ECFC34214DF2036000F0B1
:103FB000E7FC00214DF2046000F0E2FC3A214DF2F2
:103FC000056000F0DDFC00214DF2066000F0D8FC39
:103FD0004A214DF2076000F0D3FC00214DF2086049
:103FE00000F0CEFC5C214DF2096000F0C9FC00211C
:103FF0004DF20A6000F0C4FC81214DF20B6000F02C
:10400000BFFC00214DF20C6000F0BAFCA6214DF27D
:104010000D6000F0B5FC00214DF20E6000F0B0FC28
:10402000E5214DF20F6000F0ABFC01214DF2106074
:1040300000F0A6FC13214DF2116000F0A1FC01215B
:104040004DF2126000F09CFC54214DF2136000F020
:1040500097FC01214DF2146000F092FC82214DF298
:10406000156000F08DFC01214DF2166000F088FC17
:10407000CA214DF2176000F083FC02214DF2186056
:1040800000F07EFC00214DF2196000F079FC022165
:104090004DF21A6000F074FC01214DF21B6000F03B
:1040A0006FFC02214DF21C6000F06AFC34214DF2DD
:1040B0001D6000F065FC02214DF21E6000F060FC06
:1040C00067214DF21F6000F05BFC02214DF2206081
:1040D00000F056FC84214DF2216000F051FC0221D9
:1040E0004DF2226000F04CFCA4214DF2236000F060
:1040F00047FC02214DF2246000F042FCB7214DF252
:10410000256000F03DFC02214DF2266000F038FCF5
:10411000CF214DF2276000F033FC02214DF22860E0
:1041200000F02EFCDE214DF2296000F029FC022176
:104130004DF22A6000F024FCF2214DF22B6000F0D9
:104140001FFC02214DF22C6000F01AFCFE214DF202
:104150002D6000F015FC03214DF22E6000F010FCE4
:1041600010214DF22F6000F00BFC03214DF2306066
:1041700000F006FC33214DF2316000F001FC032118
:104180004DF2326000F0FCFB6D214DF2336000F027
:10419000F7FB55214FF4704000F0F2FBAA214FF2DB
:1041A000010000F0EDFB52214FF2020000F0E8FBAD
:1041B00008214FF2030000F0E3FB00214FF204005E
:1041C00000F0DEFBCC214FF4314000F0D9FB0021A0
:1041D0004BF2011000F0D4FB05214FF4364000F003
:1041E000CFFB70214FF4374000F0CAFB70214BF237
:1041F000017000F0C5FB01214FF4384000F0C0FB16
:1042000003214BF6010000F0BBFB03214BF602003B
:1042100000F0B6FB03214BF6030000F0B1FB0221D6
:104220004FF43C4000F0ACFB00214BF6014000F0A5
:10423000A7FB00214BF6024000F0A2FBD0214FF477
:10424000494000F09DFB02214CF6011000F098FB64
:1042500050214CF6021000F093FB50214CF6031055
:1042600000F08EFB50214CF6041000F089FB002179
:104270004FF4545000F084FB55214FF4685000F087
:104280007FFB4FF4885000F065FB782001F06EF85A
:104290004FF4245000F05EFBBDE08048808841F67A
:1042A00063118842F8D1E22000F054FB1D2000F099
:1042B00045FB022000F042FB042000F03FFB64209D
:1042C00001F054F8E02000F045FB012000F036FB3F
:1042D0000A2001F03FF8E02000F03CFB032000F052
:1042E0002DFB0C2001F036F8012000F033FB0A20F2
:1042F00001F030F8E62000F02DFB2F2000F01EFB2F
:10430000FF2000F01BFBFF2000F018FBB02000F0A6
:1043100021FB202000F012FB002000F00FFB032007
:1043200000F00CFB40F21F3000F008FB012000F011
:1043300005FB40F2DF1000F001FB002000F0FEFA68
:10434000B42000F007FB042000F0F8FA40F21F4010
:1043500000F0F4FA002000F0F1FA2E2000F0EEFA5E
:10436000002000F0EBFA002000F0E8FA002000F056
:10437000E5FA002000F0E2FAB62000F0EBFA0220A5
:1043800000F0DCFA4FF4037000F0D8FA002000F0DF
:10439000D5FA172000F0D2FA152000F0CFFA00204D
:1043A00000F0CCFA002000F0C9FAF02000F0D2FAB8
:1043B000032000F0C3FA292000F0CCFAD02000F04E
:1043C000C9FA002000F0BAFABE2000F0C3FA0520B6
:1043D00000F0B4FAFE2000F0B1FA012000F0AEFACD
:1043E000002000F0ABFA002000F0A8FA002000F056
:1043F000A5FAB82000F0AEFA032000F09FFA0120E1
:1044000000F09CFABA2000F0A5FA012000F096FA1C
:10441000642000F095F82148808849F241318842B3
:1044200011D01E48808845F2103188420BD01B48BD
:10443000808845F21051884205D01848808841F69E
:10444000631188421CD11648006820F00F004FF01D
:104450002041C1F804010846D0F8040120F470603E
:10446000C1F804010846D0F8040140F00500C1F885
:1044700004010846D0F8040140F4A060C1F804012A
:104480000120FDF733FD0122D1020648FCF7A2FD11
:104490004FF6FF70FDF710FD15B000BDD0010220F2
:1044A000040100A0000C02401FB500BF1E480068B8
:1044B00020F480301C4908601B487030006820F0F0
:1044C000010019497031086000BF01208DF800001B
:1044D00000208DF801004FF0C04001901B208DF8A6
:1044E000080000208DF809008DF80A0003208DF8DF
:1044F0000B0000208DF80C008DF80D008DF80E00DB
:1045000001208DF80F006846FCF7A0FD042040F064
:104510000101054A703211600349096841F4803194
:10452000014A116000BF1FBD24ED00E008B503483B
:1045300000880090BDF8000008BD00000000086081
:1045400000B50246BE2000F005FA052000F0F6F99D
:1045500000EE102AB8EE400B9FED0B1B20EE010B76
:10456000BCEEC00B10EE101A88B200F0E7F9012083
:1045700000F0E4F9FF2000F0E1F9002000F0DEF99E
:10458000002000F0DBF900BD6666666666660440E2
:10459000F0B505460024002799488079012805D107
:1045A0009748808841F66311884208D19448807901
:1045B000F0B99348808841F66311884218D1082DDC
:1045C00015D2DFE805F00406080A0C0E10120625C5
:1045D0000DE007250BE0042509E0052507E001258E
:1045E00005E0002503E0032501E0022500BF00BF30
:1045F0008348808849F24131884211D080488088C0
:1046000045F2103188420BD07D48808845F2105128
:10461000884205D07A48808841F6631188427DD16E
:10462000082D1CD2DFE805F00406090C0F1215183E
:1046300000BF14E044F0800411E044F040040EE0B8
:1046400044F0C0040BE044F0200408E044F06004AF
:1046500005E044F0A00402E044F0E00400BF00BF25
:104660006748808845F21051884202D14FF458576C
:1046700000E036276248808845F2103188420DD02C
:104680005F48808845F21051884207D05C48808896
:1046900041F66311884201D044F0080421463846AF
:1046A00000F06EF95648808841F6631188421DD0AB
:1046B00004F0200068B15248008851494988884276
:1046C00014DA4F48068840884D49088008464680DD
:1046D0000CE04B4800884A494988884206DD484832
:1046E00006884088464908800846468044488088B5
:1046F00045F21051884254D14149488900F02AF9C5
:10470000002000F01BF93E494989491C88B200F09D
:1047100021F9002000F012F9394900E06FE04989E1
:10472000891C88B200F016F935490988491EC1F381
:104730000F2000F003F932494989C91C88B200F002
:1047400009F92F490978491EC8B200F0F7F82C4939
:10475000888900F0FFF8002000F0F0F828498989E6
:10476000491C88B200F0F6F8002000F0E7F8244970
:104770008989891C88B200F0EDF821494988491ED1
:10478000C1F30F2000F0DAF81D498989C91C88B2ED
:1047900000F0E0F81A498978491EC8B200F0CEF856
:1047A0002DE01749488900F0D5F8002000F0C6F840
:1047B000002000F0C3F812490988491EC1F30F20F8
:1047C00000F0BCF80E490978491EC8B200F0B6F8EE
:1047D0000B49888900F0BEF8002000F0AFF80020F7
:1047E00000F0ACF806494988491EC1F30F2000F0DB
:1047F000A5F803498978491EC8B200F09FF8F0BDBA
:10480000D001022010B502460C464B48808849F280
:104810004131884205D04848808845F210318842AD
:1048200014D14549488900F095F8101200F086F837
:10483000D0B200F083F84049888900F08BF820124C
:1048400000F07CF8E0B200F079F873E03A48808834
:1048500041F66311884247D137488079A8B9364874
:104860000088401E801A82B23349488900F072F8ED
:10487000002000F063F8002000F060F8101200F053
:104880005DF8D0B200F05AF816E02B49488900F0E4
:1048900061F8101200F052F8D0B200F04FF826493B
:1048A0000988491EC1F30F2000F048F82249097811
:1048B000491EC8B200F042F81F49888900F04AF842
:1048C000201200F03BF8E0B200F038F81A494988AD
:1048D000491EC1F30F2000F031F817498978491EAD
:1048E000C8B200F02BF825E01348808845F210513B
:1048F00088421FD11049488900F02CF8101200F0AE
:104900001DF80D494989491C88B200F023F8D0B23E
:1049100000F014F80849888900F01CF8201200F013
:104920000DF805498989491C88B200F013F8E0B2F6
:1049300000F004F810BD0000D001022001B5BDF860
:1049400000000090BDF800000149088008BD00008B
:104950000000086001B5BDF800000090BDF800003F
:104960000149088008BD0000FEFF07600248008979
:104970000249088070470000D0010220FEFF076056
:10498000024A1080921C118070470000FEFF0760F1
:1049900000B587B000BF1748006840F00400154913
:1049A00008600846006800F00400019000BF00BFE6
:1049B0004FF4707002900120039004900320059042
:1049C00002A90D48FCF7FAF9012240210A48FCF738
:1049D00001FB012280210848FCF7FCFA01221102A8
:1049E0000548FCF7F7FA012251020348FCF7F2FAF6
:1049F00007B000BD303802400008024010B50D4835
:104A00000D4908604FF48030486000210A488160F9
:104A1000C1600161416181610121C16100210162C7
:104A20004162064981620021C1620163FCF724F9F9
:104A300010BD000000200140E00102200100000F35
:104A400000BFFEE77047000002480068C0F3022084
:104A5000704700000CED00E010B5002807DA0A07E7
:104A6000140E054A00F00F031B1FD45403E00A077D
:104A7000130E024A135410BD18ED00E000E400E0EC
:104A80007047000010B50023234C236000BF00BF17
:104A900000BFBFF34F8F00BF00BF00BF231F1868C8
:104AA000C0F34E3100BFC0F3C90200BF43F6E0734C
:104AB00003EA41134FF0404404EA82742343174C45
:104AC000236000BF00BF131EA2F10102EED10B1E36
:104AD000A1F10101E7D100BF00BF00BFBFF34F8FBD
:104AE00000BF00BF00BF0C4B703B1B6843F480331A
:104AF000094C703C236000BF00BF00BFBFF34F8F65
:104B000000BF00BF00BF00BF00BF00BFBFF36F8F7B
:104B100000BF00BF00BF10BD84ED00E060EF00E00B
:104B2000704700002DE9F04194B0054688461646CE
:104B30001F46002400BF2648006840F080502449EA
:104B400008600846006800F08050019000BF00BF78
:104B500000BF2048006840F440401E4908600846F5
:104B6000006800F44040019000BF00BF01200790A2
:104B70000004089002200D9041050E91CDF83C8074
:104B800010951196129707A8FCF79CFC04460CB1EF
:104B900000BFFEE7FCF7E8FA04460CB100BFFEE7F1
:104BA0000F20029002200390002004904FF4A050A8
:104BB00005904FF480500690072102A8FCF71CFBDB
:104BC00004460CB100BFFEE714B0BDE8F081000060
:104BD000403802400070004010B5FCF707FA10BDE5
:104BE0001448006840F470001249086012480068D8
:104BF00040F001001049086000200F4908310860AA
:104C00000D4800680D4908400B4908600C48091D13
:104C10000860081F006820F48020091F0860002039
:104C200005490C3108604FF0006002498039086086
:104C30007047000088ED00E000380240FFFFF6FEFC
:104C40001030002490F8241001F0010139B10168FE
:104C5000496821F40031826A11430268516090F87A
:104C6000241001F0020139B10168496821F4803152
:104C7000C26A11430268516090F8241001F00401E7
:104C800039B10168496821F48021026B114302683F
:104C9000516090F8241001F0080139B101684968A9
:104CA00021F40041426B11430268516090F82410D6
:104CB00001F0100139B10168896821F48051826BDB
:104CC00011430268916090F8241001F0200139B17D
:104CD0000168896821F40051C26B11430268916038
:104CE00090F8241001F0400199B10168496821F45D
:104CF0008011026C114302685160016CB1F5801F94
:104D000007D10168496821F4C001426C114302686F
:104D1000516090F8241001F0800139B101684968B0
:104D200021F40021826C114302685160704738B54C
:104D3000044600250020E066FCF752F9054620688D
:104D4000006800F0080008280CD16FF07E402B4668
:104D500000224FF400110090204600F08EFA08B1B6
:104D6000032038BD2068006800F0040004280CD13E
:104D70006FF07E402B4600224FF4800100902046C9
:104D800000F07BFA08B10320EBE7202084F86900EB
:104D900084F86A0000BF002084F8680000BF00BFEC
:104DA000DFE770B50546AC6B0020A4F85A00A4F804
:104DB00052002046FCF794FE70BD0168096821F49A
:104DC0009071026811600168896821F00101026830
:104DD0009160202180F86A10704710B50446206861
:104DE000006820F0400021680860202084F86900F5
:104DF0002046FDF75DF8002010BD70B50446B4F8FC
:104E00005C6094F86A00222833D1A068B0F5805F16
:104E10000AD1206940B9656D2068406A3040288019
:104E2000606D801C606507E02068406AF1B2084050
:104E3000626D511C61651070B4F85A00401E80B25A
:104E4000A4F85A0098B92068006820F4907021688E
:104E500008602068806820F00100216888602020B8
:104E600084F86A002046FCF7DFFF002070BD0020B8
:104E7000FCE72068806940F0080021688861022012
:104E8000F4E700002DE9F04704460025102600272E
:104E9000A846A9462169A068084361690843E169F9
:104EA00040EA010520680068CD4908402843216890
:104EB00008602068406820F44050E1680843216899
:104EC0004860216AA06940EA01052068806820F4F2
:104ED000306028432168886000BFC249206888424A
:104EE00015D1C148006800F0030030B1012808D096
:104EF000022804D0032808D105E0012606E0022696
:104F000004E0042602E0082600E000BFC1E0B74943
:104F10002068884215D1B448006800F00C0030B118
:104F2000042808D0082804D00C2808D105E0002661
:104F300006E0022604E0042602E0082600E000BFA6
:104F4000A7E0AB492068884215D1A748006800F067
:104F5000300030B1102808D0202804D0302808D1E3
:104F600005E0002606E0022604E0042602E008260A
:104F700000E000BF8DE09F492068884215D19A4823
:104F8000006800F0C00030B1402808D0802804D06C
:104F9000C02808D105E0002606E0022604E0042629
:104FA00002E0082600E000BF73E0934920688842D1
:104FB00018D18D48006800F4407048B1B0F5807F8A
:104FC0000AD0B0F5007F05D0B0F5407F08D105E0EC
:104FD000002606E0022604E0042602E0082600E09F
:104FE00000BF56E085492068884218D17E48006895
:104FF00000F4406048B1B0F5806F0AD0B0F5006FA2
:1050000005D0B0F5406F08D105E0012606E0022684
:1050100004E0042602E0082600E000BF39E07849F9
:105020002068884218D17048006800F4405048B1A8
:10503000B0F5805F0AD0B0F5005F05D0B0F5405FF5
:1050400008D105E0002606E0022604E0042602E07E
:10505000082600E000BF1CE06A492068884218D199
:105060006148006800F4404048B1B0F5804F0AD074
:10507000B0F5004F05D0B0F5404F08D105E000264F
:1050800006E0022604E0042602E0082600E000BF55
:1050900000BF00BFE069B0F5004F52D1042E2BD005
:1050A00005DC4EB1012E12D0022E3BD11AE0082EA3
:1050B0002DD0102E36D136E0FCF77EF94000616825
:1050C00000EB5100B0FBF1F01FFA80F82EE0FCF786
:1050D00089F94000616800EB5100B0FBF1F01FFA64
:1050E00080F823E04849606801EB50006168B0FB3C
:1050F000F1F01FFA80F819E0FCF78AF940006168C6
:1051000000EB5100B0FBF1F01FFA80F80EE04FF415
:105110008031606801EB50006168B0FBF1F01FFA6C
:1051200080F803E000BF4FF0010900BF00BF4FF659
:10513000F07008EA0007C8F3420007432068C76020
:105140004AE0042E2CD005DC4EB1012E12D0022EE6
:105150003DD11AE0082E2ED0102E38D138E0FCF7C1
:105160002BF9616800EB5100B0FBF1F080B22168CF
:10517000C86030E0FCF736F9616800EB5100B0FB25
:10518000F1F080B22168C86025E02049606801EB39
:1051900050006168B0FBF1F080B22168C8601AE08D
:1051A000FCF736F9616800EB5100B0FBF1F080B21A
:1051B0002168C8600FE04FF40041606801EB5000C7
:1051C0006168B0FBF1F080B22168C86003E000BF05
:1051D0004FF0010900BF00BF4846BDE8F08700005E
:1051E000F369FFEF00100140903802400044004096
:1051F00000480040004C00400050004000140140B6
:1052000000780040007C00400048E8010024F400E1
:10521000014691F8690021282DD1B1F8520068B9F2
:105220000868006820F080000B6818600868006853
:1052300040F040000B681860002070478868B0F5A7
:10524000805F0BD1086948B9CA6C1088C0F30800A8
:105250000B689862C86C801CC86405E0CB6C581C55
:10526000C86418780B689862B1F85200401EA1F823
:1052700052000020E1E70220DFE72DE9F04104467B
:105280000D4617469846069E21E0701CF8B12EB1D7
:10529000FBF7A6FEA0EB0800B04218D32068006818
:1052A00020F4D070216808602068806820F0010038
:1052B00021688860202084F8690084F86A0000BFB3
:1052C000002084F8680000BF0320BDE8F08120685A
:1052D000C0692840A84201D1012000E00020B84266
:1052E000D3D00020F1E7000070B500240F4D104826
:1052F000FCF702FC00BF03E0641CAC4200D904E0F0
:105300000B48FCF7EEFB2028F6D100BF002403E099
:10531000641CAC4200D906E0012206490448FCF7AF
:105320001FFD0028F4D100BF70BD0000FFFF010089
:10533000140102201E00022000BFFEE700BF7047DC
:1053400010B504460420FCF79DFB0148046010BD25
:105350001400022030B50446002504E04FF47A70B2
:1053600000F004F86D1CA542F8D330BD70B50346BB
:1053700000224FF0E02675690D4E366803FB06F4F7
:105380004FF0E026B16910E04FF0E026B0698842A6
:105390000BD0884202D20E1A324402E02E1A0E447A
:1053A00032440146A24200D300E0EDE700BF70BDE9
:1053B0001400022000BF054AD26902F04002002A10
:1053C000F9D0C2B2014B9A62704700000010014050
:1053D000FBF710FBFBF712FE0923022219214FF401
:1053E000D870FFF79FFBD820FFF7AAFFFCF72EFE2F
:1053F0004FF4E13000F078F8FFF7CAFA00202D49A9
:105400000860FBF753FBFFF7F9FAFBF795F89FED00
:105410002A0B2B4880ED000B9FED2A0B2B4880EDCB
:10542000000B274890ED000B1020FBF73DF92448B6
:1054300090ED000B2020FBF737F9244890ED000B8E
:105440004020FBF731F9214890ED000B8020FBF75D
:105450002BF9FBF769F99FED1E0B1020FBF744F9C0
:105460009FED1D0B2020FBF73FF99FED190B40200E
:10547000FBF73AF99FED1A0B8020FBF735F9FBF7A4
:1054800053F940F2FF311020FBF7FEF840F2FF31F4
:105490002020FBF7F9F840F2FF314020FBF7F4F849
:1054A00040F2FF318020FBF7EFF8FBF73DF900BF3A
:1054B000FEE700002400022000000000006AF8401F
:1054C0000000022000000000006A084108000220DD
:1054D00000000000000000000000000000805640B6
:1054E0000000000000005E4010B5044609480A496B
:1054F00008600846446000218160C16001618161EB
:105500000C214161FCF7A6FB012204490248FCF78B
:1055100027FC10BD00100140140102201E000220D3
:105520004FF04070E1EE100A7047000000000000EC
:105530000000010203040607080900000000010240
:10554000030430313233343536373839414243443D
:1055500045464030580030313233343536373839EB
:105560006162636465664030780000008C55000815
:10557000000002204C00000034020008D85500084A
:105580004C0002203C08000050020008000000000F
:105590000000000000000000000000000024F400F3
:1055A00000000000000000000000000000000000FB
:1055B000000000FFFFFFFFFF0000000001030203E7
:1055C00004020302040404040404040404040404A0
:0855D0000404040404000000BF
:04000005080001F9F5
:00000001FF
