:020000040800F2
:10000000480B0220F90200084D5300089F1C00080D
:1000100005030008F5070008955E000800000000D1
:10002000000000000000000000000000A9540008CB
:10003000710800080000000089530008615500089D
:100040001303000813030008130300081303000838
:100050001303000813030008130300081303000828
:100060001303000813030008130300081303000818
:100070001303000813030008130300081303000808
:1000800013030008130300081303000813030008F8
:1000900013030008130300081303000813030008E8
:1000A00013030008130300081303000813030008D8
:1000B0001303000813030008CD55000813030008BC
:1000C00013030008130300081303000813030008B8
:1000D00013030008F55D000813030008130300086C
:1000E0001303000813030008130300081303000898
:1000F0001303000813030008130300081303000888
:100100001303000813030008130300081303000877
:100110001303000813030008130300081303000867
:100120001303000813030008130300081303000857
:100130001303000813030008130300081303000847
:100140001303000813030008130300081303000837
:100150001303000813030008130300081303000827
:100160001303000813030008130300081303000817
:100170001303000813030008130300080000000025
:1001800013030008130300081303000813030008F7
:1001900013030008130300081303000813030008E7
:1001A00013030008130300081303000813030008D7
:1001B00013030008130300081303000813030008C7
:1001C00013030008130300080000000013030008D5
:1001D00013030008130300081303000813030008A7
:1001E0001303000813030008130300081303000897
:1001F000130300081303000800F002F800F06DF884
:100200000AA090E8000C82448344AAF10107DA4571
:1002100001D100F062F8AFF2090EBAE80F0013F056
:10022000010F18BFFB1A43F00103184774BC00000C
:1002300094BC00000A444FF0000C10F8013B13F08E
:10024000070408BF10F8014B1D1108BF10F8015B2F
:10025000641E05D010F8016B641E01F8016BF9D122
:1002600013F0080F1EBF10F8014BAD1C0C1B09D179
:100270006D1E58BF01F801CBFAD505E014F8016BEB
:1002800001F8016B6D1EF9D59142D6D3704700007D
:100290000023002400250026103A28BF78C1FBD88F
:1002A000520728BF30C148BF0B607047642900F077
:1002B000A180752900F09E80782900F0D7806329FD
:1002C00000F02B82732900F03082002070471FB5A8
:1002D00007F006F81FBD10B510BD00F059FA114621
:1002E000FFF7F5FF05F02AFE00F077FA03B4FFF7F9
:1002F000F2FF03BC05F0D7FD0948804709480047D5
:10030000FEE7FEE7FEE7FEE7FEE7FEE7FEE7FEE7C5
:10031000FEE7FEE704480549054A064B7047000022
:1003200069550008F901000848050220480B022021
:100330004807022048070220704700000FB4044914
:1003400010B503AA029800F0F5F910BC5DF814FB93
:100350000C00022070B5044685690068C10601D50D
:10036000302600E02026C00707D070BDD4E9012167
:1003700030469047206A401C20626D1EF6D570BD45
:1003800070B5044685690078C00707D170BDD4E90F
:10039000012120209047206A401C20626D1EF6D566
:1003A00070BD70B50C460546012A05D02878800638
:1003B00000D5EA69002302E0012305E05B1C9342BB
:1003C00002D2E05C0028F9D1A869E618C01AA86139
:1003D000286A184428622846FFF7BCFF04E0D5E9E4
:1003E000012114F8010B9047B442F8D32846FFF7D7
:1003F000C7FF70BD2DE9F04106460024106875293D
:10040000314616A510D0AFF30080002802DA404232
:1004100013A507E031688A0701D512A502E0490754
:1004200004D511A5012401E0AFF3008000210A22C8
:1004300006F1240709E0B0FBF2FCB0FBF2F302FB8B
:100440001C00303078541846491C0028F3D123464C
:100450002A463046BDE8F04100F0FCB8000000003C
:100460002D0000002B0000002000000070B50446A5
:100470000D4621461068AFF300802188090502D59A
:100480000F4A7A4402E00E4A7A440E32002104F107
:10049000240305E000F00F060009965D5E54491C38
:1004A0000028F7D120780023000704D5702D02D052
:1004B00009B1022311322046BDE8704000F0CAB8ED
:1004C000BCB500002DE9F05F894604464FF0000AF4
:1004D000DFF874B1FB44C0F820A02046E1688847EB
:1004E000002874D0252806D0D4E901219047206A3D
:1004F000401C2062F1E700265F462046E1688847FD
:100500002028054607DB312D05D2781910F8200C7C
:1005100008B10643F1E7B00701D526F00406C4F898
:100520001CA00027C4F818A02A2D09D0284605F0E1
:10053000B3FC38B304EB8708303DC8F8185019E015
:1005400059F8041B204604EB87029161E168884753
:10055000012F054618D1E069002820DA26F0200690
:100560001DE0D8F8180000EB800005EB40003038A3
:10057000C8F818002046E1688847054605F08CFC5D
:100580000028EED1012F0AD02E2D08D12046E16897
:1005900088477F1C0546022F46F02006C4DBA06971
:1005A000002803DA404246F00106A061F00701D0BE
:1005B00026F010066C2D0BD0682D09D04C2D39D0AB
:1005C0006A2D35D0742D35D07A2D33D016E038E031
:1005D000E1682F4620468847B842054609D16C2F6E
:1005E00026D04FF48060E1680643204688470546E0
:1005F00004E06C2F1AD04FF4807006430DB3A5F1C0
:100600004100192802D8203546F400664A4629469A
:10061000204626604E46FFF749FE80B101280BD0E8
:10062000F61D26F0070000F1080956E74020E4E730
:100630008020D8E70020D6E706F104094DE72846D8
:1006400052E7206ABDE8F09F92B5000070477047FE
:10065000704770472DE9F0470D469946924604468B
:1006600000F124080168880604D5E06921F0100132
:10067000216000E00120A84201DD471B00E00027C7
:10068000A1697A1902EB0900081AA0612078C00656
:1006900002D42046FFF75EFE002608E0D4E90121DF
:1006A0001AF806009047206A401C761C20624E45CE
:1006B000F4DB2078C0060AD52046FFF74BFE06E0A3
:1006C000D4E9012130209047206A401C2062381E66
:1006D000A7F10107F4DC07E0D4E9012118F80500CF
:1006E0009047206A401C2062281EA5F10105F3DC1A
:1006F0002046FFF745FE2078000602D50220BDE81F
:10070000F0870120FBE710B5436913B1AFF3008018
:1007100001E0FFF746FE012010BD127800F1240130
:100720000A7000224A700122EDE711684FF0FF3293
:10073000E9E70000074B70B50D467B4400F011F867
:100740000446284600F020F810B14FF0FF3070BD8D
:10075000204670BDE357000001694A1C0261087819
:10076000704700B58FB0CDE90131002105910549F1
:100770007944CDE9031011466846FFF7A3FE0FB098
:1007800000BD0000E5FFFFFF007B00F08000704728
:10079000754600F02BF8AE4605006946534620F03A
:1007A0000700854618B020B5FFF7B4FDBDE820402E
:1007B0004FF000064FF000074FF000084FF0000B1D
:1007C00021F00701AC46ACE8C009ACE8C009ACE8D0
:1007D000C009ACE8C0098D46704710B50446AFF3B8
:1007E00000802046BDE81040FFF780BD00487047FC
:1007F000E404022000BFFEE710B500BF00BF00BF49
:1008000000BF00BFBFF34F8F00BF00BF00BF00BFDE
:1008100000BF00BFBFF36F8F00BF00BF00BF00204D
:10082000114908601148006840F400300F49086021
:1008300000BF00BF00BFBFF34F8F00BF00BF00BFAE
:1008400000BF00BF00BFBFF36F8F00BF00BF00BF7E
:1008500000BF04F09BFD04484C30006840F00400E9
:1008600001494C31086010BD50EF00E014ED00E08C
:100870007047000070B504461D460023B5F5804F53
:1008800013D154F822300C480340D1E9000640EA65
:1008900006108E6840EA06208E8940EA06408E697E
:1008A0003043034344F8223003E06FF0704044F8D3
:1008B0002200002070BD00000000F0CF10B50246FD
:1008C0000023086852F820301B480340D1E9010496
:1008D0002043CC6820430C6920434C6920438C6939
:1008E0002043CC6920430C6A20434C6A20438C6A25
:1008F0002043CC6A20430C6B20438C6B20434C6B11
:10090000204303438868082801D143F04003086866
:1009100042F82030086BB0F5801F05D1086818B187
:1009200010680C6B20431060086818B110684C6B9D
:1009300020431060002010BD8004C0FF30B5034686
:1009400014460022601C53F8202002F04042D1E9F6
:10095000000540EA05108D6840EA05208D8940EACF
:100960000545088A401E45EA0055087D801E45EA77
:1009700000608D6928430243601C43F820201868FA
:1009800000F4801038B1586820F47002088A401EC4
:1009900042EA00525A60002030BD000070B50446A3
:1009A00000255AE00121374800F08EF9002854D183
:1009B000002633E001220221324800F08DF90421A3
:1009C000304800F081F92168084420602068400028
:1009D000206008212B4800F077F9616808446060C6
:1009E0006068400060601021264800F06DF9A16841
:1009F0000844A060A0684000A0602021214800F0C9
:100A000063F9E1680844E060E0684000E0600022CB
:100A100002211C4800F060F9701CC6B2172EC9DB19
:100A20000421184800F050F921680844206008218A
:100A3000144800F049F961680844606010211148C9
:100A400000F042F9A1680844A06020210D4800F0A0
:100A50003BF9E1680844E06000E0A3E700BF00253F
:100A60000DE054F82500C043401C44F8250054F81C
:100A7000250020F07F4044F82500681CC5B2042DF5
:100A8000EFDB70BD00140240014691F835000228EA
:100A900003D08020486501207047052081F835008B
:100AA0000868006820F001000A6810600020F3E781
:100AB000F8B502460B46002100250024002000BFA7
:100AC000E4E0012606FA01F51E6806EA0504AC42D8
:100AD00071D15E68022E02D05E68122E13D1CF084B
:100AE00002F1200656F827004E07F70E0F26BE40EB
:100AF000B0434F07FF0E1E69BE403043CF0802F1DE
:100B0000200646F8270010684F000326BE40B04379
:100B10001E7906F003064F00BE40304310605E6849
:100B2000012E08D05E68022E05D05E68112E02D01C
:100B30005E68122E13D190684F000326BE40B0436A
:100B40004F00DE68BE4030439060506801268E4002
:100B5000B0431E79C6F300168E4030435060D06813
:100B60004F000326BE40B0434F009E68BE40304356
:100B7000D0605E6806F08056B6F1805FA8D100BFF5
:100B8000444E366846F48046424F3E603E463668E4
:100B900006F48046009600BF00BF3F4E8F0856F80F
:100BA00027008E07370F0F26BE40B0433B4EB242A0
:100BB00002D100262EE068E0394EB24201D1012672
:100BC00028E0384EB24201D1022623E0364EB2422E
:100BD00001D103261EE0354EB24201D1042619E0B0
:100BE000334EB24201D1052614E0324EB24201D159
:100BF00006260FE0304EB24201D107260AE02F4E02
:100C0000B24201D1082605E02D4EB24201D109269B
:100C100000E00A268F073F0FBE4030431E4E8F086C
:100C200046F82700274E3068A0435E6806F48036F9
:100C3000B6F5803F00D12043224E3060361D30682B
:100C4000A0435E6806F40036B6F5003F00D12043AD
:100C50001C4E361D3060361D3068A0435E6806F4B9
:100C60008016B6F5801F00D12043164E083630603E
:100C7000361D3068A0435E6806F40016B6F5001F06
:100C800000D120430F4E0C363060491C1029FFF470
:100C900018AFF8BD44380240083801400000024057
:100CA0000004024000080240000C02400010024014
:100CB0000014024000180240001C024000200240C4
:100CC00000240240003C0140024613690B400BB176
:100CD000012000E0002070470AB1816101E00B04AF
:100CE00083617047014800687047000004000220DB
:100CF00002480068401C0149086070470400022057
:100D000010B50848006840F40070064908600520E6
:100D100000F008F90F2000F007F800F0B7F8002005
:100D200010BD0000003C024070B504460748006852
:100D30004FF47A71B0FBF1F5284600F0A9FD0022CE
:100D40002146501E00F0B0F8002070BD00000220C7
:100D50002DE9F04104460E461746984600BF94F828
:100D6000A000012802D10220BDE8F081012084F812
:100D7000A00000BF022084F8A10008EB880000EB6F
:100D8000C80104F1380000EB81052E60A86A3044E8
:100D90006860AF60E86A3844E86042462946204609
:100DA00004F0B2F901202168486284F8A10000BF74
:100DB000002084F8A00000BF00BFD5E72DE9F04176
:100DC00005460E461746984600BF95F8A000012834
:100DD00002D10220BDE8F081012085F8A00000BF0B
:100DE000022085F8A10008EB880000EBC80105F19E
:100DF000380000EB810400202060206830446060EF
:100E00000020A060A0683844E060A662E762424625
:100E10002146284604F078F901202968486285F8BF
:100E2000A10000BF002085F8A00000BF00BFD1E7EF
:100E30004178154A11600178F9B1121D41681160BD
:100E4000017B0907C27A41EA0261827A41EAC24122
:100E5000427B41EA8241827B41EA4241C27B41EAD4
:100E60000241427A41EA0221027A41EA42010278D1
:100E70001143054A0832116005E00021024A121DA3
:100E80001160121D1160704798ED00E0704700BFBF
:100E900000F01F02012191404209920002F1E0227C
:100EA000C2F8001100BF70472DE9F05F80460D4683
:100EB0001646002704F04CFA074639462A463346C0
:100EC00001F00700C0F1070ABAF1040F02D94FF090
:100ED000040A01E0C0F1070AD14600F1040ABAF1A0
:100EE000070F02D24FF0000A01E0A0F1030AD44636
:100EF0004FF0010A0AFA09FAAAF1010A0AEA020AFB
:100F00000AFA0CFA4FF0010B0BFA0CFBABF1010BD8
:100F10000BEA030B4AEA0B042146404604F020FA90
:100F2000BDE8F09F00BF00F00702064B19684FF6BE
:100F3000FF031940044B0B4343EA0221014B1960A4
:100F400000BF70470CED00E00000FA0538B5002442
:100F500000BF2048006840F080501E4908600846E5
:100F6000006800F08050009000BF00BF1A48006881
:100F700040F4803018490860FFF7B4FE044607E0EB
:100F8000FFF7B0FE001BB0F57A7F01D9032038BD12
:100F90001148406800F48030B0F5803FF0D10E4831
:100FA000006840F400300C490860FFF79BFE0446DF
:100FB00007E0FFF797FE001BB0F57A7F01D9032009
:100FC000E5E70548406800F40030B0F5003FF0D197
:100FD0000020DCE7403802400070004070B5044655
:100FE0000D4600266648006800F00F00A8420ED2A9
:100FF0006348006820F00F002843614908600846F4
:10100000006800F00F00A84201D0012070BD2078D8
:1010100000F00200022807D15A48006820F0F000D2
:10102000A168084357490860207800F001000028B3
:1010300060D06068012807D1524808380068C0F3C2
:101040004040A0B90120E1E76068022807D14D487F
:1010500008380068C0F3406048B90120D6E7494825
:1010600008380068C0F3400008B90120CEE74548C1
:10107000006820F003006168084342490860FFF7F8
:1010800031FE06466068012810D108E0FFF72AFE0D
:10109000801B41F28831884201D90320B6E73948E4
:1010A000006800F00C000428F0D123E060680228FA
:1010B00010D108E0FFF716FE801B41F2883188420C
:1010C00001D90320A2E72F48006800F00C0008288F
:1010D000F0D10FE008E0FFF705FE801B41F28831F8
:1010E000884201D9032091E72648006800F00C00EF
:1010F0000028F0D12248006800F00F00A8420ED965
:101100001F48006820F00F0028431D49086008466A
:10111000006800F00F00A84201D0012076E7207897
:1011200000F00400042807D11648006820F4E050BD
:10113000E168084313490860207800F00800082897
:1011400008D11048006820F46040216940EAC100DD
:101150000C49086000F04EF80A49096801F0F001F6
:10116000F02292FAA2F2B2FA82F2D140064A515C1F
:10117000C840064908600F20FFF7D6FD002045E76C
:10118000003C024008380240EA72000800000220D9
:1011900001480068704700000000022000B5FFF71A
:1011A000F7FF0749096801F4E0514FF4E05292FA61
:1011B000A2F2B2FA82F2D140024A515CC84000BDAC
:1011C00008380240FA72000800B5FFF7E1FF07494E
:1011D000096801F460414FF4604292FAA2F2B2FA57
:1011E00082F2D140024A515CC84000BD083802403A
:1011F000FA72000870B50021002200230020274C5D
:10120000246804F00C0424B1042C04D0082C41D12F
:1012100003E0234840E023483EE0204C241F24689C
:1012200004F03F011D4C241F246804F4800484B1A1
:101230001C4CB4FBF1F5194C241F246847F6C0760A
:10124000344096FAA6F6B6FA86F6F44005FB04F2A8
:101250000FE0134CB4FBF1F5104C241F246847F643
:10126000C076344096FAA6F6B6FA86F6F44005FB48
:1012700004F20A4C241F246804F440344FF440352F
:1012800095FAA5F5B5FA85F5EC40641C6300B2FB50
:10129000F3F001E0024800BF00BF70BD0838024013
:1012A0000024F40040787D0138B5044600252078FC
:1012B00000F00100002871D0FE48006800F00C002A
:1012C00004280DD0FB48006800F00C00082813D15A
:1012D000F848001F006800F48000B0F5800F0BD1C3
:1012E000F44808380068C0F34040002869D06068BE
:1012F000002866D1012038BD00BF6068B0F5803F8E
:1013000008D1EC480838006840F48030E9490839D1
:1013100008602EE0606868B9E6480838006820F484
:101320008030E449083908600846006820F48020CD
:1013300008601EE06068B0F5A02F0DD1DD480838C8
:10134000006840F48020DB490839086008460068DE
:1013500040F4803008600CE0D6480838006820F47B
:101360008030D449083908600846006820F480209D
:10137000086000BF606890B1FFF7B4FC054606E066
:10138000FFF7B0FC401B642801D90320B3E7C9482C
:1013900008380068C0F340400028F1D011E0FFF7A2
:1013A000A1FC054606E0FFF79DFC401B642801D91F
:1013B0000320A0E7BF4808380068C0F34040002879
:1013C000F1D1207800F00200022873D1B9480068FA
:1013D00000F00C0058B1B748006800F00C00082875
:1013E00021D1B448001F006800F48000D8B9B1488A
:1013F00008380068C0F3400020B1E068012801D03F
:10140000012078E7AB480838006820F0F800F8229F
:1014100092FAA2F2B2FA82F2216991400843A549F8
:101420000839086046E0E06850B3A2480838006810
:1014300040F001009F4908390860FFF753FC05465A
:1014400006E0FFF74FFC401B022801D9032052E7BA
:10145000984808380068C0F340000028F1D095484B
:101460000838006820F0F800F82292FAA2F2B2FAE6
:1014700082F22169914008438E490839086019E0D9
:101480008C480838006820F001008A490839086053
:10149000FFF728FC054606E0FFF724FC401B022866
:1014A00001D9032027E7834808380068C0F34000CB
:1014B0000028F1D1207800F00800082836D16069B2
:1014C000D0B17C486C30006840F0010079496C3143
:1014D0000860FFF707FC054606E0FFF703FC401B2A
:1014E000022801D9032006E772486C300068C0F377
:1014F00040000028F1D019E06E486C30006820F000
:1015000001006C496C310860FFF7ECFB054606E012
:10151000FFF7E8FB401B022801D90320EBE66548F2
:101520006C300068C0F340000028F1D1207800F052
:101530000400042871D100BF5E483830006840F0D4
:1015400080505C49383108600846006800F08050DF
:10155000009000BF00BF5848006840F480705649B2
:101560000860FFF7BFFB054606E0FFF7BBFB401B2B
:10157000642801D90320BEE64F48006800F480705B
:101580000028F2D000BFA068012808D1494868307F
:10159000006840F001004749683108602DE0A0680C
:1015A00068B944486830006820F00100414968315A
:1015B00008600846006820F0040008601DE0A0688C
:1015C00005280DD13B486830006840F004003949D7
:1015D000683108600846006840F0010008600CE0CF
:1015E00034486830006820F00100324968310860F2
:1015F0000846006820F00400086000BFA068A8B199
:10160000FFF770FB054609E0FFF76CFB401B41F25A
:101610008831884202D903206DE61BE025486830F6
:101620000068C0F340000028EED013E0FFF75AFB3B
:10163000054608E0FFF756FB401B41F2883188421F
:1016400001D9032057E61B4868300068C0F340000A
:101650000028EFD1A06988B31648006800F00C009C
:10166000082873D0A069022864D11248083800689D
:1016700020F080700F4908390860FFF733FB0546FA
:1016800006E0FFF72FFB401B022801D9032032E6BA
:10169000084808380068C0F340600028F1D1D4E958
:1016A0000701084347F6C07292FAA2F2B2FA82F238
:1016B000616A04E0083802400070004058E0914040
:1016C00008430122A16AC2EB51014FF4403292FA61
:1016D000A2F2B2FA82F2914008434FF0706292FA9D
:1016E000A2F2B2FA82F2E16A914008434FF0E0427E
:1016F00092FAA2F2B2FA82F2216B914008431D499C
:101700000860081F006840F08070091F0860FFF73C
:10171000E9FA054606E0FFF7E5FA401B022801D981
:101720000320E8E51348001F0068C0F3406000286C
:10173000F1D01DE00F48001F006820F080700D49B7
:10174000091F0860FFF7CEFA054607E00EE0FFF735
:10175000C9FA401B022801D90320CCE50548001F27
:101760000068C0F340600028F1D101E00120C2E52B
:101770000020C0E50438024070B504460E46154608
:101780000CB9012070BD94F8450028B9002084F8F8
:101790004400204600F01CF804F108012068FFF71F
:1017A0008DF83146A2682068FFF7C8F82946E36A39
:1017B000D4E90102FFF75EF8A168206850F8210023
:1017C00040F00100A268216841F822000020D9E71A
:1017D00010B586B0044600BF2048006840F0010004
:1017E0001E4908600846006800F00100009000BF34
:1017F00000BF00BF19480838006840F008001749CA
:10180000083908600846006800F00800009000BF32
:1018100000BF00BF0846006840F01000086008469E
:10182000006800F01000009000BF00BF4EF2B370DF
:1018300001900220029001200390032004900C20CC
:10184000059001A90648FFF733F94FF68070019023
:1018500001A90448FFF72CF906B010BD3838024042
:10186000000C024000100240042808D14FF0E02193
:10187000096941F004014FF0E022116107E04FF0E7
:10188000E021096921F004014FF0E0221161704765
:1018900070B504462546681EB0F1807F01D3012053
:1018A0000FE0681E4FF0E02148610F214FF0FF303C
:1018B00003F056FD00204FF0E02188610720086109
:1018C000002070BD10B504460CB9012010BD94F87D
:1018D000390010B9204600F00CF8022084F83900D5
:1018E000211D206803F094FE012084F839000020B7
:1018F000ECE7704701460868C06840F001000A68DC
:10190000D0600868006840F001000A68106000209C
:10191000704770472DE9F04104462068C56920688A
:1019200006682068876805F00F08B8F1000F0AD133
:1019300005F0200038B106F0200020B1204603F069
:10194000E2FFBDE8F081B8F1000F79D040F201105C
:101950003840002874D005F0010048B106F48070CA
:1019600030B1012021680862E06E40F00100E066BD
:1019700005F0020048B107F0010030B102202168F3
:101980000862E06E40F00400E06605F0040048B133
:1019900007F0010030B1042021680862E06E40F0D9
:1019A0000200E06605F0080060B106F0200010B902
:1019B00007F0010030B1082021680862E06E40F0B5
:1019C0000800E066E06E58B305F0200028B106F08C
:1019D000200010B1204603F096FFE06E00F00800F2
:1019E00020B92068806800F0400018B3204603F05A
:1019F0006AFF2068806800F04000B8B12068806805
:101A000020F0400021688860606E50B11748616E18
:101A10000865606EFFF738F810B1606E016D884799
:101A20000DE02046FFF775FF09E009E02046FFF7CB
:101A300070FF04E02046FFF76CFF0020E06680E7BF
:101A400005F0800030B106F0800018B1204604F0A7
:101A500065F976E705F0400030B106F0400018B1B6
:101A6000204603F040FF6CE700BF6AE7AF5800086C
:101A700010B504460CB9012010BDA06900B100E00A
:101A800000BF94F8690028B9002084F86800204657
:101A900000F02AF8242084F869002068006820F00B
:101AA000010021680860204603F072FF012800D180
:101AB000E2E7606A10B1204603F04AFE2068406801
:101AC00020F49040216848602068806820F02A0057
:101AD000216888602068006840F001002168086083
:101AE000204603F0AAFEC7E710B586B00446234996
:101AF0002068884240D100BF2148006840F00100C2
:101B00001F4908600846006800F00100009000BF0F
:101B100000BF00BF1A481430006840F01000184998
:101B2000143108600846006800F01000009000BF03
:101B300000BF48150190022002900120039002206E
:101B400004900720059001A90E48FEF7B1FF4FF45D
:101B50008060019001A90B48FEF7AAFF2068006889
:101B600040F02000216808602520FFF790F903224B
:101B700011462520FFF798F906B010BD001001406E
:101B800030380240000002402DE9F84F04460D466F
:101B9000164699464FF0000A94F86A0020287AD138
:101BA00005B116B90120BDE8F88F00BF94F86800B0
:101BB000012801D10220F6E7012084F8680000BF67
:101BC0000020583460612220A074FFF78BF8824611
:101BD00026806680583C00BFA068B0F5805F0AD1BF
:101BE000206920B940F2FF10A4F85C001CE0FF203F
:101BF000A4F85C0018E0A06848B9206918B9FF2073
:101C0000A4F85C0010E07F20A4F85C000CE0A06861
:101C1000B0F1805F08D1206918B97F20A4F85C007A
:101C200002E03F20A4F85C0000BFB4F85C8024E030
:101C3000B4F85A00401EA4F85A005346002220214E
:101C40002046CDF8009004F09EF808B10320AAE7E2
:101C5000A068B0F5805F09D1206938B92F462068A7
:101C6000406A00EA08003880AD1C06E02068406A3F
:101C700008F0FF01084005F8010BB4F85A000028ED
:101C8000D6D1202084F86A0000BF002084F86800C4
:101C900000BF88E7FFE7022085E77047704700BF75
:101CA000FEE7000070B50446002609480588408814
:101CB00045430021084602F085FE03F0B1F800BF5D
:101CC00002E004490C80761CAE42FAD370BD0000DD
:101CD000780302200000086010B50446002C52D1A1
:101CE00054498871F02008804FF4A070488008465D
:101CF000808849F24131884205D04E48808845F2BB
:101D00001031884214D12C204A4908812A20488168
:101D10002B2088810846808845F21031884206D100
:101D20004FF4A070434908804FF4F07048807DE084
:101D30004048808845F21051884210D14FF430500D
:101D40003C4908814FF4285048814FF42C50888139
:101D50004FF4F07008804FF44870488066E03548D2
:101D6000808841F66311884260D12C203149088176
:101D70002B2048812A2088814FF4F07008804FF48E
:101D80004870488052E001202A4988714FF4A070C1
:101D90000880F02048800846808849F24131884216
:101DA00005D02448808845F21031884207D12C2084
:101DB000204908812A2048812B20888129E01D485C
:101DC000808845F21051884210D14FF430501949A3
:101DD00008814FF4285048814FF42C5088814FF4EB
:101DE000487008804FF4F070488012E011488088F5
:101DF00041F6631188420CD12C200E4908812A201B
:101E000048812B2088814FF4487008804FF4F0708F
:101E100048800848808845F21031884206D14FF446
:101E2000F070044908804FF4A0704880002002F050
:101E30008FFC10BD780302202DE9FF4F84B081464E
:101E40008A460020039002900698A0EB09050798A7
:101E5000A0EB0A06CDF80490CDF800A0002D01DD1E
:101E6000012705E00DB9002702E04FF0FF376D4272
:101E7000002E02DD4FF0010806E016B94FF0000811
:101E800002E04FF0FF387642B54201DD2C4600E01B
:101E900034464FF0000B21E0009A91B2019A90B2C3
:101EA00000F022F8039828440390029830440290EE
:101EB0000398A04205DD0398001B03900198384465
:101EC00001900298A04205DD0298001B0290009844
:101ED000404400900BF101001FFA80FB601C834519
:101EE000DADD08B0BDE8F08F30B504460D4629466E
:101EF000204602F067FD02F093FF02480088024985
:101F0000088030BD1400022000000860F0B50446CF
:101F10000D4616461F462B46324629462046FFF7F9
:101F20008BFF3B46224629462046FFF785FF3B466E
:101F3000324639462046FFF77FFF3B463246294668
:101F40003046FFF779FFF0BD2DE9F04306460F4616
:101F50009046002445460320A0EB48093CE07A1B4C
:101F600091B2321990B2FFF7BFFF3A1B91B27219CA
:101F700090B2FFF7B9FF3A1991B2721990B2FFF718
:101F8000B3FF7A1991B2321990B2FFF7ADFF7A1907
:101F900091B2321B90B2FFF7A7FF3A1991B2721BB0
:101FA00090B2FFF7A1FF7A1B91B2321B90B2FFF7FC
:101FB0009BFF3A1B91B2721B90B2FFF795FF641C16
:101FC000B9F1000F03DAA000801D814404E0601B1A
:101FD00080000A3081446D1EAC42C0DDBDE8F08354
:101FE00030B504460D463E48808849F2413188426A
:101FF00005D03B48808845F21031884214D13849D9
:10200000488902F001FF201202F0F2FEE0B202F075
:10201000EFFE3349888902F0F7FE281202F0E8FE4D
:10202000E8B202F0E5FE54E02D48808845F21051F8
:10203000884220D12A49488902F0E6FE201202F0A7
:10204000D7FE27494989491C88B202F0DDFEE0B27B
:1020500002F0CEFE2249888902F0D6FE281202F054
:10206000C7FE1F498989491C88B202F0CDFEE8B23B
:1020700002F0BEFE2DE01A48808841F663118842C6
:1020800027D11748807920B915480088401E001BC9
:1020900084B21349488902F0B7FE201202F0A8FE6C
:1020A000E0B202F0A5FE201202F0A2FEE0B202F0C1
:1020B0009FFE0B49888902F0A7FE281202F098FEC5
:1020C000E8B202F095FE281202F092FEE8B202F0A9
:1020D0008FFE0348008903490880891C0A8030BDAF
:1020E00078030220FEFF07602DE9F04F05460E46FB
:1020F00017469846DDF824A04FF0000B781B401CD3
:102100001FFA80FB344613E02146284602F05AFCB1
:1021100002F086FE4FF0000906E00749A1F800A092
:1021200009F101001FFA80F9D945F6DB601C84B281
:102130004445E9DDBDE8F08F0000086000B595B0CA
:1021400000BFFE48006840F00800FC4908600846EF
:10215000006800F00800019000BF00BFC814109094
:102160000120119012900320139010A9F448FEF75B
:102170009FFC02F011FA4FF02040F2490860F2484B
:102180004860002088600021EE48C1600161102194
:102190004161090241628900C1620F20099000205B
:1021A0000A9050200B9000200F900F2002900020EA
:1021B00003900F2004900020089002AA09A9E1488A
:1021C000FFF7DAFA322003F07BFED32002F01CFE88
:1021D00002F030FADD49888002F02CFADB49888071
:1021E00002F028FAD9498880084680884FF6FF71A6
:1021F00001EA0020D549888002F01CFAD349898879
:102200000843D24988800846808849F24131884293
:1022100078D0D42002F0F8FD02F00CFACB49888087
:1022200002F008FAC949888002F004FAC749888098
:10223000084680884FF6FF7101EA0020C349888074
:1022400002F0F8F9C14989880843C04988800846E6
:10225000808845F21031884254D04FF45A4002F041
:10226000D3FD02F0E7F9B94988804FF45B4002F0F2
:10227000CBFD02F0DFF9B5498880084680884FF62B
:10228000FF7101EA0020B14988804FF45C4002F000
:10229000BBFD02F0CFF9AD4989880843AB4988807E
:1022A00008468088B0F5004F02D145F21050888072
:1022B000A648808845F21051884223D0A12002F020
:1022C000A3FD02F0B7F9A149888002F0B3F99F4954
:1022D0008880084680884FF6FF7101EA00209B49FC
:1022E000888002F0A7F9994989880843974988802E
:1022F0000846808845F26171884203D141F6631037
:10230000924988809148818891A0FEF717F88F48FC
:10231000808849F2413188427ED1CF2002F074FD9D
:10232000002002F065FDC12002F062FD302002F0C5
:102330005FFDED2002F068FD642002F059FD0320EE
:1023400002F056FD122002F053FD812002F050FDF4
:10235000E82002F059FD852002F04AFD102002F02D
:1023600047FD7A2002F044FDCB2002F04DFD3920DC
:1023700002F03EFD2C2002F03BFD002002F038FD73
:10238000342002F035FD022002F032FDF72002F089
:102390003BFD202002F02CFDEA2002F035FD00205C
:1023A00002F026FD002002F023FDC02002F02CFDEB
:1023B0001B2002F01DFDC12002F026FD012002F0CD
:1023C00017FDC52002F020FD302002F011FD302065
:1023D00002F00EFDC72002F017FDB72002F008FD45
:1023E000362002F011FD482002F002FD3A2002F0F2
:1023F0000BFD552002F0FCFCB12002F005FD002091
:1024000002F0F6FC1A2002F0F3FCB62002F0FCFC0D
:102410000A2002F0EDFC00E0AAE0A22002F0E8FCB5
:10242000F22002F0F1FC002002F0E2FC262002F093
:10243000EBFC012002F0DCFCE02002F0E5FC0F20C8
:1024400002F0D6FC2A2002F0D3FC282002F0D0FCB7
:10245000082002F0CDFC0E2002F0CAFC082002F099
:10246000C7FC542002F0C4FCA92002F0C1FC4320A8
:1024700002F0BEFC0A2002F0BBFC0F2002F0B8FC08
:10248000002002F0B5FC002002F0B2FC002002F0B7
:10249000AFFC002002F0ACFCE12002F0B5FC002013
:1024A00002F0A6FC152002F0A3FC172002F0A0FC0D
:1024B000072002F09DFC112002F09AFC062002F099
:1024C00097FC2B2002F094FC562002F091FC3C205B
:1024D00002F08EFC052002F08BFC102002F088FC3C
:1024E0000F2002F085FC3F2002F082FC3F2002F02A
:1024F0007FFC0F2002F07CFC2B2002F085FC0020EA
:1025000002F076FC002002F073FC012002F070FC67
:102510003F2002F06DFC2A2002F076FC002002F041
:1025200067FC002002F064FC002002F061FCEF2058
:1025300002F05EFC112002F067FC11E0303802402E
:10254000000C02402C030220040100A078030220AA
:10255000204C43442049443A25780D0A00000000ED
:10256000782003F0ADFC292002F04EFC01F0CBBF37
:10257000FE48808845F21031884240F07C87ED208B
:1025800002F042FC012002F033FCFE2002F030FC9D
:10259000EE2002F039FCDE2002F02AFC212002F0BD
:1025A00027FCF12002F030FC012002F021FCDF20AA
:1025B00002F02AFC102002F01BFCC42002F024FCD4
:1025C0008F2002F015FCC62002F01EFC002002F055
:1025D0000FFCE22002F00CFCE22002F009FCE220F9
:1025E00002F006FCBF2002F00FFCAA2002F000FC63
:1025F000B02002F009FC0D2002F0FAFB002002F0EE
:10260000F7FB0D2002F0F4FB002002F0F1FB11209B
:1026100002F0EEFB002002F0EBFB192002F0E8FBD9
:10262000002002F0E5FB212002F0E2FB002002F096
:10263000DFFB2D2002F0DCFB002002F0D9FB3D2067
:1026400002F0D6FB002002F0D3FB5D2002F0D0FBAD
:10265000002002F0CDFB5D2002F0CAFB002002F05A
:10266000C7FBB12002F0D0FB802002F0C1FB0020AC
:1026700002F0BEFB8B2002F0BBFB002002F0B8FB97
:10268000962002F0B5FB002002F0B2FBB22002F06F
:10269000BBFB002002F0ACFB002002F0A9FB0220F3
:1026A00002F0A6FB002002F0A3FB032002F0A0FB37
:1026B000002002F09DFBB32002F0A6FB002002F0F8
:1026C00097FB002002F094FB002002F091FB002019
:1026D00002F08EFB002002F08BFB002002F088FB52
:1026E000002002F085FB002002F082FB002002F0B7
:1026F0007FFB002002F07CFB002002F079FB002031
:1027000002F076FB002002F073FB002002F070FB69
:10271000002002F06DFB002002F06AFB002002F0B6
:1027200067FB002002F064FB002002F061FB002048
:1027300002F05EFB002002F05BFB002002F058FB81
:10274000002002F055FB002002F052FBB42002F002
:102750005BFB8B2002F04CFB002002F049FB962033
:1027600002F046FB002002F043FBA12002F040FBF8
:10277000002002F03DFBB52002F046FB022002F0F3
:1027800037FB002002F034FB032002F031FB002075
:1027900002F02EFB042002F02BFB002002F028FBAD
:1027A000B62002F031FB002002F022FB002002F0F4
:1027B0001FFBB72002F028FB002002F019FB0020CD
:1027C00002F016FB3F2002F013FB002002F010FB8A
:1027D0005E2002F00DFB002002F00AFB642002F0F4
:1027E00007FB002002F004FB8C2002F001FB00201C
:1027F00002F0FEFAAC2002F0FBFA002002F0F8FA38
:10280000DC2002F0F5FA002002F0F2FA702002F06B
:10281000EFFA002002F0ECFA902002F0E9FA002032
:1028200002F0E6FAEB2002F0E3FA002002F0E0FA10
:10283000DC2002F0DDFA002002F0DAFAB82002F023
:10284000E3FA002002F0D4FA002002F0D1FA0020CE
:1028500002F0CEFA002002F0CBFA002002F0C8FA13
:10286000002002F0C5FA002002F0C2FA002002F0B7
:10287000BFFABA2002F0C8FA242002F0B9FA002008
:1028800002F0B6FA002002F0B3FA002002F0B0FA2B
:10289000C12002F0B9FA202002F0AAFA002002F0CA
:1028A000A7FA542002F0A4FA002002F0A1FAFF20B7
:1028B00002F09EFA002002F09BFAC22002F0A4FA75
:1028C0000A2002F095FA002002F092FA042002F0A9
:1028D0008FFA002002F08CFAC32002F095FA3C2017
:1028E00002F086FA002002F083FA3A2002F080FA21
:1028F000002002F07DFA392002F07AFA002002F07E
:1029000077FA372002F074FA002002F071FA3C20C6
:1029100002F06EFA002002F06BFA362002F068FA3C
:10292000002002F065FA322002F062FA002002F084
:102930005FFA2F2002F05CFA002002F059FA2C20F6
:1029400002F056FA002002F053FA292002F050FA61
:10295000002002F04DFA262002F04AFA002002F090
:1029600047FA242002F044FA002001E07803022014
:1029700002F03EFA242002F03BFA002002F038FA7E
:10298000232002F035FA002002F032FA3C2002F057
:102990002FFA002002F02CFA362002F029FA00204B
:1029A00002F026FA322002F023FA002002F020FA88
:1029B0002F2002F01DFA002002F01AFA2C2002F05B
:1029C00017FA002002F014FA292002F011FA002070
:1029D00002F00EFA262002F00BFA002002F008FAAC
:1029E000242002F005FA002002F002FA242002F06E
:1029F000FFF9002002F0FCF9232002F0F9F9002091
:102A000002F0F6F9C42002F0FFF9622002F0F0F9BA
:102A1000002002F0EDF9052002F0EAF9002002F0B2
:102A2000E7F9842002F0E4F9002002F0E1F9F02057
:102A300002F0DEF9002002F0DBF9182002F0D8F9EC
:102A4000002002F0D5F9A42002F0D2F9002002F013
:102A5000CFF9182002F0CCF9002002F0C9F950207B
:102A600002F0C6F9002002F0C3F90C2002F0C0F910
:102A7000002002F0BDF9172002F0BAF9002002F0A0
:102A8000B7F9952002F0B4F9002002F0B1F9F32073
:102A900002F0AEF9002002F0ABF9E62002F0A8F94E
:102AA000002002F0A5F9C52002F0AEF9322002F0B4
:102AB0009FF9002002F09CF9442002F099F90020CF
:102AC00002F096F9652002F093F9002002F090F9E7
:102AD000762002F08DF9002002F08AF9882002F0B9
:102AE00087F9002002F084F9C62002F08DF9202039
:102AF00002F07EF9002002F07BF9172002F078F94D
:102B0000002002F075F9012002F072F9002002F0B5
:102B10006FF9C72002F078F9002002F069F900206F
:102B200002F066F9002002F063F9002002F060F97B
:102B3000C82002F069F9002002F05AF9002002F0E2
:102B400057F9002002F054F9002002F051F9C92091
:102B500002F05AF9002002F04BF9002002F048F987
:102B6000002002F045F9002002F042F9002002F0B6
:102B70003FF9002002F03CF9002002F039F9002072
:102B800002F036F9002002F033F9002002F030F9AB
:102B9000002002F02DF9002002F02AF9002002F0B6
:102BA00027F9002002F024F9002002F021F900208A
:102BB00002F01EF9E02002F027F9162002F018F9C1
:102BC000002002F015F91C2002F012F9002002F09A
:102BD0000FF9212002F00CF9002002F009F936204B
:102BE00002F006F9002002F003F9462002F000F995
:102BF000002002F0FDF8522002F0FAF8002002F066
:102C0000F7F8642002F0F4F8002002F0F1F87A20DE
:102C100002F0EEF8002002F0EBF88B2002F0E8F86A
:102C2000002002F0E5F8992002F0E2F8002002F01E
:102C3000DFF8A82002F0DCF8002002F0D9F8B92073
:102C400002F0D6F8002002F0D3F8C42002F0D0F849
:102C5000002002F0CDF8CA2002F0CAF8002002F0ED
:102C6000C7F8D22002F0C4F8002002F0C1F8D92041
:102C700002F0BEF8002002F0BBF8E02002F0B8F845
:102C8000002002F0B5F8F32002F0B2F8002002F0C4
:102C9000AFF8E12002F0B8F8162002F0A9F8002001
:102CA00002F0A6F81C2002F0A3F8002002F0A0F821
:102CB000222002F09DF8002002F09AF8362002F05F
:102CC00097F8002002F094F8452002F091F80020D7
:102CD00002F08EF8522002F08BF8002002F088F803
:102CE000642002F085F8002002F082F87A2002F0D9
:102CF0007FF8002002F07CF88B2002F079F80020A9
:102D000002F076F8992002F073F8002002F070F8D3
:102D1000A82002F06DF8002002F06AF8B92002F055
:102D200067F8002002F064F8C42002F061F8002087
:102D300002F05EF8CA2002F05BF8002002F058F8BA
:102D4000D22002F055F8002002F052F8D82002F00C
:102D50004FF8002002F04CF8E02002F049F8002083
:102D600002F046F8F32002F043F8002002F040F8A9
:102D7000E22002F049F8052002F03AF8002002F0C3
:102D800037F80B2002F034F8002002F031F81B2055
:102D900002F02EF8002002F02BF8342002F028F880
:102DA000002002F025F8442002F022F8002002F072
:102DB0001FF84F2002F01CF8002002F019F86120E3
:102DC00002F016F8002002F013F8792002F010F853
:102DD000002002F00DF8882002F00AF8002002F02E
:102DE00007F8972002F004F8002002F001F8A6206E
:102DF00001F0FEFF002001F0FBFFB72001F0F8FF1B
:102E0000002001F0F5FFC22001F0F2FF002001F0E8
:102E1000EFFFC72001F0ECFF002001F0E9FFD12017
:102E200001F0E6FF002001F0E3FFD62001F0E0FF13
:102E3000002001F0DDFFDD2001F0DAFF002001F0CD
:102E4000D7FFF32001F0D4FF002001F0D1FFE320F1
:102E500001F0DAFF052001F0CBFF002001F0C8FFF0
:102E60000A2001F0C5FF002001F0C2FF1C2001F084
:102E7000BFFF002001F0BCFF332001F0B9FF0020AC
:102E800001F0B6FF442001F0B3FF002001F0B0FFD5
:102E9000502001F0ADFF002001F0AAFF622001F0F8
:102EA000A7FF002001F0A4FF782001F0A1FF00207F
:102EB00001F09EFF882001F09BFF002001F098FFA9
:102EC000972001F095FF002001F092FFA62001F06D
:102ED0008FFF002001F08CFFB72001F089FF002058
:102EE00001F086FFC22001F083FF002001F080FF87
:102EF000C72001F07DFF002001F07AFFD12001F012
:102F000077FF002001F074FFD52001F071FF002051
:102F100001F06EFFDD2001F06BFF002001F068FF83
:102F2000F32001F065FF002001F062FFE42001F0D2
:102F30006BFF012001F05CFF002001F059FF012030
:102F400001F056FF002001F053FF022001F050FF76
:102F5000002001F04DFF2A2001F04AFF002001F07F
:102F600047FF3C2001F044FF002001F041FF4B20CF
:102F700001F03EFF002001F03BFF5D2001F038FF33
:102F8000002001F035FF742001F032FF002001F035
:102F90002FFF842001F02CFF002001F029FF932057
:102FA00001F026FF002001F023FFA22001F020FF06
:102FB000002001F01DFFB32001F01AFF002001F0F6
:102FC00017FFBE2001F014FF002001F011FFC42004
:102FD00001F00EFF002001F00BFFCD2001F008FFF3
:102FE000002001F005FFD32001F002FF002001F0D6
:102FF000FFFEDD2001F0FCFE002001F0F9FEF320D1
:1030000001F0F6FE002001F0F3FEE52001F0FCFEE9
:10301000002001F0EDFE002001F0EAFE002001F0AA
:10302000E7FE002001F0E4FE022001F0E1FE0020B6
:1030300001F0DEFE292001F0DBFE002001F0D8FEC9
:103040003C2001F0D5FE002001F0D2FE4B2001F023
:10305000CFFE002001F0CCFE5D2001F0C9FE002073
:1030600001F0C6FE742001F0C3FE002001F0C0FE96
:10307000842001F0BDFE002001F0BAFE932001F093
:10308000B7FE002001F0B4FEA22001F0B1FE002046
:1030900001F0AEFEB32001F0ABFE002001F0A8FE6F
:1030A000BE2001F0A5FE002001F0A2FEC42001F028
:1030B0009FFE002001F09CFECD2001F099FE002033
:1030C00001F096FED32001F093FE002001F090FE67
:1030D000DC2001F08DFE002001F08AFEF32001F0DB
:1030E00087FE002001F084FEE62001F08DFE112015
:1030F00001F07EFE002001F07BFE342001F078FE1E
:10310000002001F075FE562001F072FE002001F053
:103110006FFE762001F06CFE002001F069FE772042
:1031200001F066FE002001F063FE662001F060FE03
:10313000002001F05DFE882001F05AFE002001F021
:1031400057FE992001F054FE002001F051FEBB20F3
:1031500001F04EFE002001F04BFE992001F048FEE8
:10316000002001F045FE662001F042FE002001F043
:103170003FFE552001F03CFE002001F039FE5520B5
:1031800001F036FE002001F033FE452001F030FE54
:10319000002001F02DFE432001F02AFE002001F066
:1031A00027FE442001F024FE002001F021FEE7204C
:1031B00001F02AFE322001F01BFE002001F018FE73
:1031C000552001F015FE002001F012FE762001F0DE
:1031D0000FFE002001F00CFE662001F009FE002029
:1031E00001F006FE672001F003FE002001F000FE62
:1031F000672001F0FDFD002001F0FAFD872001F0BD
:10320000F7FD002001F0F4FD992001F0F1FD002010
:1032100001F0EEFDBB2001F0EBFD002001F0E8FD28
:10322000992001F0E5FD002001F0E2FD772001F09A
:10323000DFFD002001F0DCFD442001F0D9FD00207D
:1032400001F0D6FD562001F0D3FD002001F0D0FDA5
:10325000232001F0CDFD002001F0CAFD332001F054
:10326000C7FD002001F0C4FD452001F0C1FD002094
:1032700001F0BEFDE82001F0C7FD002001F0B8FD1F
:10328000002001F0B5FD992001F0B2FD002001F011
:10329000AFFD872001F0ACFD002001F0A9FD8820E2
:1032A00001F0A6FD002001F0A3FD772001F0A0FDB4
:1032B000002001F09DFD662001F09AFD002001F044
:1032C00097FD882001F094FD002001F091FDAA20D7
:1032D00001F08EFD002001F08BFDBB2001F088FD88
:1032E000002001F085FD992001F082FD002001F011
:1032F0007FFD662001F07CFD002001F079FD552066
:1033000001F076FD002001F073FD552001F070FD05
:10331000002001F06DFD442001F06AFD002001F065
:1033200067FD442001F064FD002001F061FD55209F
:1033300001F05EFD002001F05BFDE92001F064FD7D
:10334000AA2001F055FD002001F052FD002001F0FF
:103350004FFD002001F04CFD002001F055FDAA209A
:1033600001F046FDCF2001F04FFD002001F040FDAF
:10337000002001F03DFD002001F03AFD002001F0A9
:1033800037FD002001F034FD002001F031FD002068
:1033900001F02EFD002001F02BFD002001F028FDA2
:1033A000002001F025FD002001F022FD002001F0A9
:1033B0001FFD002001F01CFD002001F019FD002080
:1033C00001F016FD002001F013FD002001F010FDBA
:1033D000F02001F019FD002001F00AFD502001F05D
:1033E00007FD002001F004FD002001F001FD002098
:1033F00001F0FEFCF32001F007FD002001F0F8FCD5
:10340000F92001F001FD062001F0F2FC102001F08E
:10341000EFFC292001F0ECFC002001F0E9FC3A204F
:1034200001F0F2FC552001F0E3FC112001F0ECFC6E
:10343000642002F045FD292001F0E6FC352001F072
:10344000E3FC002001F0D4FC512001F0DDFCFF2062
:1034500001F0CEFC532001F0D7FC2C2001F0C8FC79
:10346000552001F0D1FC822001F0C2FC2C2001F09B
:10347000CBFC01F048B8FE48808845F210518842E4
:103480007ED155214FF4704001F0D4FCAA214FF2B7
:10349000010001F0CFFC52214FF2020001F0CAFC02
:1034A00008214FF2030001F0C5FC01214FF2040096
:1034B00001F0C0FC0D214FF4304001F0BBFC0D21A8
:1034C0004BF2010001F0B6FC0D214BF2020001F0BD
:1034D000B1FC34214FF4364001F0ACFC34214BF206
:1034E000016001F0A7FC34214BF2026001F0A2FC64
:1034F0000D214FF4314001F09DFC0D214BF20110E4
:1035000001F098FC0D214BF2021001F093FC3421E4
:103510004FF4374001F08EFC34214BF2017001F082
:1035200089FC34214BF2027001F084FC00214FF43D
:10353000324001F07FFC00214BF2012001F07AFCC7
:1035400000214BF2022001F075FC24214FF4384099
:1035500001F070FC24214BF6010001F06BFC2421EA
:103560004BF6020001F066FC01214FF43F4001F0F0
:1035700061FC0F214FF4334001F05CFC0F2100E0AF
:10358000FEE34BF2013001F055FC0F214BF202300B
:1035900001F050FC34214FF4394001F04BFC342150
:1035A0004BF6011001F046FC34214BF6021001F0FD
:1035B00041FC08214FF4354001F03CFC08214BF25E
:1035C000015001F037FC08214BF2025001F032FCAF
:1035D00003214FF4424001F02DFC24214FF43A40E6
:1035E00001F028FC24214BF6012001F023FC2421CA
:1035F0004BF6022001F01EFC00214FF43C4001F08C
:1036000019FC78214BF6014001F014FC00214BF627
:10361000024001F00FFC00214FF43D4001F00AFC94
:1036200078214BF6015001F005FC00214BF60250C9
:1036300001F000FC00214FF43E4001F0FBFB64214F
:103640004BF6016001F0F6FB00214FF4514001F010
:10365000F1FB33214DF2011001F0ECFB00214DF2A2
:10366000021001F0E7FB34214DF2031001F0E2FB00
:1036700000214DF2041001F0DDFB3A214DF205105E
:1036800001F0D8FB00214DF2061001F0D3FB4A21D6
:103690004DF2071001F0CEFB00214DF2081001F0B1
:1036A000C9FB5C214DF2091001F0C4FB00214DF271
:1036B0000A1001F0BFFB81214DF20B1001F0BAFBA3
:1036C00000214DF20C1001F0B5FBA6214DF20D10BA
:1036D00001F0B0FB00214DF20E1001F0ABFBE52133
:1036E0004DF20F1001F0A6FB01214DF2101001F078
:1036F000A1FB13214DF2111001F09CFB01214DF2B1
:10370000121001F097FB54214DF2131001F092FBBF
:1037100001214DF2141001F08DFB82214DF21510A4
:1037200001F088FB01214DF2161001F083FBCA2144
:103730004DF2171001F07EFB02214DF2181001F03E
:1037400079FB00214DF2191001F074FB02214DF2BA
:103750001A1001F06FFB01214DF21B1001F06AFB02
:1037600002214DF21C1001F065FB34214DF21D10B9
:1037700001F060FB02214DF21E1001F05BFB67219E
:103780004DF21F1001F056FB02214DF2201001F006
:1037900051FB84214DF2211001F04CFB02214DF22E
:1037A000221001F047FBA4214DF2231001F042FB4F
:1037B00002214DF2241001F03DFBB7214DF22510FE
:1037C00001F038FB02214DF2261001F033FBCF212E
:1037D0004DF2271001F02EFB02214DF2281001F0CE
:1037E00029FBDE214DF2291001F024FB02214DF2CC
:1037F0002A1001F01FFBF2214DF22B1001F01AFBF1
:1038000002214DF22C1001F015FBFE214DF22D107E
:1038100001F010FB03214DF22E1001F00BFB1021E3
:103820004DF22F1001F006FB03214DF2301001F094
:1038300001FB33214DF2311001F0FCFA03214DF26E
:10384000321001F0F7FA6D214DF2331001F0F2FA67
:1038500000214FF4524001F0EDFA33214DF20120E6
:1038600001F0E8FA00214DF2022001F0E3FA01E054
:103870007803022034214DF2032001F0DBFA00210D
:103880004DF2042001F0D6FA3A214DF2052001F064
:10389000D1FA00214DF2062001F0CCFA4A214DF276
:1038A000072001F0C7FA00214DF2082001F0C2FA0A
:1038B0005C214DF2092001F0BDFA00214DF20A20F1
:1038C00001F0B8FA81214DF20B2001F0B3FA00218A
:1038D0004DF20C2001F0AEFAA6214DF20D2001F0C0
:1038E000A9FA00214DF20E2001F0A4FAE5214DF2D3
:1038F0000F2001F09FFA01214DF2102001F09AFAF9
:1039000013214DF2112001F095FA01214DF2122000
:1039100001F090FA54214DF2132001F08BFA0121AD
:103920004DF2142001F086FA82214DF2152001F0AB
:1039300081FA01214DF2162001F07CFACA214DF2E4
:10394000172001F077FA02214DF2182001F072FAE7
:1039500000214DF2192001F06DFA02214DF21A20DA
:1039600001F068FA01214DF21B2001F063FA0221F7
:103970004DF21C2001F05EFA34214DF21D2001F0C1
:1039800059FA02214DF21E2001F054FA67214DF23E
:103990001F2001F04FFA02214DF2202001F04AFAD7
:1039A00084214DF2212001F045FA02214DF222201E
:1039B00001F040FAA4214DF2232001F03BFA02214C
:1039C0004DF2242001F036FAB7214DF2252001F006
:1039D00031FA02214DF2262001F02CFACF214DF2CE
:1039E000272001F027FA02214DF2282001F022FAC7
:1039F000DE214DF2292001F01DFA02214DF22A208C
:103A000001F018FAF2214DF22B2001F013FA0221F5
:103A10004DF22C2001F00EFAFE214DF22D2001F086
:103A200009FA03214DF22E2001F004FA10214DF283
:103A30002F2001F0FFF903214DF2302001F0FAF9B7
:103A400033214DF2312001F0F5F903214DF23220FE
:103A500001F0F0F96D214DF2332001F0EBF9002176
:103A60004FF4534001F0E6F933214DF2013001F0FB
:103A7000E1F900214DF2023001F0DCF934214DF280
:103A8000033001F0D7F900214DF2043001F0D2F9F2
:103A90003A214DF2053001F0CDF900214DF206300A
:103AA00001F0C8F94A214DF2073001F0C3F90021B5
:103AB0004DF2083001F0BEF95C214DF2093001F001
:103AC000B9F900214DF20A3001F0B4F981214DF22B
:103AD0000B3001F0AFF900214DF20C3001F0AAF9E2
:103AE000A6214DF20D3001F0A5F900214DF20E3066
:103AF00001F0A0F9E5214DF20F3001F09BF9012111
:103B00004DF2103001F096F913214DF2113001F011
:103B100091F901214DF2123001F08CF954214DF24E
:103B2000133001F087F901214DF2143001F082F9D0
:103B300082214DF2153001F07DF901214DF2163050
:103B400001F078F9CA214DF2173001F073F9022122
:103B50004DF2183001F06EF900214DF2193001F0EC
:103B600069F902214DF21A3001F064F901214DF298
:103B70001B3001F05FF902214DF21C3001F05AF9BF
:103B800034214DF21D3001F055F902214DF21E3065
:103B900001F050F967214DF21F3001F04BF902217D
:103BA0004DF2203001F046F984214DF2213001F030
:103BB00041F902214DF2223001F03CF9A4214DF2ED
:103BC000233001F037F902214DF2243001F032F9AF
:103BD000B7214DF2253001F02DF902214DF22630AA
:103BE00001F028F9CF214DF2273001F023F902210D
:103BF0004DF2283001F01EF9DE214DF2293001F09E
:103C000019F902214DF22A3001F014F9F2214DF296
:103C10002B3001F00FF902214DF22C3001F00AF99E
:103C2000FE214DF22D3001F005F903214DF22E3029
:103C300001F000F910214DF22F3001F0FBF80321C3
:103C40004DF2303001F0F6F833214DF2313001F011
:103C5000F1F803214DF2323001F0ECF86D214DF214
:103C6000333001F0E7F800214FF4544001F0E2F85E
:103C700033214DF2014001F0DDF800214DF2024008
:103C800001F0D8F834214DF2034001F0D3F80021BF
:103C90004DF2044001F0CEF83A214DF2054001F01A
:103CA000C9F800214DF2064001F0C4F84A214DF256
:103CB000074001F0BFF800214DF2084001F0BAF8CA
:103CC0005C214DF2094001F0B5F800214DF20A40A7
:103CD00001F0B0F881214DF20B4001F0ABF800216A
:103CE0004DF20C4001F0A6F8A6214DF20D4001F076
:103CF000A1F800214DF20E4001F09CF8E5214DF2B3
:103D00000F4001F097F801214DF2104001F092F8B8
:103D100013214DF2114001F08DF801214DF21240B6
:103D200001F088F854214DF2134001F083F801218D
:103D30004DF2144001F07EF882214DF2154001F061
:103D400079F801214DF2164001F074F8CA214DF2C4
:103D5000174001F06FF802214DF2184001F06AF8A7
:103D600000214DF2194001F065F802214DF21A4090
:103D700001F060F801214DF21B4001F05BF800E01A
:103D800003E302214DF21C4001F054F834214DF2BE
:103D90001D4001F04FF802214DF21E4001F04AF89B
:103DA00067214DF21F4001F045F802214DF22040FD
:103DB00001F040F884214DF2214001F03BF802214E
:103DC0004DF2224001F036F8A4214DF2234001F0DB
:103DD00031F802214DF2244001F02CF8B7214DF2C8
:103DE000254001F027F802214DF2264001F022F88B
:103DF000CF214DF2274001F01DF802214DF228405D
:103E000001F018F8DE214DF2294001F013F80221EB
:103E10004DF22A4001F00EF8F2214DF22B4001F054
:103E200009F802214DF22C4001F004F8FE214DF278
:103E30002D4000F0FFFF03214DF22E4000F0FAFF6D
:103E400010214DF22F4000F0F5FF03214DF23040DC
:103E500000F0F0FF33214DF2314000F0EBFF032181
:103E60004DF2324000F0E6FF6D214DF2334000F09C
:103E7000E1FF00214FF4554000F0DCFF33214DF20B
:103E8000015000F0D7FF00214DF2025000F0D2FFA8
:103E900034214DF2035000F0CDFF00214DF20450CB
:103EA00000F0C8FF3A214DF2055000F0C3FF002199
:103EB0004DF2065000F0BEFF4A214DF2075000F0CF
:103EC000B9FF00214DF2085000F0B4FF5C214DF223
:103ED000095000F0AFFF00214DF20A5000F0AAFF98
:103EE00081214DF20B5000F0A5FF00214DF20C5046
:103EF00000F0A0FFA6214DF20D5000F09BFF002125
:103F00004DF20E5000F096FFE5214DF20F5000F0FB
:103F100091FF01214DF2105000F08CFF13214DF262
:103F2000115000F087FF01214DF2125000F082FF86
:103F300054214DF2135000F07DFF01214DF2145039
:103F400000F078FF82214DF2155000F073FF01213F
:103F50004DF2165000F06EFFCA214DF2175000F0DE
:103F600069FF02214DF2185000F064FF00214DF26C
:103F7000195000F05FFF02214DF21A5000F05AFF75
:103F800001214DF21B5000F055FF02214DF21C5053
:103F900000F050FF34214DF21D5000F04BFF022184
:103FA0004DF21E5000F046FF67214DF21F5000F009
:103FB00041FF02214DF2205000F03CFF84214DF2E0
:103FC000215000F037FF02214DF2225000F032FF65
:103FD000A4214DF2235000F02DFF02214DF2245078
:103FE00000F028FFB7214DF2255000F023FF0221F9
:103FF0004DF2265000F01EFFCF214DF2275000F069
:1040000019FF02214DF2285000F014FFDE214DF27D
:10401000295000F00FFF02214DF22A5000F00AFF54
:10402000F2214DF22B5000F005FF02214DF22C50F1
:1040300000F000FFFE214DF22D5000F0FBFE0321A9
:104040004DF22E5000F0F6FE10214DF22F5000F0F0
:10405000F1FE03214DF2305000F0ECFE33214DF221
:10406000315000F0E7FE03214DF2325000F0E2FE45
:104070006D214DF2335000F0DDFE00214FF456402B
:1040800000F0D8FE33214DF2016000F0D3FE002194
:104090004DF2026000F0CEFE34214DF2036000F0DC
:1040A000C9FE00214DF2046000F0C4FE3A214DF239
:1040B000056000F0BFFE00214DF2066000F0BAFE80
:1040C0004A214DF2076000F0B5FE00214DF2086074
:1040D00000F0B0FE5C214DF2096000F0ABFE002163
:1040E0004DF20A6000F0A6FE81214DF20B6000F057
:1040F000A1FE00214DF20C6000F09CFEA6214DF2C5
:104100000D6000F097FE00214DF20E6000F092FE6F
:10411000E5214DF20F6000F08DFE01214DF210609F
:1041200000F088FE13214DF2116000F083FE0121A2
:104130004DF2126000F07EFE54214DF2136000F04B
:1041400079FE01214DF2146000F074FE82214DF2DF
:10415000156000F06FFE01214DF2166000F06AFE5E
:10416000CA214DF2176000F065FE02214DF2186081
:1041700000F060FE00214DF2196000F05BFE0221AC
:104180004DF21A6000F056FE01214DF21B6000F066
:1041900051FE02214DF21C6000F04CFE34214DF224
:1041A0001D6000F047FE02214DF21E6000F042FE4D
:1041B00067214DF21F6000F03DFE02214DF22060AC
:1041C00000F038FE84214DF2216000F033FE022120
:1041D0004DF2226000F02EFEA4214DF2236000F08B
:1041E00029FE02214DF2246000F024FEB7214DF299
:1041F000256000F01FFE02214DF2266000F01AFE3D
:10420000CF214DF2276000F015FE02214DF228600B
:1042100000F010FEDE214DF2296000F00BFE0221BD
:104220004DF22A6000F006FEF2214DF22B6000F004
:1042300001FE02214DF22C6000F0FCFDFE214DF24A
:104240002D6000F0F7FD03214DF22E6000F0F2FD2D
:1042500010214DF22F6000F0EDFD03214DF2306092
:1042600000F0E8FD33214DF2316000F0E3FD032161
:104270004DF2326000F0DEFD6D214DF2336000F052
:10428000D9FD55214FF4704000F0D4FDAA214FF222
:10429000010000F0CFFD52214FF2020000F0CAFDF4
:1042A00008214FF2030000F0C5FD00214FF2040089
:1042B00000F0C0FDCC214FF4314000F0BBFD0021E7
:1042C0004BF2011000F0B6FD05214FF4364000F02E
:1042D000B1FD70214FF4374000F0ACFD70214BF27E
:1042E000017000F0A7FD01214FF4384000F0A2FD5D
:1042F00003214BF6010000F09DFD03214BF6020067
:1043000000F098FD03214BF6030000F093FD02211D
:104310004FF43C4000F08EFD00214BF6014000F0D0
:1043200089FD00214BF6024000F084FDD0214FF4BE
:10433000494000F07FFD02214CF6011000F07AFDAB
:1043400050214CF6021000F075FD50214CF6031080
:1043500000F070FD50214CF6041000F06BFD0021C0
:104360004FF4545000F066FD55214FF4685000F0B2
:1043700061FD4FF4885000F047FD782001F0ACFD5E
:104380004FF4245000F040FDBDE08048808841F6A5
:1043900063118842F8D1E22000F036FD1D2000F0C4
:1043A00027FD022000F024FD042000F021FD642000
:1043B00001F092FDE02000F027FD012000F018FD43
:1043C0000A2001F07DFDE02000F01EFD032000F03A
:1043D0000FFD0C2001F074FD012000F015FD0A20F6
:1043E00001F06EFDE62000F00FFD2F2000F000FD33
:1043F000FF2000F0FDFCFF2000F0FAFCB02000F0F0
:1044000003FD202000F0F4FC002000F0F1FC03206C
:1044100000F0EEFC40F21F3000F0EAFC012000F05A
:10442000E7FC40F2DF1000F0E3FC002000F0E0FCCD
:10443000B42000F0E9FC042000F0DAFC40F21F4058
:1044400000F0D6FC002000F0D3FC2E2000F0D0FCC1
:10445000002000F0CDFC002000F0CAFC002000F09D
:10446000C7FC002000F0C4FCB62000F0CDFC022008
:1044700000F0BEFC4FF4037000F0BAFC002000F026
:10448000B7FC172000F0B4FC152000F0B1FC0020B0
:1044900000F0AEFC002000F0ABFCF02000F0B4FC1B
:1044A000032000F0A5FC292000F0AEFCD02000F095
:1044B000ABFC002000F09CFCBE2000F0A5FC052019
:1044C00000F096FCFE2000F093FC012000F090FC30
:1044D000002000F08DFC002000F08AFC002000F09D
:1044E00087FCB82000F090FC032000F081FC012044
:1044F00000F07EFCBA2000F087FC012000F078FC80
:10450000642000F0FDF82148808849F2413188425A
:1045100011D01E48808845F2103188420BD01B48CC
:10452000808845F21051884205D01848808841F6AD
:10453000631188421CD11648006820F00F004FF02C
:104540002041C1F804010846D0F8040120F470604D
:10455000C1F804010846D0F8040140F00500C1F894
:1045600004010846D0F8040140F4A060C1F8040139
:104570000120FDF7B1FB0122D1020648FCF7ACFB9C
:104580004FF6FF70FDF78EFB15B000BD78030220DB
:10459000040100A0000C02401FB500BF1E480068C7
:1045A00020F480301C4908601B487030006820F0FF
:1045B000010019497031086000BF01208DF800002A
:1045C00000208DF801004FF0C04001901B208DF8B5
:1045D000080000208DF809008DF80A0003208DF8EE
:1045E0000B0000208DF80C008DF80D008DF80E00EA
:1045F00001208DF80F006846FCF71AFC042040F0FB
:104600000101054A703211600349096841F48031A3
:10461000014A116000BF1FBD24ED00E010B5024645
:10462000012000E050430B1EA1F10104E1B2F9D1D9
:1046300010BD000008B5034800880090BDF80000D8
:1046400008BD0000000008602DE9F04105460E4657
:1046500000240027A04629480088A84203DD2748F7
:104660004088B04202DC0020BDE8F0813146284697
:1046700000F0A8F92148808849F2413188420BD0E6
:104680001E48808845F21031884205D01B4880883A
:1046900041F66311884203D12E2000F0B5FB09E0FA
:1046A0001648808845F21051884203D14FF43850A3
:1046B00000F0AAFBFFF7BEFF04461048808841F6D1
:1046C0006311884201D12046CEE7022001F03EFD71
:1046D000FFF7B0FF0446022001F038FDFFF7AAFF04
:1046E0008046E7B24FF6FF7000EA0727E012C002EB
:1046F000B91240EA411040EAE820B5E77803022009
:1047000000B50246BE2000F07FFB052000F070FBE4
:1047100000EE102AB8EE400B9FED0B1B20EE010BB4
:10472000BCEEC00B10EE101A88B200F061FB012045
:1047300000F05EFBFF2000F05BFB002000F058FB68
:10474000002000F055FB00BD6666666666660440A4
:10475000F0B505460024002799488079012805D145
:104760009748808841F66311884208D1944880793F
:10477000F0B99348808841F66311884218D1082D1A
:1047800015D2DFE805F00406080A0C0E1012062503
:104790000DE007250BE0042509E0052507E00125CC
:1047A00005E0002503E0032501E0022500BF00BF6E
:1047B0008348808849F24131884211D080488088FE
:1047C00045F2103188420BD07D48808845F2105167
:1047D000884205D07A48808841F6631188427DD1AD
:1047E000082D1CD2DFE805F00406090C0F1215187D
:1047F00000BF14E044F0800411E044F040040EE0F7
:1048000044F0C0040BE044F0200408E044F06004ED
:1048100005E044F0A00402E044F0E00400BF00BF63
:104820006748808845F21051884202D14FF45857AA
:1048300000E036276248808845F2103188420DD06A
:104840005F48808845F21051884207D05C488088D4
:1048500041F66311884201D044F0080421463846ED
:1048600000F0E8FA5648808841F6631188421DD06E
:1048700004F0200068B152480088514949888842B4
:1048800014DA4F48068840884D490880084646801B
:104890000CE04B4800884A494988884206DD484870
:1048A00006884088464908800846468044488088F3
:1048B00045F21051884254D14149488900F0A4FA88
:1048C000002000F095FA3E494989491C88B200F061
:1048D0009BFA002000F08CFA394900E06FE049892A
:1048E000891C88B200F090FA35490988491EC1F345
:1048F0000F2000F07DFA32494989C91C88B200F0C6
:1049000083FA2F490978491EC8B200F071FA2C4980
:10491000888900F079FA002000F06AFA284989892C
:10492000491C88B200F070FA002000F061FA2449B6
:104930008989891C88B200F067FA21494988491E93
:10494000C1F30F2000F054FA1D498989C91C88B2AF
:1049500000F05AFA1A498978491EC8B200F048FA9C
:104960002DE01749488900F04FFA002000F040FA86
:10497000002000F03DFA12490988491EC1F30F20BA
:1049800000F036FA0E490978491EC8B200F030FA34
:104990000B49888900F038FA002000F029FA00203D
:1049A00000F026FA06494988491EC1F30F2000F09D
:1049B0001FFA03498978491EC8B200F019FAF0BD00
:1049C0007803022010B502460C464B48808849F215
:1049D0004131884205D04848808845F210318842EC
:1049E00014D14549488900F00FFA101200F000FA7E
:1049F000D0B200F0FDF94049888900F005FA201294
:104A000000F0F6F9E0B200F0F3F973E03A4880887C
:104A100041F66311884247D137488079A8B93648B2
:104A20000088401E801A82B23349488900F0ECF9B0
:104A3000002000F0DDF9002000F0DAF9101200F09B
:104A4000D7F9D0B200F0D4F916E02B49488900F02C
:104A5000DBF9101200F0CCF9D0B200F0C9F9264908
:104A60000988491EC1F30F2000F0C2F922490978D4
:104A7000491EC8B200F0BCF91F49888900F0C4F98A
:104A8000201200F0B5F9E0B200F0B2F91A494988F5
:104A9000491EC1F30F2000F0ABF917498978491E70
:104AA000C8B200F0A5F925E01348808845F21051FE
:104AB00088421FD11049488900F0A6F9101200F071
:104AC00097F90D494989491C88B200F09DF9D0B287
:104AD00000F08EF90849888900F096F9201200F05C
:104AE00087F905498989491C88B200F08DF9E0B23F
:104AF00000F07EF910BD0000780302202DE9F84F88
:104B000080460F4616461C46BB462046E31704EB7C
:104B10005373DB1021464FEAE47C04EB5C7C4FEAE4
:104B2000EC0CA4EBCC0CBCF1000F02D04FF0010C4C
:104B300001E04FF0000C6344224604EBD27C4FEAC4
:104B40006C0C03FB0CF3DBB20093A6F12000C6B2A1
:104B500000255EE00C2C07D106EB46002F4901EB47
:104B6000800010F805901BE0102C05D12C4800EBBC
:104B7000061010F8059013E0182C07D106EBC600BC
:104B8000284901EB800010F8059009E0202C05D1A0
:104B9000254800EBC61010F8059001E0BDE8F88F3D
:104BA0004FF0000A2FE009F0800030B11F4839466D
:104BB00002684046FDF714FA07E00A9828B91C4835
:104BC000394602684046FDF70BFA4FEA49604FEA62
:104BD0001069781C87B217484088B84200DCDDE7CE
:104BE000A7EB0B00A0420AD15F4608F101001FFAB3
:104BF00080F810480088404500DCCFE706E00AF165
:104C0000010000F0FF0ABAF1080FCCDB00BF681CFE
:104C1000C5B2009885429DDB00BFBFE70273000864
:104C200076770008667D0008C28A0008140002201A
:104C300018000220780302202DE9FF4F81B00746BB
:104C400091461E460E9D4FF0000A002439E0301BAD
:104C5000401EC1B20A20FFF7E1FCB9FBF0F00A21C7
:104C6000B0FBF1F201FB1208BAF1000F16D1701E71
:104C7000A04213DDB8F1000F0ED10020AB4605EBCA
:104C8000DB71491001FB0471009088B22B46202291
:104C90000299FFF733FF12E04FF0010A0020AB4604
:104CA00005EBDB71491001FB0471009088B208F13B
:104CB0003001CAB22B460299FFF720FF00BF601CEB
:104CC000C4B2B442C3DB05B0BDE8F08F2DE9F847AC
:104CD00004460D4690469946DDE9096704F0FF0A4F
:104CE00008EB04001FFA80F809EB05001FFA80F9B1
:104CF00016E0444502DB5446A81985B24D4500DB59
:104D000014E0002000903A78334629462046FFF709
:104D1000F5FE304606EBD07104EB61018CB27F1CCE
:104D200038787E2802DC38782028E2DA00BFBDE837
:104D3000F8872DE9FF4F82B0064692461F46DDE90F
:104D40000F480020019000254DE0781B401EC1B2A5
:104D50000A20FFF763FCBAFBF0F00A21B0FBF1F286
:104D600001FB1209019850BB781EA84227DDB9F15A
:104D7000000F22D108F0800078B108F00100A346AE
:104D800004EBDB71491001FB0561009088B22346FA
:104D900030220399FFF7B2FE0EE008F00100A346AF
:104DA00004EBDB71491001FB0561009088B22346DA
:104DB00020220399FFF7A2FE13E00120019008F0E2
:104DC0000100A34604EBDB71491001FB0561009073
:104DD00088B209F13001CAB223460399FFF78EFE6B
:104DE00000BF681CC5B2BD42AFDB06B0BDE8F08FA6
:104DF00001B5BDF800000090BDF800000149088031
:104E000008BD00000000086001B5BDF8000000907A
:104E1000BDF800000149088008BD0000FEFF0760E2
:104E20000248008902490880704700007803022088
:104E3000FEFF0760024A1080921C1180704700003C
:104E4000FEFF076018B5044606480094008B401E1C
:104E500083B20448C08A401E82B20021084600F096
:104E600041F818BD880402200949487530B989887D
:104E7000074AD18211460988118308E0012806D12A
:104E800003490988024AD1821146898811837047F3
:104E90008804022070B5114B5B7D6BB10F4BDB6951
:104EA0000E4D2D6805FB01056B430C4D2D7D0C4E01
:104EB00056F82550EA520FE0084B1D685B681B1A34
:104EC0005B1E05FB0313054DED696B43034D2D7D03
:104ED000034E56F82550EA5270BD000088040220A7
:104EE0001C0002202DE9F04F04460D4616464FF0F7
:104EF000000CDFF8289199F81590B9F1000F04D053
:104F00002046294632461F4611E02846DFF80C911C
:104F1000D9F80490A9EB0609A9F101011A46DFF8B6
:104F2000FC90D9F80490A9EB0409A9F10107DFF876
:104F3000EC90B9F80090A2EB000A0AF1010AA9EB83
:104F40000A091FFA89F8DFF8D49099F81490DFF86D
:104F5000D0A05AF82990DFF8C4A0DAF81CA0DFF836
:104F6000BCB0DBF800B00BFB010B0AFB0B9EDFF8BB
:104F7000B490D9F8009049F40009DFF8A8A0CAF865
:104F800000904FF44039DFF8A0A0CAF800904FF02D
:104F90000209CAF83490D146C9F84080D9F8009087
:104FA00029F00109CAF80090D146C9F83CE0A7EB06
:104FB000010909F10109A2EB000A0AF1010A49EA13
:104FC0000A49DFF864A0CAF84490DDF82490CAF8D2
:104FD0003890D146D9F8009049F00109CAF80090FC
:104FE00005E00CF1010CBCF5001F00D308E0DFF870
:104FF0003890D9F8049009F00209B9F1000FF0D007
:1050000000BFDFF82490D9F8089049F00209DFF8D2
:1050100018A0CAF80890BDE8F08F000088040220AC
:105020001C0002203038024000B0024010B50129B7
:105030000CD1114A12688432C301D25842F00103E4
:105040000D4A12688432C40113510CE059B90A4A5E
:1050500012688432C301D25822F00103064A126852
:105060008432C4011351044A1268526A42F00102A8
:10507000014B1B685A6210BD880302202DE9F041E4
:1050800004460E4617461D46DDF8188023463A466C
:1050900031460548FBF75CFE234642462946024856
:1050A000FBF78CFEBDE8F0818803022010B50246B4
:1050B0001048407D68B10F48C0690E4B1B6803FB68
:1050C000012358430B4B1B7D0B4C54F82330185ACB
:1050D00010BD084803684068801A401E03FB00109A
:1050E000044BDB695843034B1B7D034C54F82330BE
:1050F000185AEDE7880402201C00022001490875B7
:105100007047000088040220F0B500230024002529
:105110008E880768FF68C7F30B473E443304066870
:105120008436802707FB0266766806F470470668B7
:1051300084364FF0800C0CFB026677600E680768BF
:10514000FF68C7F30B473E44761C1E43076884374D
:105150000CFB02777E608E890768FF68C7F30A0739
:105160003E44330406688436802707FB0266B6682F
:1051700006F47047066884360CFB0266B7608E68DA
:105180000768FF68C7F30A073E44761C1E4307689A
:1051900084370CFB0277BE6006688436802707FBE5
:1051A0000266366926F00707066884360CFB02663D
:1051B00037610F69066884360CFB02663761312659
:1051C000765C33023226765C34040E7E3506066841
:1051D0008436802707FB0266B66900270668843696
:1051E0000CFB0266B76191F830601E4326432E43E4
:1051F000076884370CFB0277BE6106688436802717
:1052000007FB0266766926F0FF07066884360CFB0A
:10521000026677614F69066884360CFB0266776127
:1052200006688436802707FB0266F76940F2077636
:10523000B743066884360CFB0266F761D1E907675D
:105240003E43076884370CFB0277FE6106688436AC
:10525000802707FB0266B66A0027066884360CFBC7
:105260000266B7624F6A066884360CFB0266B76254
:105270000E690EB9042313E00E69012E01D1032338
:105280000EE00E69042E08D00E69022E05D00E69BC
:10529000032E02D00E69072E01D1022300E0012364
:1052A00006688436802707FB0266F66A06F0E02768
:1052B000066884364FF0800C0CFB0266F762D1E979
:1052C0000076F61B5E43F71C0E8D5E4347EA0647E9
:1052D000066884360CFB0266F7620668843680270F
:1052E00007FB0266366BF70AFF02066884360CFB82
:1052F00002663763CF6A066884360CFB0266376342
:1053000006688436D701F65946F0010706688436E8
:105310004FEAC21C46F80C70F0BD0000012808D10D
:1053200009490968896941F00101074A12689161D8
:1053300008E038B904490968896921F00101024A85
:1053400012689161704700008803022070470000D6
:1053500002480068C0F30220704700000CED00E036
:1053600010B5002807DA0A07140E054A00F00F03EB
:105370001B1FD45403E00A07130E024A135410BD36
:1053800018ED00E000E400E07047000010B50023D5
:10539000234C236000BF00BF00BFBFF34F8F00BF8F
:1053A00000BF00BF231F1868C0F34E3100BFC0F319
:1053B000C90200BF43F6E07303EA41134FF04044D3
:1053C00004EA82742343174C236000BF00BF131EFE
:1053D000A2F10102EED10B1EA1F10101E7D100BF44
:1053E00000BF00BFBFF34F8F00BF00BF00BF0C4B1B
:1053F000703B1B6843F48033094C703C236000BF52
:1054000000BF00BFBFF34F8F00BF00BF00BF00BF92
:1054100000BF00BFBFF36F8F00BF00BF00BF10BD54
:1054200084ED00E060EF00E000B587B000BF1C48ED
:10543000006840F020001A4908600846006800F043
:105440002000019000BF00BF3D200290002003908B
:10545000012004900220059002A91248FBF728FBC6
:10546000422002900120039004900220059002A99E
:105470000C48FBF71DFB002240210A48FBF72CFCDF
:10548000012000F029FD012240210648FBF724FC01
:10549000002202210348FBF71FFC07B000BD0000FB
:1054A0003038024000140240704700002DE9F041FE
:1054B00094B00546884616461F46002400BF26487D
:1054C000006840F08050244908600846006800F0F9
:1054D0008050019000BF00BF00BF2048006840F42A
:1054E00040401E4908600846006800F440400190B2
:1054F00000BF00BF012007900004089002200D901B
:1055000041050E91CDF83C8010951196129707A891
:10551000FBF7CAFE04460CB100BFFEE7FBF716FD21
:1055200004460CB100BFFEE70F200290022003905A
:10553000002004904FF4A05005904FF48050069046
:10554000072102A8FBF74AFD04460CB100BFFEE7A5
:1055500014B0BDE8F0810000403802400070004007
:1055600010B5FBF7C5FB10BD1448006840F470008F
:10557000124908601248006840F0010010490860B4
:1055800000200F49083108600D4800680D490840A7
:105590000B4908600C48091D0860081F006820F4CA
:1055A0008020091F0860002005490C3108604FF079
:1055B00000600249803908607047000088ED00E013
:1055C00000380240FFFFF6FE1030002410B50E48F0
:1055D0000068C06800F0010078B10C490869804794
:1055E000002009490968486200BF6420064909682B
:1055F000C86264210448C16000BF6FF00100024925
:105600000968086110BD0000A80402200001022002
:10561000002202682C4B98420ED0B0F1804F0BD084
:105620002A4B984208D02A4B984205D0294B9842E1
:1056300002D0294B984201D1012300E000231BB185
:1056400022F070024B681A431F4B984220D0B0F1F1
:10565000804F1DD01D4B98421AD01D4B984217D039
:105660001C4B984214D01C4B984211D01B4B9842B3
:105670000ED01B4B98420BD01A4B984208D01A4BB5
:10568000984205D0194B984202D0194B984201D14B
:10569000012300E000231BB122F44072CB681A43BF
:1056A00002608B68C3620B688362074B984202D02A
:1056B000094B984201D1012300E000230BB10B6993
:1056C0000363012343617047000001400004004070
:1056D00000080040000C0040000401400040014070
:1056E000004401400048014000180040001C0040F8
:1056F0000020004038B504460D4600BF1148006840
:1057000040F004000F4908600846006800F00400FB
:10571000009000BF00BF032211461E20FBF7C4FB10
:105720001E20FBF7B4FB084808490860084645609E
:1057300000218160C4600161FCF7C4F80348FCF7F4
:10574000D9F838BD4038024000080040A8040220C3
:1057500090F8241001F0010139B10168496821F481
:105760000031826A11430268516090F8241001F000
:10577000020139B10168496821F48031C26A1143DC
:105780000268516090F8241001F0040139B10168F9
:10579000496821F48021026B11430268516090F83E
:1057A000241001F0080139B10168496821F4004171
:1057B000426B11430268516090F8241001F010010F
:1057C00039B10168896821F48051826B1143026804
:1057D000916090F8241001F0200139B101688968C6
:1057E00021F40051C26B11430268916090F82410BB
:1057F00001F0400199B10168496821F48011026CFF
:10580000114302685160016CB1F5801F07D1016836
:10581000496821F4C001426C11430268516090F85C
:10582000241001F0800139B10168496821F4002198
:10583000826C114302685160704738B504460025F8
:105840000020E066FBF74EFA05462068006800F08D
:10585000080008280CD16FF07E402B4600224FF440
:1058600000110090204600F08EFA08B1032038BDE8
:105870002068006800F0040004280CD16FF07E401E
:105880002B4600224FF480010090204600F07BFA66
:1058900008B10320EBE7202084F8690084F86A004F
:1058A00000BF002084F8680000BF00BFDFE770B5CC
:1058B0000546AC6B0020A4F85A00A4F8520020461C
:1058C000FCF727F870BD0168096821F4907102683F
:1058D00011600168896821F001010268916020214E
:1058E00080F86A10704710B504462068006820F000
:1058F000400021680860202084F869002046FCF7F9
:10590000CDF9002010BD70B50446B4F85C6094F881
:105910006A00222833D1A068B0F5805F0AD12069DF
:1059200040B9656D2068406A30402880606D801CF9
:10593000606507E02068406AF1B20840626D511C62
:1059400061651070B4F85A00401E80B2A4F85A0085
:1059500098B92068006820F4907021680860206879
:10596000806820F0010021688860202084F86A00A7
:105970002046FCF792F9002070BD0020FCE720686B
:10598000806940F00800216888610220F4E7000087
:105990002DE9F0470446002510260027A846A94611
:1059A0002169A068084361690843E16940EA01058B
:1059B00020680068CD4908402843216808602068B5
:1059C000406820F44050E168084321684860216A3B
:1059D000A06940EA01052068806820F4306028430F
:1059E0002168886000BFC2492068884215D1C1483B
:1059F000006800F0030030B1012808D0022804D06C
:105A0000032808D105E0012606E0022604E004266A
:105A100002E0082600E000BFC1E0B74920688842E4
:105A200015D1B448006800F00C0030B1042808D04B
:105A3000082804D00C2808D105E0002606E002263C
:105A400004E0042602E0082600E000BFA7E0AB491E
:105A50002068884215D1A748006800F0300030B1B6
:105A6000102808D0202804D0302808D105E00026CE
:105A700006E0022604E0042602E0082600E000BF5B
:105A80008DE09F492068884215D19A48006800F04F
:105A9000C00030B1402808D0802804D0C02808D1E8
:105AA00005E0002606E0022604E0042602E00826BF
:105AB00000E000BF73E093492068884218D18D4808
:105AC000006800F4407048B1B0F5807F0AD0B0F5AE
:105AD000007F05D0B0F5407F08D105E0002606E044
