:020000040800F2
:10000000F007022099020008EF1100084F100008C5
:10001000ED11000849030008DD130008000000008E
:10002000000000000000000000000000F3110008C4
:100030004B03000800000000F11100088D120008B9
:10004000B3020008B3020008B3020008B3020008BC
:10005000B3020008B3020008B3020008B3020008AC
:10006000B3020008B3020008B3020008B30200089C
:10007000B3020008B3020008B3020008B30200088C
:10008000B3020008B3020008B3020008B30200087C
:10009000B3020008B3020008B3020008B30200086C
:1000A000B3020008B3020008B3020008B30200085C
:1000B000B3020008B3020008B3020008B30200084C
:1000C000B3020008B3020008B3020008B30200083C
:1000D000B302000881130008B3020008B30200084D
:1000E000B3020008B3020008B3020008B30200081C
:1000F000B3020008B3020008B3020008B30200080C
:10010000B3020008B3020008B3020008B3020008FB
:10011000B3020008B3020008B3020008B3020008EB
:10012000B3020008B3020008B3020008B3020008DB
:10013000B3020008B3020008B3020008B3020008CB
:10014000B3020008B3020008B3020008B3020008BB
:10015000B3020008B3020008B3020008B3020008AB
:10016000B3020008B3020008B3020008B30200089B
:10017000B3020008B3020008B30200080000000048
:10018000B3020008B3020008B3020008B30200087B
:10019000B3020008B3020008B3020008B30200086B
:1001A000B3020008B3020008B3020008B30200085B
:1001B000B3020008B3020008B3020008B30200084B
:1001C000B3020008B302000800000000B3020008F8
:1001D000B3020008B3020008B3020008B30200082B
:1001E000B3020008B3020008B3020008B30200081B
:1001F000B3020008B302000800F002F800F03CF877
:100200000AA090E8000C82448344AAF10107DA4571
:1002100001D100F031F8AFF2090EBAE80F0013F087
:10022000010F18BFFB1A43F00103184740150000E7
:1002300060150000103A24BF78C878C1FAD8520778
:1002400024BF30C830C144BF04680C607047000050
:100250000023002400250026103A28BF78C1FBD8CF
:10026000520728BF30C148BF0B6070471FB501F06F
:1002700070FA1FBD10B510BD00F033F81146FFF73E
:10028000F5FF01F057FA00F051F803B4FFF7F2FF61
:1002900003BC01F029FA00000948804709480047DB
:1002A000FEE7FEE7FEE7FEE7FEE7FEE7FEE7FEE726
:1002B000FEE7FEE704480549054A064B7047000083
:1002C00091120008F9010008F0010220F007022055
:1002D000F0030220F0030220704770477047704718
:1002E0007047754600F02CF8AE4605006946534647
:1002F00020F00700854618B020B5FFF7DBFFBDE80A
:1003000020404FF000064FF000074FF000084FF07C
:10031000000B21F00701AC46ACE8C009ACE8C0090D
:10032000ACE8C009ACE8C0098D46704710B504467A
:10033000AFF300802046BDE81040FFF7A6BF0000E5
:100340000048704790010220FEE7704790F8351092
:10035000022903D08021416501207047052180F8E2
:1003600035100068016821F001010160002070472C
:100370002DE9F84FDFF830920022DFF828820F27AE
:1003800009F1040A4FF0010E0B680EFA02F52B403A
:10039000AB4240F00181D1F804C0BCF1020F18BF9C
:1003A000BCF1120F15D14FEAD20C00EB8C0CDCF82B
:1003B00020604FEA42744FEAD46407FA04FB26EA4D
:1003C0000B06D1F810B00BFA04F444EA0604CCF89A
:1003D000204006684FEA420C91F804B04FF0030445
:1003E0000BF0030B04FA0CF40BFA0CFB26EA0406E0
:1003F0004BEA060606604E68012E18BF022E03D097
:10040000112E18BF122E14D18668D1F80CB026EA2E
:1004100004060BFA0CFB4BEA06068660466826EAE1
:1004200005050E79C6F3001606FA02F646EA05053A
:100430004560C56825EA04048D6805FA0CFC4CEAA1
:10044000040CC0F80CC0D1F804C01CF0805F7CD054
:10045000D8F800C04CF4804CC8F800C0D8F800C0F0
:100460000CF4804CCDF800C022F0030C0CF1804558
:1004700005F59835D5F808C84FEA82744FEA147428
:1004800007FA04F62CEA0606A0F1804CBCF5003C05
:1004900048D0A0F1804CBCF5013C08BF4FF0010CE6
:1004A00040D0A0F1804CBCF5023C08BF4FF0020CDC
:1004B00038D0A0F1804CBCF5033C08BF4FF0030CD2
:1004C00030D0A0F1804CBCF5043C08BF4FF0040CC8
:1004D00028D0A0F1804CBCF5053C08BF4FF0050CBE
:1004E00020D0A0F1804CBCF5063C08BF4FF0060CB4
:1004F00018D0A0F1804CBCF5073C08BF4FF0070CAA
:1005000010D0A0F1804CBCF5083C08BF4FF0080C9F
:1005100008D0A0F1804CBCF5093C0CBF4FF0090C91
:100520004FF00A0C0CFA04FC4CEA060CC5F808C89B
:10053000D9F800C04C682CEA030C14F4803F18BFB3
:100540004CEA030CC9F800C000E025E0DAF800C06E
:100550004C682CEA030C14F4003F18BF4CEA030C5F
:10056000CAF800C0114CD4F800C04D682CEA030C46
:1005700015F4801F18BF4CEA030CC4F800C00C4CE3
:10058000D4F800C04D682CEA030C15F4001F18BF06
:100590004CEA030CC4F800C0521C102AFFF4F4AE5D
:1005A000BDE8F88F44380240003C0140083C01405F
:1005B0000C3C0140002A08BF09048161704700001B
:1005C00001480068704700000400022002480168EA
:1005D000491C01607047000004000220074810B564
:1005E000016841F400710160052000F051F80F200E
:1005F00000F006F800F018F8002010BD003C0240A2
:1006000010B5044607484FF47A720068B0FBF2F068
:1006100000F08AFB00222146501E00F007F800205F
:1006200010BD00000000022070470000174B4DF87D
:10063000044D1B68C3F30223C3F1070CBCF1040F84
:1006400088BF4FF0040C1C1D072C34BF0023DB1E99
:10065000012404FA0CFCACF1010C0CEA01019940F4
:1006600004FA03F35B1E1A40114300284FEA0111FC
:10067000B8BF00F00F0000F1E020B4BF80F8141DF7
:1006800080F800145DF8044B704700000CED00E0AA
:10069000074A00F0070011684FF6FF03194041EACE
:1006A000002040F0FD7040F0806010607047000056
:1006B0000CED00E01C4838B5016841F08051016044
:1006C00000681A4C00F080500090206840F48030A0
:1006D0002060FFF775FF0546606810F4803F09D180
:1006E000FFF76EFF401BB0F57A7F14D8606810F4F6
:1006F000803FF5D0206840F400302060FFF760FFB5
:100700000546606810F4003F0BD1FFF759FF401B0E
:10071000B0F57A7F01D9032038BD606810F4003F3E
:10072000F3D0002038BD0000403802400070004087
:100730002DE9F047DFF8688104460D46D8F800003F
:1007400000F00F00A8420CD2D8F8000020F00F00F3
:100750002843C8F80000D8F8000000F00F00A842B5
:1007600070D120784F4F10F0020F05D03868A16883
:1007700020F0F00008433860207810F0010F4ED0D0
:1007800060684949012820D00968022822D011F068
:10079000020F57D0396821F0030108433860FFF792
:1007A0000FFF0646606841F28839012816D00228FA
:1007B000386800F00C0021D0F8B1FFF701FF801B72
:1007C000484528D90320BDE8F087096811F4003FA7
:1007D000E0D137E011F0007FDCD133E0386800F081
:1007E0000C0004281BD0FFF7EBFE801B4845E9D81E
:1007F000386800F00C000428F5D110E008280ED06D
:10080000FFF7DEFE801B4845DCD8386800F00C009E
:100810000828F5D103E0386810F00C0FCDD1D8F8D6
:10082000000000F00F00A8420FD9D8F8000020F017
:100830000F002843C8F80000D8F8000000F00F00AF
:10084000A84202D00120BDE8F087207810F0040F04
:1008500005D03868E16820F4E0500843386020781B
:1008600010F0080F06D03868216920F4604040EA93
:10087000C100386000F01EF83968F02292FAA2F246
:1008800001F0F001B2FA82F2D140084A515CC8404E
:10089000074908600F20FFF7B3FE0020BDE8F0878E
:1008A000003C024008380240003802405C17000853
:1008B000000002202148006810F00C01204808BF09
:1008C0007047DFF880C0042904BF604670470829DC
:1008D00018BF70474DF8044D1B4A1168136801F0AA
:1008E0003F0113F4800F47F6C0730BD0BCFBF1F04F
:1008F0001168194093FAA3F3B3FA83F3D94000FBCC
:1009000001F00AE0B0FBF1F01168194093FAA3F38B
:10091000B3FA83F3D94000FB01F011684FF4403281
:100920005DF8044B92FAA2F201F44031B2FA82F27D
:10093000D140491C4900B0FBF1F070470838024033
:100940000024F40040787D01043802402DE9F84F7E
:10095000DFF8A88304460078A8F1040710F0010F1F
:10096000A7F104055AD0D8F8000000F00C000428C4
:1009700009D0D8F8000000F00C0008280CD1386825
:1009800010F4800F08D0286810F4003F46D060684B
:10099000002800F0AF8141E06068B0F5803F04BFFF
:1009A000286840F480300AD010B1B0F5A02F11D0E3
:1009B000286820F480302860286820F4802028608F
:1009C0006068D0B1FFF7FCFD0646286810F4003FD0
:1009D00008D023E0286840F480202860286840F48C
:1009E0008030ECE7FFF7ECFD801B642800F22581E6
:1009F000286810F4003FF5D010E0FFF7E1FD06464F
:100A0000286810F4003F09D0FFF7DAFD801B642846
:100A100000F21381286810F4003FF5D1207810F01F
:100A2000020F50D0D8F800004FF0F80910F00C0F6A
:100A300018D0D8F8000000F00C00082804BF38686F
:100A400010F4800F0ED0E0680028286828D040F00D
:100A500001002860FFF7B4FD0646286810F0020F79
:100A600009D011E0286810F0020F1CBFE0680128CF
:100A70000AD000F03FB9FFF7A3FD801B02287DD804
:100A8000286810F0020FF6D0286899FAA9F22169B7
:100A9000B2FA82F220F0F80091400843286012E098
:100AA00020F001002860FFF78BFD0646286810F053
:100AB000020F08D0FFF784FD801B02285ED828684B
:100AC00010F0020FF6D1207810F0080F33D0DFF8C5
:100AD000309260690028D9F8000016D040F001007B
:100AE000C9F80000FFF76CFD0646D9F8000010F0C9
:100AF000020F20D1FFF764FD801B02283ED8D9F8F1
:100B0000000010F0020FF5D015E020F00100C9F848
:100B10000000FFF755FD0646D9F8000010F0020F5F
:100B200009D0FFF74DFD801B022827D8D9F8000017
:100B300010F0020FF5D1207810F0040F63D0714847
:100B4000016841F08051016000686F4E00F08050F4
:100B50000090306840F480703060FFF731FD8146CE
:100B6000306810F4807F0BD1FFF72AFDA0EB09005D
:100B7000642862D8306810F4807F00E05DE0F3D034
:100B8000A068624E012804BF306840F0010009D01F
:100B900008B1052813D0306820F0010030603068BB
:100BA00020F004003060A06841F2883AD0B1FFF72D
:100BB00007FD8146306810F0020F08D023E030684E
:100BC00040F004003060306840F00100EAE7FFF7D1
:100BD000F7FCA0EB090050452FD8306810F0020F49
:100BE000F5D010E0FFF7ECFC8146306810F0020F02
:100BF00009D0FFF7E5FCA0EB090050451DD830688F
:100C000010F0020FF5D1A069E8B3D8F8001001F098
:100C10000C0108296ED00228286820F08070286016
:100C20000ED0FFF7CDFC0446286810F0007F5ED0A0
:100C3000FFF7C6FC001B022855D90320BDE8F88F3A
:100C4000FFF7BEFC0646286810F0007F08D0FFF7CB
:100C5000B7FC801B0228F0D8286810F0007FF6D17E
:100C6000D4E9070147F6C0724FF0FF3392FAA2F2BF
:100C70000843616AB2FA82F29140A26A03EB52021F
:100C80004FF4403300E032E093FAA3F3B3FA83F376
:100C90009A4011434FF070620843E16A92FAA2F25F
:100CA000B2FA82F291404FF0E0420843216B92FA8F
:100CB000A2F2B2FA82F2914008433860286840F00C
:100CC00080702860FFF77CFC0446286810F0007FE5
:100CD0000DD1FFF775FC001B0228AED8286810F074
:100CE000007FF6D003E0286810F0007FA0D100203C
:100CF000BDE8F88F0120BDE8F88F000008380240F9
:100D000074380240403802400070004070380240A1
:100D10004FF0E021042808690CBF40F0040020F0E7
:100D20000400086170470000401EB0F1807F24BFBE
:100D3000012070474FF0E0214861F020044A82F81A
:100D4000140D002088610720086100207047000012
:100D50000FE000E0704790F8691090F86A000843CF
:100D60007047000070B501680446C8690A688B685E
:100D700010F00F0F4FF0200551D040F2011C13EA84
:100D80000C0F7DD010F0010F18BF12F4807F07D038
:100D90004FF0010CC1F820C0E16E41F00101E166A5
:100DA00010F0020F18BF13F0010F08D0D4F800C0E4
:100DB0000221CCF82010E16E41F00401E16610F050
:100DC000040F18BF13F0010F08D0D4F800C004219D
:100DD000CCF82010E16E41F00201E16610F0080F3E
:100DE0000CD002F0200103F00103194306D0236860
:100DF00008211962E16E41F00801E166E16E002907
:100E000008BF70BD10F0200F1EBF12F0200F20464B
:100E100000F074FAE06E10F0080F10D10AE010F044
:100E2000200F18BF12F0200F39D02046BDE87040C7
:100E300000F064BA2068806810F0400F29D0206864
:100E4000016821F4907101602068816821F001013E
:100E5000816084F86A502068816811F0400F14D0D6
:100E6000816821F040018160606E70B12F49016599
:100E7000606EFFF76BFA002808BF70BD606E00E07F
:100E80000DE0016DBDE8704008472046FFF762FFA6
:100E900070BD2046FFF75EFF0020E06670BD10F0D9
:100EA000800F18BF12F0800F2FD094F8690021280E
:100EB00018BF70BDB4F85200A0B1A068B0F5805F53
:100EC00004BF20690028E06C16D000F10101E16444
:100ED000216800788862B4F85200A0F10100A4F8FB
:100EE000520070BD086820F080000860206801682A
:100EF00041F04001016070BD0088C0F308008862C5
:100F0000E06C00F10200E064E5E710F0400F14BF70
:100F100012F0400F70BD20460A6822F040020A60BD
:100F200084F8695000F092F870BD0000E9120008E2
:100F300090F86A30202B49D1002912BF002A0120E5
:100F4000704790F86830012B40D0012380F868305A
:100F50004165A0F85820A0F85A20FF228168B1F519
:100F6000805F05D07F2351B1B1F1805F0CD012E0DA
:100F70000169002908BF40F2FF1102D109E00169AF
:100F800009BBA0F85C2006E00169002918BF3F21D9
:100F900019D0A0F85C100021C166222280F86A20D6
:100FA00080F8681001680A6842F480720A6001687B
:100FB0008A6842F001028A600068016841F02001FD
:100FC000016000207047A0F85C30E4E70220704721
:100FD0004DF8044D0068A0F18041B1F588311CBF87
:100FE0005DF8044B7047174A508810F4004F1CBF3F
:100FF0005DF8044B704710F4804F4FF00003114927
:10100000097808D00A2908BF40F4004016D0538060
:101010005DF8044B70470D2908BF40F480400DD0A7
:10102000094CC0F30D0C401C80B2C72804F80C100A
:1010300050809CBF5DF8044B7047E8E750805DF836
:10104000044B70470C000220580002207047FEE756
:1010500010B51D4C002204212046FFF7ABFA0022F8
:1010600020460221FFF7A6FA002220460821FFF7BA
:10107000A1FA002220468021FFF79CFA0022204698
:101080004021FFF797FA002220462021FFF792FA2D
:10109000002220461021FFF78DFA0022204661151C
:1010A000FFF788FA002220460121FFF783FA002289
:1010B00020462115FFF77EFA00222046A115BDE843
:1010C0001040FFF777BA00000014024030B542A08C
:1010D00087B0006805904148016841F02001016037
:1010E000016801F020010691016841F002010160F0
:1010F000006801240325694600F00200069040F2D2
:10110000FF70CDE900043648CDE90245FFF730F91C
:1011100060026946CDE90004CDE90245314C204624
:10112000FFF726F9FFF794FF002220466115FFF72D
:1011300041FA322000F0E4FA012220465102FFF782
:1011400039FA322000F0DCFA002220466115FFF760
:1011500031FA01230321184605AA00F041F9224C77
:101160000320E16800F060FA2168002000F05CFADA
:101170006168012000F058FAA168022000F054FADA
:101180002834A08981B2032000F0FEF9208881B2C2
:10119000002000F0F9F9A08881B2012000F0F4F9F4
:1011A000208981B2022000F0EFF9143CA08981B2BD
:1011B000032000F09BF9208881B2002000F096F90E
:1011C000A08881B2012000F091F9208981B202202B
:1011D00000F08CF907B030BDD0000000303802407C
:1011E00000140240000402401C000220FEE7704789
:1011F00070477047DFF88CC030B593B0DCF8004022
:1012000044F08054CCF80040DCF800C00CF0805C66
:10121000CDF848C0DFF870C0DCF8004044F440442A
:10122000CCF80040DCF800C00025022400940CF447
:10123000404CCDF848C04FF0010CCDF80CC0CDE9C2
:101240000810CDE90A23CDE906456846FFF77EFB85
:1012500000B1FEE7FFF72EFA00B1FEE70F20CDE95F
:101260000D044FF4A0500721CDE90F504FF48050EA
:1012700011900DA8FFF75CFA002804BF13B030BD31
:10128000FEE700004038024000700040FFF79EB9C2
:101290000F48016841F4700101600E48016841F097
:1012A000010101600C4A00211160026822F4102241
:1012B00022F080720260031D084A1A60026822F45C
:1012C000802202600648016058060649086070479F
:1012D00088ED00E000380240083802401030002459
:1012E0000C38024008ED00E010B5806B0021A0F83A
:1012F0005A10A0F85210FFF72DFD10BD10B5B0F830
:101300005C2090F86A300168222B05D0886940F093
:1013100008008861022010BD8368B3F5805F04BFB8
:101320000369002B23D0496A01EA0202416D01F1F1
:10133000010343650A70B0F85A10A1F101010904D4
:10134000090CA0F85A101CBF002010BD01680A68E3
:1013500022F490720A6001688A6822F001028A60B1
:10136000202180F86A10FFF733FE002010BD436D86
:10137000496A11401980416D891C4165DBE7000015
:1013800070B5134D00241348FFF7ECFC1148FFF72C
:10139000E2FC202807D0641CAC4204D80D48FFF7BB
:1013A000DAFC2028F7D10C4900240A480122FFF773
:1013B000BFFD002808BF70BD641CAC4288BF70BD73
:1013C000012205490348FFF7B3FD0028F4D170BDA1
:1013D000FFFF0100200102200C000220FEE70000B8
:1013E0002DE9F047DFF8008100259A4691460F4627
:1013F000044602212A464046FFF7DCF80022404618
:101400000421FFF7D7F8002240460221FFF7D2F867
:1014100014F0800F05D0012240465102FFF7CAF8B0
:1014200005E0002240464FF40071FFF7C3F80122A7
:1014300040460221FFF7BEF86006040E681CC5B2E4
:10144000082DE0D3002240460221FFF7B3F8002622
:10145000002F2AD919F80640002500224046022113
:10146000FFF7A8F814F0800F05D001224046510282
:10147000FFF7A0F805E0002240464FF40071FFF7A7
:1014800099F8012240460221FFF794F86006040E05
:10149000681CC5B2082DE0D3002240460221FFF7A8
:1014A00089F8701CC6B2BE42D4D3BAF1010F14D170
:1014B000002240460821FFF77DF8322000F020F995
:1014C000012240460821FFF775F8322000F018F994
:1014D000002240460821FFF76DF84046BDE8F0477E
:1014E00001220421FFF766B80014024008B500226B
:1014F000009210228DF8021042EA11218DF801109D
:1015000098B101281ED0022829D0032818BF08BD91
:101510000123194A00201946FFF762FF01236A469A
:1015200003210620FFF75CFF08BD0123134A0020BA
:101530001946FFF755FF01236A4603210620FFF7EE
:101540004FFF08BD01230E4A00201946FFF748FF50
:1015500001236A4603210620FFF742FF08BD01234D
:10156000084A00201946FFF73BFF01236A46032182
:101570000620FFF735FF08BD1300022010000220EF
:101580001100022012000220224A10B55170090AEF
:101590001170A0B1012820D002282CD0032818BF38
:1015A00010BD00231C4A01211846FFF719FF002334
:1015B000184A0221BDE810400520FFF711BF0023A3
:1015C000164A01211846FFF70BFF0023114A02219A
:1015D000BDE810400520FFF703BF0023104A01219A
:1015E0001846FFF7FDFE00230A4A0221BDE810401D
:1015F0000520FFF7F5BE00230A4A01211846FFF730
:10160000EFFE0023034A0221BDE810400520FFF74A
:10161000E7BE000015000220130002201000022087
:10162000110002201200022000EE101A08B52A490B
:101630000022B8EE400A0092D1ED020A20EE200A04
:10164000BCEEC00A10EE101A8DF803100A0A8DF8CD
:1016500002200A0C8DF80120090E8DF8001098B1B7
:1016600001281ED0022829D0032818BF08BD012355
:101670001A4A00201946FFF7B3FE04216A460323E5
:101680000846FFF7ADFE08BD0123134A00201946A6
:10169000FFF7A6FE04216A4601230846FFF7A0FED5
:1016A00008BD01230E4A00201946FFF799FE0421C8
:1016B0006A4601230846FFF793FE08BD0123094A45
:1016C00000201946FFF78CFE04216A4601230846D4
:1016D000FFF786FE08BD0000100002201300022064
:1016E00011000220120002207047000010B50446CD
:1016F0000420FFF70DFB0148046010BD0800022024
:1017000030B44FF0E02400216369094A126800FBFD
:1017100002FCA269A0699042FCD026BF1D1A2A448F
:10172000121A114402466145F4D330BC70470000E0
:1017300008000220FEF752FF0923022219214FF46C
:10174000D870FFF757FDD820FFF7D0FFFFF7BEFC9A
:10175000FEE74FF04070E1EE100A70470000000015
:101760000000000001020304060708098C170008A6
:10177000000002205800000034020008E4170008AE
:101780005800022098070000500200080024F400CE
:101790000000000000000000000000001020408059
:1017A00000000000000000003200000032000000D5
:1017B000320000003200000000000000FF030000C3
:1017C000FF030000FF030000FF0300000000000013
:1017D00000000000FF0F0000FD2F0000FE1F0000B2
:0417E0000000000005
:04000005080001F9F5
:00000001FF
