:020000040800F2
:1000000078070020710600084D0200084F02000822
:1000100053020008570200085B02000800000000BD
:100020000000000000000000000000005F02000867
:100030006102000800000000630200086502000879
:100040008B0600088B0600088B0600088B0600084C
:100050008B0600088B0600088B0600088B0600083C
:100060008B0600088B0600088B0600088B0600082C
:100070008B0600088B0600088B0600088B0600081C
:100080008B0600088B0600088B0600088B0600080C
:100090008B0600088B0600088B060008FF18000876
:1000A0008B0600088B0600088B0600088B060008EC
:1000B0008B0600088B0600088B0600088B060008DC
:1000C0008B0600088B0600088B0600088B060008CC
:1000D0008B060008E50500088B0600088B06000863
:1000E000471900088B0600088B0600088B060008DD
:1000F0008B0600088B0600088B0600088B0600089C
:100100008B0600088B0600088B0600088B0600088B
:100110008B0600088B0600088B0600088B0600087B
:100120008B0600088B0600088B0600088B0600086B
:1001300000F002F800F03AF80AA090E8000C8244BF
:100140008344AAF10107DA4501D100F02FF8AFF29C
:10015000090EBAE80F0013F0010F18BFFB1A43F0A5
:1001600001031847942D0000B42D0000103A24BF5D
:1001700078C878C1FAD8520724BF30C830C144BF0C
:1001800004680C607047000000230024002500264E
:10019000103A28BF78C1FBD8520728BF30C148BFEA
:1001A0000B6070471FB51FBD10B510BD01F0CFFD2E
:1001B0001146FFF7F7FF00F009F801F0EDFD03B479
:1001C000FFF7F2FF03BC00F0AFF9000000F03CF9CC
:1001D00001F040F901F013FA00F0A0F901F0E8F89D
:1001E00001F04EFB01F054FD18E00DA202210020A9
:1001F00001F066FA0EA20421002001F061FA0FA2BC
:100200000421642001F05CFA0DA20621002001F017
:1002100057FA0AA20621642001F052FAE5E700002D
:100220004144393835345F434C5F303800000000BA
:1002300046726528436831293A0000004D487A002B
:1002400046726528436832293A000000704700BFB3
:10025000FEE700BFFEE700BFFEE700BFFEE7704716
:1002600070477047704700000CB500200190009067
:100270006C48006840F480306A49086000BF6948F3
:10028000006800F4003000900198401C0190009834
:1002900018B90198B0F5A06FF1D16248006800F478
:1002A000003010B10120009001E000200090009883
:1002B000012843D15C48006840F010005A490860AA
:1002C0000846006820F0030008600846006840F017
:1002D0000200086053484068524948600846406838
:1002E00048600846406840F48060486008464068BE
:1002F00020F47C1048600846406840F4E8104860EC
:100300000846006840F08070086000BF45480068FB
:1003100000F000700028F9D04248406820F0030047
:10032000404948600846406840F00200486000BF0D
:100330003C48406800F00C000828F9D10CBD10B50D
:10034000FFF792FF10BD10B53648006840F001007D
:1003500034490860084640683449084031494860DB
:1003600008460068324908402E490860084600687F
:1003700020F4802008600846406820F4FE004860B1
:100380004FF41F008860FFF7DAFF4FF00060294943
:10039000086010BD10B5002100200022214B5B68D1
:1003A00003F00C0121B1042906D0082928D107E067
:1003B000214B224C236027E01F4B204C236023E07D
:1003C000184B5B6803F47010164B5B6803F48032C3
:1003D000022303EB904022B9194B4343174C23608F
:1003E0000DE0104B5B6803F4003323B1144B43431F
:1003F000124C236003E0104B4343104C236003E096
:100400000D4B0E4C236000BF00BF064B5B68C3F36F
:1004100003130C4CE15C094B1B68CB40074C236079
:1004200010BD000000100240002002400000FFF854
:10043000FFFFF6FE08ED00E000127A000000002049
:1004400000093D000400002010B56FF0040000F02A
:100450007EF92E4800682E49B0FBF1F02D49087056
:100460000846007800EB4001C1EBC0104FF6FF7169
:1004700001EAC0002849088010BD0146254A1278CB
:100480004A434FF0E0235A6100229A611A461269EA
:1004900042F001021A6100BF4FF0E022106900F043
:1004A00001021AB100F48032002AF5D04FF0E022A8
:1004B000126922F001024FF0E0231A6100229A61D2
:1004C00070470146144A12884A434FF0E0235A61AC
:1004D00000229A611A46126942F001021A6100BFB5
:1004E0004FF0E022106900F001021AB100F48032EE
:1004F000002AF5D04FF0E022126922F001024FF0FD
:10050000E0231A6100229A61704700000000002079
:1005100000127A00140000201600002010B54FF4DD
:10052000A06000F0C5F810BD014600BF704700BFD5
:100530004B4A128802F04002002AF9D0C2B2484B5E
:100540001B1D1A80704710B586B00446012144F285
:10055000040000F0C5FC424800F026FD4FF4007096
:10056000ADF8140003208DF8160018208DF8170040
:1005700005A93C4800F0F8F94FF48060ADF814008C
:1005800004208DF8170005A9364800F0EDF9252064
:100590008DF8000003208DF801008DF80200012085
:1005A0008DF80300684600F088F801940020ADF84B
:1005B0000800ADF80A00ADF80C00ADF810000C20F2
:1005C000ADF80E0001A9264800F031FD012240F2ED
:1005D0002551234800F0C3FD0121214800F0B3FD5F
:1005E00006B010BD10B540F225511D4800F09CFE2C
:1005F00010B31B4800F018FEC4B21B48008800F47A
:100600000040C8B91848008800F4804060B10A2C46
:1006100003D000201449088020E01348008840F4EB
:1006200000401149088019E00D2C06D10E480088C1
:1006300040F480400C49088010E00B480088C0F36B
:100640000D000A490C5408480088401C06490880DF
:1006500008460088C72801DD0020088010BD000082
:1006600000380140000801401C0000204C00002020
:100670000948804709480047FEE7FEE7FEE7FEE736
:10068000FEE7FEE7FEE7FEE7FEE7FEE70448054972
:10069000054A064B70470000470300083101000877
:1006A00078010020780700207803002078030020DC
:1006B00031490143314A1160704770B50021002370
:1006C0000F22C47804B32D4C246804F4E064C4F50C
:1006D000E064210AC1F10403CA40447804FA03F13A
:1006E0008478144021430901254C0678A1550478EB
:1006F00004F01F050124AC4005786D11AD0005F133
:10070000E025C5F8004109E0047804F01F05012444
:10071000AC401C4D0678761145F8264070BD1A4A4B
:100720000A400243154B1B1F1A60704739B1134A28
:10073000121D12680243114B1B1D1A6006E00F4A7E
:10074000121D126882430D4B1B1D1A60704704284E
:1007500008D14FF0E021096941F004014FF0E02297
:10076000116107E04FF0E021096921F004014FF029
:10077000E0221161704700000000FA050CED00E076
:1007800000E400E080E100E080FFFF1F002044491A
:100790000860091D0860091D0860091D08604148BE
:1007A0003F4914310860704700213D498279002A91
:1007B0003AD00A46126803689A430B461A600A1D2B
:1007C000126803689A430B1D1A60027911440A6883
:1007D00003681A430A60324A0832126803689A436F
:1007E0002F4B08331A601A1D126803689A432C4B6A
:1007F0000C331A604279102A0ED11A1F126803684E
:100800001A43274B08331A601A1D126803681A43EB
:10081000234B0C331A600DE02149427911440A68D8
:1008200003681A430A6005E0027911440A68036804
:100830009A430A6070470021016001710C214171E7
:100840000021817170471649103109680143144A2B
:1008500010321160704701460020114A14321268AC
:100860000A400AB1012000E0002070470C49143111
:1008700008607047014600200022094B1B6803EA0C
:100880000102074B14331B680B4013B10AB101205E
:1008900000E00020704702491431086070470000F2
:1008A00000040140FFFF0F0010B50446CC4884420D
:1008B00008D10121042000F02DFB0021042000F0CC
:1008C00029FB46E0C748844208D10121082000F0F6
:1008D00021FB0021082000F01DFB3AE0C2488442C1
:1008E00008D10121102000F015FB0021102000F09C
:1008F00011FB2EE0BD48844208D10121202000F0E8
:1009000009FB0021202000F005FB22E0B8488442CA
:1009100008D10121402000F0FDFA0021402000F024
:10092000F9FA16E0B348844208D10121802000F092
:10093000F1FA0021802000F0EDFA0AE0AE4884428E
:1009400007D10121801500F0E5FA0021A01500F083
:10095000E1FA10BD10B50121084600F0DBFA0021D4
:10096000012000F0D7FA10BD2DE9F0410246002524
:100970000026002000230024002791F803C00CF07B
:100980000F0591F803C00CF0100CBCF1000F03D060
:1009900091F802C04CEA050591F800C0BCF1000FC7
:1009A00031D0146800202BE04FF0010C0CFA00F35A
:1009B000B1F800C00CEA03069E4220D183004FF03C
:1009C0000F0C0CFA03F7BC4305FA03FC4CEA0404D1
:1009D00091F803C0BCF1280F06D14FF0010C0CFABE
:1009E00000FCC2F814C00AE091F803C0BCF1480F43
:1009F00005D14FF0010C0CFA00FCC2F810C0401CED
:100A00000828D1D31460B1F800C0BCF1FF0F34DD69
:100A1000546800202EE000F1080C4FF0010808FA9D
:100A20000CF3B1F800C00CEA03069E4221D183000A
:100A30004FF00F0C0CFA03F7BC4305FA03FC4CEA29
:100A4000040491F803C0BCF1280F05D100F1080C93
:100A500008FA0CF8C2F8148091F803C0BCF1480FF2
:100A600007D100F1080C4FF0010808FA0CF8C2F8A1
:100A70001080401C0828CED35460BDE8F0814FF6AA
:100A8000FF710180022181700421C170704702460C
:100A9000002093680B400BB1012000E0002070475C
:100AA0000146886880B2704702460020D3680B4038
:100AB0000BB1012000E0002070470146C86880B2F9
:100AC000704701617047416170470AB1016100E000
:100AD00041617047C16070474FF480320A438261C0
:100AE0008161826182698269704702460020434BBE
:100AF00018684FF68073184040EA021008433F4BD5
:100B0000186070473E49C8617047F0B50A46002337
:100B100000240021002500F00046B6F1004F02D16C
:100B2000364EF16901E0354E7168C0F3034583B27A
:100B300000F44016B6F5401F08D121F070612F4E29
:100B4000766826F070662D4F7E6012E000F4801605
:100B5000B6F5801F06D1032606FA05F4A14341F03D
:100B6000706106E0460D360103FA06F6B14341F026
:100B7000706122B1460D360103FA06F6314300F0EA
:100B80000046B6F1004F02D11C4EF16101E01B4E50
:100B90007160F0BD30B500228B071C0F0F2303FAE4
:100BA00004F2164B08338C1053F824309343134C43
:100BB00008348D1044F8253023468C1053F8243027
:100BC0008C07240F00FA04F423430C4C08348D10D6
:100BD00044F8253030BD0A49DC3108607047000018
:100BE00000080140000C01400010014000140140C9
:100BF00000180140001C014000200140000001409D
:100C000000002042DF48006840F00100DD49086034
:100C100008464068DC490840DA49486008460068F0
:100C2000DA490840D74908600846006820F4802067
:100C300008600846406820F4FE0048604FF41F003A
:100C400088607047CF49096821F48031CD4A11602E
:100C50001146096821F480211160B0F5803F03D06E
:100C6000B0F5802F0ED106E0C649096841F4803105
:100C7000C44A116007E0C349096841F4A021C14A90
:100C8000116000E000BF00BF704710B501460022B0
:100C9000002300204A11012A02D1BA4C236806E041
:100CA000022A02D1B74C236A01E0B64C636A01F014
:100CB0001F02012494401C400CB1012000E00020E0
:100CC00010BD38B5002000900024002500BF312061
:100CD000FFF7DBFF05460098401C00900098B0F538
:100CE000A06F01D0002DF2D03120FFF7CEFF08B168
:100CF000012400E00024204638BD01460020A14A1E
:100D0000106820F0F80040EAC10010607047A04968
:100D100008607047024600209A4B586820F47C1007
:100D200042EA01031843974B586070479849086698
:100D3000704701460020934A506820F003000843A2
:100D4000506070478F48406800F00C0070470146C3
:100D500000208C4A506820F0F00008435060704733
:100D600001460020874A506820F4E0600843506044
:100D7000704701460020834A506820F4605040EAE2
:100D8000C1005060704729B17E4A527A02437D4BC0
:100D90005A7204E07B4A527A82437A4B5A72704705
:100DA0007B49D8310860704701460020754A506879
:100DB00020F440400843506070470021714A2032BF
:100DC0001170704A82F82010012802D004280AD13C
:100DD00004E001216B4A2032117005E00521694AC7
:100DE0002032117000E000BF00BF70476949086001
:100DF00070476449096A0143624A11627047654954
:100E000044390860704730B50021002200240023D7
:100E10005C4D6D6805F00C0121B1042905D008294D
:100E200023D105E05C4D056022E05B4D05601FE0CD
:100E3000544D6D6805F47012524D6D6805F48034A0
:100E4000022505EB92421CB9544D554305600BE059
:100E50004C4D6D6805F400351DB1504D554305608E
:100E600002E04D4D5543056002E04B4D056000BF6B
:100E700000BF444D6D6805F0F0010909484D6B5CF9
:100E80000568DD4045603F4D6D6805F4E061090A85
:100E9000434D6B5C4568DD4085603A4D6D6805F4F7
:100EA0006051C90A3E4D6B5C4568DD40C560354DFB
:100EB0006D6805F44041890B3A4D6B5CC568B5FB24
:100EC000F3F5056130BD29B12E4A526902432D4B1D
:100ED0005A6104E02B4A526982432A4B5A61704797
:100EE00029B1284A92690243264B9A6104E0254AB7
:100EF00092698243234B9A61704729B1214AD26992
:100F00000243204BDA6104E01E4AD26982431D4B42
:100F1000DA61704729B11B4AD2680243194BDA6083
:100F200004E0184AD2688243164BDA60704729B150
:100F3000144A12690243134B1A6104E0114A126900
:100F40008243104B1A61704712494039086070475C
:100F50000F49C86470470B49C87170470948406A17
:100F600040F0807007494862704701460020054AFA
:100F700092680A400AB1012000E000207047014950
:100F800088727047001002400000FFF8FFFFF6FE75
:100F9000000042428004424200127A0000093D00F3
:100FA0001E0000202E00002010B50446FB4884429D
:100FB00009D101218803FFF7ADFF00214FF48040E4
:100FC000FFF7A8FF32E0F648844209D10121480426
:100FD000FFF7ADFF00214FF40030FFF7A8FF25E039
:100FE000F048844209D101218804FFF7A0FF0021C5
:100FF0004FF48020FFF79BFF18E0EB48844209D1B3
:101000000121C804FFF793FF00214FF40020FFF7F0
:101010008EFF0BE0E548844208D101210805FFF767
:1010200086FF00214FF48010FFF781FF10BD2DE9EE
:10103000F04786B005460E460024A24600BFA146F2
:101040000027B08900B100BF2F462C8A4CF6FF70F4
:101050000440F08804432C82AC894EF6F31004401F
:10106000B08831890843718908430443AC81AC8A54
:101070004FF6FF400440B0890443AC8201A8FFF75B
:10108000C2FEC648874202D1DDF810A001E0DDF8BB
:101090000CA0A88900F4004040B10AEBCA0000EBA4
:1010A0000A1031684900B0FBF1F807E00AEBCA000A
:1010B00000EB0A1031688900B0FBF1F86420B8FB3E
:1010C000F0F004012009642101FB1089A88900F4D3
:1010D000004040B1322000EBC900B0FBF1F000F05D
:1010E0000700044308E0322000EB09106421B0FB44
:1010F000F1F000F00F0004432C8106B0BDE8F0874A
:101100004FF41651016000218180C18001810C21C2
:10111000418100218181704710B502460020108A6C
:101120004FF2FF0318400B884C8823438C882343DD
:10113000CC8823431843108210BD002101804180D8
:101140008180C180704721B1828942F4005282813E
:1011500004E082894DF6FF731A4082817047F0B532
:101160000346002400260025002040F66A17B942F5
:1011700000D100BF1846C1F3421401F01F06012739
:1011800007FA06F5012C01D10C3004E0022C01D144
:10119000103000E014301AB107682F43076002E0F6
:1011A0000768AF430760F0BD1AB1838A0B4383829F
:1011B00002E0838A8B4383827047028A4FF6F07382
:1011C0001A400282028A0A430282704782894FF2E1
:1011D000FF731A40828182890A438281704721B15C
:1011E000828942F00202828104E082894FF6FD7317
:1011F0001A4082817047028A4FF6DF731A400282DA
:10120000028A0A430282704721B1028A42F4804274
:10121000028204E0028A4BF6FF731A400282704792
:10122000C1F308028280704701468888C0F3080035
:101230007047818941F0010181817047028BD2B2F0
:101240000283028B42EA012202837047028B02F47E
:101250007F420283028B0A430283704721B1828A54
:1012600042F02002828204E0828A4FF6DF731A4045
:101270008282704721B1828A42F01002828204E0A9
:10128000828A4FF6EF731A408282704721B1828AB8
:1012900042F00802828204E0828A4FF6F7731A4015
:1012A0008282704721B1828942F40042828103E048
:1012B0008289C2F30E028281704721B1828A42F490
:1012C0000062828204E0828A4FF2FF731A408282B7
:1012D0007047828A4FF6FB731A408282828A0A43E1
:1012E0008282704721B1828A42F00202828204E047
:1012F000828A4FF6FD731A408282704702460020B0
:10130000B1F5007F00D100BF13880B400BB1012065
:1013100000E00020704701F40072B2F5007F00D1B8
:1013200000BFCA430280704770B502460024002304
:101330000025002040F66A16B14200D100BFC1F37B
:10134000421501F01F03012606FA03F3012D02D115
:101350009689334006E0022D02D1168A334001E01F
:10136000968A33400C12012606FA04F4168834409B
:1013700013B10CB1012000E0002070BD10B50022B7
:10138000002340F66A14A14200D100BF0A120124D2
:101390009440A3B2DC43048010BD0000003801403B
:1013A0000044004000480040004C00400050004015
:1013B00008B501210420FFF793FD4FF46450ADF808
:1013C000000048208DF8030069462048FFF7CCFA5A
:1013D00008BD10B5044614B101201D4908701C4811
:1013E000007808B34FF480711848FFF750FB28B11C
:1013F0004FF400611548FFF74AFBA8B90A20FFF730
:1014000060F80020124908704FF480710F48FFF710
:101410003EFB08B9012010BD4FF400610B48FFF7F7
:1014200036FB80B90220F6E74FF480710748FFF7DA
:101430002EFB012807D1C1020448FFF728FB012831
:1014400001D1034908700020E5E7000000080140D1
:101450003200002008B501210820FFF741FD4FF4BC
:101460004060ADF8000010208DF8030003208DF8D7
:1014700002006946FC48FFF777FA0120FB49086043
:10148000FB49C1F8AC0108BD10B50120F74908605F
:10149000F749C1F8AC01FEF7F0FF0020F349091D40
:1014A0000860F349C1F8A80110BD10B50020EF494C
:1014B0000860EF49C1F8AC010120FEF7DEFF012012
:1014C000EA490860EA49C1F8AC0110BD70B50446AC
:1014D000002518E004F0800020B10120E349091D37
:1014E000086003E00020E149091D08600120DF4990
:1014F0000860FEF7C2FF0020DD49C1F8A8016006C0
:10150000040E681CC5B2082DE4DB0120D749091D73
:101510000860D749C1F8A801FEF7AFFF0020D34902
:10152000086070BD10B50446FFF7AEFF7820FFF7E6
:10153000CDFF4020FFF7CAFF2046FFF7C7FFFFF7A8
:10154000B4FF10BD10B50446FFF79EFF7820FFF7EB
:10155000BDFF0020FFF7BAFF2046FFF7B7FFFFF7F8
:10156000A4FF10BD70B504460D4605F1B001C8B228
:10157000FFF7E8FF102141EA1410FFF7E3FF04F042
:101580000F0141F00100FFF7DDFF70BD70B50646A9
:10159000002415E004F1B001C8B2FFF7D3FF012029
:1015A000FFF7D0FF1020FFF7CDFF002504E0304605
:1015B000FFF7B8FF681CC5B2802DF8DB601CC4B211
:1015C000082CE7DB70BD70B5002415E004F1B00114
:1015D000C8B2FFF7B7FF0120FFF7B4FF1020FFF7F5
:1015E000B1FF002504E00020FFF79CFF681CC5B296
:1015F000802DF8DB601CC4B2082CE7DB70BD10B591
:101600004FF4FA70FEF75DFFAE20FFF79BFF00205E
:10161000FFF798FF1020FFF795FF4020FFF792FF9C
:101620008120FFF78FFFCF20FFF78CFFA120FFF76E
:1016300089FFC820FFF786FFA620FFF783FFA820B9
:10164000FFF780FF3F20FFF77DFFD320FFF77AFFF2
:101650000020FFF777FFD520FFF774FF8020FFF70A
:1016600071FFD920FFF76EFFF120FFF76BFFDA2043
:10167000FFF768FF1220FFF765FFDB20FFF762FF2F
:101680004020FFF75FFF2020FFF75CFF0220FFF7FD
:1016900059FF8D20FFF756FF1420FFF753FFA420BA
:1016A000FFF750FFA620FFF74DFFAF20FFF74AFFDF
:1016B0000020FFF76BFF00210846FFF753FF10BD26
:1016C0002DE9F0470446884615464FF000090026EC
:1016D000002720E0E85D203800F0FF097E2C04DDC3
:1016E000002408F1010000F0FF0841462046FFF702
:1016F00039FF002609E009EB49015E4A02EB41018E
:10170000885DFFF70FFF701CC6B2062EF3DBA01D2D
:10171000C4B2781CC7B2E85D0028DBD1BDE8F08711
:101720002DE9F04706460F46904600250024A146C5
:1017300031E018F809002038C5B2782E02DD002605
:10174000781CC7B239463046FFF70CFF002407E08B
:1017500004EB0511484A505CFFF7E4FE601CC4B27C
:10176000082CF5DB781CC1B23046FFF7FBFE0024E5
:1017700008E004EB051108313F4A505CFFF7D2FE48
:10178000601CC4B2082CF4DB06F10800C6B209F1F3
:10179000010000F0FF0918F809000028C9D1BDE8D0
:1017A000F0872DE9F04180460E46174600247D0162
:1017B00031464046FFF7D6FE00BF06E02F49485DA0
:1017C000FFF7B0FE6D1C601CC4B2102CF6DB701C61
:1017D000C1B24046FFF7C6FE002406E02749485D37
:1017E000FFF7A0FE6D1C601CC4B2102CF6DBBDE838
:1017F000F0812DE9F05F06460F4690461C46DDF865
:1018000028A04FF0000BE11704EB5171C910A4EBB5
:10181000C10131B92046E11704EB5171C1F3C7058D
:1018200006E02046E11704EB5171C910491CCDB206
:101830003D4614E029463046FFF794FEB1460AE0E3
:1018400059460BF1010B1AF80100FFF76BFE09F185
:10185000010000F0FF09C145F2DB681CC5B2A542DA
:10186000E8DBBDE8F09F0000000C0140A8812142A8
:1018700000802142E026000808290008E022000834
:101880000EB5FFF795FD01210846FFF729FB08215A
:101890000020FFF77FF94FF48070019000208DF851
:1018A00008000C208DF8090001A8FEF77DFF0B2130
:1018B0000020FFF76FF94FF40060019001A8FEF7D8
:1018C00073FF17208DF8000002208DF80100012021
:1018D0008DF802008DF803006846FEF7EEFE282022
:1018E0008DF8000002208DF8010000208DF8020024
:1018F00001208DF803006846FEF7DFFE0EBD10B52F
:101900000A20FEF7DEFD4FF480712148FFF7BFF893
:10191000A8B920480068204908441E4908600846C4
:1019200040681D4908441B4948600846016800207A
:1019300000F0FAF817480168012000F0F5F82020BF
:10194000FEF7A9FF10BD10B50A20FEF7BAFD4FF44F
:1019500000610F48FFF79BF8A8B90E4800680E49D0
:10196000401A0C490860084640680B49401A09496A
:10197000486008460168002000F0D6F80548016874
:10198000012000F0D1F84FF40040FEF784FF10BDB5
:10199000000801403400002040420F0008B501213A
:1019A0000420FFF79DFA01210820FFF799FA48F279
:1019B000FF00ADF8000010208DF8030003208DF823
:1019C00002006946D448FEF7CFFF47F2F930ADF880
:1019D00000006946D148FEF7C7FF4FF40071CF48B9
:1019E000FFF76FF808BD10B5024601200123CC4C6B
:1019F000236002EA00030BB1012300E00023C84C7E
:101A0000243C23604306180E02EA00030BB10123B5
:101A100000E00023C24C203C23604306180E02EA7B
:101A200000030BB1012300E00023BD4C1C3C2360EC
:101A30004306180E02EA00030BB1012300E0002365
:101A4000B74C183C23604306180E02EA00030BB1A2
:101A5000012300E00023B24C143C23604306180E1F
:101A600002EA00030BB1012300E00023AC4C103C60
:101A70002360012001EA00030BB1012300E00023F1
:101A8000A84C23604306180E01EA00030BB10123A2
:101A900000E00023A34C241D23604306180E01EA36
:101AA00000030BB1012300E000239E4C08342360A7
:101AB0004306180E01EA00030BB1012300E00023E6
:101AC000984C0C3423604306180E01EA00030BB156
:101AD000012300E00023934C103423604306180ECA
:101AE00001EA00030BB1012300E000238D4C143404
:101AF00023604306180E01EA00030BB1012300E046
:101B00000023884C183423604306180E01EA0003B2
:101B10000BB1012300E00023824C1C34236000231E
:101B2000814CC4F8B03110BD2DE9FC5F81460C46F4
:101B3000B9F1000F42D00020794908607B49C1F813
:101B4000BC0100210E20FFF74EFF00210F20FFF700
:101B50004AFF7748007800F0B2FA07463A460B464B
:101B60007448754900F026F905460E46204600F0F7
:101B7000A6FA2A463346CDE9000100F0B3FA8246C0
:101B800000F070FA0446E1B20D20FFF72CFFC4F319
:101B900007210C20FFF727FFC4F307410B20FFF7B5
:101BA00022FF210E0A20FFF71EFF01205D493C3174
:101BB000086000205D49C1F8BC0141E0002058499F
:101BC00008605A49C1F8BC0100210820FFF70BFF4B
:101BD00000210920FFF707FF5548007800F06FFA51
:101BE000824652460B465348534900F0E3F80546F7
:101BF0000E46204600F063FA07462A46334600F0B8
:101C000071FACDE9000100F02DFA0446E1B2072097
:101C1000FFF7E9FEC4F307210620FFF7E4FEC4F353
:101C200007410520FFF7DFFE210E0420FFF7DBFE52
:101C300001203C493C31086000203C49C1F8BC010E
:101C4000BDE8FC9F30B505460C46002034490860CD
:101C50003649C1F8BC014DB1C4F307212320FFF779
:101C6000C2FEE1B22420FFF7BEFE08E0C4F3072164
:101C70002120FFF7B8FEE1B22220FFF7B4FE0120D9
:101C800028493C31086000202849C1F8BC0130BD1A
:101C900010B542F21070294908604860FFF77EFED7
:101CA00000201F4908602149C1F8BC0100211D2006
:101CB000FFF799FE4A211E20FFF795FE00211F2005
:101CC000FFF791FE60212020FFF78DFE01201549CE
:101CD0003C31086000201549C1F8BC011748016873
:101CE0000020FFF721FF154841680120FFF71CFF86
:101CF000134801680020FFF7A5FF11484168012043
:101D0000FFF7A0FF012007493C3108600020074988
:101D1000C1F8BC0110BD000000080140000C0140EA
:101D2000B0812142800121420080214200002142F5
:101D30004800002048AFBC9AF2D77A403400002017
:101D40003C000020704770477047704770477546E9
:101D500000F02CF8AE4605006946534620F0070017
:101D6000854618B020B5FEF791FCBDE820404FF045
:101D700000064FF000074FF000084FF0000B21F075
:101D80000701AC46ACE8C009ACE8C009ACE8C00942
:101D9000ACE8C0098D46704710B50446AFF300802B
:101DA0002046BDE81040FEF70ABA00000048704720
:101DB000140100202DE9C04130B4DFF8A0C23CEA94
:101DC000111418BF3CEA131400F0EC8081EA0305FB
:101DD0001CEA111444EAD57418BF1CEA131500F06C
:101DE000C780A4EB05044FF0004545EAC12145EA50
:101DF000C32341EA505143EA525304F17F7499429C
:101E000004F500344FEAC0204FEAC22208BF9042D6
:101E100000F09C804FEA13650FF24016765D4FEAA2
:101E2000134506FB05F7C7F1807706FB07F74FEA76
:101E3000D737A7FB03687642C8F58038A7FB06CEE4
:101E400038BFA8F1010807FB08E64FF0000EA6FB1B
:101E5000028CE6FB03CEDCF1000CCEF1004E38BF65
:101E6000AEF1010EA6FB0C584FF000074FF0000535
:101E7000E6FB0E87A1FB08C6A0FB07CE16EB0E06FD
:101E800045F10005E1FB076515F1E04E7EBFA4F5C5
:101E900080345FEA46066D4116F1800745F1000582
:101EA0004FEA17274FEA066647EA0567A6F1DE46BE
:101EB000B6F1805F4FEA15251FD9384624F0010C92
:101EC00005EBC471BCF1FE6F01EB0C1102D8F0BC44
:101ED000BDE8008124425CBF01F5801E9EEAC47FFC
:101EE00002D4F0BCBDE80081244238D4F0BCA1F19A
:101EF000C041BDE8004100F0EDB94FEAD22242EA0C
:101F000043524FEAD323A7FB02864FEAD02040EA90
:101F1000415007FB03661EEA0E0F4FEAD12105FB75
:101F2000026658BFA6EB0056B6EB00564FEA520EBB
:101F30004EEAC37E18EB0E0E56EB530EBDD518EBD2
:101F400002085E417F1C55F10005B6E74FF480158D
:101F50004FF000074FF000064FF00008ADE7F0BC6F
:101F60004FF0000001F1C04101F00041BDE80081E7
:101F700011EA0C1F0CEA131500D00CE013EA0C1F39
:101F800000F025804FF00000F0BC81EA030101F071
:101F90000041BDE80081F0BCBDE8004181EA0301D9
:101FA00000F098B9F0BCBDE8004170B500F044F90C
:101FB000097EFC3E00F007B881EA03014FF0000003
:101FC00001F00041704781EA030100F083B9F0BCE1
:101FD000BDE800414FF0000021497047FFFDFBF9CB
:101FE000F7F5F4F2F0EEEDEBE9E8E6E4E3E1E0DE4C
:101FF000DDDBDAD8D7D5D4D3D1D0CFCDCCCBCAC8BE
:10200000C7C6C5C4C2C1C0BFBEBDBCBBBAB9B8B7E4
:10201000B6B5B4B3B2B1B0AFAEADACABAAA9A8A8D7
:10202000A7A6A5A4A3A3A2A1A09F9F9E9D9C9C9BA5
:102030009A99999897979695959493939291919050
:102040008F8F8E8E8D8C8C8B8B8A898988888787E1
:102050008685858484838382828181800000FF0756
:102060000000F87F4FEA1153A3F58063D3F11E03FC
:10207000A8BFD3F1200C08DB4FF0004242EAC12296
:1020800052EA505232FA03F0704709420BD4102B37
:10209000C4BF0020704703F5787CBCF1FF3F05D03A
:1020A0004FF0FF3070474FF00000704770B500F000
:1020B000C3F800BF4992248000207047F0E7B0FACF
:1020C00080F310FA03F10AD0C3F11D0303F5806316
:1020D0004FEA41504FEA035202EBD12170474FF0D3
:1020E00000007047DFF848C170B51CEA111E1EBF22
:1020F0001CEA13159EEA0C0F95EA0C0F00F06F8096
:1021000081EA030423EA4C134EEAD47E21EA4C11FF
:1021100041F4801143F48013AE44A1FB024CA0FBB8
:102120000365AEF17F7E361955EB0C05A1FB034C20
:102130004CF10003A0FB021C16EB0C06654153F1A9
:102140000003094218BF46F0010613F4007F0BD1CB
:102150004FEA03314FEA0530340341EA155140EAB2
:1021600016506FF003020AE04FEAC3214FEAC52080
:10217000F40241EA555140EA56506FF0020202EB78
:102180002E4201EB025585EACE710AD05FEA440C7B
:1021900018BF24F0004450F1000041F1000120EA92
:1021A000D47040F2FE7C624500D270BDA84214BFDC
:1021B0004FF080444FF04044002E08BF0024BEF191
:1021C000806FA8BFA1F1C041BDE8704080F282805D
:1021D0004FF0000001F1C04101F0004170479EEA5C
:1021E0000C0F0CEA131518BF95EA0C0F06D04FF030
:1021F000000081EA030E0EF0004170BD00F01CF8F3
:102200008900013E00F007B800F009B84FEA430C1E
:102210005FEA5C5C08D081EA030100F05BB84FEA3A
:10222000410C5FEA5C5CF6D14FF000000149704759
:102230000000FF070000F87F0EF1020E2EF0030EE3
:102240005EF8046B364205D4012A43EB030515F50D
:10225000001F12D8012841EB010C1CF5001F0CD8FF
:102260000ED14FEAD17C15F5001F0CEB4C0C0CF194
:10227000020C08BF4CEBD37C04E04FF0080C01E0EB
:102280004FEAD37C0CEB4C0526FA05F606F0070660
:10229000B6F1040C06D20EEB860CBDE870404CF093
:1022A000010C6047DFE80CF0090B02024FF000411F
:1022B0004FF00000A1F5002170BD1946104601281D
:1022C00051EB010418BFD4F5001484BF002001F0C5
:1022D000004170BD0808A0F500114FEA31017047B8
:1022E00000000000000000000000000000000000EE
:1022F00000000000000000000000000000000000DE
:10230000000202FAFAAAAAFFFFAAAAFAFA02020037
:10231000004272723A7A424B5B52626213776600F5
:10232000203C1CFFFFB0B424243F3FE4E4242420DD
:10233000020203FFFF0001051D59C1FF7F010101DA
:10234000000000F8F8484C4F4B4A4848F8F80000A5
:10235000000000FFFF44444444444444FFFF0000A5
:10236000202424E4E42424243010FFFF10F0F000A3
:10237000081C1F0B0C0D4F6E341C0F23607F3F0099
:1023800080C060F8FF070200FFFFE0703C1C0800FF
:102390000000007F7F0406033F7F404040787800C4
:1023A000000000000000000000000000000000002D
:1023B000000000000000000000000000000000001D
:1023C000000000000000000000000000000000000D
:1023D00000000000000000000000000000000000FD
:1023E00010218670007E4A4A4A4A4A7E0000000058
:1023F00002FE01407F41417F41417F41417F4000DA
:102400000000FC042424FCA5A6A4FC24242404002D
:1024100080601F808042462A12122A2642C0400055
:10242000080808FF8848009848280A2C48D808005F
:102430000242817F0000404242427E4242424000CE
:1024400000504F4A48FF48484800FC0000FF000089
:1024500000003F0101FF21613F000F40807F00002D
:1024600000908CA4A4A4A5A6A4A4A4A4948C040065
:102470000080402018070000003F404040700000EE
:10248000000474D4FFD47404100CB744B40C0400DA
:102490000042437A4342437E4B4B4A4A4243010047
:1024A000080808080808F94A4C4848C808080800FD
:1024B000404020100C0300002040403F000000007E
:1024C00000202C246474ADA6E43424242C240000C1
:1024D0000024242515150DFE040D17142464240072
:1024E000000000F848484C4B4A484848F8000000B3
:1024F000000000FF4444444444444444FF000000BE
:10250000202424E4242424201010FF1010F00000C4
:10251000081C0B080C054E24100C0320403F000043
:10252000080808FF8848009848280A2C48D808005E
:102530000242817F0000404242427E4242424000CD
:1025400000504F4A48FF48484800FC0000FF000088
:1025500000003F0101FF21613F000F40807F00002C
:102560000807FAAAAEAAAAA8ACABAAFE0A02020001
:1025700008088B6A1E0A0A0A0AFE0A0B08080800E5
:10258000106001C63000101010FF10101010000075
:102590000404FE01004161514D43414151E10100FC
:1025A0004041CE04008040BE828282BEC0404000D6
:1025B00000007F20908040432C10102C43C040002E
:1025C00020212EE4000020202020FF2020202000B9
:1025D0000000007F201008000000FF000000000045
:1025E0000000F848484848FF48484848F8000000BC
:1025F00000000F040404043F444444444F4070006E
:1026000000000202020202E2120A0602008000003A
:10261000010101010141817F01010101010101006D
:102620000020202222E2222222E222222220200056
:10263000004020100C030000003F4040404070006C
:102640004020F80F82601E1410FF101010100000C0
:102650000000FF000101010101FF01010101010072
:10266000000000007E4848484848484848CC0800D8
:10267000000404040404040404244644201F00004D
:10268000849494FF949480242424FC121312000058
:10269000201806FF021C0A0202023F41414171005C
:1026A0001010D0FE509000101010D0FE101010002E
:1026B000080601FF000110080443807F00000000AD
:1026C0009088A7A2A6BAA2F8A7A2A6BAA282800062
:1026D00000040404040C340444847F040404000053
:1026E0000000000000000000002F000000000700B4
:1026F000070000147F147F1400242A7F2A1200622E
:1027000064081323003649552250000005030000D9
:1027100000001C224100000041221C000014083E61
:1027200008140008083E0808000000A06000000827
:10273000080808080000606000000020100804027B
:10274000003E5149453E0000427F40000042615139
:102750004946002141454B31001814127F100027D3
:1027600045454539003C4A49493000017109050396
:1027700000364949493600064949291E00003636C7
:10278000000000005636000000081422410000142A
:102790001414141400004122140800020151090607
:1027A00000324959513E007C1211127C007F494988
:1027B0004936003E41414122007F4141221C007FB9
:1027C00049494941007F09090901003E4149497AC7
:1027D000007F0808087F0000417F41000020404141
:1027E0003F01007F08142241007F40404040007FAD
:1027F000020C027F007F0408107F003E4141413EF1
:10280000007F09090906003E4151215E007F091938
:1028100029460046494949310001017F0101003F35
:102820004040403F001F2040201F003F4038403FB5
:102830000063140814630007087008070061514919
:10284000454300007F41410000552A552A550000AC
:1028500041417F000004020102040040404040402A
:10286000000001020400002054545478007F4844C2
:10287000443800384444442000384444487F0038F9
:102880005454541800087E0901020018A4A4A47C22
:10289000007F080404780000447D400000408084EC
:1028A0007D00007F102844000000417F4000007C34
:1028B00004180478007C0804047800384444443840
:1028C00000FC242424180018242418FC007C08048C
:1028D000040800485454542000043F444020003C65
:1028E0004040207C001C2040201C003C4030403CEC
:1028F000004428102844001CA0A0A07C004464547C
:102900004C441414141414140000000000000000BF
:102910000000000000000000000000F800000000BF
:10292000000000333000000000100C06100C060000
:10293000000000000000000040C07840C078400067
:10294000043F04043F040400007088FC08300000C9
:10295000001820FF211E0000F008F000E018000021
:1029600000211C031E211E0000F0088870000000DA
:102970001E2123241927211010160E00000000002C
:102980000000000000000000000000E01804020049
:10299000000000071820400000020418E0000000BA
:1029A0000040201807000000404080F080404000B8
:1029B0000202010F01020200000000F0000000000E
:1029C0000101011F010101000000000000000000E2
:1029D00080B0700000000000000000000000000057
:1029E00000010101010101010000000000000000E0
:1029F000003030000000000000000000806018047B
:102A0000006018060100000000E010080810E00057
:102A1000000F102020100F00001010F80000000020
:102A20000020203F20200000007008080888700067
:102A300000302824222130000030088888483000E7
:102A40000018202020110E000000C02010F8000007
:102A500000070424243F240000F8088888080800A0
:102A60000019212020110E0000E0108888180000B5
:102A7000000F112020110E0000380808C838080087
:102A80000000003F00000000007088080888700007
:102A9000001C222121221C0000E010080810E00088
:102AA0000000312222110F00000000C0C000000011
:102AB0000000003030000000000000800000000036
:102AC000000080600000000000008040201008002E
:102AD00000010204081020004040404040404000F7
:102AE00004040404040404000008102040800000D2
:102AF0000020100804020100007048080808F000D7
:102B00000000003036010000C030C828E810E000A6
:102B10000718272423140B000000C038E000000031
:102B2000203C23020227382008F88888887000009B
:102B3000203F202020110E00C0300808080838006F
:102B4000071820202010080008F808080810E000E6
:102B5000203F202020100F0008F88888E808100087
:102B6000203F20202320180008F88888E80810005B
:102B7000203F200003000000C03008080838000093
:102B800007182020221E020008F808000008F80894
:102B9000203F210101213F20000808F8080800001B
:102BA0000020203F2020000000000808F80808004E
:102BB000C08080807F00000008F888C028180800C6
:102BC000203F20012638200008F8080000000000FF
:102BD000203F20202020300008F8F800F8F80800F6
:102BE000203F003F003F200008F830C00008F808F0
:102BF000203F200007183F00E01008080810E00000
:102C00000F10202020100F0008F808080808F00016
:102C1000203F210101010000E01008080810E00039
:102C20000F18242438504F0008F8888888887000CE
:102C3000203F2000030C302000708808080838006E
:102C40000038202121221C00180808F80808180064
:102C50000000203F2000000008F808000008F808E5
:102C6000001F202020201F000878880000C8380896
:102C7000000007380E010000F80800F80008F8000E
:102C8000033C0700073C03000818688080681808A8
:102C900020302C03032C30200838C800C838080026
:102CA0000000203F2000000010080808C838080075
:102CB0002038262120201800000000FE0202020019
:102CC0000000007F40404000000C30C000000000C9
:102CD000000000010638C00000020202FE000000F1
:102CE000004040407F000000000004020202040097
:102CF00000000000000000000000000000000000D4
:102D000080808080808080800002020400000000BB
:102D100000000000000000000000808080800000B3
:102D20000019242222223F2008F8008080000000A1
:102D3000003F112020110E00000000808080000064
:102D4000000E112020201100000000808088F80073
:102D5000000E112020103F200000808080800000A5
:102D6000001F222222221300008080F08888881809
:102D70000020203F20200000000080808080800014
:102D8000006B94949493600008F8008080800000A9
:102D9000203F210000203F20008098980000000084
:102DA0000020203F202000000000008098980000B4
:102DB00000C08080807F000008F8000080808000D4
:102DC000203F24022D302000000808F800000000F9
:102DD0000020203F202000008080808080808000B4
:102DE000203F20003F20003F808000808080000046
:102DF000203F210000203F200000808080800000D4
:102E0000001F202020201F00808000808000000004
:102E100080FFA12020110E00000000808080800033
:102E2000000E112020A0FF80808080008080800024
:102E300020203F2120000100000080808080800051
:102E40000033242424241900008080E080800000C6
:102E50000000001F20200000808000000080800013
:102E6000001F202020103F20808080000080808074
:102E700000010E3008060100808000800080808004
:102E80000F300C030C300F00008080008080800029
:102E90000020312E0E312000808080000080808054
:102EA00080818E7018060100008080808080800004
:102EB0000021302C2221300000000000807C020222
:102EC00000000000003F404000000000FF00000044
:102ED00000000000FF0000000002027C80000000F3
:102EE0000040403F0000000000060101020204040F
:102EF0000000000000000000182F00080000002063
:102F00004C0000006C010008642F00084C000020F9
:102F10002C0700008801000800A24A0400000000FD
:102F20000000000001020304060708090000000079
:102F30000000000000000000000001020304010284
:102F40000304060708090204060801000000000047
:102F500000000000FF0F0000FF0F00005A000000FB
:042F60001900000054
:0400000508000131BD
:00000001FF
